{
	"Insurance Project(Solidit_REMIX)/contracts/AddUsers.sol": {
		"AddUser": {
			"abi": [
				{
					"inputs": [],
					"stateMutability": "nonpayable",
					"type": "constructor"
				},
				{
					"inputs": [
						{
							"internalType": "uint256",
							"name": "_insurNo",
							"type": "uint256"
						}
					],
					"name": "addNewInsurance",
					"outputs": [],
					"stateMutability": "nonpayable",
					"type": "function"
				},
				{
					"inputs": [
						{
							"internalType": "string",
							"name": "_name",
							"type": "string"
						},
						{
							"internalType": "uint256",
							"name": "_insurance_no",
							"type": "uint256"
						}
					],
					"name": "addUser",
					"outputs": [],
					"stateMutability": "nonpayable",
					"type": "function"
				},
				{
					"inputs": [
						{
							"internalType": "address",
							"name": "_user",
							"type": "address"
						}
					],
					"name": "getInsuranceCount",
					"outputs": [
						{
							"internalType": "uint256",
							"name": "",
							"type": "uint256"
						}
					],
					"stateMutability": "view",
					"type": "function"
				},
				{
					"inputs": [
						{
							"internalType": "address",
							"name": "_user",
							"type": "address"
						}
					],
					"name": "getInsuranceNumber",
					"outputs": [
						{
							"internalType": "uint256[]",
							"name": "",
							"type": "uint256[]"
						}
					],
					"stateMutability": "view",
					"type": "function"
				},
				{
					"inputs": [
						{
							"internalType": "int256",
							"name": "_user_Id",
							"type": "int256"
						}
					],
					"name": "getUser",
					"outputs": [
						{
							"components": [
								{
									"internalType": "int256",
									"name": "User_Id",
									"type": "int256"
								},
								{
									"internalType": "string",
									"name": "Name",
									"type": "string"
								},
								{
									"internalType": "uint256",
									"name": "Insurance_NO",
									"type": "uint256"
								},
								{
									"internalType": "address",
									"name": "UserAddress",
									"type": "address"
								}
							],
							"internalType": "struct AddUser.User",
							"name": "",
							"type": "tuple"
						}
					],
					"stateMutability": "view",
					"type": "function"
				},
				{
					"inputs": [
						{
							"internalType": "int256",
							"name": "",
							"type": "int256"
						}
					],
					"name": "myUsers",
					"outputs": [
						{
							"internalType": "int256",
							"name": "User_Id",
							"type": "int256"
						},
						{
							"internalType": "string",
							"name": "Name",
							"type": "string"
						},
						{
							"internalType": "uint256",
							"name": "Insurance_NO",
							"type": "uint256"
						},
						{
							"internalType": "address",
							"name": "UserAddress",
							"type": "address"
						}
					],
					"stateMutability": "view",
					"type": "function"
				},
				{
					"inputs": [],
					"name": "owner",
					"outputs": [
						{
							"internalType": "address",
							"name": "",
							"type": "address"
						}
					],
					"stateMutability": "view",
					"type": "function"
				},
				{
					"inputs": [],
					"name": "userCount",
					"outputs": [
						{
							"internalType": "int256",
							"name": "",
							"type": "int256"
						}
					],
					"stateMutability": "view",
					"type": "function"
				}
			],
			"devdoc": {
				"kind": "dev",
				"methods": {},
				"version": 1
			},
			"evm": {
				"assembly": "    /* \"Insurance Project(Solidit_REMIX)/contracts/AddUsers.sol\":73:2131  contract AddUser {... */\n  mstore(0x40, 0x80)\n    /* \"Insurance Project(Solidit_REMIX)/contracts/AddUsers.sol\":538:539  0 */\n  0x00\n    /* \"Insurance Project(Solidit_REMIX)/contracts/AddUsers.sol\":515:539  int public userCount = 0 */\n  0x03\n  sstore\n    /* \"Insurance Project(Solidit_REMIX)/contracts/AddUsers.sol\":580:639  constructor() {... */\n  callvalue\n  dup1\n  iszero\n  tag_1\n  jumpi\n  0x00\n  dup1\n  revert\ntag_1:\n  pop\n    /* \"Insurance Project(Solidit_REMIX)/contracts/AddUsers.sol\":617:627  msg.sender */\n  caller\n    /* \"Insurance Project(Solidit_REMIX)/contracts/AddUsers.sol\":609:614  owner */\n  0x00\n  dup1\n    /* \"Insurance Project(Solidit_REMIX)/contracts/AddUsers.sol\":609:627  owner = msg.sender */\n  0x0100\n  exp\n  dup2\n  sload\n  dup2\n  0xffffffffffffffffffffffffffffffffffffffff\n  mul\n  not\n  and\n  swap1\n  dup4\n  0xffffffffffffffffffffffffffffffffffffffff\n  and\n  mul\n  or\n  swap1\n  sstore\n  pop\n    /* \"Insurance Project(Solidit_REMIX)/contracts/AddUsers.sol\":73:2131  contract AddUser {... */\n  dataSize(sub_0)\n  dup1\n  dataOffset(sub_0)\n  0x00\n  codecopy\n  0x00\n  return\nstop\n\nsub_0: assembly {\n        /* \"Insurance Project(Solidit_REMIX)/contracts/AddUsers.sol\":73:2131  contract AddUser {... */\n      mstore(0x40, 0x80)\n      callvalue\n      dup1\n      iszero\n      tag_1\n      jumpi\n      0x00\n      dup1\n      revert\n    tag_1:\n      pop\n      jumpi(tag_2, lt(calldatasize, 0x04))\n      shr(0xe0, calldataload(0x00))\n      dup1\n      0x9e8a8d6c\n      gt\n      tag_11\n      jumpi\n      dup1\n      0x9e8a8d6c\n      eq\n      tag_7\n      jumpi\n      dup1\n      0xa69f554d\n      eq\n      tag_8\n      jumpi\n      dup1\n      0xd0f86c9d\n      eq\n      tag_9\n      jumpi\n      dup1\n      0xf8cf1d19\n      eq\n      tag_10\n      jumpi\n      jump(tag_2)\n    tag_11:\n      dup1\n      0x07973ccf\n      eq\n      tag_3\n      jumpi\n      dup1\n      0x1c5220c2\n      eq\n      tag_4\n      jumpi\n      dup1\n      0x6723e269\n      eq\n      tag_5\n      jumpi\n      dup1\n      0x8da5cb5b\n      eq\n      tag_6\n      jumpi\n    tag_2:\n      0x00\n      dup1\n      revert\n        /* \"Insurance Project(Solidit_REMIX)/contracts/AddUsers.sol\":515:539  int public userCount = 0 */\n    tag_3:\n      tag_12\n      tag_13\n      jump\t// in\n    tag_12:\n      mload(0x40)\n      tag_14\n      swap2\n      swap1\n      tag_15\n      jump\t// in\n    tag_14:\n      mload(0x40)\n      dup1\n      swap2\n      sub\n      swap1\n      return\n        /* \"Insurance Project(Solidit_REMIX)/contracts/AddUsers.sol\":913:1462  function addUser(string memory _name, uint _insurance_no) public {... */\n    tag_4:\n      tag_16\n      0x04\n      dup1\n      calldatasize\n      sub\n      dup2\n      add\n      swap1\n      tag_17\n      swap2\n      swap1\n      tag_18\n      jump\t// in\n    tag_17:\n      tag_19\n      jump\t// in\n    tag_16:\n      stop\n        /* \"Insurance Project(Solidit_REMIX)/contracts/AddUsers.sol\":1955:2124  function addNewInsurance(uint _insurNo) public  {... */\n    tag_5:\n      tag_20\n      0x04\n      dup1\n      calldatasize\n      sub\n      dup2\n      add\n      swap1\n      tag_21\n      swap2\n      swap1\n      tag_22\n      jump\t// in\n    tag_21:\n      tag_23\n      jump\t// in\n    tag_20:\n      stop\n        /* \"Insurance Project(Solidit_REMIX)/contracts/AddUsers.sol\":111:131  address public owner */\n    tag_6:\n      tag_24\n      tag_25\n      jump\t// in\n    tag_24:\n      mload(0x40)\n      tag_26\n      swap2\n      swap1\n      tag_27\n      jump\t// in\n    tag_26:\n      mload(0x40)\n      dup1\n      swap2\n      sub\n      swap1\n      return\n        /* \"Insurance Project(Solidit_REMIX)/contracts/AddUsers.sol\":1642:1780  function getInsuranceCount(address _user) public view OnlyOwner returns (uint) {... */\n    tag_7:\n      tag_28\n      0x04\n      dup1\n      calldatasize\n      sub\n      dup2\n      add\n      swap1\n      tag_29\n      swap2\n      swap1\n      tag_30\n      jump\t// in\n    tag_29:\n      tag_31\n      jump\t// in\n    tag_28:\n      mload(0x40)\n      tag_32\n      swap2\n      swap1\n      tag_33\n      jump\t// in\n    tag_32:\n      mload(0x40)\n      dup1\n      swap2\n      sub\n      swap1\n      return\n        /* \"Insurance Project(Solidit_REMIX)/contracts/AddUsers.sol\":1792:1943  function getInsuranceNumber(address _user) public view  OnlyOwner returns (uint[] memory) {... */\n    tag_8:\n      tag_34\n      0x04\n      dup1\n      calldatasize\n      sub\n      dup2\n      add\n      swap1\n      tag_35\n      swap2\n      swap1\n      tag_30\n      jump\t// in\n    tag_35:\n      tag_36\n      jump\t// in\n    tag_34:\n      mload(0x40)\n      tag_37\n      swap2\n      swap1\n      tag_38\n      jump\t// in\n    tag_37:\n      mload(0x40)\n      dup1\n      swap2\n      sub\n      swap1\n      return\n        /* \"Insurance Project(Solidit_REMIX)/contracts/AddUsers.sol\":1506:1630  function getUser(int _user_Id) public view returns (User memory) {        ... */\n    tag_9:\n      tag_39\n      0x04\n      dup1\n      calldatasize\n      sub\n      dup2\n      add\n      swap1\n      tag_40\n      swap2\n      swap1\n      tag_41\n      jump\t// in\n    tag_40:\n      tag_42\n      jump\t// in\n    tag_39:\n      mload(0x40)\n      tag_43\n      swap2\n      swap1\n      tag_44\n      jump\t// in\n    tag_43:\n      mload(0x40)\n      dup1\n      swap2\n      sub\n      swap1\n      return\n        /* \"Insurance Project(Solidit_REMIX)/contracts/AddUsers.sol\":651:687  mapping (int => User) public myUsers */\n    tag_10:\n      tag_45\n      0x04\n      dup1\n      calldatasize\n      sub\n      dup2\n      add\n      swap1\n      tag_46\n      swap2\n      swap1\n      tag_41\n      jump\t// in\n    tag_46:\n      tag_47\n      jump\t// in\n    tag_45:\n      mload(0x40)\n      tag_48\n      swap5\n      swap4\n      swap3\n      swap2\n      swap1\n      tag_49\n      jump\t// in\n    tag_48:\n      mload(0x40)\n      dup1\n      swap2\n      sub\n      swap1\n      return\n        /* \"Insurance Project(Solidit_REMIX)/contracts/AddUsers.sol\":515:539  int public userCount = 0 */\n    tag_13:\n      sload(0x03)\n      dup2\n      jump\t// out\n        /* \"Insurance Project(Solidit_REMIX)/contracts/AddUsers.sol\":913:1462  function addUser(string memory _name, uint _insurance_no) public {... */\n    tag_19:\n        /* \"Insurance Project(Solidit_REMIX)/contracts/AddUsers.sol\":1006:1007  1 */\n      0x01\n        /* \"Insurance Project(Solidit_REMIX)/contracts/AddUsers.sol\":993:1002  userCount */\n      0x03\n      0x00\n        /* \"Insurance Project(Solidit_REMIX)/contracts/AddUsers.sol\":993:1007  userCount += 1 */\n      dup3\n      dup3\n      sload\n      tag_51\n      swap2\n      swap1\n      tag_52\n      jump\t// in\n    tag_51:\n      swap3\n      pop\n      pop\n      dup2\n      swap1\n      sstore\n      pop\n        /* \"Insurance Project(Solidit_REMIX)/contracts/AddUsers.sol\":1082:1270  User({... */\n      mload(0x40)\n      dup1\n      0x80\n      add\n      0x40\n      mstore\n      dup1\n        /* \"Insurance Project(Solidit_REMIX)/contracts/AddUsers.sol\":1115:1124  userCount */\n      sload(0x03)\n        /* \"Insurance Project(Solidit_REMIX)/contracts/AddUsers.sol\":1082:1270  User({... */\n      dup2\n      mstore\n      0x20\n      add\n        /* \"Insurance Project(Solidit_REMIX)/contracts/AddUsers.sol\":1149:1154  _name */\n      dup4\n        /* \"Insurance Project(Solidit_REMIX)/contracts/AddUsers.sol\":1082:1270  User({... */\n      dup2\n      mstore\n      0x20\n      add\n        /* \"Insurance Project(Solidit_REMIX)/contracts/AddUsers.sol\":1187:1200  _insurance_no */\n      dup3\n        /* \"Insurance Project(Solidit_REMIX)/contracts/AddUsers.sol\":1082:1270  User({... */\n      dup2\n      mstore\n      0x20\n      add\n        /* \"Insurance Project(Solidit_REMIX)/contracts/AddUsers.sol\":1232:1242  msg.sender */\n      caller\n        /* \"Insurance Project(Solidit_REMIX)/contracts/AddUsers.sol\":1082:1270  User({... */\n      0xffffffffffffffffffffffffffffffffffffffff\n      and\n      dup2\n      mstore\n      pop\n        /* \"Insurance Project(Solidit_REMIX)/contracts/AddUsers.sol\":1061:1068  myUsers */\n      0x04\n        /* \"Insurance Project(Solidit_REMIX)/contracts/AddUsers.sol\":1061:1079  myUsers[userCount] */\n      0x00\n        /* \"Insurance Project(Solidit_REMIX)/contracts/AddUsers.sol\":1069:1078  userCount */\n      sload(0x03)\n        /* \"Insurance Project(Solidit_REMIX)/contracts/AddUsers.sol\":1061:1079  myUsers[userCount] */\n      dup2\n      mstore\n      0x20\n      add\n      swap1\n      dup2\n      mstore\n      0x20\n      add\n      0x00\n      keccak256\n        /* \"Insurance Project(Solidit_REMIX)/contracts/AddUsers.sol\":1061:1270  myUsers[userCount] = User({... */\n      0x00\n      dup3\n      add\n      mload\n      dup2\n      0x00\n      add\n      sstore\n      0x20\n      dup3\n      add\n      mload\n      dup2\n      0x01\n      add\n      swap1\n      dup2\n      tag_53\n      swap2\n      swap1\n      tag_54\n      jump\t// in\n    tag_53:\n      pop\n      0x40\n      dup3\n      add\n      mload\n      dup2\n      0x02\n      add\n      sstore\n      0x60\n      dup3\n      add\n      mload\n      dup2\n      0x03\n      add\n      exp(0x0100, 0x00)\n      dup2\n      sload\n      dup2\n      0xffffffffffffffffffffffffffffffffffffffff\n      mul\n      not\n      and\n      swap1\n      dup4\n      0xffffffffffffffffffffffffffffffffffffffff\n      and\n      mul\n      or\n      swap1\n      sstore\n      pop\n      swap1\n      pop\n      pop\n        /* \"Insurance Project(Solidit_REMIX)/contracts/AddUsers.sol\":1299:1319  userInsuranceNumbers */\n      0x02\n        /* \"Insurance Project(Solidit_REMIX)/contracts/AddUsers.sol\":1299:1331  userInsuranceNumbers[msg.sender] */\n      0x00\n        /* \"Insurance Project(Solidit_REMIX)/contracts/AddUsers.sol\":1320:1330  msg.sender */\n      caller\n        /* \"Insurance Project(Solidit_REMIX)/contracts/AddUsers.sol\":1299:1331  userInsuranceNumbers[msg.sender] */\n      0xffffffffffffffffffffffffffffffffffffffff\n      and\n      0xffffffffffffffffffffffffffffffffffffffff\n      and\n      dup2\n      mstore\n      0x20\n      add\n      swap1\n      dup2\n      mstore\n      0x20\n      add\n      0x00\n      keccak256\n        /* \"Insurance Project(Solidit_REMIX)/contracts/AddUsers.sol\":1337:1350  _insurance_no */\n      dup2\n        /* \"Insurance Project(Solidit_REMIX)/contracts/AddUsers.sol\":1299:1351  userInsuranceNumbers[msg.sender].push(_insurance_no) */\n      swap1\n      dup1\n      0x01\n      dup2\n      sload\n      add\n      dup1\n      dup3\n      sstore\n      dup1\n      swap2\n      pop\n      pop\n      0x01\n      swap1\n      sub\n      swap1\n      0x00\n      mstore\n      keccak256(0x00, 0x20)\n      add\n      0x00\n      swap1\n      swap2\n      swap1\n      swap2\n      swap1\n      swap2\n      pop\n      sstore\n        /* \"Insurance Project(Solidit_REMIX)/contracts/AddUsers.sol\":1398:1416  userInsuranceCount */\n      0x01\n        /* \"Insurance Project(Solidit_REMIX)/contracts/AddUsers.sol\":1398:1428  userInsuranceCount[msg.sender] */\n      0x00\n        /* \"Insurance Project(Solidit_REMIX)/contracts/AddUsers.sol\":1417:1427  msg.sender */\n      caller\n        /* \"Insurance Project(Solidit_REMIX)/contracts/AddUsers.sol\":1398:1428  userInsuranceCount[msg.sender] */\n      0xffffffffffffffffffffffffffffffffffffffff\n      and\n      0xffffffffffffffffffffffffffffffffffffffff\n      and\n      dup2\n      mstore\n      0x20\n      add\n      swap1\n      dup2\n      mstore\n      0x20\n      add\n      0x00\n      keccak256\n      0x00\n        /* \"Insurance Project(Solidit_REMIX)/contracts/AddUsers.sol\":1398:1430  userInsuranceCount[msg.sender]++ */\n      dup2\n      sload\n      dup1\n      swap3\n      swap2\n      swap1\n      tag_56\n      swap1\n      tag_57\n      jump\t// in\n    tag_56:\n      swap2\n      swap1\n      pop\n      sstore\n      pop\n        /* \"Insurance Project(Solidit_REMIX)/contracts/AddUsers.sol\":913:1462  function addUser(string memory _name, uint _insurance_no) public {... */\n      pop\n      pop\n      jump\t// out\n        /* \"Insurance Project(Solidit_REMIX)/contracts/AddUsers.sol\":1955:2124  function addNewInsurance(uint _insurNo) public  {... */\n    tag_23:\n        /* \"Insurance Project(Solidit_REMIX)/contracts/AddUsers.sol\":2018:2038  userInsuranceNumbers */\n      0x02\n        /* \"Insurance Project(Solidit_REMIX)/contracts/AddUsers.sol\":2018:2050  userInsuranceNumbers[msg.sender] */\n      0x00\n        /* \"Insurance Project(Solidit_REMIX)/contracts/AddUsers.sol\":2039:2049  msg.sender */\n      caller\n        /* \"Insurance Project(Solidit_REMIX)/contracts/AddUsers.sol\":2018:2050  userInsuranceNumbers[msg.sender] */\n      0xffffffffffffffffffffffffffffffffffffffff\n      and\n      0xffffffffffffffffffffffffffffffffffffffff\n      and\n      dup2\n      mstore\n      0x20\n      add\n      swap1\n      dup2\n      mstore\n      0x20\n      add\n      0x00\n      keccak256\n        /* \"Insurance Project(Solidit_REMIX)/contracts/AddUsers.sol\":2056:2064  _insurNo */\n      dup2\n        /* \"Insurance Project(Solidit_REMIX)/contracts/AddUsers.sol\":2018:2065  userInsuranceNumbers[msg.sender].push(_insurNo) */\n      swap1\n      dup1\n      0x01\n      dup2\n      sload\n      add\n      dup1\n      dup3\n      sstore\n      dup1\n      swap2\n      pop\n      pop\n      0x01\n      swap1\n      sub\n      swap1\n      0x00\n      mstore\n      keccak256(0x00, 0x20)\n      add\n      0x00\n      swap1\n      swap2\n      swap1\n      swap2\n      swap1\n      swap2\n      pop\n      sstore\n        /* \"Insurance Project(Solidit_REMIX)/contracts/AddUsers.sol\":2080:2098  userInsuranceCount */\n      0x01\n        /* \"Insurance Project(Solidit_REMIX)/contracts/AddUsers.sol\":2080:2110  userInsuranceCount[msg.sender] */\n      0x00\n        /* \"Insurance Project(Solidit_REMIX)/contracts/AddUsers.sol\":2099:2109  msg.sender */\n      caller\n        /* \"Insurance Project(Solidit_REMIX)/contracts/AddUsers.sol\":2080:2110  userInsuranceCount[msg.sender] */\n      0xffffffffffffffffffffffffffffffffffffffff\n      and\n      0xffffffffffffffffffffffffffffffffffffffff\n      and\n      dup2\n      mstore\n      0x20\n      add\n      swap1\n      dup2\n      mstore\n      0x20\n      add\n      0x00\n      keccak256\n      0x00\n        /* \"Insurance Project(Solidit_REMIX)/contracts/AddUsers.sol\":2080:2112  userInsuranceCount[msg.sender]++ */\n      dup2\n      sload\n      dup1\n      swap3\n      swap2\n      swap1\n      tag_60\n      swap1\n      tag_57\n      jump\t// in\n    tag_60:\n      swap2\n      swap1\n      pop\n      sstore\n      pop\n        /* \"Insurance Project(Solidit_REMIX)/contracts/AddUsers.sol\":1955:2124  function addNewInsurance(uint _insurNo) public  {... */\n      pop\n      jump\t// out\n        /* \"Insurance Project(Solidit_REMIX)/contracts/AddUsers.sol\":111:131  address public owner */\n    tag_25:\n      0x00\n      dup1\n      sload\n      swap1\n      0x0100\n      exp\n      swap1\n      div\n      0xffffffffffffffffffffffffffffffffffffffff\n      and\n      dup2\n      jump\t// out\n        /* \"Insurance Project(Solidit_REMIX)/contracts/AddUsers.sol\":1642:1780  function getInsuranceCount(address _user) public view OnlyOwner returns (uint) {... */\n    tag_31:\n        /* \"Insurance Project(Solidit_REMIX)/contracts/AddUsers.sol\":1715:1719  uint */\n      0x00\n        /* \"Insurance Project(Solidit_REMIX)/contracts/AddUsers.sol\":799:809  msg.sender */\n      caller\n        /* \"Insurance Project(Solidit_REMIX)/contracts/AddUsers.sol\":790:809  owner == msg.sender */\n      0xffffffffffffffffffffffffffffffffffffffff\n      and\n        /* \"Insurance Project(Solidit_REMIX)/contracts/AddUsers.sol\":790:795  owner */\n      0x00\n      dup1\n      sload\n      swap1\n      0x0100\n      exp\n      swap1\n      div\n      0xffffffffffffffffffffffffffffffffffffffff\n      and\n        /* \"Insurance Project(Solidit_REMIX)/contracts/AddUsers.sol\":790:809  owner == msg.sender */\n      0xffffffffffffffffffffffffffffffffffffffff\n      and\n      eq\n        /* \"Insurance Project(Solidit_REMIX)/contracts/AddUsers.sol\":782:846  require(owner == msg.sender, \"Only Owner Has a Access to This \") */\n      tag_62\n      jumpi\n      mload(0x40)\n      0x08c379a000000000000000000000000000000000000000000000000000000000\n      dup2\n      mstore\n      0x04\n      add\n      tag_63\n      swap1\n      tag_64\n      jump\t// in\n    tag_63:\n      mload(0x40)\n      dup1\n      swap2\n      sub\n      swap1\n      revert\n    tag_62:\n        /* \"Insurance Project(Solidit_REMIX)/contracts/AddUsers.sol\":1743:1761  userInsuranceCount */\n      0x01\n        /* \"Insurance Project(Solidit_REMIX)/contracts/AddUsers.sol\":1743:1768  userInsuranceCount[_user] */\n      0x00\n        /* \"Insurance Project(Solidit_REMIX)/contracts/AddUsers.sol\":1762:1767  _user */\n      dup4\n        /* \"Insurance Project(Solidit_REMIX)/contracts/AddUsers.sol\":1743:1768  userInsuranceCount[_user] */\n      0xffffffffffffffffffffffffffffffffffffffff\n      and\n      0xffffffffffffffffffffffffffffffffffffffff\n      and\n      dup2\n      mstore\n      0x20\n      add\n      swap1\n      dup2\n      mstore\n      0x20\n      add\n      0x00\n      keccak256\n      sload\n        /* \"Insurance Project(Solidit_REMIX)/contracts/AddUsers.sol\":1736:1768  return userInsuranceCount[_user] */\n      swap1\n      pop\n        /* \"Insurance Project(Solidit_REMIX)/contracts/AddUsers.sol\":1642:1780  function getInsuranceCount(address _user) public view OnlyOwner returns (uint) {... */\n      swap2\n      swap1\n      pop\n      jump\t// out\n        /* \"Insurance Project(Solidit_REMIX)/contracts/AddUsers.sol\":1792:1943  function getInsuranceNumber(address _user) public view  OnlyOwner returns (uint[] memory) {... */\n    tag_36:\n        /* \"Insurance Project(Solidit_REMIX)/contracts/AddUsers.sol\":1867:1880  uint[] memory */\n      0x60\n        /* \"Insurance Project(Solidit_REMIX)/contracts/AddUsers.sol\":799:809  msg.sender */\n      caller\n        /* \"Insurance Project(Solidit_REMIX)/contracts/AddUsers.sol\":790:809  owner == msg.sender */\n      0xffffffffffffffffffffffffffffffffffffffff\n      and\n        /* \"Insurance Project(Solidit_REMIX)/contracts/AddUsers.sol\":790:795  owner */\n      0x00\n      dup1\n      sload\n      swap1\n      0x0100\n      exp\n      swap1\n      div\n      0xffffffffffffffffffffffffffffffffffffffff\n      and\n        /* \"Insurance Project(Solidit_REMIX)/contracts/AddUsers.sol\":790:809  owner == msg.sender */\n      0xffffffffffffffffffffffffffffffffffffffff\n      and\n      eq\n        /* \"Insurance Project(Solidit_REMIX)/contracts/AddUsers.sol\":782:846  require(owner == msg.sender, \"Only Owner Has a Access to This \") */\n      tag_67\n      jumpi\n      mload(0x40)\n      0x08c379a000000000000000000000000000000000000000000000000000000000\n      dup2\n      mstore\n      0x04\n      add\n      tag_68\n      swap1\n      tag_64\n      jump\t// in\n    tag_68:\n      mload(0x40)\n      dup1\n      swap2\n      sub\n      swap1\n      revert\n    tag_67:\n        /* \"Insurance Project(Solidit_REMIX)/contracts/AddUsers.sol\":1904:1924  userInsuranceNumbers */\n      0x02\n        /* \"Insurance Project(Solidit_REMIX)/contracts/AddUsers.sol\":1904:1931  userInsuranceNumbers[_user] */\n      0x00\n        /* \"Insurance Project(Solidit_REMIX)/contracts/AddUsers.sol\":1925:1930  _user */\n      dup4\n        /* \"Insurance Project(Solidit_REMIX)/contracts/AddUsers.sol\":1904:1931  userInsuranceNumbers[_user] */\n      0xffffffffffffffffffffffffffffffffffffffff\n      and\n      0xffffffffffffffffffffffffffffffffffffffff\n      and\n      dup2\n      mstore\n      0x20\n      add\n      swap1\n      dup2\n      mstore\n      0x20\n      add\n      0x00\n      keccak256\n        /* \"Insurance Project(Solidit_REMIX)/contracts/AddUsers.sol\":1897:1931  return userInsuranceNumbers[_user] */\n      dup1\n      sload\n      dup1\n      0x20\n      mul\n      0x20\n      add\n      mload(0x40)\n      swap1\n      dup2\n      add\n      0x40\n      mstore\n      dup1\n      swap3\n      swap2\n      swap1\n      dup2\n      dup2\n      mstore\n      0x20\n      add\n      dup3\n      dup1\n      sload\n      dup1\n      iszero\n      tag_70\n      jumpi\n      0x20\n      mul\n      dup3\n      add\n      swap2\n      swap1\n      0x00\n      mstore\n      keccak256(0x00, 0x20)\n      swap1\n    tag_71:\n      dup2\n      sload\n      dup2\n      mstore\n      0x20\n      add\n      swap1\n      0x01\n      add\n      swap1\n      dup1\n      dup4\n      gt\n      tag_71\n      jumpi\n    tag_70:\n      pop\n      pop\n      pop\n      pop\n      pop\n      swap1\n      pop\n        /* \"Insurance Project(Solidit_REMIX)/contracts/AddUsers.sol\":1792:1943  function getInsuranceNumber(address _user) public view  OnlyOwner returns (uint[] memory) {... */\n      swap2\n      swap1\n      pop\n      jump\t// out\n        /* \"Insurance Project(Solidit_REMIX)/contracts/AddUsers.sol\":1506:1630  function getUser(int _user_Id) public view returns (User memory) {        ... */\n    tag_42:\n        /* \"Insurance Project(Solidit_REMIX)/contracts/AddUsers.sol\":1558:1569  User memory */\n      tag_72\n      tag_73\n      jump\t// in\n    tag_72:\n        /* \"Insurance Project(Solidit_REMIX)/contracts/AddUsers.sol\":1601:1608  myUsers */\n      0x04\n        /* \"Insurance Project(Solidit_REMIX)/contracts/AddUsers.sol\":1601:1618  myUsers[_user_Id] */\n      0x00\n        /* \"Insurance Project(Solidit_REMIX)/contracts/AddUsers.sol\":1609:1617  _user_Id */\n      dup4\n        /* \"Insurance Project(Solidit_REMIX)/contracts/AddUsers.sol\":1601:1618  myUsers[_user_Id] */\n      dup2\n      mstore\n      0x20\n      add\n      swap1\n      dup2\n      mstore\n      0x20\n      add\n      0x00\n      keccak256\n        /* \"Insurance Project(Solidit_REMIX)/contracts/AddUsers.sol\":1594:1618  return myUsers[_user_Id] */\n      mload(0x40)\n      dup1\n      0x80\n      add\n      0x40\n      mstore\n      swap1\n      dup2\n      0x00\n      dup3\n      add\n      sload\n      dup2\n      mstore\n      0x20\n      add\n      0x01\n      dup3\n      add\n      dup1\n      sload\n      tag_75\n      swap1\n      tag_76\n      jump\t// in\n    tag_75:\n      dup1\n      0x1f\n      add\n      0x20\n      dup1\n      swap2\n      div\n      mul\n      0x20\n      add\n      mload(0x40)\n      swap1\n      dup2\n      add\n      0x40\n      mstore\n      dup1\n      swap3\n      swap2\n      swap1\n      dup2\n      dup2\n      mstore\n      0x20\n      add\n      dup3\n      dup1\n      sload\n      tag_77\n      swap1\n      tag_76\n      jump\t// in\n    tag_77:\n      dup1\n      iszero\n      tag_78\n      jumpi\n      dup1\n      0x1f\n      lt\n      tag_79\n      jumpi\n      0x0100\n      dup1\n      dup4\n      sload\n      div\n      mul\n      dup4\n      mstore\n      swap2\n      0x20\n      add\n      swap2\n      jump(tag_78)\n    tag_79:\n      dup3\n      add\n      swap2\n      swap1\n      0x00\n      mstore\n      keccak256(0x00, 0x20)\n      swap1\n    tag_80:\n      dup2\n      sload\n      dup2\n      mstore\n      swap1\n      0x01\n      add\n      swap1\n      0x20\n      add\n      dup1\n      dup4\n      gt\n      tag_80\n      jumpi\n      dup3\n      swap1\n      sub\n      0x1f\n      and\n      dup3\n      add\n      swap2\n    tag_78:\n      pop\n      pop\n      pop\n      pop\n      pop\n      dup2\n      mstore\n      0x20\n      add\n      0x02\n      dup3\n      add\n      sload\n      dup2\n      mstore\n      0x20\n      add\n      0x03\n      dup3\n      add\n      0x00\n      swap1\n      sload\n      swap1\n      0x0100\n      exp\n      swap1\n      div\n      0xffffffffffffffffffffffffffffffffffffffff\n      and\n      0xffffffffffffffffffffffffffffffffffffffff\n      and\n      0xffffffffffffffffffffffffffffffffffffffff\n      and\n      dup2\n      mstore\n      pop\n      pop\n      swap1\n      pop\n        /* \"Insurance Project(Solidit_REMIX)/contracts/AddUsers.sol\":1506:1630  function getUser(int _user_Id) public view returns (User memory) {        ... */\n      swap2\n      swap1\n      pop\n      jump\t// out\n        /* \"Insurance Project(Solidit_REMIX)/contracts/AddUsers.sol\":651:687  mapping (int => User) public myUsers */\n    tag_47:\n      mstore(0x20, 0x04)\n      dup1\n      0x00\n      mstore\n      keccak256(0x00, 0x40)\n      0x00\n      swap2\n      pop\n      swap1\n      pop\n      dup1\n      0x00\n      add\n      sload\n      swap1\n      dup1\n      0x01\n      add\n      dup1\n      sload\n      tag_81\n      swap1\n      tag_76\n      jump\t// in\n    tag_81:\n      dup1\n      0x1f\n      add\n      0x20\n      dup1\n      swap2\n      div\n      mul\n      0x20\n      add\n      mload(0x40)\n      swap1\n      dup2\n      add\n      0x40\n      mstore\n      dup1\n      swap3\n      swap2\n      swap1\n      dup2\n      dup2\n      mstore\n      0x20\n      add\n      dup3\n      dup1\n      sload\n      tag_82\n      swap1\n      tag_76\n      jump\t// in\n    tag_82:\n      dup1\n      iszero\n      tag_83\n      jumpi\n      dup1\n      0x1f\n      lt\n      tag_84\n      jumpi\n      0x0100\n      dup1\n      dup4\n      sload\n      div\n      mul\n      dup4\n      mstore\n      swap2\n      0x20\n      add\n      swap2\n      jump(tag_83)\n    tag_84:\n      dup3\n      add\n      swap2\n      swap1\n      0x00\n      mstore\n      keccak256(0x00, 0x20)\n      swap1\n    tag_85:\n      dup2\n      sload\n      dup2\n      mstore\n      swap1\n      0x01\n      add\n      swap1\n      0x20\n      add\n      dup1\n      dup4\n      gt\n      tag_85\n      jumpi\n      dup3\n      swap1\n      sub\n      0x1f\n      and\n      dup3\n      add\n      swap2\n    tag_83:\n      pop\n      pop\n      pop\n      pop\n      pop\n      swap1\n      dup1\n      0x02\n      add\n      sload\n      swap1\n      dup1\n      0x03\n      add\n      0x00\n      swap1\n      sload\n      swap1\n      0x0100\n      exp\n      swap1\n      div\n      0xffffffffffffffffffffffffffffffffffffffff\n      and\n      swap1\n      pop\n      dup5\n      jump\t// out\n    tag_73:\n      mload(0x40)\n      dup1\n      0x80\n      add\n      0x40\n      mstore\n      dup1\n      0x00\n      dup2\n      mstore\n      0x20\n      add\n      0x60\n      dup2\n      mstore\n      0x20\n      add\n      0x00\n      dup2\n      mstore\n      0x20\n      add\n      and(0xffffffffffffffffffffffffffffffffffffffff, 0x00)\n      dup2\n      mstore\n      pop\n      swap1\n      jump\t// out\n        /* \"#utility.yul\":7:83   */\n    tag_86:\n        /* \"#utility.yul\":43:50   */\n      0x00\n        /* \"#utility.yul\":72:77   */\n      dup2\n        /* \"#utility.yul\":61:77   */\n      swap1\n      pop\n        /* \"#utility.yul\":7:83   */\n      swap2\n      swap1\n      pop\n      jump\t// out\n        /* \"#utility.yul\":89:204   */\n    tag_87:\n        /* \"#utility.yul\":174:197   */\n      tag_150\n        /* \"#utility.yul\":191:196   */\n      dup2\n        /* \"#utility.yul\":174:197   */\n      tag_86\n      jump\t// in\n    tag_150:\n        /* \"#utility.yul\":169:172   */\n      dup3\n        /* \"#utility.yul\":162:198   */\n      mstore\n        /* \"#utility.yul\":89:204   */\n      pop\n      pop\n      jump\t// out\n        /* \"#utility.yul\":210:428   */\n    tag_15:\n        /* \"#utility.yul\":301:305   */\n      0x00\n        /* \"#utility.yul\":339:341   */\n      0x20\n        /* \"#utility.yul\":328:337   */\n      dup3\n        /* \"#utility.yul\":324:342   */\n      add\n        /* \"#utility.yul\":316:342   */\n      swap1\n      pop\n        /* \"#utility.yul\":352:421   */\n      tag_152\n        /* \"#utility.yul\":418:419   */\n      0x00\n        /* \"#utility.yul\":407:416   */\n      dup4\n        /* \"#utility.yul\":403:420   */\n      add\n        /* \"#utility.yul\":394:400   */\n      dup5\n        /* \"#utility.yul\":352:421   */\n      tag_87\n      jump\t// in\n    tag_152:\n        /* \"#utility.yul\":210:428   */\n      swap3\n      swap2\n      pop\n      pop\n      jump\t// out\n        /* \"#utility.yul\":434:509   */\n    tag_88:\n        /* \"#utility.yul\":467:473   */\n      0x00\n        /* \"#utility.yul\":500:502   */\n      0x40\n        /* \"#utility.yul\":494:503   */\n      mload\n        /* \"#utility.yul\":484:503   */\n      swap1\n      pop\n        /* \"#utility.yul\":434:509   */\n      swap1\n      jump\t// out\n        /* \"#utility.yul\":515:632   */\n    tag_89:\n        /* \"#utility.yul\":624:625   */\n      0x00\n        /* \"#utility.yul\":621:622   */\n      dup1\n        /* \"#utility.yul\":614:626   */\n      revert\n        /* \"#utility.yul\":638:755   */\n    tag_90:\n        /* \"#utility.yul\":747:748   */\n      0x00\n        /* \"#utility.yul\":744:745   */\n      dup1\n        /* \"#utility.yul\":737:749   */\n      revert\n        /* \"#utility.yul\":761:878   */\n    tag_91:\n        /* \"#utility.yul\":870:871   */\n      0x00\n        /* \"#utility.yul\":867:868   */\n      dup1\n        /* \"#utility.yul\":860:872   */\n      revert\n        /* \"#utility.yul\":884:1001   */\n    tag_92:\n        /* \"#utility.yul\":993:994   */\n      0x00\n        /* \"#utility.yul\":990:991   */\n      dup1\n        /* \"#utility.yul\":983:995   */\n      revert\n        /* \"#utility.yul\":1007:1109   */\n    tag_93:\n        /* \"#utility.yul\":1048:1054   */\n      0x00\n        /* \"#utility.yul\":1099:1101   */\n      0x1f\n        /* \"#utility.yul\":1095:1102   */\n      not\n        /* \"#utility.yul\":1090:1092   */\n      0x1f\n        /* \"#utility.yul\":1083:1088   */\n      dup4\n        /* \"#utility.yul\":1079:1093   */\n      add\n        /* \"#utility.yul\":1075:1103   */\n      and\n        /* \"#utility.yul\":1065:1103   */\n      swap1\n      pop\n        /* \"#utility.yul\":1007:1109   */\n      swap2\n      swap1\n      pop\n      jump\t// out\n        /* \"#utility.yul\":1115:1295   */\n    tag_94:\n        /* \"#utility.yul\":1163:1240   */\n      0x4e487b7100000000000000000000000000000000000000000000000000000000\n        /* \"#utility.yul\":1160:1161   */\n      0x00\n        /* \"#utility.yul\":1153:1241   */\n      mstore\n        /* \"#utility.yul\":1260:1264   */\n      0x41\n        /* \"#utility.yul\":1257:1258   */\n      0x04\n        /* \"#utility.yul\":1250:1265   */\n      mstore\n        /* \"#utility.yul\":1284:1288   */\n      0x24\n        /* \"#utility.yul\":1281:1282   */\n      0x00\n        /* \"#utility.yul\":1274:1289   */\n      revert\n        /* \"#utility.yul\":1301:1582   */\n    tag_95:\n        /* \"#utility.yul\":1384:1411   */\n      tag_161\n        /* \"#utility.yul\":1406:1410   */\n      dup3\n        /* \"#utility.yul\":1384:1411   */\n      tag_93\n      jump\t// in\n    tag_161:\n        /* \"#utility.yul\":1376:1382   */\n      dup2\n        /* \"#utility.yul\":1372:1412   */\n      add\n        /* \"#utility.yul\":1514:1520   */\n      dup2\n        /* \"#utility.yul\":1502:1512   */\n      dup2\n        /* \"#utility.yul\":1499:1521   */\n      lt\n        /* \"#utility.yul\":1478:1496   */\n      0xffffffffffffffff\n        /* \"#utility.yul\":1466:1476   */\n      dup3\n        /* \"#utility.yul\":1463:1497   */\n      gt\n        /* \"#utility.yul\":1460:1522   */\n      or\n        /* \"#utility.yul\":1457:1545   */\n      iszero\n      tag_162\n      jumpi\n        /* \"#utility.yul\":1525:1543   */\n      tag_163\n      tag_94\n      jump\t// in\n    tag_163:\n        /* \"#utility.yul\":1457:1545   */\n    tag_162:\n        /* \"#utility.yul\":1565:1575   */\n      dup1\n        /* \"#utility.yul\":1561:1563   */\n      0x40\n        /* \"#utility.yul\":1554:1576   */\n      mstore\n        /* \"#utility.yul\":1344:1582   */\n      pop\n        /* \"#utility.yul\":1301:1582   */\n      pop\n      pop\n      jump\t// out\n        /* \"#utility.yul\":1588:1717   */\n    tag_96:\n        /* \"#utility.yul\":1622:1628   */\n      0x00\n        /* \"#utility.yul\":1649:1669   */\n      tag_165\n      tag_88\n      jump\t// in\n    tag_165:\n        /* \"#utility.yul\":1639:1669   */\n      swap1\n      pop\n        /* \"#utility.yul\":1678:1711   */\n      tag_166\n        /* \"#utility.yul\":1706:1710   */\n      dup3\n        /* \"#utility.yul\":1698:1704   */\n      dup3\n        /* \"#utility.yul\":1678:1711   */\n      tag_95\n      jump\t// in\n    tag_166:\n        /* \"#utility.yul\":1588:1717   */\n      swap2\n      swap1\n      pop\n      jump\t// out\n        /* \"#utility.yul\":1723:2031   */\n    tag_97:\n        /* \"#utility.yul\":1785:1789   */\n      0x00\n        /* \"#utility.yul\":1875:1893   */\n      0xffffffffffffffff\n        /* \"#utility.yul\":1867:1873   */\n      dup3\n        /* \"#utility.yul\":1864:1894   */\n      gt\n        /* \"#utility.yul\":1861:1917   */\n      iszero\n      tag_168\n      jumpi\n        /* \"#utility.yul\":1897:1915   */\n      tag_169\n      tag_94\n      jump\t// in\n    tag_169:\n        /* \"#utility.yul\":1861:1917   */\n    tag_168:\n        /* \"#utility.yul\":1935:1964   */\n      tag_170\n        /* \"#utility.yul\":1957:1963   */\n      dup3\n        /* \"#utility.yul\":1935:1964   */\n      tag_93\n      jump\t// in\n    tag_170:\n        /* \"#utility.yul\":1927:1964   */\n      swap1\n      pop\n        /* \"#utility.yul\":2019:2023   */\n      0x20\n        /* \"#utility.yul\":2013:2017   */\n      dup2\n        /* \"#utility.yul\":2009:2024   */\n      add\n        /* \"#utility.yul\":2001:2024   */\n      swap1\n      pop\n        /* \"#utility.yul\":1723:2031   */\n      swap2\n      swap1\n      pop\n      jump\t// out\n        /* \"#utility.yul\":2037:2185   */\n    tag_98:\n        /* \"#utility.yul\":2135:2141   */\n      dup3\n        /* \"#utility.yul\":2130:2133   */\n      dup2\n        /* \"#utility.yul\":2125:2128   */\n      dup4\n        /* \"#utility.yul\":2112:2142   */\n      calldatacopy\n        /* \"#utility.yul\":2176:2177   */\n      0x00\n        /* \"#utility.yul\":2167:2173   */\n      dup4\n        /* \"#utility.yul\":2162:2165   */\n      dup4\n        /* \"#utility.yul\":2158:2174   */\n      add\n        /* \"#utility.yul\":2151:2178   */\n      mstore\n        /* \"#utility.yul\":2037:2185   */\n      pop\n      pop\n      pop\n      jump\t// out\n        /* \"#utility.yul\":2191:2616   */\n    tag_99:\n        /* \"#utility.yul\":2269:2274   */\n      0x00\n        /* \"#utility.yul\":2294:2360   */\n      tag_173\n        /* \"#utility.yul\":2310:2359   */\n      tag_174\n        /* \"#utility.yul\":2352:2358   */\n      dup5\n        /* \"#utility.yul\":2310:2359   */\n      tag_97\n      jump\t// in\n    tag_174:\n        /* \"#utility.yul\":2294:2360   */\n      tag_96\n      jump\t// in\n    tag_173:\n        /* \"#utility.yul\":2285:2360   */\n      swap1\n      pop\n        /* \"#utility.yul\":2383:2389   */\n      dup3\n        /* \"#utility.yul\":2376:2381   */\n      dup2\n        /* \"#utility.yul\":2369:2390   */\n      mstore\n        /* \"#utility.yul\":2421:2425   */\n      0x20\n        /* \"#utility.yul\":2414:2419   */\n      dup2\n        /* \"#utility.yul\":2410:2426   */\n      add\n        /* \"#utility.yul\":2459:2462   */\n      dup5\n        /* \"#utility.yul\":2450:2456   */\n      dup5\n        /* \"#utility.yul\":2445:2448   */\n      dup5\n        /* \"#utility.yul\":2441:2457   */\n      add\n        /* \"#utility.yul\":2438:2463   */\n      gt\n        /* \"#utility.yul\":2435:2547   */\n      iszero\n      tag_175\n      jumpi\n        /* \"#utility.yul\":2466:2545   */\n      tag_176\n      tag_92\n      jump\t// in\n    tag_176:\n        /* \"#utility.yul\":2435:2547   */\n    tag_175:\n        /* \"#utility.yul\":2556:2610   */\n      tag_177\n        /* \"#utility.yul\":2603:2609   */\n      dup5\n        /* \"#utility.yul\":2598:2601   */\n      dup3\n        /* \"#utility.yul\":2593:2596   */\n      dup6\n        /* \"#utility.yul\":2556:2610   */\n      tag_98\n      jump\t// in\n    tag_177:\n        /* \"#utility.yul\":2275:2616   */\n      pop\n        /* \"#utility.yul\":2191:2616   */\n      swap4\n      swap3\n      pop\n      pop\n      pop\n      jump\t// out\n        /* \"#utility.yul\":2636:2976   */\n    tag_100:\n        /* \"#utility.yul\":2692:2697   */\n      0x00\n        /* \"#utility.yul\":2741:2744   */\n      dup3\n        /* \"#utility.yul\":2734:2738   */\n      0x1f\n        /* \"#utility.yul\":2726:2732   */\n      dup4\n        /* \"#utility.yul\":2722:2739   */\n      add\n        /* \"#utility.yul\":2718:2745   */\n      slt\n        /* \"#utility.yul\":2708:2830   */\n      tag_179\n      jumpi\n        /* \"#utility.yul\":2749:2828   */\n      tag_180\n      tag_91\n      jump\t// in\n    tag_180:\n        /* \"#utility.yul\":2708:2830   */\n    tag_179:\n        /* \"#utility.yul\":2866:2872   */\n      dup2\n        /* \"#utility.yul\":2853:2873   */\n      calldataload\n        /* \"#utility.yul\":2891:2970   */\n      tag_181\n        /* \"#utility.yul\":2966:2969   */\n      dup5\n        /* \"#utility.yul\":2958:2964   */\n      dup3\n        /* \"#utility.yul\":2951:2955   */\n      0x20\n        /* \"#utility.yul\":2943:2949   */\n      dup7\n        /* \"#utility.yul\":2939:2956   */\n      add\n        /* \"#utility.yul\":2891:2970   */\n      tag_99\n      jump\t// in\n    tag_181:\n        /* \"#utility.yul\":2882:2970   */\n      swap2\n      pop\n        /* \"#utility.yul\":2698:2976   */\n      pop\n        /* \"#utility.yul\":2636:2976   */\n      swap3\n      swap2\n      pop\n      pop\n      jump\t// out\n        /* \"#utility.yul\":2982:3059   */\n    tag_101:\n        /* \"#utility.yul\":3019:3026   */\n      0x00\n        /* \"#utility.yul\":3048:3053   */\n      dup2\n        /* \"#utility.yul\":3037:3053   */\n      swap1\n      pop\n        /* \"#utility.yul\":2982:3059   */\n      swap2\n      swap1\n      pop\n      jump\t// out\n        /* \"#utility.yul\":3065:3187   */\n    tag_102:\n        /* \"#utility.yul\":3138:3162   */\n      tag_184\n        /* \"#utility.yul\":3156:3161   */\n      dup2\n        /* \"#utility.yul\":3138:3162   */\n      tag_101\n      jump\t// in\n    tag_184:\n        /* \"#utility.yul\":3131:3136   */\n      dup2\n        /* \"#utility.yul\":3128:3163   */\n      eq\n        /* \"#utility.yul\":3118:3181   */\n      tag_185\n      jumpi\n        /* \"#utility.yul\":3177:3178   */\n      0x00\n        /* \"#utility.yul\":3174:3175   */\n      dup1\n        /* \"#utility.yul\":3167:3179   */\n      revert\n        /* \"#utility.yul\":3118:3181   */\n    tag_185:\n        /* \"#utility.yul\":3065:3187   */\n      pop\n      jump\t// out\n        /* \"#utility.yul\":3193:3332   */\n    tag_103:\n        /* \"#utility.yul\":3239:3244   */\n      0x00\n        /* \"#utility.yul\":3277:3283   */\n      dup2\n        /* \"#utility.yul\":3264:3284   */\n      calldataload\n        /* \"#utility.yul\":3255:3284   */\n      swap1\n      pop\n        /* \"#utility.yul\":3293:3326   */\n      tag_187\n        /* \"#utility.yul\":3320:3325   */\n      dup2\n        /* \"#utility.yul\":3293:3326   */\n      tag_102\n      jump\t// in\n    tag_187:\n        /* \"#utility.yul\":3193:3332   */\n      swap3\n      swap2\n      pop\n      pop\n      jump\t// out\n        /* \"#utility.yul\":3338:3992   */\n    tag_18:\n        /* \"#utility.yul\":3416:3422   */\n      0x00\n        /* \"#utility.yul\":3424:3430   */\n      dup1\n        /* \"#utility.yul\":3473:3475   */\n      0x40\n        /* \"#utility.yul\":3461:3470   */\n      dup4\n        /* \"#utility.yul\":3452:3459   */\n      dup6\n        /* \"#utility.yul\":3448:3471   */\n      sub\n        /* \"#utility.yul\":3444:3476   */\n      slt\n        /* \"#utility.yul\":3441:3560   */\n      iszero\n      tag_189\n      jumpi\n        /* \"#utility.yul\":3479:3558   */\n      tag_190\n      tag_89\n      jump\t// in\n    tag_190:\n        /* \"#utility.yul\":3441:3560   */\n    tag_189:\n        /* \"#utility.yul\":3627:3628   */\n      0x00\n        /* \"#utility.yul\":3616:3625   */\n      dup4\n        /* \"#utility.yul\":3612:3629   */\n      add\n        /* \"#utility.yul\":3599:3630   */\n      calldataload\n        /* \"#utility.yul\":3657:3675   */\n      0xffffffffffffffff\n        /* \"#utility.yul\":3649:3655   */\n      dup2\n        /* \"#utility.yul\":3646:3676   */\n      gt\n        /* \"#utility.yul\":3643:3760   */\n      iszero\n      tag_191\n      jumpi\n        /* \"#utility.yul\":3679:3758   */\n      tag_192\n      tag_90\n      jump\t// in\n    tag_192:\n        /* \"#utility.yul\":3643:3760   */\n    tag_191:\n        /* \"#utility.yul\":3784:3847   */\n      tag_193\n        /* \"#utility.yul\":3839:3846   */\n      dup6\n        /* \"#utility.yul\":3830:3836   */\n      dup3\n        /* \"#utility.yul\":3819:3828   */\n      dup7\n        /* \"#utility.yul\":3815:3837   */\n      add\n        /* \"#utility.yul\":3784:3847   */\n      tag_100\n      jump\t// in\n    tag_193:\n        /* \"#utility.yul\":3774:3847   */\n      swap3\n      pop\n        /* \"#utility.yul\":3570:3857   */\n      pop\n        /* \"#utility.yul\":3896:3898   */\n      0x20\n        /* \"#utility.yul\":3922:3975   */\n      tag_194\n        /* \"#utility.yul\":3967:3974   */\n      dup6\n        /* \"#utility.yul\":3958:3964   */\n      dup3\n        /* \"#utility.yul\":3947:3956   */\n      dup7\n        /* \"#utility.yul\":3943:3965   */\n      add\n        /* \"#utility.yul\":3922:3975   */\n      tag_103\n      jump\t// in\n    tag_194:\n        /* \"#utility.yul\":3912:3975   */\n      swap2\n      pop\n        /* \"#utility.yul\":3867:3985   */\n      pop\n        /* \"#utility.yul\":3338:3992   */\n      swap3\n      pop\n      swap3\n      swap1\n      pop\n      jump\t// out\n        /* \"#utility.yul\":3998:4327   */\n    tag_22:\n        /* \"#utility.yul\":4057:4063   */\n      0x00\n        /* \"#utility.yul\":4106:4108   */\n      0x20\n        /* \"#utility.yul\":4094:4103   */\n      dup3\n        /* \"#utility.yul\":4085:4092   */\n      dup5\n        /* \"#utility.yul\":4081:4104   */\n      sub\n        /* \"#utility.yul\":4077:4109   */\n      slt\n        /* \"#utility.yul\":4074:4193   */\n      iszero\n      tag_196\n      jumpi\n        /* \"#utility.yul\":4112:4191   */\n      tag_197\n      tag_89\n      jump\t// in\n    tag_197:\n        /* \"#utility.yul\":4074:4193   */\n    tag_196:\n        /* \"#utility.yul\":4232:4233   */\n      0x00\n        /* \"#utility.yul\":4257:4310   */\n      tag_198\n        /* \"#utility.yul\":4302:4309   */\n      dup5\n        /* \"#utility.yul\":4293:4299   */\n      dup3\n        /* \"#utility.yul\":4282:4291   */\n      dup6\n        /* \"#utility.yul\":4278:4300   */\n      add\n        /* \"#utility.yul\":4257:4310   */\n      tag_103\n      jump\t// in\n    tag_198:\n        /* \"#utility.yul\":4247:4310   */\n      swap2\n      pop\n        /* \"#utility.yul\":4203:4320   */\n      pop\n        /* \"#utility.yul\":3998:4327   */\n      swap3\n      swap2\n      pop\n      pop\n      jump\t// out\n        /* \"#utility.yul\":4333:4459   */\n    tag_104:\n        /* \"#utility.yul\":4370:4377   */\n      0x00\n        /* \"#utility.yul\":4410:4452   */\n      0xffffffffffffffffffffffffffffffffffffffff\n        /* \"#utility.yul\":4403:4408   */\n      dup3\n        /* \"#utility.yul\":4399:4453   */\n      and\n        /* \"#utility.yul\":4388:4453   */\n      swap1\n      pop\n        /* \"#utility.yul\":4333:4459   */\n      swap2\n      swap1\n      pop\n      jump\t// out\n        /* \"#utility.yul\":4465:4561   */\n    tag_105:\n        /* \"#utility.yul\":4502:4509   */\n      0x00\n        /* \"#utility.yul\":4531:4555   */\n      tag_201\n        /* \"#utility.yul\":4549:4554   */\n      dup3\n        /* \"#utility.yul\":4531:4555   */\n      tag_104\n      jump\t// in\n    tag_201:\n        /* \"#utility.yul\":4520:4555   */\n      swap1\n      pop\n        /* \"#utility.yul\":4465:4561   */\n      swap2\n      swap1\n      pop\n      jump\t// out\n        /* \"#utility.yul\":4567:4685   */\n    tag_106:\n        /* \"#utility.yul\":4654:4678   */\n      tag_203\n        /* \"#utility.yul\":4672:4677   */\n      dup2\n        /* \"#utility.yul\":4654:4678   */\n      tag_105\n      jump\t// in\n    tag_203:\n        /* \"#utility.yul\":4649:4652   */\n      dup3\n        /* \"#utility.yul\":4642:4679   */\n      mstore\n        /* \"#utility.yul\":4567:4685   */\n      pop\n      pop\n      jump\t// out\n        /* \"#utility.yul\":4691:4913   */\n    tag_27:\n        /* \"#utility.yul\":4784:4788   */\n      0x00\n        /* \"#utility.yul\":4822:4824   */\n      0x20\n        /* \"#utility.yul\":4811:4820   */\n      dup3\n        /* \"#utility.yul\":4807:4825   */\n      add\n        /* \"#utility.yul\":4799:4825   */\n      swap1\n      pop\n        /* \"#utility.yul\":4835:4906   */\n      tag_205\n        /* \"#utility.yul\":4903:4904   */\n      0x00\n        /* \"#utility.yul\":4892:4901   */\n      dup4\n        /* \"#utility.yul\":4888:4905   */\n      add\n        /* \"#utility.yul\":4879:4885   */\n      dup5\n        /* \"#utility.yul\":4835:4906   */\n      tag_106\n      jump\t// in\n    tag_205:\n        /* \"#utility.yul\":4691:4913   */\n      swap3\n      swap2\n      pop\n      pop\n      jump\t// out\n        /* \"#utility.yul\":4919:5041   */\n    tag_107:\n        /* \"#utility.yul\":4992:5016   */\n      tag_207\n        /* \"#utility.yul\":5010:5015   */\n      dup2\n        /* \"#utility.yul\":4992:5016   */\n      tag_105\n      jump\t// in\n    tag_207:\n        /* \"#utility.yul\":4985:4990   */\n      dup2\n        /* \"#utility.yul\":4982:5017   */\n      eq\n        /* \"#utility.yul\":4972:5035   */\n      tag_208\n      jumpi\n        /* \"#utility.yul\":5031:5032   */\n      0x00\n        /* \"#utility.yul\":5028:5029   */\n      dup1\n        /* \"#utility.yul\":5021:5033   */\n      revert\n        /* \"#utility.yul\":4972:5035   */\n    tag_208:\n        /* \"#utility.yul\":4919:5041   */\n      pop\n      jump\t// out\n        /* \"#utility.yul\":5047:5186   */\n    tag_108:\n        /* \"#utility.yul\":5093:5098   */\n      0x00\n        /* \"#utility.yul\":5131:5137   */\n      dup2\n        /* \"#utility.yul\":5118:5138   */\n      calldataload\n        /* \"#utility.yul\":5109:5138   */\n      swap1\n      pop\n        /* \"#utility.yul\":5147:5180   */\n      tag_210\n        /* \"#utility.yul\":5174:5179   */\n      dup2\n        /* \"#utility.yul\":5147:5180   */\n      tag_107\n      jump\t// in\n    tag_210:\n        /* \"#utility.yul\":5047:5186   */\n      swap3\n      swap2\n      pop\n      pop\n      jump\t// out\n        /* \"#utility.yul\":5192:5521   */\n    tag_30:\n        /* \"#utility.yul\":5251:5257   */\n      0x00\n        /* \"#utility.yul\":5300:5302   */\n      0x20\n        /* \"#utility.yul\":5288:5297   */\n      dup3\n        /* \"#utility.yul\":5279:5286   */\n      dup5\n        /* \"#utility.yul\":5275:5298   */\n      sub\n        /* \"#utility.yul\":5271:5303   */\n      slt\n        /* \"#utility.yul\":5268:5387   */\n      iszero\n      tag_212\n      jumpi\n        /* \"#utility.yul\":5306:5385   */\n      tag_213\n      tag_89\n      jump\t// in\n    tag_213:\n        /* \"#utility.yul\":5268:5387   */\n    tag_212:\n        /* \"#utility.yul\":5426:5427   */\n      0x00\n        /* \"#utility.yul\":5451:5504   */\n      tag_214\n        /* \"#utility.yul\":5496:5503   */\n      dup5\n        /* \"#utility.yul\":5487:5493   */\n      dup3\n        /* \"#utility.yul\":5476:5485   */\n      dup6\n        /* \"#utility.yul\":5472:5494   */\n      add\n        /* \"#utility.yul\":5451:5504   */\n      tag_108\n      jump\t// in\n    tag_214:\n        /* \"#utility.yul\":5441:5504   */\n      swap2\n      pop\n        /* \"#utility.yul\":5397:5514   */\n      pop\n        /* \"#utility.yul\":5192:5521   */\n      swap3\n      swap2\n      pop\n      pop\n      jump\t// out\n        /* \"#utility.yul\":5527:5645   */\n    tag_109:\n        /* \"#utility.yul\":5614:5638   */\n      tag_216\n        /* \"#utility.yul\":5632:5637   */\n      dup2\n        /* \"#utility.yul\":5614:5638   */\n      tag_101\n      jump\t// in\n    tag_216:\n        /* \"#utility.yul\":5609:5612   */\n      dup3\n        /* \"#utility.yul\":5602:5639   */\n      mstore\n        /* \"#utility.yul\":5527:5645   */\n      pop\n      pop\n      jump\t// out\n        /* \"#utility.yul\":5651:5873   */\n    tag_33:\n        /* \"#utility.yul\":5744:5748   */\n      0x00\n        /* \"#utility.yul\":5782:5784   */\n      0x20\n        /* \"#utility.yul\":5771:5780   */\n      dup3\n        /* \"#utility.yul\":5767:5785   */\n      add\n        /* \"#utility.yul\":5759:5785   */\n      swap1\n      pop\n        /* \"#utility.yul\":5795:5866   */\n      tag_218\n        /* \"#utility.yul\":5863:5864   */\n      0x00\n        /* \"#utility.yul\":5852:5861   */\n      dup4\n        /* \"#utility.yul\":5848:5865   */\n      add\n        /* \"#utility.yul\":5839:5845   */\n      dup5\n        /* \"#utility.yul\":5795:5866   */\n      tag_109\n      jump\t// in\n    tag_218:\n        /* \"#utility.yul\":5651:5873   */\n      swap3\n      swap2\n      pop\n      pop\n      jump\t// out\n        /* \"#utility.yul\":5879:5993   */\n    tag_110:\n        /* \"#utility.yul\":5946:5952   */\n      0x00\n        /* \"#utility.yul\":5980:5985   */\n      dup2\n        /* \"#utility.yul\":5974:5986   */\n      mload\n        /* \"#utility.yul\":5964:5986   */\n      swap1\n      pop\n        /* \"#utility.yul\":5879:5993   */\n      swap2\n      swap1\n      pop\n      jump\t// out\n        /* \"#utility.yul\":5999:6183   */\n    tag_111:\n        /* \"#utility.yul\":6098:6109   */\n      0x00\n        /* \"#utility.yul\":6132:6138   */\n      dup3\n        /* \"#utility.yul\":6127:6130   */\n      dup3\n        /* \"#utility.yul\":6120:6139   */\n      mstore\n        /* \"#utility.yul\":6172:6176   */\n      0x20\n        /* \"#utility.yul\":6167:6170   */\n      dup3\n        /* \"#utility.yul\":6163:6177   */\n      add\n        /* \"#utility.yul\":6148:6177   */\n      swap1\n      pop\n        /* \"#utility.yul\":5999:6183   */\n      swap3\n      swap2\n      pop\n      pop\n      jump\t// out\n        /* \"#utility.yul\":6189:6321   */\n    tag_112:\n        /* \"#utility.yul\":6256:6260   */\n      0x00\n        /* \"#utility.yul\":6279:6282   */\n      dup2\n        /* \"#utility.yul\":6271:6282   */\n      swap1\n      pop\n        /* \"#utility.yul\":6309:6313   */\n      0x20\n        /* \"#utility.yul\":6304:6307   */\n      dup3\n        /* \"#utility.yul\":6300:6314   */\n      add\n        /* \"#utility.yul\":6292:6314   */\n      swap1\n      pop\n        /* \"#utility.yul\":6189:6321   */\n      swap2\n      swap1\n      pop\n      jump\t// out\n        /* \"#utility.yul\":6327:6435   */\n    tag_113:\n        /* \"#utility.yul\":6404:6428   */\n      tag_223\n        /* \"#utility.yul\":6422:6427   */\n      dup2\n        /* \"#utility.yul\":6404:6428   */\n      tag_101\n      jump\t// in\n    tag_223:\n        /* \"#utility.yul\":6399:6402   */\n      dup3\n        /* \"#utility.yul\":6392:6429   */\n      mstore\n        /* \"#utility.yul\":6327:6435   */\n      pop\n      pop\n      jump\t// out\n        /* \"#utility.yul\":6441:6620   */\n    tag_114:\n        /* \"#utility.yul\":6510:6520   */\n      0x00\n        /* \"#utility.yul\":6531:6577   */\n      tag_225\n        /* \"#utility.yul\":6573:6576   */\n      dup4\n        /* \"#utility.yul\":6565:6571   */\n      dup4\n        /* \"#utility.yul\":6531:6577   */\n      tag_113\n      jump\t// in\n    tag_225:\n        /* \"#utility.yul\":6609:6613   */\n      0x20\n        /* \"#utility.yul\":6604:6607   */\n      dup4\n        /* \"#utility.yul\":6600:6614   */\n      add\n        /* \"#utility.yul\":6586:6614   */\n      swap1\n      pop\n        /* \"#utility.yul\":6441:6620   */\n      swap3\n      swap2\n      pop\n      pop\n      jump\t// out\n        /* \"#utility.yul\":6626:6739   */\n    tag_115:\n        /* \"#utility.yul\":6696:6700   */\n      0x00\n        /* \"#utility.yul\":6728:6732   */\n      0x20\n        /* \"#utility.yul\":6723:6726   */\n      dup3\n        /* \"#utility.yul\":6719:6733   */\n      add\n        /* \"#utility.yul\":6711:6733   */\n      swap1\n      pop\n        /* \"#utility.yul\":6626:6739   */\n      swap2\n      swap1\n      pop\n      jump\t// out\n        /* \"#utility.yul\":6775:7507   */\n    tag_116:\n        /* \"#utility.yul\":6894:6897   */\n      0x00\n        /* \"#utility.yul\":6923:6977   */\n      tag_228\n        /* \"#utility.yul\":6971:6976   */\n      dup3\n        /* \"#utility.yul\":6923:6977   */\n      tag_110\n      jump\t// in\n    tag_228:\n        /* \"#utility.yul\":6993:7079   */\n      tag_229\n        /* \"#utility.yul\":7072:7078   */\n      dup2\n        /* \"#utility.yul\":7067:7070   */\n      dup6\n        /* \"#utility.yul\":6993:7079   */\n      tag_111\n      jump\t// in\n    tag_229:\n        /* \"#utility.yul\":6986:7079   */\n      swap4\n      pop\n        /* \"#utility.yul\":7103:7159   */\n      tag_230\n        /* \"#utility.yul\":7153:7158   */\n      dup4\n        /* \"#utility.yul\":7103:7159   */\n      tag_112\n      jump\t// in\n    tag_230:\n        /* \"#utility.yul\":7182:7189   */\n      dup1\n        /* \"#utility.yul\":7213:7214   */\n      0x00\n        /* \"#utility.yul\":7198:7482   */\n    tag_231:\n        /* \"#utility.yul\":7223:7229   */\n      dup4\n        /* \"#utility.yul\":7220:7221   */\n      dup2\n        /* \"#utility.yul\":7217:7230   */\n      lt\n        /* \"#utility.yul\":7198:7482   */\n      iszero\n      tag_233\n      jumpi\n        /* \"#utility.yul\":7299:7305   */\n      dup2\n        /* \"#utility.yul\":7293:7306   */\n      mload\n        /* \"#utility.yul\":7326:7389   */\n      tag_234\n        /* \"#utility.yul\":7385:7388   */\n      dup9\n        /* \"#utility.yul\":7370:7383   */\n      dup3\n        /* \"#utility.yul\":7326:7389   */\n      tag_114\n      jump\t// in\n    tag_234:\n        /* \"#utility.yul\":7319:7389   */\n      swap8\n      pop\n        /* \"#utility.yul\":7412:7472   */\n      tag_235\n        /* \"#utility.yul\":7465:7471   */\n      dup4\n        /* \"#utility.yul\":7412:7472   */\n      tag_115\n      jump\t// in\n    tag_235:\n        /* \"#utility.yul\":7402:7472   */\n      swap3\n      pop\n        /* \"#utility.yul\":7258:7482   */\n      pop\n        /* \"#utility.yul\":7245:7246   */\n      0x01\n        /* \"#utility.yul\":7242:7243   */\n      dup2\n        /* \"#utility.yul\":7238:7247   */\n      add\n        /* \"#utility.yul\":7233:7247   */\n      swap1\n      pop\n        /* \"#utility.yul\":7198:7482   */\n      jump(tag_231)\n    tag_233:\n        /* \"#utility.yul\":7202:7216   */\n      pop\n        /* \"#utility.yul\":7498:7501   */\n      dup6\n        /* \"#utility.yul\":7491:7501   */\n      swap4\n      pop\n        /* \"#utility.yul\":6899:7507   */\n      pop\n      pop\n      pop\n        /* \"#utility.yul\":6775:7507   */\n      swap3\n      swap2\n      pop\n      pop\n      jump\t// out\n        /* \"#utility.yul\":7513:7886   */\n    tag_38:\n        /* \"#utility.yul\":7656:7660   */\n      0x00\n        /* \"#utility.yul\":7694:7696   */\n      0x20\n        /* \"#utility.yul\":7683:7692   */\n      dup3\n        /* \"#utility.yul\":7679:7697   */\n      add\n        /* \"#utility.yul\":7671:7697   */\n      swap1\n      pop\n        /* \"#utility.yul\":7743:7752   */\n      dup2\n        /* \"#utility.yul\":7737:7741   */\n      dup2\n        /* \"#utility.yul\":7733:7753   */\n      sub\n        /* \"#utility.yul\":7729:7730   */\n      0x00\n        /* \"#utility.yul\":7718:7727   */\n      dup4\n        /* \"#utility.yul\":7714:7731   */\n      add\n        /* \"#utility.yul\":7707:7754   */\n      mstore\n        /* \"#utility.yul\":7771:7879   */\n      tag_237\n        /* \"#utility.yul\":7874:7878   */\n      dup2\n        /* \"#utility.yul\":7865:7871   */\n      dup5\n        /* \"#utility.yul\":7771:7879   */\n      tag_116\n      jump\t// in\n    tag_237:\n        /* \"#utility.yul\":7763:7879   */\n      swap1\n      pop\n        /* \"#utility.yul\":7513:7886   */\n      swap3\n      swap2\n      pop\n      pop\n      jump\t// out\n        /* \"#utility.yul\":7892:8012   */\n    tag_117:\n        /* \"#utility.yul\":7964:7987   */\n      tag_239\n        /* \"#utility.yul\":7981:7986   */\n      dup2\n        /* \"#utility.yul\":7964:7987   */\n      tag_86\n      jump\t// in\n    tag_239:\n        /* \"#utility.yul\":7957:7962   */\n      dup2\n        /* \"#utility.yul\":7954:7988   */\n      eq\n        /* \"#utility.yul\":7944:8006   */\n      tag_240\n      jumpi\n        /* \"#utility.yul\":8002:8003   */\n      0x00\n        /* \"#utility.yul\":7999:8000   */\n      dup1\n        /* \"#utility.yul\":7992:8004   */\n      revert\n        /* \"#utility.yul\":7944:8006   */\n    tag_240:\n        /* \"#utility.yul\":7892:8012   */\n      pop\n      jump\t// out\n        /* \"#utility.yul\":8018:8155   */\n    tag_118:\n        /* \"#utility.yul\":8063:8068   */\n      0x00\n        /* \"#utility.yul\":8101:8107   */\n      dup2\n        /* \"#utility.yul\":8088:8108   */\n      calldataload\n        /* \"#utility.yul\":8079:8108   */\n      swap1\n      pop\n        /* \"#utility.yul\":8117:8149   */\n      tag_242\n        /* \"#utility.yul\":8143:8148   */\n      dup2\n        /* \"#utility.yul\":8117:8149   */\n      tag_117\n      jump\t// in\n    tag_242:\n        /* \"#utility.yul\":8018:8155   */\n      swap3\n      swap2\n      pop\n      pop\n      jump\t// out\n        /* \"#utility.yul\":8161:8488   */\n    tag_41:\n        /* \"#utility.yul\":8219:8225   */\n      0x00\n        /* \"#utility.yul\":8268:8270   */\n      0x20\n        /* \"#utility.yul\":8256:8265   */\n      dup3\n        /* \"#utility.yul\":8247:8254   */\n      dup5\n        /* \"#utility.yul\":8243:8266   */\n      sub\n        /* \"#utility.yul\":8239:8271   */\n      slt\n        /* \"#utility.yul\":8236:8355   */\n      iszero\n      tag_244\n      jumpi\n        /* \"#utility.yul\":8274:8353   */\n      tag_245\n      tag_89\n      jump\t// in\n    tag_245:\n        /* \"#utility.yul\":8236:8355   */\n    tag_244:\n        /* \"#utility.yul\":8394:8395   */\n      0x00\n        /* \"#utility.yul\":8419:8471   */\n      tag_246\n        /* \"#utility.yul\":8463:8470   */\n      dup5\n        /* \"#utility.yul\":8454:8460   */\n      dup3\n        /* \"#utility.yul\":8443:8452   */\n      dup6\n        /* \"#utility.yul\":8439:8461   */\n      add\n        /* \"#utility.yul\":8419:8471   */\n      tag_118\n      jump\t// in\n    tag_246:\n        /* \"#utility.yul\":8409:8471   */\n      swap2\n      pop\n        /* \"#utility.yul\":8365:8481   */\n      pop\n        /* \"#utility.yul\":8161:8488   */\n      swap3\n      swap2\n      pop\n      pop\n      jump\t// out\n        /* \"#utility.yul\":8494:8599   */\n    tag_119:\n        /* \"#utility.yul\":8569:8592   */\n      tag_248\n        /* \"#utility.yul\":8586:8591   */\n      dup2\n        /* \"#utility.yul\":8569:8592   */\n      tag_86\n      jump\t// in\n    tag_248:\n        /* \"#utility.yul\":8564:8567   */\n      dup3\n        /* \"#utility.yul\":8557:8593   */\n      mstore\n        /* \"#utility.yul\":8494:8599   */\n      pop\n      pop\n      jump\t// out\n        /* \"#utility.yul\":8605:8704   */\n    tag_120:\n        /* \"#utility.yul\":8657:8663   */\n      0x00\n        /* \"#utility.yul\":8691:8696   */\n      dup2\n        /* \"#utility.yul\":8685:8697   */\n      mload\n        /* \"#utility.yul\":8675:8697   */\n      swap1\n      pop\n        /* \"#utility.yul\":8605:8704   */\n      swap2\n      swap1\n      pop\n      jump\t// out\n        /* \"#utility.yul\":8710:8869   */\n    tag_121:\n        /* \"#utility.yul\":8784:8795   */\n      0x00\n        /* \"#utility.yul\":8818:8824   */\n      dup3\n        /* \"#utility.yul\":8813:8816   */\n      dup3\n        /* \"#utility.yul\":8806:8825   */\n      mstore\n        /* \"#utility.yul\":8858:8862   */\n      0x20\n        /* \"#utility.yul\":8853:8856   */\n      dup3\n        /* \"#utility.yul\":8849:8863   */\n      add\n        /* \"#utility.yul\":8834:8863   */\n      swap1\n      pop\n        /* \"#utility.yul\":8710:8869   */\n      swap3\n      swap2\n      pop\n      pop\n      jump\t// out\n        /* \"#utility.yul\":8875:9014   */\n    tag_122:\n        /* \"#utility.yul\":8964:8970   */\n      dup3\n        /* \"#utility.yul\":8959:8962   */\n      dup2\n        /* \"#utility.yul\":8954:8957   */\n      dup4\n        /* \"#utility.yul\":8948:8971   */\n      mcopy\n        /* \"#utility.yul\":9005:9006   */\n      0x00\n        /* \"#utility.yul\":8996:9002   */\n      dup4\n        /* \"#utility.yul\":8991:8994   */\n      dup4\n        /* \"#utility.yul\":8987:9003   */\n      add\n        /* \"#utility.yul\":8980:9007   */\n      mstore\n        /* \"#utility.yul\":8875:9014   */\n      pop\n      pop\n      pop\n      jump\t// out\n        /* \"#utility.yul\":9020:9377   */\n    tag_123:\n        /* \"#utility.yul\":9098:9101   */\n      0x00\n        /* \"#utility.yul\":9126:9165   */\n      tag_253\n        /* \"#utility.yul\":9159:9164   */\n      dup3\n        /* \"#utility.yul\":9126:9165   */\n      tag_120\n      jump\t// in\n    tag_253:\n        /* \"#utility.yul\":9181:9242   */\n      tag_254\n        /* \"#utility.yul\":9235:9241   */\n      dup2\n        /* \"#utility.yul\":9230:9233   */\n      dup6\n        /* \"#utility.yul\":9181:9242   */\n      tag_121\n      jump\t// in\n    tag_254:\n        /* \"#utility.yul\":9174:9242   */\n      swap4\n      pop\n        /* \"#utility.yul\":9251:9316   */\n      tag_255\n        /* \"#utility.yul\":9309:9315   */\n      dup2\n        /* \"#utility.yul\":9304:9307   */\n      dup6\n        /* \"#utility.yul\":9297:9301   */\n      0x20\n        /* \"#utility.yul\":9290:9295   */\n      dup7\n        /* \"#utility.yul\":9286:9302   */\n      add\n        /* \"#utility.yul\":9251:9316   */\n      tag_122\n      jump\t// in\n    tag_255:\n        /* \"#utility.yul\":9341:9370   */\n      tag_256\n        /* \"#utility.yul\":9363:9369   */\n      dup2\n        /* \"#utility.yul\":9341:9370   */\n      tag_93\n      jump\t// in\n    tag_256:\n        /* \"#utility.yul\":9336:9339   */\n      dup5\n        /* \"#utility.yul\":9332:9371   */\n      add\n        /* \"#utility.yul\":9325:9371   */\n      swap2\n      pop\n        /* \"#utility.yul\":9102:9377   */\n      pop\n        /* \"#utility.yul\":9020:9377   */\n      swap3\n      swap2\n      pop\n      pop\n      jump\t// out\n        /* \"#utility.yul\":9383:9491   */\n    tag_124:\n        /* \"#utility.yul\":9460:9484   */\n      tag_258\n        /* \"#utility.yul\":9478:9483   */\n      dup2\n        /* \"#utility.yul\":9460:9484   */\n      tag_105\n      jump\t// in\n    tag_258:\n        /* \"#utility.yul\":9455:9458   */\n      dup3\n        /* \"#utility.yul\":9448:9485   */\n      mstore\n        /* \"#utility.yul\":9383:9491   */\n      pop\n      pop\n      jump\t// out\n        /* \"#utility.yul\":9547:10507   */\n    tag_125:\n        /* \"#utility.yul\":9656:9659   */\n      0x00\n        /* \"#utility.yul\":9692:9696   */\n      0x80\n        /* \"#utility.yul\":9687:9690   */\n      dup4\n        /* \"#utility.yul\":9683:9697   */\n      add\n        /* \"#utility.yul\":9782:9786   */\n      0x00\n        /* \"#utility.yul\":9775:9780   */\n      dup4\n        /* \"#utility.yul\":9771:9787   */\n      add\n        /* \"#utility.yul\":9765:9788   */\n      mload\n        /* \"#utility.yul\":9801:9862   */\n      tag_260\n        /* \"#utility.yul\":9856:9860   */\n      0x00\n        /* \"#utility.yul\":9851:9854   */\n      dup7\n        /* \"#utility.yul\":9847:9861   */\n      add\n        /* \"#utility.yul\":9833:9845   */\n      dup3\n        /* \"#utility.yul\":9801:9862   */\n      tag_119\n      jump\t// in\n    tag_260:\n        /* \"#utility.yul\":9707:9872   */\n      pop\n        /* \"#utility.yul\":9954:9958   */\n      0x20\n        /* \"#utility.yul\":9947:9952   */\n      dup4\n        /* \"#utility.yul\":9943:9959   */\n      add\n        /* \"#utility.yul\":9937:9960   */\n      mload\n        /* \"#utility.yul\":10007:10010   */\n      dup5\n        /* \"#utility.yul\":10001:10005   */\n      dup3\n        /* \"#utility.yul\":9997:10011   */\n      sub\n        /* \"#utility.yul\":9990:9994   */\n      0x20\n        /* \"#utility.yul\":9985:9988   */\n      dup7\n        /* \"#utility.yul\":9981:9995   */\n      add\n        /* \"#utility.yul\":9974:10012   */\n      mstore\n        /* \"#utility.yul\":10033:10106   */\n      tag_261\n        /* \"#utility.yul\":10101:10105   */\n      dup3\n        /* \"#utility.yul\":10087:10099   */\n      dup3\n        /* \"#utility.yul\":10033:10106   */\n      tag_123\n      jump\t// in\n    tag_261:\n        /* \"#utility.yul\":10025:10106   */\n      swap2\n      pop\n        /* \"#utility.yul\":9882:10117   */\n      pop\n        /* \"#utility.yul\":10207:10211   */\n      0x40\n        /* \"#utility.yul\":10200:10205   */\n      dup4\n        /* \"#utility.yul\":10196:10212   */\n      add\n        /* \"#utility.yul\":10190:10213   */\n      mload\n        /* \"#utility.yul\":10226:10289   */\n      tag_262\n        /* \"#utility.yul\":10283:10287   */\n      0x40\n        /* \"#utility.yul\":10278:10281   */\n      dup7\n        /* \"#utility.yul\":10274:10288   */\n      add\n        /* \"#utility.yul\":10260:10272   */\n      dup3\n        /* \"#utility.yul\":10226:10289   */\n      tag_113\n      jump\t// in\n    tag_262:\n        /* \"#utility.yul\":10127:10299   */\n      pop\n        /* \"#utility.yul\":10388:10392   */\n      0x60\n        /* \"#utility.yul\":10381:10386   */\n      dup4\n        /* \"#utility.yul\":10377:10393   */\n      add\n        /* \"#utility.yul\":10371:10394   */\n      mload\n        /* \"#utility.yul\":10407:10470   */\n      tag_263\n        /* \"#utility.yul\":10464:10468   */\n      0x60\n        /* \"#utility.yul\":10459:10462   */\n      dup7\n        /* \"#utility.yul\":10455:10469   */\n      add\n        /* \"#utility.yul\":10441:10453   */\n      dup3\n        /* \"#utility.yul\":10407:10470   */\n      tag_124\n      jump\t// in\n    tag_263:\n        /* \"#utility.yul\":10309:10480   */\n      pop\n        /* \"#utility.yul\":10497:10501   */\n      dup1\n        /* \"#utility.yul\":10490:10501   */\n      swap2\n      pop\n        /* \"#utility.yul\":9661:10507   */\n      pop\n        /* \"#utility.yul\":9547:10507   */\n      swap3\n      swap2\n      pop\n      pop\n      jump\t// out\n        /* \"#utility.yul\":10513:10866   */\n    tag_44:\n        /* \"#utility.yul\":10646:10650   */\n      0x00\n        /* \"#utility.yul\":10684:10686   */\n      0x20\n        /* \"#utility.yul\":10673:10682   */\n      dup3\n        /* \"#utility.yul\":10669:10687   */\n      add\n        /* \"#utility.yul\":10661:10687   */\n      swap1\n      pop\n        /* \"#utility.yul\":10733:10742   */\n      dup2\n        /* \"#utility.yul\":10727:10731   */\n      dup2\n        /* \"#utility.yul\":10723:10743   */\n      sub\n        /* \"#utility.yul\":10719:10720   */\n      0x00\n        /* \"#utility.yul\":10708:10717   */\n      dup4\n        /* \"#utility.yul\":10704:10721   */\n      add\n        /* \"#utility.yul\":10697:10744   */\n      mstore\n        /* \"#utility.yul\":10761:10859   */\n      tag_265\n        /* \"#utility.yul\":10854:10858   */\n      dup2\n        /* \"#utility.yul\":10845:10851   */\n      dup5\n        /* \"#utility.yul\":10761:10859   */\n      tag_125\n      jump\t// in\n    tag_265:\n        /* \"#utility.yul\":10753:10859   */\n      swap1\n      pop\n        /* \"#utility.yul\":10513:10866   */\n      swap3\n      swap2\n      pop\n      pop\n      jump\t// out\n        /* \"#utility.yul\":10872:11041   */\n    tag_126:\n        /* \"#utility.yul\":10956:10967   */\n      0x00\n        /* \"#utility.yul\":10990:10996   */\n      dup3\n        /* \"#utility.yul\":10985:10988   */\n      dup3\n        /* \"#utility.yul\":10978:10997   */\n      mstore\n        /* \"#utility.yul\":11030:11034   */\n      0x20\n        /* \"#utility.yul\":11025:11028   */\n      dup3\n        /* \"#utility.yul\":11021:11035   */\n      add\n        /* \"#utility.yul\":11006:11035   */\n      swap1\n      pop\n        /* \"#utility.yul\":10872:11041   */\n      swap3\n      swap2\n      pop\n      pop\n      jump\t// out\n        /* \"#utility.yul\":11047:11424   */\n    tag_127:\n        /* \"#utility.yul\":11135:11138   */\n      0x00\n        /* \"#utility.yul\":11163:11202   */\n      tag_268\n        /* \"#utility.yul\":11196:11201   */\n      dup3\n        /* \"#utility.yul\":11163:11202   */\n      tag_120\n      jump\t// in\n    tag_268:\n        /* \"#utility.yul\":11218:11289   */\n      tag_269\n        /* \"#utility.yul\":11282:11288   */\n      dup2\n        /* \"#utility.yul\":11277:11280   */\n      dup6\n        /* \"#utility.yul\":11218:11289   */\n      tag_126\n      jump\t// in\n    tag_269:\n        /* \"#utility.yul\":11211:11289   */\n      swap4\n      pop\n        /* \"#utility.yul\":11298:11363   */\n      tag_270\n        /* \"#utility.yul\":11356:11362   */\n      dup2\n        /* \"#utility.yul\":11351:11354   */\n      dup6\n        /* \"#utility.yul\":11344:11348   */\n      0x20\n        /* \"#utility.yul\":11337:11342   */\n      dup7\n        /* \"#utility.yul\":11333:11349   */\n      add\n        /* \"#utility.yul\":11298:11363   */\n      tag_122\n      jump\t// in\n    tag_270:\n        /* \"#utility.yul\":11388:11417   */\n      tag_271\n        /* \"#utility.yul\":11410:11416   */\n      dup2\n        /* \"#utility.yul\":11388:11417   */\n      tag_93\n      jump\t// in\n    tag_271:\n        /* \"#utility.yul\":11383:11386   */\n      dup5\n        /* \"#utility.yul\":11379:11418   */\n      add\n        /* \"#utility.yul\":11372:11418   */\n      swap2\n      pop\n        /* \"#utility.yul\":11139:11424   */\n      pop\n        /* \"#utility.yul\":11047:11424   */\n      swap3\n      swap2\n      pop\n      pop\n      jump\t// out\n        /* \"#utility.yul\":11430:12070   */\n    tag_49:\n        /* \"#utility.yul\":11625:11629   */\n      0x00\n        /* \"#utility.yul\":11663:11666   */\n      0x80\n        /* \"#utility.yul\":11652:11661   */\n      dup3\n        /* \"#utility.yul\":11648:11667   */\n      add\n        /* \"#utility.yul\":11640:11667   */\n      swap1\n      pop\n        /* \"#utility.yul\":11677:11746   */\n      tag_273\n        /* \"#utility.yul\":11743:11744   */\n      0x00\n        /* \"#utility.yul\":11732:11741   */\n      dup4\n        /* \"#utility.yul\":11728:11745   */\n      add\n        /* \"#utility.yul\":11719:11725   */\n      dup8\n        /* \"#utility.yul\":11677:11746   */\n      tag_87\n      jump\t// in\n    tag_273:\n        /* \"#utility.yul\":11793:11802   */\n      dup2\n        /* \"#utility.yul\":11787:11791   */\n      dup2\n        /* \"#utility.yul\":11783:11803   */\n      sub\n        /* \"#utility.yul\":11778:11780   */\n      0x20\n        /* \"#utility.yul\":11767:11776   */\n      dup4\n        /* \"#utility.yul\":11763:11781   */\n      add\n        /* \"#utility.yul\":11756:11804   */\n      mstore\n        /* \"#utility.yul\":11821:11899   */\n      tag_274\n        /* \"#utility.yul\":11894:11898   */\n      dup2\n        /* \"#utility.yul\":11885:11891   */\n      dup7\n        /* \"#utility.yul\":11821:11899   */\n      tag_127\n      jump\t// in\n    tag_274:\n        /* \"#utility.yul\":11813:11899   */\n      swap1\n      pop\n        /* \"#utility.yul\":11909:11981   */\n      tag_275\n        /* \"#utility.yul\":11977:11979   */\n      0x40\n        /* \"#utility.yul\":11966:11975   */\n      dup4\n        /* \"#utility.yul\":11962:11980   */\n      add\n        /* \"#utility.yul\":11953:11959   */\n      dup6\n        /* \"#utility.yul\":11909:11981   */\n      tag_109\n      jump\t// in\n    tag_275:\n        /* \"#utility.yul\":11991:12063   */\n      tag_276\n        /* \"#utility.yul\":12059:12061   */\n      0x60\n        /* \"#utility.yul\":12048:12057   */\n      dup4\n        /* \"#utility.yul\":12044:12062   */\n      add\n        /* \"#utility.yul\":12035:12041   */\n      dup5\n        /* \"#utility.yul\":11991:12063   */\n      tag_106\n      jump\t// in\n    tag_276:\n        /* \"#utility.yul\":11430:12070   */\n      swap6\n      swap5\n      pop\n      pop\n      pop\n      pop\n      pop\n      jump\t// out\n        /* \"#utility.yul\":12076:12256   */\n    tag_128:\n        /* \"#utility.yul\":12124:12201   */\n      0x4e487b7100000000000000000000000000000000000000000000000000000000\n        /* \"#utility.yul\":12121:12122   */\n      0x00\n        /* \"#utility.yul\":12114:12202   */\n      mstore\n        /* \"#utility.yul\":12221:12225   */\n      0x11\n        /* \"#utility.yul\":12218:12219   */\n      0x04\n        /* \"#utility.yul\":12211:12226   */\n      mstore\n        /* \"#utility.yul\":12245:12249   */\n      0x24\n        /* \"#utility.yul\":12242:12243   */\n      0x00\n        /* \"#utility.yul\":12235:12250   */\n      revert\n        /* \"#utility.yul\":12262:12637   */\n    tag_52:\n        /* \"#utility.yul\":12301:12304   */\n      0x00\n        /* \"#utility.yul\":12320:12339   */\n      tag_279\n        /* \"#utility.yul\":12337:12338   */\n      dup3\n        /* \"#utility.yul\":12320:12339   */\n      tag_86\n      jump\t// in\n    tag_279:\n        /* \"#utility.yul\":12315:12339   */\n      swap2\n      pop\n        /* \"#utility.yul\":12353:12372   */\n      tag_280\n        /* \"#utility.yul\":12370:12371   */\n      dup4\n        /* \"#utility.yul\":12353:12372   */\n      tag_86\n      jump\t// in\n    tag_280:\n        /* \"#utility.yul\":12348:12372   */\n      swap3\n      pop\n        /* \"#utility.yul\":12395:12396   */\n      dup3\n        /* \"#utility.yul\":12392:12393   */\n      dup3\n        /* \"#utility.yul\":12388:12397   */\n      add\n        /* \"#utility.yul\":12381:12397   */\n      swap1\n      pop\n        /* \"#utility.yul\":12593:12594   */\n      dup3\n        /* \"#utility.yul\":12588:12591   */\n      dup2\n        /* \"#utility.yul\":12584:12595   */\n      slt\n        /* \"#utility.yul\":12577:12596   */\n      iszero\n        /* \"#utility.yul\":12573:12574   */\n      0x00\n        /* \"#utility.yul\":12570:12571   */\n      dup4\n        /* \"#utility.yul\":12566:12575   */\n      slt\n        /* \"#utility.yul\":12562:12597   */\n      and\n        /* \"#utility.yul\":12545:12546   */\n      dup4\n        /* \"#utility.yul\":12540:12543   */\n      dup3\n        /* \"#utility.yul\":12536:12547   */\n      slt\n        /* \"#utility.yul\":12531:12532   */\n      0x00\n        /* \"#utility.yul\":12528:12529   */\n      dup5\n        /* \"#utility.yul\":12524:12533   */\n      slt\n        /* \"#utility.yul\":12517:12534   */\n      iszero\n        /* \"#utility.yul\":12513:12548   */\n      and\n        /* \"#utility.yul\":12497:12607   */\n      or\n        /* \"#utility.yul\":12494:12630   */\n      iszero\n      tag_281\n      jumpi\n        /* \"#utility.yul\":12610:12628   */\n      tag_282\n      tag_128\n      jump\t// in\n    tag_282:\n        /* \"#utility.yul\":12494:12630   */\n    tag_281:\n        /* \"#utility.yul\":12262:12637   */\n      swap3\n      swap2\n      pop\n      pop\n      jump\t// out\n        /* \"#utility.yul\":12643:12823   */\n    tag_129:\n        /* \"#utility.yul\":12691:12768   */\n      0x4e487b7100000000000000000000000000000000000000000000000000000000\n        /* \"#utility.yul\":12688:12689   */\n      0x00\n        /* \"#utility.yul\":12681:12769   */\n      mstore\n        /* \"#utility.yul\":12788:12792   */\n      0x22\n        /* \"#utility.yul\":12785:12786   */\n      0x04\n        /* \"#utility.yul\":12778:12793   */\n      mstore\n        /* \"#utility.yul\":12812:12816   */\n      0x24\n        /* \"#utility.yul\":12809:12810   */\n      0x00\n        /* \"#utility.yul\":12802:12817   */\n      revert\n        /* \"#utility.yul\":12829:13149   */\n    tag_76:\n        /* \"#utility.yul\":12873:12879   */\n      0x00\n        /* \"#utility.yul\":12910:12911   */\n      0x02\n        /* \"#utility.yul\":12904:12908   */\n      dup3\n        /* \"#utility.yul\":12900:12912   */\n      div\n        /* \"#utility.yul\":12890:12912   */\n      swap1\n      pop\n        /* \"#utility.yul\":12957:12958   */\n      0x01\n        /* \"#utility.yul\":12951:12955   */\n      dup3\n        /* \"#utility.yul\":12947:12959   */\n      and\n        /* \"#utility.yul\":12978:12996   */\n      dup1\n        /* \"#utility.yul\":12968:13049   */\n      tag_285\n      jumpi\n        /* \"#utility.yul\":13034:13038   */\n      0x7f\n        /* \"#utility.yul\":13026:13032   */\n      dup3\n        /* \"#utility.yul\":13022:13039   */\n      and\n        /* \"#utility.yul\":13012:13039   */\n      swap2\n      pop\n        /* \"#utility.yul\":12968:13049   */\n    tag_285:\n        /* \"#utility.yul\":13096:13098   */\n      0x20\n        /* \"#utility.yul\":13088:13094   */\n      dup3\n        /* \"#utility.yul\":13085:13099   */\n      lt\n        /* \"#utility.yul\":13065:13083   */\n      dup2\n        /* \"#utility.yul\":13062:13100   */\n      sub\n        /* \"#utility.yul\":13059:13143   */\n      tag_286\n      jumpi\n        /* \"#utility.yul\":13115:13133   */\n      tag_287\n      tag_129\n      jump\t// in\n    tag_287:\n        /* \"#utility.yul\":13059:13143   */\n    tag_286:\n        /* \"#utility.yul\":12880:13149   */\n      pop\n        /* \"#utility.yul\":12829:13149   */\n      swap2\n      swap1\n      pop\n      jump\t// out\n        /* \"#utility.yul\":13155:13296   */\n    tag_130:\n        /* \"#utility.yul\":13204:13208   */\n      0x00\n        /* \"#utility.yul\":13227:13230   */\n      dup2\n        /* \"#utility.yul\":13219:13230   */\n      swap1\n      pop\n        /* \"#utility.yul\":13250:13253   */\n      dup2\n        /* \"#utility.yul\":13247:13248   */\n      0x00\n        /* \"#utility.yul\":13240:13254   */\n      mstore\n        /* \"#utility.yul\":13284:13288   */\n      0x20\n        /* \"#utility.yul\":13281:13282   */\n      0x00\n        /* \"#utility.yul\":13271:13289   */\n      keccak256\n        /* \"#utility.yul\":13263:13289   */\n      swap1\n      pop\n        /* \"#utility.yul\":13155:13296   */\n      swap2\n      swap1\n      pop\n      jump\t// out\n        /* \"#utility.yul\":13302:13395   */\n    tag_131:\n        /* \"#utility.yul\":13339:13345   */\n      0x00\n        /* \"#utility.yul\":13386:13388   */\n      0x20\n        /* \"#utility.yul\":13381:13383   */\n      0x1f\n        /* \"#utility.yul\":13374:13379   */\n      dup4\n        /* \"#utility.yul\":13370:13384   */\n      add\n        /* \"#utility.yul\":13366:13389   */\n      div\n        /* \"#utility.yul\":13356:13389   */\n      swap1\n      pop\n        /* \"#utility.yul\":13302:13395   */\n      swap2\n      swap1\n      pop\n      jump\t// out\n        /* \"#utility.yul\":13401:13508   */\n    tag_132:\n        /* \"#utility.yul\":13445:13453   */\n      0x00\n        /* \"#utility.yul\":13495:13500   */\n      dup3\n        /* \"#utility.yul\":13489:13493   */\n      dup3\n        /* \"#utility.yul\":13485:13501   */\n      shl\n        /* \"#utility.yul\":13464:13501   */\n      swap1\n      pop\n        /* \"#utility.yul\":13401:13508   */\n      swap3\n      swap2\n      pop\n      pop\n      jump\t// out\n        /* \"#utility.yul\":13514:13907   */\n    tag_133:\n        /* \"#utility.yul\":13583:13589   */\n      0x00\n        /* \"#utility.yul\":13633:13634   */\n      0x08\n        /* \"#utility.yul\":13621:13631   */\n      dup4\n        /* \"#utility.yul\":13617:13635   */\n      mul\n        /* \"#utility.yul\":13656:13753   */\n      tag_292\n        /* \"#utility.yul\":13686:13752   */\n      0xffffffffffffffffffffffffffffffffffffffffffffffffffffffffffffffff\n        /* \"#utility.yul\":13675:13684   */\n      dup3\n        /* \"#utility.yul\":13656:13753   */\n      tag_132\n      jump\t// in\n    tag_292:\n        /* \"#utility.yul\":13774:13813   */\n      tag_293\n        /* \"#utility.yul\":13804:13812   */\n      dup7\n        /* \"#utility.yul\":13793:13802   */\n      dup4\n        /* \"#utility.yul\":13774:13813   */\n      tag_132\n      jump\t// in\n    tag_293:\n        /* \"#utility.yul\":13762:13813   */\n      swap6\n      pop\n        /* \"#utility.yul\":13846:13850   */\n      dup1\n        /* \"#utility.yul\":13842:13851   */\n      not\n        /* \"#utility.yul\":13835:13840   */\n      dup5\n        /* \"#utility.yul\":13831:13852   */\n      and\n        /* \"#utility.yul\":13822:13852   */\n      swap4\n      pop\n        /* \"#utility.yul\":13895:13899   */\n      dup1\n        /* \"#utility.yul\":13885:13893   */\n      dup7\n        /* \"#utility.yul\":13881:13900   */\n      and\n        /* \"#utility.yul\":13874:13879   */\n      dup5\n        /* \"#utility.yul\":13871:13901   */\n      or\n        /* \"#utility.yul\":13861:13901   */\n      swap3\n      pop\n        /* \"#utility.yul\":13590:13907   */\n      pop\n      pop\n        /* \"#utility.yul\":13514:13907   */\n      swap4\n      swap3\n      pop\n      pop\n      pop\n      jump\t// out\n        /* \"#utility.yul\":13913:13973   */\n    tag_134:\n        /* \"#utility.yul\":13941:13944   */\n      0x00\n        /* \"#utility.yul\":13962:13967   */\n      dup2\n        /* \"#utility.yul\":13955:13967   */\n      swap1\n      pop\n        /* \"#utility.yul\":13913:13973   */\n      swap2\n      swap1\n      pop\n      jump\t// out\n        /* \"#utility.yul\":13979:14121   */\n    tag_135:\n        /* \"#utility.yul\":14029:14038   */\n      0x00\n        /* \"#utility.yul\":14062:14115   */\n      tag_296\n        /* \"#utility.yul\":14080:14114   */\n      tag_297\n        /* \"#utility.yul\":14089:14113   */\n      tag_298\n        /* \"#utility.yul\":14107:14112   */\n      dup5\n        /* \"#utility.yul\":14089:14113   */\n      tag_101\n      jump\t// in\n    tag_298:\n        /* \"#utility.yul\":14080:14114   */\n      tag_134\n      jump\t// in\n    tag_297:\n        /* \"#utility.yul\":14062:14115   */\n      tag_101\n      jump\t// in\n    tag_296:\n        /* \"#utility.yul\":14049:14115   */\n      swap1\n      pop\n        /* \"#utility.yul\":13979:14121   */\n      swap2\n      swap1\n      pop\n      jump\t// out\n        /* \"#utility.yul\":14127:14202   */\n    tag_136:\n        /* \"#utility.yul\":14170:14173   */\n      0x00\n        /* \"#utility.yul\":14191:14196   */\n      dup2\n        /* \"#utility.yul\":14184:14196   */\n      swap1\n      pop\n        /* \"#utility.yul\":14127:14202   */\n      swap2\n      swap1\n      pop\n      jump\t// out\n        /* \"#utility.yul\":14208:14477   */\n    tag_137:\n        /* \"#utility.yul\":14318:14357   */\n      tag_301\n        /* \"#utility.yul\":14349:14356   */\n      dup4\n        /* \"#utility.yul\":14318:14357   */\n      tag_135\n      jump\t// in\n    tag_301:\n        /* \"#utility.yul\":14379:14470   */\n      tag_302\n        /* \"#utility.yul\":14428:14469   */\n      tag_303\n        /* \"#utility.yul\":14452:14468   */\n      dup3\n        /* \"#utility.yul\":14428:14469   */\n      tag_136\n      jump\t// in\n    tag_303:\n        /* \"#utility.yul\":14420:14426   */\n      dup5\n        /* \"#utility.yul\":14413:14417   */\n      dup5\n        /* \"#utility.yul\":14407:14418   */\n      sload\n        /* \"#utility.yul\":14379:14470   */\n      tag_133\n      jump\t// in\n    tag_302:\n        /* \"#utility.yul\":14373:14377   */\n      dup3\n        /* \"#utility.yul\":14366:14471   */\n      sstore\n        /* \"#utility.yul\":14284:14477   */\n      pop\n        /* \"#utility.yul\":14208:14477   */\n      pop\n      pop\n      pop\n      jump\t// out\n        /* \"#utility.yul\":14483:14556   */\n    tag_138:\n        /* \"#utility.yul\":14528:14531   */\n      0x00\n        /* \"#utility.yul\":14483:14556   */\n      swap1\n      jump\t// out\n        /* \"#utility.yul\":14562:14751   */\n    tag_139:\n        /* \"#utility.yul\":14639:14671   */\n      tag_306\n      tag_138\n      jump\t// in\n    tag_306:\n        /* \"#utility.yul\":14680:14745   */\n      tag_307\n        /* \"#utility.yul\":14738:14744   */\n      dup2\n        /* \"#utility.yul\":14730:14736   */\n      dup5\n        /* \"#utility.yul\":14724:14728   */\n      dup5\n        /* \"#utility.yul\":14680:14745   */\n      tag_137\n      jump\t// in\n    tag_307:\n        /* \"#utility.yul\":14615:14751   */\n      pop\n        /* \"#utility.yul\":14562:14751   */\n      pop\n      pop\n      jump\t// out\n        /* \"#utility.yul\":14757:14943   */\n    tag_140:\n        /* \"#utility.yul\":14817:14937   */\n    tag_309:\n        /* \"#utility.yul\":14834:14837   */\n      dup2\n        /* \"#utility.yul\":14827:14832   */\n      dup2\n        /* \"#utility.yul\":14824:14838   */\n      lt\n        /* \"#utility.yul\":14817:14937   */\n      iszero\n      tag_311\n      jumpi\n        /* \"#utility.yul\":14888:14927   */\n      tag_312\n        /* \"#utility.yul\":14925:14926   */\n      0x00\n        /* \"#utility.yul\":14918:14923   */\n      dup3\n        /* \"#utility.yul\":14888:14927   */\n      tag_139\n      jump\t// in\n    tag_312:\n        /* \"#utility.yul\":14861:14862   */\n      0x01\n        /* \"#utility.yul\":14854:14859   */\n      dup2\n        /* \"#utility.yul\":14850:14863   */\n      add\n        /* \"#utility.yul\":14841:14863   */\n      swap1\n      pop\n        /* \"#utility.yul\":14817:14937   */\n      jump(tag_309)\n    tag_311:\n        /* \"#utility.yul\":14757:14943   */\n      pop\n      pop\n      jump\t// out\n        /* \"#utility.yul\":14949:15492   */\n    tag_141:\n        /* \"#utility.yul\":15050:15052   */\n      0x1f\n        /* \"#utility.yul\":15045:15048   */\n      dup3\n        /* \"#utility.yul\":15042:15053   */\n      gt\n        /* \"#utility.yul\":15039:15485   */\n      iszero\n      tag_314\n      jumpi\n        /* \"#utility.yul\":15084:15122   */\n      tag_315\n        /* \"#utility.yul\":15116:15121   */\n      dup2\n        /* \"#utility.yul\":15084:15122   */\n      tag_130\n      jump\t// in\n    tag_315:\n        /* \"#utility.yul\":15168:15197   */\n      tag_316\n        /* \"#utility.yul\":15186:15196   */\n      dup5\n        /* \"#utility.yul\":15168:15197   */\n      tag_131\n      jump\t// in\n    tag_316:\n        /* \"#utility.yul\":15158:15166   */\n      dup2\n        /* \"#utility.yul\":15154:15198   */\n      add\n        /* \"#utility.yul\":15351:15353   */\n      0x20\n        /* \"#utility.yul\":15339:15349   */\n      dup6\n        /* \"#utility.yul\":15336:15354   */\n      lt\n        /* \"#utility.yul\":15333:15382   */\n      iszero\n      tag_317\n      jumpi\n        /* \"#utility.yul\":15372:15380   */\n      dup2\n        /* \"#utility.yul\":15357:15380   */\n      swap1\n      pop\n        /* \"#utility.yul\":15333:15382   */\n    tag_317:\n        /* \"#utility.yul\":15395:15475   */\n      tag_318\n        /* \"#utility.yul\":15451:15473   */\n      tag_319\n        /* \"#utility.yul\":15469:15472   */\n      dup6\n        /* \"#utility.yul\":15451:15473   */\n      tag_131\n      jump\t// in\n    tag_319:\n        /* \"#utility.yul\":15441:15449   */\n      dup4\n        /* \"#utility.yul\":15437:15474   */\n      add\n        /* \"#utility.yul\":15424:15435   */\n      dup3\n        /* \"#utility.yul\":15395:15475   */\n      tag_140\n      jump\t// in\n    tag_318:\n        /* \"#utility.yul\":15054:15485   */\n      pop\n      pop\n        /* \"#utility.yul\":15039:15485   */\n    tag_314:\n        /* \"#utility.yul\":14949:15492   */\n      pop\n      pop\n      pop\n      jump\t// out\n        /* \"#utility.yul\":15498:15615   */\n    tag_142:\n        /* \"#utility.yul\":15552:15560   */\n      0x00\n        /* \"#utility.yul\":15602:15607   */\n      dup3\n        /* \"#utility.yul\":15596:15600   */\n      dup3\n        /* \"#utility.yul\":15592:15608   */\n      shr\n        /* \"#utility.yul\":15571:15608   */\n      swap1\n      pop\n        /* \"#utility.yul\":15498:15615   */\n      swap3\n      swap2\n      pop\n      pop\n      jump\t// out\n        /* \"#utility.yul\":15621:15790   */\n    tag_143:\n        /* \"#utility.yul\":15665:15671   */\n      0x00\n        /* \"#utility.yul\":15698:15749   */\n      tag_322\n        /* \"#utility.yul\":15746:15747   */\n      0x00\n        /* \"#utility.yul\":15742:15748   */\n      not\n        /* \"#utility.yul\":15734:15739   */\n      dup5\n        /* \"#utility.yul\":15731:15732   */\n      0x08\n        /* \"#utility.yul\":15727:15740   */\n      mul\n        /* \"#utility.yul\":15698:15749   */\n      tag_142\n      jump\t// in\n    tag_322:\n        /* \"#utility.yul\":15694:15750   */\n      not\n        /* \"#utility.yul\":15779:15783   */\n      dup1\n        /* \"#utility.yul\":15773:15777   */\n      dup4\n        /* \"#utility.yul\":15769:15784   */\n      and\n        /* \"#utility.yul\":15759:15784   */\n      swap2\n      pop\n        /* \"#utility.yul\":15672:15790   */\n      pop\n        /* \"#utility.yul\":15621:15790   */\n      swap3\n      swap2\n      pop\n      pop\n      jump\t// out\n        /* \"#utility.yul\":15795:16090   */\n    tag_144:\n        /* \"#utility.yul\":15871:15875   */\n      0x00\n        /* \"#utility.yul\":16017:16046   */\n      tag_324\n        /* \"#utility.yul\":16042:16045   */\n      dup4\n        /* \"#utility.yul\":16036:16040   */\n      dup4\n        /* \"#utility.yul\":16017:16046   */\n      tag_143\n      jump\t// in\n    tag_324:\n        /* \"#utility.yul\":16009:16046   */\n      swap2\n      pop\n        /* \"#utility.yul\":16079:16082   */\n      dup3\n        /* \"#utility.yul\":16076:16077   */\n      0x02\n        /* \"#utility.yul\":16072:16083   */\n      mul\n        /* \"#utility.yul\":16066:16070   */\n      dup3\n        /* \"#utility.yul\":16063:16084   */\n      or\n        /* \"#utility.yul\":16055:16084   */\n      swap1\n      pop\n        /* \"#utility.yul\":15795:16090   */\n      swap3\n      swap2\n      pop\n      pop\n      jump\t// out\n        /* \"#utility.yul\":16095:17490   */\n    tag_54:\n        /* \"#utility.yul\":16212:16249   */\n      tag_326\n        /* \"#utility.yul\":16245:16248   */\n      dup3\n        /* \"#utility.yul\":16212:16249   */\n      tag_120\n      jump\t// in\n    tag_326:\n        /* \"#utility.yul\":16314:16332   */\n      0xffffffffffffffff\n        /* \"#utility.yul\":16306:16312   */\n      dup2\n        /* \"#utility.yul\":16303:16333   */\n      gt\n        /* \"#utility.yul\":16300:16356   */\n      iszero\n      tag_327\n      jumpi\n        /* \"#utility.yul\":16336:16354   */\n      tag_328\n      tag_94\n      jump\t// in\n    tag_328:\n        /* \"#utility.yul\":16300:16356   */\n    tag_327:\n        /* \"#utility.yul\":16380:16418   */\n      tag_329\n        /* \"#utility.yul\":16412:16416   */\n      dup3\n        /* \"#utility.yul\":16406:16417   */\n      sload\n        /* \"#utility.yul\":16380:16418   */\n      tag_76\n      jump\t// in\n    tag_329:\n        /* \"#utility.yul\":16465:16532   */\n      tag_330\n        /* \"#utility.yul\":16525:16531   */\n      dup3\n        /* \"#utility.yul\":16517:16523   */\n      dup3\n        /* \"#utility.yul\":16511:16515   */\n      dup6\n        /* \"#utility.yul\":16465:16532   */\n      tag_141\n      jump\t// in\n    tag_330:\n        /* \"#utility.yul\":16559:16560   */\n      0x00\n        /* \"#utility.yul\":16583:16587   */\n      0x20\n        /* \"#utility.yul\":16570:16587   */\n      swap1\n      pop\n        /* \"#utility.yul\":16615:16617   */\n      0x1f\n        /* \"#utility.yul\":16607:16613   */\n      dup4\n        /* \"#utility.yul\":16604:16618   */\n      gt\n        /* \"#utility.yul\":16632:16633   */\n      0x01\n        /* \"#utility.yul\":16627:17245   */\n      dup2\n      eq\n      tag_332\n      jumpi\n        /* \"#utility.yul\":17289:17290   */\n      0x00\n        /* \"#utility.yul\":17306:17312   */\n      dup5\n        /* \"#utility.yul\":17303:17380   */\n      iszero\n      tag_333\n      jumpi\n        /* \"#utility.yul\":17355:17364   */\n      dup3\n        /* \"#utility.yul\":17350:17353   */\n      dup8\n        /* \"#utility.yul\":17346:17365   */\n      add\n        /* \"#utility.yul\":17340:17366   */\n      mload\n        /* \"#utility.yul\":17331:17366   */\n      swap1\n      pop\n        /* \"#utility.yul\":17303:17380   */\n    tag_333:\n        /* \"#utility.yul\":17406:17473   */\n      tag_334\n        /* \"#utility.yul\":17466:17472   */\n      dup6\n        /* \"#utility.yul\":17459:17464   */\n      dup3\n        /* \"#utility.yul\":17406:17473   */\n      tag_144\n      jump\t// in\n    tag_334:\n        /* \"#utility.yul\":17400:17404   */\n      dup7\n        /* \"#utility.yul\":17393:17474   */\n      sstore\n        /* \"#utility.yul\":17262:17484   */\n      pop\n        /* \"#utility.yul\":16597:17484   */\n      jump(tag_331)\n        /* \"#utility.yul\":16627:17245   */\n    tag_332:\n        /* \"#utility.yul\":16679:16683   */\n      0x1f\n        /* \"#utility.yul\":16675:16684   */\n      not\n        /* \"#utility.yul\":16667:16673   */\n      dup5\n        /* \"#utility.yul\":16663:16685   */\n      and\n        /* \"#utility.yul\":16713:16750   */\n      tag_335\n        /* \"#utility.yul\":16745:16749   */\n      dup7\n        /* \"#utility.yul\":16713:16750   */\n      tag_130\n      jump\t// in\n    tag_335:\n        /* \"#utility.yul\":16772:16773   */\n      0x00\n        /* \"#utility.yul\":16786:16994   */\n    tag_336:\n        /* \"#utility.yul\":16800:16807   */\n      dup3\n        /* \"#utility.yul\":16797:16798   */\n      dup2\n        /* \"#utility.yul\":16794:16808   */\n      lt\n        /* \"#utility.yul\":16786:16994   */\n      iszero\n      tag_338\n      jumpi\n        /* \"#utility.yul\":16879:16888   */\n      dup5\n        /* \"#utility.yul\":16874:16877   */\n      dup10\n        /* \"#utility.yul\":16870:16889   */\n      add\n        /* \"#utility.yul\":16864:16890   */\n      mload\n        /* \"#utility.yul\":16856:16862   */\n      dup3\n        /* \"#utility.yul\":16849:16891   */\n      sstore\n        /* \"#utility.yul\":16930:16931   */\n      0x01\n        /* \"#utility.yul\":16922:16928   */\n      dup3\n        /* \"#utility.yul\":16918:16932   */\n      add\n        /* \"#utility.yul\":16908:16932   */\n      swap2\n      pop\n        /* \"#utility.yul\":16977:16979   */\n      0x20\n        /* \"#utility.yul\":16966:16975   */\n      dup6\n        /* \"#utility.yul\":16962:16980   */\n      add\n        /* \"#utility.yul\":16949:16980   */\n      swap5\n      pop\n        /* \"#utility.yul\":16823:16827   */\n      0x20\n        /* \"#utility.yul\":16820:16821   */\n      dup2\n        /* \"#utility.yul\":16816:16828   */\n      add\n        /* \"#utility.yul\":16811:16828   */\n      swap1\n      pop\n        /* \"#utility.yul\":16786:16994   */\n      jump(tag_336)\n    tag_338:\n        /* \"#utility.yul\":17022:17028   */\n      dup7\n        /* \"#utility.yul\":17013:17020   */\n      dup4\n        /* \"#utility.yul\":17010:17029   */\n      lt\n        /* \"#utility.yul\":17007:17186   */\n      iszero\n      tag_339\n      jumpi\n        /* \"#utility.yul\":17080:17089   */\n      dup5\n        /* \"#utility.yul\":17075:17078   */\n      dup10\n        /* \"#utility.yul\":17071:17090   */\n      add\n        /* \"#utility.yul\":17065:17091   */\n      mload\n        /* \"#utility.yul\":17123:17171   */\n      tag_340\n        /* \"#utility.yul\":17165:17169   */\n      0x1f\n        /* \"#utility.yul\":17157:17163   */\n      dup10\n        /* \"#utility.yul\":17153:17170   */\n      and\n        /* \"#utility.yul\":17142:17151   */\n      dup3\n        /* \"#utility.yul\":17123:17171   */\n      tag_143\n      jump\t// in\n    tag_340:\n        /* \"#utility.yul\":17115:17121   */\n      dup4\n        /* \"#utility.yul\":17108:17172   */\n      sstore\n        /* \"#utility.yul\":17030:17186   */\n      pop\n        /* \"#utility.yul\":17007:17186   */\n    tag_339:\n        /* \"#utility.yul\":17232:17233   */\n      0x01\n        /* \"#utility.yul\":17228:17229   */\n      0x02\n        /* \"#utility.yul\":17220:17226   */\n      dup9\n        /* \"#utility.yul\":17216:17230   */\n      mul\n        /* \"#utility.yul\":17212:17234   */\n      add\n        /* \"#utility.yul\":17206:17210   */\n      dup9\n        /* \"#utility.yul\":17199:17235   */\n      sstore\n        /* \"#utility.yul\":16634:17245   */\n      pop\n      pop\n      pop\n        /* \"#utility.yul\":16597:17484   */\n    tag_331:\n      pop\n        /* \"#utility.yul\":16187:17490   */\n      pop\n      pop\n      pop\n        /* \"#utility.yul\":16095:17490   */\n      pop\n      pop\n      jump\t// out\n        /* \"#utility.yul\":17496:17729   */\n    tag_57:\n        /* \"#utility.yul\":17535:17538   */\n      0x00\n        /* \"#utility.yul\":17558:17582   */\n      tag_342\n        /* \"#utility.yul\":17576:17581   */\n      dup3\n        /* \"#utility.yul\":17558:17582   */\n      tag_101\n      jump\t// in\n    tag_342:\n        /* \"#utility.yul\":17549:17582   */\n      swap2\n      pop\n        /* \"#utility.yul\":17604:17670   */\n      0xffffffffffffffffffffffffffffffffffffffffffffffffffffffffffffffff\n        /* \"#utility.yul\":17597:17602   */\n      dup3\n        /* \"#utility.yul\":17594:17671   */\n      sub\n        /* \"#utility.yul\":17591:17694   */\n      tag_343\n      jumpi\n        /* \"#utility.yul\":17674:17692   */\n      tag_344\n      tag_128\n      jump\t// in\n    tag_344:\n        /* \"#utility.yul\":17591:17694   */\n    tag_343:\n        /* \"#utility.yul\":17721:17722   */\n      0x01\n        /* \"#utility.yul\":17714:17719   */\n      dup3\n        /* \"#utility.yul\":17710:17723   */\n      add\n        /* \"#utility.yul\":17703:17723   */\n      swap1\n      pop\n        /* \"#utility.yul\":17496:17729   */\n      swap2\n      swap1\n      pop\n      jump\t// out\n        /* \"#utility.yul\":17735:17917   */\n    tag_145:\n        /* \"#utility.yul\":17875:17909   */\n      0x4f6e6c79204f776e65722048617320612041636365737320746f205468697320\n        /* \"#utility.yul\":17871:17872   */\n      0x00\n        /* \"#utility.yul\":17863:17869   */\n      dup3\n        /* \"#utility.yul\":17859:17873   */\n      add\n        /* \"#utility.yul\":17852:17910   */\n      mstore\n        /* \"#utility.yul\":17735:17917   */\n      pop\n      jump\t// out\n        /* \"#utility.yul\":17923:18289   */\n    tag_146:\n        /* \"#utility.yul\":18065:18068   */\n      0x00\n        /* \"#utility.yul\":18086:18153   */\n      tag_347\n        /* \"#utility.yul\":18150:18152   */\n      0x20\n        /* \"#utility.yul\":18145:18148   */\n      dup4\n        /* \"#utility.yul\":18086:18153   */\n      tag_126\n      jump\t// in\n    tag_347:\n        /* \"#utility.yul\":18079:18153   */\n      swap2\n      pop\n        /* \"#utility.yul\":18162:18255   */\n      tag_348\n        /* \"#utility.yul\":18251:18254   */\n      dup3\n        /* \"#utility.yul\":18162:18255   */\n      tag_145\n      jump\t// in\n    tag_348:\n        /* \"#utility.yul\":18280:18282   */\n      0x20\n        /* \"#utility.yul\":18275:18278   */\n      dup3\n        /* \"#utility.yul\":18271:18283   */\n      add\n        /* \"#utility.yul\":18264:18283   */\n      swap1\n      pop\n        /* \"#utility.yul\":17923:18289   */\n      swap2\n      swap1\n      pop\n      jump\t// out\n        /* \"#utility.yul\":18295:18714   */\n    tag_64:\n        /* \"#utility.yul\":18461:18465   */\n      0x00\n        /* \"#utility.yul\":18499:18501   */\n      0x20\n        /* \"#utility.yul\":18488:18497   */\n      dup3\n        /* \"#utility.yul\":18484:18502   */\n      add\n        /* \"#utility.yul\":18476:18502   */\n      swap1\n      pop\n        /* \"#utility.yul\":18548:18557   */\n      dup2\n        /* \"#utility.yul\":18542:18546   */\n      dup2\n        /* \"#utility.yul\":18538:18558   */\n      sub\n        /* \"#utility.yul\":18534:18535   */\n      0x00\n        /* \"#utility.yul\":18523:18532   */\n      dup4\n        /* \"#utility.yul\":18519:18536   */\n      add\n        /* \"#utility.yul\":18512:18559   */\n      mstore\n        /* \"#utility.yul\":18576:18707   */\n      tag_350\n        /* \"#utility.yul\":18702:18706   */\n      dup2\n        /* \"#utility.yul\":18576:18707   */\n      tag_146\n      jump\t// in\n    tag_350:\n        /* \"#utility.yul\":18568:18707   */\n      swap1\n      pop\n        /* \"#utility.yul\":18295:18714   */\n      swap2\n      swap1\n      pop\n      jump\t// out\n\n    auxdata: 0xa2646970667358221220f3f4b68897038caa5e5fa1dcd36bea82ae989eb6072d533399c1b29c4d98918564736f6c634300081a0033\n}\n",
				"bytecode": {
					"linkReferences": {},
					"object": "60806040525f6003553480156012575f80fd5b50335f806101000a81548173ffffffffffffffffffffffffffffffffffffffff021916908373ffffffffffffffffffffffffffffffffffffffff1602179055506112328061005f5f395ff3fe608060405234801561000f575f80fd5b5060043610610086575f3560e01c80639e8a8d6c116100595780639e8a8d6c146100fe578063a69f554d1461012e578063d0f86c9d1461015e578063f8cf1d191461018e57610086565b806307973ccf1461008a5780631c5220c2146100a85780636723e269146100c45780638da5cb5b146100e0575b5f80fd5b6100926101c1565b60405161009f9190610867565b60405180910390f35b6100c260048036038101906100bd9190610a00565b6101c7565b005b6100de60048036038101906100d99190610a5a565b610354565b005b6100e861040a565b6040516100f59190610ac4565b60405180910390f35b61011860048036038101906101139190610b07565b61042d565b6040516101259190610b41565b60405180910390f35b61014860048036038101906101439190610b07565b610500565b6040516101559190610c11565b60405180910390f35b61017860048036038101906101739190610c5b565b610620565b6040516101859190610d64565b60405180910390f35b6101a860048036038101906101a39190610c5b565b610743565b6040516101b89493929190610dcc565b60405180910390f35b60035481565b600160035f8282546101d99190610e43565b92505081905550604051806080016040528060035481526020018381526020018281526020013373ffffffffffffffffffffffffffffffffffffffff1681525060045f60035481526020019081526020015f205f820151815f01556020820151816001019081610249919061107e565b50604082015181600201556060820151816003015f6101000a81548173ffffffffffffffffffffffffffffffffffffffff021916908373ffffffffffffffffffffffffffffffffffffffff16021790555090505060025f3373ffffffffffffffffffffffffffffffffffffffff1673ffffffffffffffffffffffffffffffffffffffff1681526020019081526020015f2081908060018154018082558091505060019003905f5260205f20015f909190919091505560015f3373ffffffffffffffffffffffffffffffffffffffff1673ffffffffffffffffffffffffffffffffffffffff1681526020019081526020015f205f81548092919061034b9061114d565b91905055505050565b60025f3373ffffffffffffffffffffffffffffffffffffffff1673ffffffffffffffffffffffffffffffffffffffff1681526020019081526020015f2081908060018154018082558091505060019003905f5260205f20015f909190919091505560015f3373ffffffffffffffffffffffffffffffffffffffff1673ffffffffffffffffffffffffffffffffffffffff1681526020019081526020015f205f8154809291906104029061114d565b919050555050565b5f8054906101000a900473ffffffffffffffffffffffffffffffffffffffff1681565b5f3373ffffffffffffffffffffffffffffffffffffffff165f8054906101000a900473ffffffffffffffffffffffffffffffffffffffff1673ffffffffffffffffffffffffffffffffffffffff16146104bb576040517f08c379a00000000000000000000000000000000000000000000000000000000081526004016104b2906111de565b60405180910390fd5b60015f8373ffffffffffffffffffffffffffffffffffffffff1673ffffffffffffffffffffffffffffffffffffffff1681526020019081526020015f20549050919050565b60603373ffffffffffffffffffffffffffffffffffffffff165f8054906101000a900473ffffffffffffffffffffffffffffffffffffffff1673ffffffffffffffffffffffffffffffffffffffff161461058f576040517f08c379a0000000000000000000000000000000000000000000000000000000008152600401610586906111de565b60405180910390fd5b60025f8373ffffffffffffffffffffffffffffffffffffffff1673ffffffffffffffffffffffffffffffffffffffff1681526020019081526020015f2080548060200260200160405190810160405280929190818152602001828054801561061457602002820191905f5260205f20905b815481526020019060010190808311610600575b50505050509050919050565b610628610814565b60045f8381526020019081526020015f206040518060800160405290815f820154815260200160018201805461065d90610eb1565b80601f016020809104026020016040519081016040528092919081815260200182805461068990610eb1565b80156106d45780601f106106ab576101008083540402835291602001916106d4565b820191905f5260205f20905b8154815290600101906020018083116106b757829003601f168201915b5050505050815260200160028201548152602001600382015f9054906101000a900473ffffffffffffffffffffffffffffffffffffffff1673ffffffffffffffffffffffffffffffffffffffff1673ffffffffffffffffffffffffffffffffffffffff16815250509050919050565b6004602052805f5260405f205f91509050805f01549080600101805461076890610eb1565b80601f016020809104026020016040519081016040528092919081815260200182805461079490610eb1565b80156107df5780601f106107b6576101008083540402835291602001916107df565b820191905f5260205f20905b8154815290600101906020018083116107c257829003601f168201915b505050505090806002015490806003015f9054906101000a900473ffffffffffffffffffffffffffffffffffffffff16905084565b60405180608001604052805f8152602001606081526020015f81526020015f73ffffffffffffffffffffffffffffffffffffffff1681525090565b5f819050919050565b6108618161084f565b82525050565b5f60208201905061087a5f830184610858565b92915050565b5f604051905090565b5f80fd5b5f80fd5b5f80fd5b5f80fd5b5f601f19601f8301169050919050565b7f4e487b71000000000000000000000000000000000000000000000000000000005f52604160045260245ffd5b6108df82610899565b810181811067ffffffffffffffff821117156108fe576108fd6108a9565b5b80604052505050565b5f610910610880565b905061091c82826108d6565b919050565b5f67ffffffffffffffff82111561093b5761093a6108a9565b5b61094482610899565b9050602081019050919050565b828183375f83830152505050565b5f61097161096c84610921565b610907565b90508281526020810184848401111561098d5761098c610895565b5b610998848285610951565b509392505050565b5f82601f8301126109b4576109b3610891565b5b81356109c484826020860161095f565b91505092915050565b5f819050919050565b6109df816109cd565b81146109e9575f80fd5b50565b5f813590506109fa816109d6565b92915050565b5f8060408385031215610a1657610a15610889565b5b5f83013567ffffffffffffffff811115610a3357610a3261088d565b5b610a3f858286016109a0565b9250506020610a50858286016109ec565b9150509250929050565b5f60208284031215610a6f57610a6e610889565b5b5f610a7c848285016109ec565b91505092915050565b5f73ffffffffffffffffffffffffffffffffffffffff82169050919050565b5f610aae82610a85565b9050919050565b610abe81610aa4565b82525050565b5f602082019050610ad75f830184610ab5565b92915050565b610ae681610aa4565b8114610af0575f80fd5b50565b5f81359050610b0181610add565b92915050565b5f60208284031215610b1c57610b1b610889565b5b5f610b2984828501610af3565b91505092915050565b610b3b816109cd565b82525050565b5f602082019050610b545f830184610b32565b92915050565b5f81519050919050565b5f82825260208201905092915050565b5f819050602082019050919050565b610b8c816109cd565b82525050565b5f610b9d8383610b83565b60208301905092915050565b5f602082019050919050565b5f610bbf82610b5a565b610bc98185610b64565b9350610bd483610b74565b805f5b83811015610c04578151610beb8882610b92565b9750610bf683610ba9565b925050600181019050610bd7565b5085935050505092915050565b5f6020820190508181035f830152610c298184610bb5565b905092915050565b610c3a8161084f565b8114610c44575f80fd5b50565b5f81359050610c5581610c31565b92915050565b5f60208284031215610c7057610c6f610889565b5b5f610c7d84828501610c47565b91505092915050565b610c8f8161084f565b82525050565b5f81519050919050565b5f82825260208201905092915050565b8281835e5f83830152505050565b5f610cc782610c95565b610cd18185610c9f565b9350610ce1818560208601610caf565b610cea81610899565b840191505092915050565b610cfe81610aa4565b82525050565b5f608083015f830151610d195f860182610c86565b5060208301518482036020860152610d318282610cbd565b9150506040830151610d466040860182610b83565b506060830151610d596060860182610cf5565b508091505092915050565b5f6020820190508181035f830152610d7c8184610d04565b905092915050565b5f82825260208201905092915050565b5f610d9e82610c95565b610da88185610d84565b9350610db8818560208601610caf565b610dc181610899565b840191505092915050565b5f608082019050610ddf5f830187610858565b8181036020830152610df18186610d94565b9050610e006040830185610b32565b610e0d6060830184610ab5565b95945050505050565b7f4e487b71000000000000000000000000000000000000000000000000000000005f52601160045260245ffd5b5f610e4d8261084f565b9150610e588361084f565b92508282019050828112155f8312168382125f841215161715610e7e57610e7d610e16565b5b92915050565b7f4e487b71000000000000000000000000000000000000000000000000000000005f52602260045260245ffd5b5f6002820490506001821680610ec857607f821691505b602082108103610edb57610eda610e84565b5b50919050565b5f819050815f5260205f209050919050565b5f6020601f8301049050919050565b5f82821b905092915050565b5f60088302610f3d7fffffffffffffffffffffffffffffffffffffffffffffffffffffffffffffffff82610f02565b610f478683610f02565b95508019841693508086168417925050509392505050565b5f819050919050565b5f610f82610f7d610f78846109cd565b610f5f565b6109cd565b9050919050565b5f819050919050565b610f9b83610f68565b610faf610fa782610f89565b848454610f0e565b825550505050565b5f90565b610fc3610fb7565b610fce818484610f92565b505050565b5b81811015610ff157610fe65f82610fbb565b600181019050610fd4565b5050565b601f8211156110365761100781610ee1565b61101084610ef3565b8101602085101561101f578190505b61103361102b85610ef3565b830182610fd3565b50505b505050565b5f82821c905092915050565b5f6110565f198460080261103b565b1980831691505092915050565b5f61106e8383611047565b9150826002028217905092915050565b61108782610c95565b67ffffffffffffffff8111156110a05761109f6108a9565b5b6110aa8254610eb1565b6110b5828285610ff5565b5f60209050601f8311600181146110e6575f84156110d4578287015190505b6110de8582611063565b865550611145565b601f1984166110f486610ee1565b5f5b8281101561111b578489015182556001820191506020850194506020810190506110f6565b868310156111385784890151611134601f891682611047565b8355505b6001600288020188555050505b505050505050565b5f611157826109cd565b91507fffffffffffffffffffffffffffffffffffffffffffffffffffffffffffffffff820361118957611188610e16565b5b600182019050919050565b7f4f6e6c79204f776e65722048617320612041636365737320746f2054686973205f82015250565b5f6111c8602083610d84565b91506111d382611194565b602082019050919050565b5f6020820190508181035f8301526111f5816111bc565b905091905056fea2646970667358221220f3f4b68897038caa5e5fa1dcd36bea82ae989eb6072d533399c1b29c4d98918564736f6c634300081a0033",
					"opcodes": "PUSH1 0x80 PUSH1 0x40 MSTORE PUSH0 PUSH1 0x3 SSTORE CALLVALUE DUP1 ISZERO PUSH1 0x12 JUMPI PUSH0 DUP1 REVERT JUMPDEST POP CALLER PUSH0 DUP1 PUSH2 0x100 EXP DUP2 SLOAD DUP2 PUSH20 0xFFFFFFFFFFFFFFFFFFFFFFFFFFFFFFFFFFFFFFFF MUL NOT AND SWAP1 DUP4 PUSH20 0xFFFFFFFFFFFFFFFFFFFFFFFFFFFFFFFFFFFFFFFF AND MUL OR SWAP1 SSTORE POP PUSH2 0x1232 DUP1 PUSH2 0x5F PUSH0 CODECOPY PUSH0 RETURN INVALID PUSH1 0x80 PUSH1 0x40 MSTORE CALLVALUE DUP1 ISZERO PUSH2 0xF JUMPI PUSH0 DUP1 REVERT JUMPDEST POP PUSH1 0x4 CALLDATASIZE LT PUSH2 0x86 JUMPI PUSH0 CALLDATALOAD PUSH1 0xE0 SHR DUP1 PUSH4 0x9E8A8D6C GT PUSH2 0x59 JUMPI DUP1 PUSH4 0x9E8A8D6C EQ PUSH2 0xFE JUMPI DUP1 PUSH4 0xA69F554D EQ PUSH2 0x12E JUMPI DUP1 PUSH4 0xD0F86C9D EQ PUSH2 0x15E JUMPI DUP1 PUSH4 0xF8CF1D19 EQ PUSH2 0x18E JUMPI PUSH2 0x86 JUMP JUMPDEST DUP1 PUSH4 0x7973CCF EQ PUSH2 0x8A JUMPI DUP1 PUSH4 0x1C5220C2 EQ PUSH2 0xA8 JUMPI DUP1 PUSH4 0x6723E269 EQ PUSH2 0xC4 JUMPI DUP1 PUSH4 0x8DA5CB5B EQ PUSH2 0xE0 JUMPI JUMPDEST PUSH0 DUP1 REVERT JUMPDEST PUSH2 0x92 PUSH2 0x1C1 JUMP JUMPDEST PUSH1 0x40 MLOAD PUSH2 0x9F SWAP2 SWAP1 PUSH2 0x867 JUMP JUMPDEST PUSH1 0x40 MLOAD DUP1 SWAP2 SUB SWAP1 RETURN JUMPDEST PUSH2 0xC2 PUSH1 0x4 DUP1 CALLDATASIZE SUB DUP2 ADD SWAP1 PUSH2 0xBD SWAP2 SWAP1 PUSH2 0xA00 JUMP JUMPDEST PUSH2 0x1C7 JUMP JUMPDEST STOP JUMPDEST PUSH2 0xDE PUSH1 0x4 DUP1 CALLDATASIZE SUB DUP2 ADD SWAP1 PUSH2 0xD9 SWAP2 SWAP1 PUSH2 0xA5A JUMP JUMPDEST PUSH2 0x354 JUMP JUMPDEST STOP JUMPDEST PUSH2 0xE8 PUSH2 0x40A JUMP JUMPDEST PUSH1 0x40 MLOAD PUSH2 0xF5 SWAP2 SWAP1 PUSH2 0xAC4 JUMP JUMPDEST PUSH1 0x40 MLOAD DUP1 SWAP2 SUB SWAP1 RETURN JUMPDEST PUSH2 0x118 PUSH1 0x4 DUP1 CALLDATASIZE SUB DUP2 ADD SWAP1 PUSH2 0x113 SWAP2 SWAP1 PUSH2 0xB07 JUMP JUMPDEST PUSH2 0x42D JUMP JUMPDEST PUSH1 0x40 MLOAD PUSH2 0x125 SWAP2 SWAP1 PUSH2 0xB41 JUMP JUMPDEST PUSH1 0x40 MLOAD DUP1 SWAP2 SUB SWAP1 RETURN JUMPDEST PUSH2 0x148 PUSH1 0x4 DUP1 CALLDATASIZE SUB DUP2 ADD SWAP1 PUSH2 0x143 SWAP2 SWAP1 PUSH2 0xB07 JUMP JUMPDEST PUSH2 0x500 JUMP JUMPDEST PUSH1 0x40 MLOAD PUSH2 0x155 SWAP2 SWAP1 PUSH2 0xC11 JUMP JUMPDEST PUSH1 0x40 MLOAD DUP1 SWAP2 SUB SWAP1 RETURN JUMPDEST PUSH2 0x178 PUSH1 0x4 DUP1 CALLDATASIZE SUB DUP2 ADD SWAP1 PUSH2 0x173 SWAP2 SWAP1 PUSH2 0xC5B JUMP JUMPDEST PUSH2 0x620 JUMP JUMPDEST PUSH1 0x40 MLOAD PUSH2 0x185 SWAP2 SWAP1 PUSH2 0xD64 JUMP JUMPDEST PUSH1 0x40 MLOAD DUP1 SWAP2 SUB SWAP1 RETURN JUMPDEST PUSH2 0x1A8 PUSH1 0x4 DUP1 CALLDATASIZE SUB DUP2 ADD SWAP1 PUSH2 0x1A3 SWAP2 SWAP1 PUSH2 0xC5B JUMP JUMPDEST PUSH2 0x743 JUMP JUMPDEST PUSH1 0x40 MLOAD PUSH2 0x1B8 SWAP5 SWAP4 SWAP3 SWAP2 SWAP1 PUSH2 0xDCC JUMP JUMPDEST PUSH1 0x40 MLOAD DUP1 SWAP2 SUB SWAP1 RETURN JUMPDEST PUSH1 0x3 SLOAD DUP2 JUMP JUMPDEST PUSH1 0x1 PUSH1 0x3 PUSH0 DUP3 DUP3 SLOAD PUSH2 0x1D9 SWAP2 SWAP1 PUSH2 0xE43 JUMP JUMPDEST SWAP3 POP POP DUP2 SWAP1 SSTORE POP PUSH1 0x40 MLOAD DUP1 PUSH1 0x80 ADD PUSH1 0x40 MSTORE DUP1 PUSH1 0x3 SLOAD DUP2 MSTORE PUSH1 0x20 ADD DUP4 DUP2 MSTORE PUSH1 0x20 ADD DUP3 DUP2 MSTORE PUSH1 0x20 ADD CALLER PUSH20 0xFFFFFFFFFFFFFFFFFFFFFFFFFFFFFFFFFFFFFFFF AND DUP2 MSTORE POP PUSH1 0x4 PUSH0 PUSH1 0x3 SLOAD DUP2 MSTORE PUSH1 0x20 ADD SWAP1 DUP2 MSTORE PUSH1 0x20 ADD PUSH0 KECCAK256 PUSH0 DUP3 ADD MLOAD DUP2 PUSH0 ADD SSTORE PUSH1 0x20 DUP3 ADD MLOAD DUP2 PUSH1 0x1 ADD SWAP1 DUP2 PUSH2 0x249 SWAP2 SWAP1 PUSH2 0x107E JUMP JUMPDEST POP PUSH1 0x40 DUP3 ADD MLOAD DUP2 PUSH1 0x2 ADD SSTORE PUSH1 0x60 DUP3 ADD MLOAD DUP2 PUSH1 0x3 ADD PUSH0 PUSH2 0x100 EXP DUP2 SLOAD DUP2 PUSH20 0xFFFFFFFFFFFFFFFFFFFFFFFFFFFFFFFFFFFFFFFF MUL NOT AND SWAP1 DUP4 PUSH20 0xFFFFFFFFFFFFFFFFFFFFFFFFFFFFFFFFFFFFFFFF AND MUL OR SWAP1 SSTORE POP SWAP1 POP POP PUSH1 0x2 PUSH0 CALLER PUSH20 0xFFFFFFFFFFFFFFFFFFFFFFFFFFFFFFFFFFFFFFFF AND PUSH20 0xFFFFFFFFFFFFFFFFFFFFFFFFFFFFFFFFFFFFFFFF AND DUP2 MSTORE PUSH1 0x20 ADD SWAP1 DUP2 MSTORE PUSH1 0x20 ADD PUSH0 KECCAK256 DUP2 SWAP1 DUP1 PUSH1 0x1 DUP2 SLOAD ADD DUP1 DUP3 SSTORE DUP1 SWAP2 POP POP PUSH1 0x1 SWAP1 SUB SWAP1 PUSH0 MSTORE PUSH1 0x20 PUSH0 KECCAK256 ADD PUSH0 SWAP1 SWAP2 SWAP1 SWAP2 SWAP1 SWAP2 POP SSTORE PUSH1 0x1 PUSH0 CALLER PUSH20 0xFFFFFFFFFFFFFFFFFFFFFFFFFFFFFFFFFFFFFFFF AND PUSH20 0xFFFFFFFFFFFFFFFFFFFFFFFFFFFFFFFFFFFFFFFF AND DUP2 MSTORE PUSH1 0x20 ADD SWAP1 DUP2 MSTORE PUSH1 0x20 ADD PUSH0 KECCAK256 PUSH0 DUP2 SLOAD DUP1 SWAP3 SWAP2 SWAP1 PUSH2 0x34B SWAP1 PUSH2 0x114D JUMP JUMPDEST SWAP2 SWAP1 POP SSTORE POP POP POP JUMP JUMPDEST PUSH1 0x2 PUSH0 CALLER PUSH20 0xFFFFFFFFFFFFFFFFFFFFFFFFFFFFFFFFFFFFFFFF AND PUSH20 0xFFFFFFFFFFFFFFFFFFFFFFFFFFFFFFFFFFFFFFFF AND DUP2 MSTORE PUSH1 0x20 ADD SWAP1 DUP2 MSTORE PUSH1 0x20 ADD PUSH0 KECCAK256 DUP2 SWAP1 DUP1 PUSH1 0x1 DUP2 SLOAD ADD DUP1 DUP3 SSTORE DUP1 SWAP2 POP POP PUSH1 0x1 SWAP1 SUB SWAP1 PUSH0 MSTORE PUSH1 0x20 PUSH0 KECCAK256 ADD PUSH0 SWAP1 SWAP2 SWAP1 SWAP2 SWAP1 SWAP2 POP SSTORE PUSH1 0x1 PUSH0 CALLER PUSH20 0xFFFFFFFFFFFFFFFFFFFFFFFFFFFFFFFFFFFFFFFF AND PUSH20 0xFFFFFFFFFFFFFFFFFFFFFFFFFFFFFFFFFFFFFFFF AND DUP2 MSTORE PUSH1 0x20 ADD SWAP1 DUP2 MSTORE PUSH1 0x20 ADD PUSH0 KECCAK256 PUSH0 DUP2 SLOAD DUP1 SWAP3 SWAP2 SWAP1 PUSH2 0x402 SWAP1 PUSH2 0x114D JUMP JUMPDEST SWAP2 SWAP1 POP SSTORE POP POP JUMP JUMPDEST PUSH0 DUP1 SLOAD SWAP1 PUSH2 0x100 EXP SWAP1 DIV PUSH20 0xFFFFFFFFFFFFFFFFFFFFFFFFFFFFFFFFFFFFFFFF AND DUP2 JUMP JUMPDEST PUSH0 CALLER PUSH20 0xFFFFFFFFFFFFFFFFFFFFFFFFFFFFFFFFFFFFFFFF AND PUSH0 DUP1 SLOAD SWAP1 PUSH2 0x100 EXP SWAP1 DIV PUSH20 0xFFFFFFFFFFFFFFFFFFFFFFFFFFFFFFFFFFFFFFFF AND PUSH20 0xFFFFFFFFFFFFFFFFFFFFFFFFFFFFFFFFFFFFFFFF AND EQ PUSH2 0x4BB JUMPI PUSH1 0x40 MLOAD PUSH32 0x8C379A000000000000000000000000000000000000000000000000000000000 DUP2 MSTORE PUSH1 0x4 ADD PUSH2 0x4B2 SWAP1 PUSH2 0x11DE JUMP JUMPDEST PUSH1 0x40 MLOAD DUP1 SWAP2 SUB SWAP1 REVERT JUMPDEST PUSH1 0x1 PUSH0 DUP4 PUSH20 0xFFFFFFFFFFFFFFFFFFFFFFFFFFFFFFFFFFFFFFFF AND PUSH20 0xFFFFFFFFFFFFFFFFFFFFFFFFFFFFFFFFFFFFFFFF AND DUP2 MSTORE PUSH1 0x20 ADD SWAP1 DUP2 MSTORE PUSH1 0x20 ADD PUSH0 KECCAK256 SLOAD SWAP1 POP SWAP2 SWAP1 POP JUMP JUMPDEST PUSH1 0x60 CALLER PUSH20 0xFFFFFFFFFFFFFFFFFFFFFFFFFFFFFFFFFFFFFFFF AND PUSH0 DUP1 SLOAD SWAP1 PUSH2 0x100 EXP SWAP1 DIV PUSH20 0xFFFFFFFFFFFFFFFFFFFFFFFFFFFFFFFFFFFFFFFF AND PUSH20 0xFFFFFFFFFFFFFFFFFFFFFFFFFFFFFFFFFFFFFFFF AND EQ PUSH2 0x58F JUMPI PUSH1 0x40 MLOAD PUSH32 0x8C379A000000000000000000000000000000000000000000000000000000000 DUP2 MSTORE PUSH1 0x4 ADD PUSH2 0x586 SWAP1 PUSH2 0x11DE JUMP JUMPDEST PUSH1 0x40 MLOAD DUP1 SWAP2 SUB SWAP1 REVERT JUMPDEST PUSH1 0x2 PUSH0 DUP4 PUSH20 0xFFFFFFFFFFFFFFFFFFFFFFFFFFFFFFFFFFFFFFFF AND PUSH20 0xFFFFFFFFFFFFFFFFFFFFFFFFFFFFFFFFFFFFFFFF AND DUP2 MSTORE PUSH1 0x20 ADD SWAP1 DUP2 MSTORE PUSH1 0x20 ADD PUSH0 KECCAK256 DUP1 SLOAD DUP1 PUSH1 0x20 MUL PUSH1 0x20 ADD PUSH1 0x40 MLOAD SWAP1 DUP2 ADD PUSH1 0x40 MSTORE DUP1 SWAP3 SWAP2 SWAP1 DUP2 DUP2 MSTORE PUSH1 0x20 ADD DUP3 DUP1 SLOAD DUP1 ISZERO PUSH2 0x614 JUMPI PUSH1 0x20 MUL DUP3 ADD SWAP2 SWAP1 PUSH0 MSTORE PUSH1 0x20 PUSH0 KECCAK256 SWAP1 JUMPDEST DUP2 SLOAD DUP2 MSTORE PUSH1 0x20 ADD SWAP1 PUSH1 0x1 ADD SWAP1 DUP1 DUP4 GT PUSH2 0x600 JUMPI JUMPDEST POP POP POP POP POP SWAP1 POP SWAP2 SWAP1 POP JUMP JUMPDEST PUSH2 0x628 PUSH2 0x814 JUMP JUMPDEST PUSH1 0x4 PUSH0 DUP4 DUP2 MSTORE PUSH1 0x20 ADD SWAP1 DUP2 MSTORE PUSH1 0x20 ADD PUSH0 KECCAK256 PUSH1 0x40 MLOAD DUP1 PUSH1 0x80 ADD PUSH1 0x40 MSTORE SWAP1 DUP2 PUSH0 DUP3 ADD SLOAD DUP2 MSTORE PUSH1 0x20 ADD PUSH1 0x1 DUP3 ADD DUP1 SLOAD PUSH2 0x65D SWAP1 PUSH2 0xEB1 JUMP JUMPDEST DUP1 PUSH1 0x1F ADD PUSH1 0x20 DUP1 SWAP2 DIV MUL PUSH1 0x20 ADD PUSH1 0x40 MLOAD SWAP1 DUP2 ADD PUSH1 0x40 MSTORE DUP1 SWAP3 SWAP2 SWAP1 DUP2 DUP2 MSTORE PUSH1 0x20 ADD DUP3 DUP1 SLOAD PUSH2 0x689 SWAP1 PUSH2 0xEB1 JUMP JUMPDEST DUP1 ISZERO PUSH2 0x6D4 JUMPI DUP1 PUSH1 0x1F LT PUSH2 0x6AB JUMPI PUSH2 0x100 DUP1 DUP4 SLOAD DIV MUL DUP4 MSTORE SWAP2 PUSH1 0x20 ADD SWAP2 PUSH2 0x6D4 JUMP JUMPDEST DUP3 ADD SWAP2 SWAP1 PUSH0 MSTORE PUSH1 0x20 PUSH0 KECCAK256 SWAP1 JUMPDEST DUP2 SLOAD DUP2 MSTORE SWAP1 PUSH1 0x1 ADD SWAP1 PUSH1 0x20 ADD DUP1 DUP4 GT PUSH2 0x6B7 JUMPI DUP3 SWAP1 SUB PUSH1 0x1F AND DUP3 ADD SWAP2 JUMPDEST POP POP POP POP POP DUP2 MSTORE PUSH1 0x20 ADD PUSH1 0x2 DUP3 ADD SLOAD DUP2 MSTORE PUSH1 0x20 ADD PUSH1 0x3 DUP3 ADD PUSH0 SWAP1 SLOAD SWAP1 PUSH2 0x100 EXP SWAP1 DIV PUSH20 0xFFFFFFFFFFFFFFFFFFFFFFFFFFFFFFFFFFFFFFFF AND PUSH20 0xFFFFFFFFFFFFFFFFFFFFFFFFFFFFFFFFFFFFFFFF AND PUSH20 0xFFFFFFFFFFFFFFFFFFFFFFFFFFFFFFFFFFFFFFFF AND DUP2 MSTORE POP POP SWAP1 POP SWAP2 SWAP1 POP JUMP JUMPDEST PUSH1 0x4 PUSH1 0x20 MSTORE DUP1 PUSH0 MSTORE PUSH1 0x40 PUSH0 KECCAK256 PUSH0 SWAP2 POP SWAP1 POP DUP1 PUSH0 ADD SLOAD SWAP1 DUP1 PUSH1 0x1 ADD DUP1 SLOAD PUSH2 0x768 SWAP1 PUSH2 0xEB1 JUMP JUMPDEST DUP1 PUSH1 0x1F ADD PUSH1 0x20 DUP1 SWAP2 DIV MUL PUSH1 0x20 ADD PUSH1 0x40 MLOAD SWAP1 DUP2 ADD PUSH1 0x40 MSTORE DUP1 SWAP3 SWAP2 SWAP1 DUP2 DUP2 MSTORE PUSH1 0x20 ADD DUP3 DUP1 SLOAD PUSH2 0x794 SWAP1 PUSH2 0xEB1 JUMP JUMPDEST DUP1 ISZERO PUSH2 0x7DF JUMPI DUP1 PUSH1 0x1F LT PUSH2 0x7B6 JUMPI PUSH2 0x100 DUP1 DUP4 SLOAD DIV MUL DUP4 MSTORE SWAP2 PUSH1 0x20 ADD SWAP2 PUSH2 0x7DF JUMP JUMPDEST DUP3 ADD SWAP2 SWAP1 PUSH0 MSTORE PUSH1 0x20 PUSH0 KECCAK256 SWAP1 JUMPDEST DUP2 SLOAD DUP2 MSTORE SWAP1 PUSH1 0x1 ADD SWAP1 PUSH1 0x20 ADD DUP1 DUP4 GT PUSH2 0x7C2 JUMPI DUP3 SWAP1 SUB PUSH1 0x1F AND DUP3 ADD SWAP2 JUMPDEST POP POP POP POP POP SWAP1 DUP1 PUSH1 0x2 ADD SLOAD SWAP1 DUP1 PUSH1 0x3 ADD PUSH0 SWAP1 SLOAD SWAP1 PUSH2 0x100 EXP SWAP1 DIV PUSH20 0xFFFFFFFFFFFFFFFFFFFFFFFFFFFFFFFFFFFFFFFF AND SWAP1 POP DUP5 JUMP JUMPDEST PUSH1 0x40 MLOAD DUP1 PUSH1 0x80 ADD PUSH1 0x40 MSTORE DUP1 PUSH0 DUP2 MSTORE PUSH1 0x20 ADD PUSH1 0x60 DUP2 MSTORE PUSH1 0x20 ADD PUSH0 DUP2 MSTORE PUSH1 0x20 ADD PUSH0 PUSH20 0xFFFFFFFFFFFFFFFFFFFFFFFFFFFFFFFFFFFFFFFF AND DUP2 MSTORE POP SWAP1 JUMP JUMPDEST PUSH0 DUP2 SWAP1 POP SWAP2 SWAP1 POP JUMP JUMPDEST PUSH2 0x861 DUP2 PUSH2 0x84F JUMP JUMPDEST DUP3 MSTORE POP POP JUMP JUMPDEST PUSH0 PUSH1 0x20 DUP3 ADD SWAP1 POP PUSH2 0x87A PUSH0 DUP4 ADD DUP5 PUSH2 0x858 JUMP JUMPDEST SWAP3 SWAP2 POP POP JUMP JUMPDEST PUSH0 PUSH1 0x40 MLOAD SWAP1 POP SWAP1 JUMP JUMPDEST PUSH0 DUP1 REVERT JUMPDEST PUSH0 DUP1 REVERT JUMPDEST PUSH0 DUP1 REVERT JUMPDEST PUSH0 DUP1 REVERT JUMPDEST PUSH0 PUSH1 0x1F NOT PUSH1 0x1F DUP4 ADD AND SWAP1 POP SWAP2 SWAP1 POP JUMP JUMPDEST PUSH32 0x4E487B7100000000000000000000000000000000000000000000000000000000 PUSH0 MSTORE PUSH1 0x41 PUSH1 0x4 MSTORE PUSH1 0x24 PUSH0 REVERT JUMPDEST PUSH2 0x8DF DUP3 PUSH2 0x899 JUMP JUMPDEST DUP2 ADD DUP2 DUP2 LT PUSH8 0xFFFFFFFFFFFFFFFF DUP3 GT OR ISZERO PUSH2 0x8FE JUMPI PUSH2 0x8FD PUSH2 0x8A9 JUMP JUMPDEST JUMPDEST DUP1 PUSH1 0x40 MSTORE POP POP POP JUMP JUMPDEST PUSH0 PUSH2 0x910 PUSH2 0x880 JUMP JUMPDEST SWAP1 POP PUSH2 0x91C DUP3 DUP3 PUSH2 0x8D6 JUMP JUMPDEST SWAP2 SWAP1 POP JUMP JUMPDEST PUSH0 PUSH8 0xFFFFFFFFFFFFFFFF DUP3 GT ISZERO PUSH2 0x93B JUMPI PUSH2 0x93A PUSH2 0x8A9 JUMP JUMPDEST JUMPDEST PUSH2 0x944 DUP3 PUSH2 0x899 JUMP JUMPDEST SWAP1 POP PUSH1 0x20 DUP2 ADD SWAP1 POP SWAP2 SWAP1 POP JUMP JUMPDEST DUP3 DUP2 DUP4 CALLDATACOPY PUSH0 DUP4 DUP4 ADD MSTORE POP POP POP JUMP JUMPDEST PUSH0 PUSH2 0x971 PUSH2 0x96C DUP5 PUSH2 0x921 JUMP JUMPDEST PUSH2 0x907 JUMP JUMPDEST SWAP1 POP DUP3 DUP2 MSTORE PUSH1 0x20 DUP2 ADD DUP5 DUP5 DUP5 ADD GT ISZERO PUSH2 0x98D JUMPI PUSH2 0x98C PUSH2 0x895 JUMP JUMPDEST JUMPDEST PUSH2 0x998 DUP5 DUP3 DUP6 PUSH2 0x951 JUMP JUMPDEST POP SWAP4 SWAP3 POP POP POP JUMP JUMPDEST PUSH0 DUP3 PUSH1 0x1F DUP4 ADD SLT PUSH2 0x9B4 JUMPI PUSH2 0x9B3 PUSH2 0x891 JUMP JUMPDEST JUMPDEST DUP2 CALLDATALOAD PUSH2 0x9C4 DUP5 DUP3 PUSH1 0x20 DUP7 ADD PUSH2 0x95F JUMP JUMPDEST SWAP2 POP POP SWAP3 SWAP2 POP POP JUMP JUMPDEST PUSH0 DUP2 SWAP1 POP SWAP2 SWAP1 POP JUMP JUMPDEST PUSH2 0x9DF DUP2 PUSH2 0x9CD JUMP JUMPDEST DUP2 EQ PUSH2 0x9E9 JUMPI PUSH0 DUP1 REVERT JUMPDEST POP JUMP JUMPDEST PUSH0 DUP2 CALLDATALOAD SWAP1 POP PUSH2 0x9FA DUP2 PUSH2 0x9D6 JUMP JUMPDEST SWAP3 SWAP2 POP POP JUMP JUMPDEST PUSH0 DUP1 PUSH1 0x40 DUP4 DUP6 SUB SLT ISZERO PUSH2 0xA16 JUMPI PUSH2 0xA15 PUSH2 0x889 JUMP JUMPDEST JUMPDEST PUSH0 DUP4 ADD CALLDATALOAD PUSH8 0xFFFFFFFFFFFFFFFF DUP2 GT ISZERO PUSH2 0xA33 JUMPI PUSH2 0xA32 PUSH2 0x88D JUMP JUMPDEST JUMPDEST PUSH2 0xA3F DUP6 DUP3 DUP7 ADD PUSH2 0x9A0 JUMP JUMPDEST SWAP3 POP POP PUSH1 0x20 PUSH2 0xA50 DUP6 DUP3 DUP7 ADD PUSH2 0x9EC JUMP JUMPDEST SWAP2 POP POP SWAP3 POP SWAP3 SWAP1 POP JUMP JUMPDEST PUSH0 PUSH1 0x20 DUP3 DUP5 SUB SLT ISZERO PUSH2 0xA6F JUMPI PUSH2 0xA6E PUSH2 0x889 JUMP JUMPDEST JUMPDEST PUSH0 PUSH2 0xA7C DUP5 DUP3 DUP6 ADD PUSH2 0x9EC JUMP JUMPDEST SWAP2 POP POP SWAP3 SWAP2 POP POP JUMP JUMPDEST PUSH0 PUSH20 0xFFFFFFFFFFFFFFFFFFFFFFFFFFFFFFFFFFFFFFFF DUP3 AND SWAP1 POP SWAP2 SWAP1 POP JUMP JUMPDEST PUSH0 PUSH2 0xAAE DUP3 PUSH2 0xA85 JUMP JUMPDEST SWAP1 POP SWAP2 SWAP1 POP JUMP JUMPDEST PUSH2 0xABE DUP2 PUSH2 0xAA4 JUMP JUMPDEST DUP3 MSTORE POP POP JUMP JUMPDEST PUSH0 PUSH1 0x20 DUP3 ADD SWAP1 POP PUSH2 0xAD7 PUSH0 DUP4 ADD DUP5 PUSH2 0xAB5 JUMP JUMPDEST SWAP3 SWAP2 POP POP JUMP JUMPDEST PUSH2 0xAE6 DUP2 PUSH2 0xAA4 JUMP JUMPDEST DUP2 EQ PUSH2 0xAF0 JUMPI PUSH0 DUP1 REVERT JUMPDEST POP JUMP JUMPDEST PUSH0 DUP2 CALLDATALOAD SWAP1 POP PUSH2 0xB01 DUP2 PUSH2 0xADD JUMP JUMPDEST SWAP3 SWAP2 POP POP JUMP JUMPDEST PUSH0 PUSH1 0x20 DUP3 DUP5 SUB SLT ISZERO PUSH2 0xB1C JUMPI PUSH2 0xB1B PUSH2 0x889 JUMP JUMPDEST JUMPDEST PUSH0 PUSH2 0xB29 DUP5 DUP3 DUP6 ADD PUSH2 0xAF3 JUMP JUMPDEST SWAP2 POP POP SWAP3 SWAP2 POP POP JUMP JUMPDEST PUSH2 0xB3B DUP2 PUSH2 0x9CD JUMP JUMPDEST DUP3 MSTORE POP POP JUMP JUMPDEST PUSH0 PUSH1 0x20 DUP3 ADD SWAP1 POP PUSH2 0xB54 PUSH0 DUP4 ADD DUP5 PUSH2 0xB32 JUMP JUMPDEST SWAP3 SWAP2 POP POP JUMP JUMPDEST PUSH0 DUP2 MLOAD SWAP1 POP SWAP2 SWAP1 POP JUMP JUMPDEST PUSH0 DUP3 DUP3 MSTORE PUSH1 0x20 DUP3 ADD SWAP1 POP SWAP3 SWAP2 POP POP JUMP JUMPDEST PUSH0 DUP2 SWAP1 POP PUSH1 0x20 DUP3 ADD SWAP1 POP SWAP2 SWAP1 POP JUMP JUMPDEST PUSH2 0xB8C DUP2 PUSH2 0x9CD JUMP JUMPDEST DUP3 MSTORE POP POP JUMP JUMPDEST PUSH0 PUSH2 0xB9D DUP4 DUP4 PUSH2 0xB83 JUMP JUMPDEST PUSH1 0x20 DUP4 ADD SWAP1 POP SWAP3 SWAP2 POP POP JUMP JUMPDEST PUSH0 PUSH1 0x20 DUP3 ADD SWAP1 POP SWAP2 SWAP1 POP JUMP JUMPDEST PUSH0 PUSH2 0xBBF DUP3 PUSH2 0xB5A JUMP JUMPDEST PUSH2 0xBC9 DUP2 DUP6 PUSH2 0xB64 JUMP JUMPDEST SWAP4 POP PUSH2 0xBD4 DUP4 PUSH2 0xB74 JUMP JUMPDEST DUP1 PUSH0 JUMPDEST DUP4 DUP2 LT ISZERO PUSH2 0xC04 JUMPI DUP2 MLOAD PUSH2 0xBEB DUP9 DUP3 PUSH2 0xB92 JUMP JUMPDEST SWAP8 POP PUSH2 0xBF6 DUP4 PUSH2 0xBA9 JUMP JUMPDEST SWAP3 POP POP PUSH1 0x1 DUP2 ADD SWAP1 POP PUSH2 0xBD7 JUMP JUMPDEST POP DUP6 SWAP4 POP POP POP POP SWAP3 SWAP2 POP POP JUMP JUMPDEST PUSH0 PUSH1 0x20 DUP3 ADD SWAP1 POP DUP2 DUP2 SUB PUSH0 DUP4 ADD MSTORE PUSH2 0xC29 DUP2 DUP5 PUSH2 0xBB5 JUMP JUMPDEST SWAP1 POP SWAP3 SWAP2 POP POP JUMP JUMPDEST PUSH2 0xC3A DUP2 PUSH2 0x84F JUMP JUMPDEST DUP2 EQ PUSH2 0xC44 JUMPI PUSH0 DUP1 REVERT JUMPDEST POP JUMP JUMPDEST PUSH0 DUP2 CALLDATALOAD SWAP1 POP PUSH2 0xC55 DUP2 PUSH2 0xC31 JUMP JUMPDEST SWAP3 SWAP2 POP POP JUMP JUMPDEST PUSH0 PUSH1 0x20 DUP3 DUP5 SUB SLT ISZERO PUSH2 0xC70 JUMPI PUSH2 0xC6F PUSH2 0x889 JUMP JUMPDEST JUMPDEST PUSH0 PUSH2 0xC7D DUP5 DUP3 DUP6 ADD PUSH2 0xC47 JUMP JUMPDEST SWAP2 POP POP SWAP3 SWAP2 POP POP JUMP JUMPDEST PUSH2 0xC8F DUP2 PUSH2 0x84F JUMP JUMPDEST DUP3 MSTORE POP POP JUMP JUMPDEST PUSH0 DUP2 MLOAD SWAP1 POP SWAP2 SWAP1 POP JUMP JUMPDEST PUSH0 DUP3 DUP3 MSTORE PUSH1 0x20 DUP3 ADD SWAP1 POP SWAP3 SWAP2 POP POP JUMP JUMPDEST DUP3 DUP2 DUP4 MCOPY PUSH0 DUP4 DUP4 ADD MSTORE POP POP POP JUMP JUMPDEST PUSH0 PUSH2 0xCC7 DUP3 PUSH2 0xC95 JUMP JUMPDEST PUSH2 0xCD1 DUP2 DUP6 PUSH2 0xC9F JUMP JUMPDEST SWAP4 POP PUSH2 0xCE1 DUP2 DUP6 PUSH1 0x20 DUP7 ADD PUSH2 0xCAF JUMP JUMPDEST PUSH2 0xCEA DUP2 PUSH2 0x899 JUMP JUMPDEST DUP5 ADD SWAP2 POP POP SWAP3 SWAP2 POP POP JUMP JUMPDEST PUSH2 0xCFE DUP2 PUSH2 0xAA4 JUMP JUMPDEST DUP3 MSTORE POP POP JUMP JUMPDEST PUSH0 PUSH1 0x80 DUP4 ADD PUSH0 DUP4 ADD MLOAD PUSH2 0xD19 PUSH0 DUP7 ADD DUP3 PUSH2 0xC86 JUMP JUMPDEST POP PUSH1 0x20 DUP4 ADD MLOAD DUP5 DUP3 SUB PUSH1 0x20 DUP7 ADD MSTORE PUSH2 0xD31 DUP3 DUP3 PUSH2 0xCBD JUMP JUMPDEST SWAP2 POP POP PUSH1 0x40 DUP4 ADD MLOAD PUSH2 0xD46 PUSH1 0x40 DUP7 ADD DUP3 PUSH2 0xB83 JUMP JUMPDEST POP PUSH1 0x60 DUP4 ADD MLOAD PUSH2 0xD59 PUSH1 0x60 DUP7 ADD DUP3 PUSH2 0xCF5 JUMP JUMPDEST POP DUP1 SWAP2 POP POP SWAP3 SWAP2 POP POP JUMP JUMPDEST PUSH0 PUSH1 0x20 DUP3 ADD SWAP1 POP DUP2 DUP2 SUB PUSH0 DUP4 ADD MSTORE PUSH2 0xD7C DUP2 DUP5 PUSH2 0xD04 JUMP JUMPDEST SWAP1 POP SWAP3 SWAP2 POP POP JUMP JUMPDEST PUSH0 DUP3 DUP3 MSTORE PUSH1 0x20 DUP3 ADD SWAP1 POP SWAP3 SWAP2 POP POP JUMP JUMPDEST PUSH0 PUSH2 0xD9E DUP3 PUSH2 0xC95 JUMP JUMPDEST PUSH2 0xDA8 DUP2 DUP6 PUSH2 0xD84 JUMP JUMPDEST SWAP4 POP PUSH2 0xDB8 DUP2 DUP6 PUSH1 0x20 DUP7 ADD PUSH2 0xCAF JUMP JUMPDEST PUSH2 0xDC1 DUP2 PUSH2 0x899 JUMP JUMPDEST DUP5 ADD SWAP2 POP POP SWAP3 SWAP2 POP POP JUMP JUMPDEST PUSH0 PUSH1 0x80 DUP3 ADD SWAP1 POP PUSH2 0xDDF PUSH0 DUP4 ADD DUP8 PUSH2 0x858 JUMP JUMPDEST DUP2 DUP2 SUB PUSH1 0x20 DUP4 ADD MSTORE PUSH2 0xDF1 DUP2 DUP7 PUSH2 0xD94 JUMP JUMPDEST SWAP1 POP PUSH2 0xE00 PUSH1 0x40 DUP4 ADD DUP6 PUSH2 0xB32 JUMP JUMPDEST PUSH2 0xE0D PUSH1 0x60 DUP4 ADD DUP5 PUSH2 0xAB5 JUMP JUMPDEST SWAP6 SWAP5 POP POP POP POP POP JUMP JUMPDEST PUSH32 0x4E487B7100000000000000000000000000000000000000000000000000000000 PUSH0 MSTORE PUSH1 0x11 PUSH1 0x4 MSTORE PUSH1 0x24 PUSH0 REVERT JUMPDEST PUSH0 PUSH2 0xE4D DUP3 PUSH2 0x84F JUMP JUMPDEST SWAP2 POP PUSH2 0xE58 DUP4 PUSH2 0x84F JUMP JUMPDEST SWAP3 POP DUP3 DUP3 ADD SWAP1 POP DUP3 DUP2 SLT ISZERO PUSH0 DUP4 SLT AND DUP4 DUP3 SLT PUSH0 DUP5 SLT ISZERO AND OR ISZERO PUSH2 0xE7E JUMPI PUSH2 0xE7D PUSH2 0xE16 JUMP JUMPDEST JUMPDEST SWAP3 SWAP2 POP POP JUMP JUMPDEST PUSH32 0x4E487B7100000000000000000000000000000000000000000000000000000000 PUSH0 MSTORE PUSH1 0x22 PUSH1 0x4 MSTORE PUSH1 0x24 PUSH0 REVERT JUMPDEST PUSH0 PUSH1 0x2 DUP3 DIV SWAP1 POP PUSH1 0x1 DUP3 AND DUP1 PUSH2 0xEC8 JUMPI PUSH1 0x7F DUP3 AND SWAP2 POP JUMPDEST PUSH1 0x20 DUP3 LT DUP2 SUB PUSH2 0xEDB JUMPI PUSH2 0xEDA PUSH2 0xE84 JUMP JUMPDEST JUMPDEST POP SWAP2 SWAP1 POP JUMP JUMPDEST PUSH0 DUP2 SWAP1 POP DUP2 PUSH0 MSTORE PUSH1 0x20 PUSH0 KECCAK256 SWAP1 POP SWAP2 SWAP1 POP JUMP JUMPDEST PUSH0 PUSH1 0x20 PUSH1 0x1F DUP4 ADD DIV SWAP1 POP SWAP2 SWAP1 POP JUMP JUMPDEST PUSH0 DUP3 DUP3 SHL SWAP1 POP SWAP3 SWAP2 POP POP JUMP JUMPDEST PUSH0 PUSH1 0x8 DUP4 MUL PUSH2 0xF3D PUSH32 0xFFFFFFFFFFFFFFFFFFFFFFFFFFFFFFFFFFFFFFFFFFFFFFFFFFFFFFFFFFFFFFFF DUP3 PUSH2 0xF02 JUMP JUMPDEST PUSH2 0xF47 DUP7 DUP4 PUSH2 0xF02 JUMP JUMPDEST SWAP6 POP DUP1 NOT DUP5 AND SWAP4 POP DUP1 DUP7 AND DUP5 OR SWAP3 POP POP POP SWAP4 SWAP3 POP POP POP JUMP JUMPDEST PUSH0 DUP2 SWAP1 POP SWAP2 SWAP1 POP JUMP JUMPDEST PUSH0 PUSH2 0xF82 PUSH2 0xF7D PUSH2 0xF78 DUP5 PUSH2 0x9CD JUMP JUMPDEST PUSH2 0xF5F JUMP JUMPDEST PUSH2 0x9CD JUMP JUMPDEST SWAP1 POP SWAP2 SWAP1 POP JUMP JUMPDEST PUSH0 DUP2 SWAP1 POP SWAP2 SWAP1 POP JUMP JUMPDEST PUSH2 0xF9B DUP4 PUSH2 0xF68 JUMP JUMPDEST PUSH2 0xFAF PUSH2 0xFA7 DUP3 PUSH2 0xF89 JUMP JUMPDEST DUP5 DUP5 SLOAD PUSH2 0xF0E JUMP JUMPDEST DUP3 SSTORE POP POP POP POP JUMP JUMPDEST PUSH0 SWAP1 JUMP JUMPDEST PUSH2 0xFC3 PUSH2 0xFB7 JUMP JUMPDEST PUSH2 0xFCE DUP2 DUP5 DUP5 PUSH2 0xF92 JUMP JUMPDEST POP POP POP JUMP JUMPDEST JUMPDEST DUP2 DUP2 LT ISZERO PUSH2 0xFF1 JUMPI PUSH2 0xFE6 PUSH0 DUP3 PUSH2 0xFBB JUMP JUMPDEST PUSH1 0x1 DUP2 ADD SWAP1 POP PUSH2 0xFD4 JUMP JUMPDEST POP POP JUMP JUMPDEST PUSH1 0x1F DUP3 GT ISZERO PUSH2 0x1036 JUMPI PUSH2 0x1007 DUP2 PUSH2 0xEE1 JUMP JUMPDEST PUSH2 0x1010 DUP5 PUSH2 0xEF3 JUMP JUMPDEST DUP2 ADD PUSH1 0x20 DUP6 LT ISZERO PUSH2 0x101F JUMPI DUP2 SWAP1 POP JUMPDEST PUSH2 0x1033 PUSH2 0x102B DUP6 PUSH2 0xEF3 JUMP JUMPDEST DUP4 ADD DUP3 PUSH2 0xFD3 JUMP JUMPDEST POP POP JUMPDEST POP POP POP JUMP JUMPDEST PUSH0 DUP3 DUP3 SHR SWAP1 POP SWAP3 SWAP2 POP POP JUMP JUMPDEST PUSH0 PUSH2 0x1056 PUSH0 NOT DUP5 PUSH1 0x8 MUL PUSH2 0x103B JUMP JUMPDEST NOT DUP1 DUP4 AND SWAP2 POP POP SWAP3 SWAP2 POP POP JUMP JUMPDEST PUSH0 PUSH2 0x106E DUP4 DUP4 PUSH2 0x1047 JUMP JUMPDEST SWAP2 POP DUP3 PUSH1 0x2 MUL DUP3 OR SWAP1 POP SWAP3 SWAP2 POP POP JUMP JUMPDEST PUSH2 0x1087 DUP3 PUSH2 0xC95 JUMP JUMPDEST PUSH8 0xFFFFFFFFFFFFFFFF DUP2 GT ISZERO PUSH2 0x10A0 JUMPI PUSH2 0x109F PUSH2 0x8A9 JUMP JUMPDEST JUMPDEST PUSH2 0x10AA DUP3 SLOAD PUSH2 0xEB1 JUMP JUMPDEST PUSH2 0x10B5 DUP3 DUP3 DUP6 PUSH2 0xFF5 JUMP JUMPDEST PUSH0 PUSH1 0x20 SWAP1 POP PUSH1 0x1F DUP4 GT PUSH1 0x1 DUP2 EQ PUSH2 0x10E6 JUMPI PUSH0 DUP5 ISZERO PUSH2 0x10D4 JUMPI DUP3 DUP8 ADD MLOAD SWAP1 POP JUMPDEST PUSH2 0x10DE DUP6 DUP3 PUSH2 0x1063 JUMP JUMPDEST DUP7 SSTORE POP PUSH2 0x1145 JUMP JUMPDEST PUSH1 0x1F NOT DUP5 AND PUSH2 0x10F4 DUP7 PUSH2 0xEE1 JUMP JUMPDEST PUSH0 JUMPDEST DUP3 DUP2 LT ISZERO PUSH2 0x111B JUMPI DUP5 DUP10 ADD MLOAD DUP3 SSTORE PUSH1 0x1 DUP3 ADD SWAP2 POP PUSH1 0x20 DUP6 ADD SWAP5 POP PUSH1 0x20 DUP2 ADD SWAP1 POP PUSH2 0x10F6 JUMP JUMPDEST DUP7 DUP4 LT ISZERO PUSH2 0x1138 JUMPI DUP5 DUP10 ADD MLOAD PUSH2 0x1134 PUSH1 0x1F DUP10 AND DUP3 PUSH2 0x1047 JUMP JUMPDEST DUP4 SSTORE POP JUMPDEST PUSH1 0x1 PUSH1 0x2 DUP9 MUL ADD DUP9 SSTORE POP POP POP JUMPDEST POP POP POP POP POP POP JUMP JUMPDEST PUSH0 PUSH2 0x1157 DUP3 PUSH2 0x9CD JUMP JUMPDEST SWAP2 POP PUSH32 0xFFFFFFFFFFFFFFFFFFFFFFFFFFFFFFFFFFFFFFFFFFFFFFFFFFFFFFFFFFFFFFFF DUP3 SUB PUSH2 0x1189 JUMPI PUSH2 0x1188 PUSH2 0xE16 JUMP JUMPDEST JUMPDEST PUSH1 0x1 DUP3 ADD SWAP1 POP SWAP2 SWAP1 POP JUMP JUMPDEST PUSH32 0x4F6E6C79204F776E65722048617320612041636365737320746F205468697320 PUSH0 DUP3 ADD MSTORE POP JUMP JUMPDEST PUSH0 PUSH2 0x11C8 PUSH1 0x20 DUP4 PUSH2 0xD84 JUMP JUMPDEST SWAP2 POP PUSH2 0x11D3 DUP3 PUSH2 0x1194 JUMP JUMPDEST PUSH1 0x20 DUP3 ADD SWAP1 POP SWAP2 SWAP1 POP JUMP JUMPDEST PUSH0 PUSH1 0x20 DUP3 ADD SWAP1 POP DUP2 DUP2 SUB PUSH0 DUP4 ADD MSTORE PUSH2 0x11F5 DUP2 PUSH2 0x11BC JUMP JUMPDEST SWAP1 POP SWAP2 SWAP1 POP JUMP INVALID LOG2 PUSH5 0x6970667358 0x22 SLT KECCAK256 RETURN DELEGATECALL 0xB6 DUP9 SWAP8 SUB DUP13 0xAA MCOPY PUSH0 LOG1 0xDC 0xD3 PUSH12 0xEA82AE989EB6072D533399C1 0xB2 SWAP13 0x4D SWAP9 SWAP2 DUP6 PUSH5 0x736F6C6343 STOP ADDMOD BYTE STOP CALLER "
				},
				"gasEstimates": {
					"creation": {
						"codeDepositCost": "931600",
						"executionCost": "30236",
						"totalCost": "961836"
					},
					"external": {
						"addNewInsurance(uint256)": "infinite",
						"addUser(string,uint256)": "infinite",
						"getInsuranceCount(address)": "4995",
						"getInsuranceNumber(address)": "infinite",
						"getUser(int256)": "infinite",
						"myUsers(int256)": "infinite",
						"owner()": "2572",
						"userCount()": "2426"
					}
				},
				"methodIdentifiers": {
					"addNewInsurance(uint256)": "6723e269",
					"addUser(string,uint256)": "1c5220c2",
					"getInsuranceCount(address)": "9e8a8d6c",
					"getInsuranceNumber(address)": "a69f554d",
					"getUser(int256)": "d0f86c9d",
					"myUsers(int256)": "f8cf1d19",
					"owner()": "8da5cb5b",
					"userCount()": "07973ccf"
				}
			},
			"storageLayout": {
				"storage": [
					{
						"astId": 3,
						"contract": "Insurance Project(Solidit_REMIX)/contracts/AddUsers.sol:AddUser",
						"label": "owner",
						"offset": 0,
						"slot": "0",
						"type": "t_address"
					},
					{
						"astId": 16,
						"contract": "Insurance Project(Solidit_REMIX)/contracts/AddUsers.sol:AddUser",
						"label": "userInsuranceCount",
						"offset": 0,
						"slot": "1",
						"type": "t_mapping(t_address,t_uint256)"
					},
					{
						"astId": 21,
						"contract": "Insurance Project(Solidit_REMIX)/contracts/AddUsers.sol:AddUser",
						"label": "userInsuranceNumbers",
						"offset": 0,
						"slot": "2",
						"type": "t_mapping(t_address,t_array(t_uint256)dyn_storage)"
					},
					{
						"astId": 24,
						"contract": "Insurance Project(Solidit_REMIX)/contracts/AddUsers.sol:AddUser",
						"label": "userCount",
						"offset": 0,
						"slot": "3",
						"type": "t_int256"
					},
					{
						"astId": 38,
						"contract": "Insurance Project(Solidit_REMIX)/contracts/AddUsers.sol:AddUser",
						"label": "myUsers",
						"offset": 0,
						"slot": "4",
						"type": "t_mapping(t_int256,t_struct(User)12_storage)"
					}
				],
				"types": {
					"t_address": {
						"encoding": "inplace",
						"label": "address",
						"numberOfBytes": "20"
					},
					"t_array(t_uint256)dyn_storage": {
						"base": "t_uint256",
						"encoding": "dynamic_array",
						"label": "uint256[]",
						"numberOfBytes": "32"
					},
					"t_int256": {
						"encoding": "inplace",
						"label": "int256",
						"numberOfBytes": "32"
					},
					"t_mapping(t_address,t_array(t_uint256)dyn_storage)": {
						"encoding": "mapping",
						"key": "t_address",
						"label": "mapping(address => uint256[])",
						"numberOfBytes": "32",
						"value": "t_array(t_uint256)dyn_storage"
					},
					"t_mapping(t_address,t_uint256)": {
						"encoding": "mapping",
						"key": "t_address",
						"label": "mapping(address => uint256)",
						"numberOfBytes": "32",
						"value": "t_uint256"
					},
					"t_mapping(t_int256,t_struct(User)12_storage)": {
						"encoding": "mapping",
						"key": "t_int256",
						"label": "mapping(int256 => struct AddUser.User)",
						"numberOfBytes": "32",
						"value": "t_struct(User)12_storage"
					},
					"t_string_storage": {
						"encoding": "bytes",
						"label": "string",
						"numberOfBytes": "32"
					},
					"t_struct(User)12_storage": {
						"encoding": "inplace",
						"label": "struct AddUser.User",
						"members": [
							{
								"astId": 5,
								"contract": "Insurance Project(Solidit_REMIX)/contracts/AddUsers.sol:AddUser",
								"label": "User_Id",
								"offset": 0,
								"slot": "0",
								"type": "t_int256"
							},
							{
								"astId": 7,
								"contract": "Insurance Project(Solidit_REMIX)/contracts/AddUsers.sol:AddUser",
								"label": "Name",
								"offset": 0,
								"slot": "1",
								"type": "t_string_storage"
							},
							{
								"astId": 9,
								"contract": "Insurance Project(Solidit_REMIX)/contracts/AddUsers.sol:AddUser",
								"label": "Insurance_NO",
								"offset": 0,
								"slot": "2",
								"type": "t_uint256"
							},
							{
								"astId": 11,
								"contract": "Insurance Project(Solidit_REMIX)/contracts/AddUsers.sol:AddUser",
								"label": "UserAddress",
								"offset": 0,
								"slot": "3",
								"type": "t_address"
							}
						],
						"numberOfBytes": "128"
					},
					"t_uint256": {
						"encoding": "inplace",
						"label": "uint256",
						"numberOfBytes": "32"
					}
				}
			},
			"userdoc": {
				"kind": "user",
				"methods": {},
				"version": 1
			}
		}
	}
}