{
	"Insurance Project(Solidit_REMIX)/contracts/AddUsers.sol": {
		"AddUser": {
			"abi": [
				{
					"inputs": [],
					"stateMutability": "nonpayable",
					"type": "constructor"
				},
				{
					"anonymous": false,
					"inputs": [
						{
							"indexed": true,
							"internalType": "address",
							"name": "user",
							"type": "address"
						},
						{
							"indexed": false,
							"internalType": "int256",
							"name": "insuranceNo",
							"type": "int256"
						}
					],
					"name": "InsuranceAdded",
					"type": "event"
				},
				{
					"anonymous": false,
					"inputs": [
						{
							"indexed": true,
							"internalType": "address",
							"name": "user",
							"type": "address"
						},
						{
							"indexed": false,
							"internalType": "int256",
							"name": "userId",
							"type": "int256"
						},
						{
							"indexed": false,
							"internalType": "string",
							"name": "name",
							"type": "string"
						},
						{
							"indexed": false,
							"internalType": "int256",
							"name": "insuranceNo",
							"type": "int256"
						}
					],
					"name": "UserAdded",
					"type": "event"
				},
				{
					"inputs": [
						{
							"internalType": "int256",
							"name": "_insuranceNo",
							"type": "int256"
						}
					],
					"name": "addNewInsurance",
					"outputs": [],
					"stateMutability": "nonpayable",
					"type": "function"
				},
				{
					"inputs": [
						{
							"internalType": "string",
							"name": "_name",
							"type": "string"
						},
						{
							"internalType": "int256",
							"name": "_insuranceNo",
							"type": "int256"
						}
					],
					"name": "addUser",
					"outputs": [],
					"stateMutability": "nonpayable",
					"type": "function"
				},
				{
					"inputs": [
						{
							"internalType": "address",
							"name": "_user",
							"type": "address"
						}
					],
					"name": "getInsuranceCount",
					"outputs": [
						{
							"internalType": "int256",
							"name": "",
							"type": "int256"
						}
					],
					"stateMutability": "view",
					"type": "function"
				},
				{
					"inputs": [
						{
							"internalType": "address",
							"name": "_user",
							"type": "address"
						}
					],
					"name": "getInsuranceNumber",
					"outputs": [
						{
							"internalType": "int256[]",
							"name": "",
							"type": "int256[]"
						}
					],
					"stateMutability": "view",
					"type": "function"
				},
				{
					"inputs": [],
					"name": "getUser",
					"outputs": [
						{
							"components": [
								{
									"internalType": "int256",
									"name": "userId",
									"type": "int256"
								},
								{
									"internalType": "string",
									"name": "name",
									"type": "string"
								},
								{
									"internalType": "int256",
									"name": "insuranceNo",
									"type": "int256"
								},
								{
									"internalType": "address",
									"name": "userAddress",
									"type": "address"
								}
							],
							"internalType": "struct AddUser.User",
							"name": "",
							"type": "tuple"
						}
					],
					"stateMutability": "view",
					"type": "function"
				},
				{
					"inputs": [],
					"name": "myInsuranceNumbers",
					"outputs": [
						{
							"internalType": "int256[]",
							"name": "",
							"type": "int256[]"
						}
					],
					"stateMutability": "view",
					"type": "function"
				},
				{
					"inputs": [
						{
							"internalType": "address",
							"name": "",
							"type": "address"
						}
					],
					"name": "myUsers",
					"outputs": [
						{
							"internalType": "int256",
							"name": "userId",
							"type": "int256"
						},
						{
							"internalType": "string",
							"name": "name",
							"type": "string"
						},
						{
							"internalType": "int256",
							"name": "insuranceNo",
							"type": "int256"
						},
						{
							"internalType": "address",
							"name": "userAddress",
							"type": "address"
						}
					],
					"stateMutability": "view",
					"type": "function"
				},
				{
					"inputs": [],
					"name": "owner",
					"outputs": [
						{
							"internalType": "address",
							"name": "",
							"type": "address"
						}
					],
					"stateMutability": "view",
					"type": "function"
				},
				{
					"inputs": [],
					"name": "userCount",
					"outputs": [
						{
							"internalType": "int256",
							"name": "",
							"type": "int256"
						}
					],
					"stateMutability": "view",
					"type": "function"
				}
			],
			"devdoc": {
				"kind": "dev",
				"methods": {},
				"version": 1
			},
			"evm": {
				"assembly": "    /* \"Insurance Project(Solidit_REMIX)/contracts/AddUsers.sol\":61:2197  contract AddUser {... */\n  mstore(0x40, 0x80)\n    /* \"Insurance Project(Solidit_REMIX)/contracts/AddUsers.sol\":405:406  0 */\n  0x00\n    /* \"Insurance Project(Solidit_REMIX)/contracts/AddUsers.sol\":382:406  int public userCount = 0 */\n  0x03\n  sstore\n    /* \"Insurance Project(Solidit_REMIX)/contracts/AddUsers.sol\":415:466  constructor() {... */\n  callvalue\n  dup1\n  iszero\n  tag_1\n  jumpi\n  revert(0x00, 0x00)\ntag_1:\n  pop\n    /* \"Insurance Project(Solidit_REMIX)/contracts/AddUsers.sol\":448:458  msg.sender */\n  caller\n    /* \"Insurance Project(Solidit_REMIX)/contracts/AddUsers.sol\":440:445  owner */\n  0x00\n  0x00\n    /* \"Insurance Project(Solidit_REMIX)/contracts/AddUsers.sol\":440:458  owner = msg.sender */\n  0x0100\n  exp\n  dup2\n  sload\n  dup2\n  0xffffffffffffffffffffffffffffffffffffffff\n  mul\n  not\n  and\n  swap1\n  dup4\n  0xffffffffffffffffffffffffffffffffffffffff\n  and\n  mul\n  or\n  swap1\n  sstore\n  pop\n    /* \"Insurance Project(Solidit_REMIX)/contracts/AddUsers.sol\":61:2197  contract AddUser {... */\n  dataSize(sub_0)\n  dup1\n  dataOffset(sub_0)\n  0x00\n  codecopy\n  0x00\n  return\nstop\n\nsub_0: assembly {\n        /* \"Insurance Project(Solidit_REMIX)/contracts/AddUsers.sol\":61:2197  contract AddUser {... */\n      mstore(0x40, 0x80)\n      callvalue\n      dup1\n      iszero\n      tag_1\n      jumpi\n      revert(0x00, 0x00)\n    tag_1:\n      pop\n      jumpi(tag_2, lt(calldatasize, 0x04))\n      shr(0xe0, calldataload(0x00))\n      dup1\n      0x8fe95a1f\n      gt\n      tag_12\n      jumpi\n      dup1\n      0x8fe95a1f\n      eq\n      tag_7\n      jumpi\n      dup1\n      0x9e8a8d6c\n      eq\n      tag_8\n      jumpi\n      dup1\n      0xa69f554d\n      eq\n      tag_9\n      jumpi\n      dup1\n      0xb204ad34\n      eq\n      tag_10\n      jumpi\n      dup1\n      0xef01eb7c\n      eq\n      tag_11\n      jumpi\n      jump(tag_2)\n    tag_12:\n      dup1\n      0x07973ccf\n      eq\n      tag_3\n      jumpi\n      dup1\n      0x0f463e93\n      eq\n      tag_4\n      jumpi\n      dup1\n      0x832880e7\n      eq\n      tag_5\n      jumpi\n      dup1\n      0x8da5cb5b\n      eq\n      tag_6\n      jumpi\n    tag_2:\n      revert(0x00, 0x00)\n        /* \"Insurance Project(Solidit_REMIX)/contracts/AddUsers.sol\":382:406  int public userCount = 0 */\n    tag_3:\n      tag_13\n      tag_14\n      jump\t// in\n    tag_13:\n      mload(0x40)\n      tag_15\n      swap2\n      swap1\n      tag_16\n      jump\t// in\n    tag_15:\n      mload(0x40)\n      dup1\n      swap2\n      sub\n      swap1\n      return\n        /* \"Insurance Project(Solidit_REMIX)/contracts/AddUsers.sol\":1901:2194  function addNewInsurance(int _insuranceNo) public {... */\n    tag_4:\n      tag_17\n      0x04\n      dup1\n      calldatasize\n      sub\n      dup2\n      add\n      swap1\n      tag_18\n      swap2\n      swap1\n      tag_19\n      jump\t// in\n    tag_18:\n      tag_20\n      jump\t// in\n    tag_17:\n      stop\n        /* \"Insurance Project(Solidit_REMIX)/contracts/AddUsers.sol\":1370:1476  function getUser() public view returns (User memory) {        ... */\n    tag_5:\n      tag_21\n      tag_22\n      jump\t// in\n    tag_21:\n      mload(0x40)\n      tag_23\n      swap2\n      swap1\n      tag_24\n      jump\t// in\n    tag_23:\n      mload(0x40)\n      dup1\n      swap2\n      sub\n      swap1\n      return\n        /* \"Insurance Project(Solidit_REMIX)/contracts/AddUsers.sol\":91:111  address public owner */\n    tag_6:\n      tag_25\n      tag_26\n      jump\t// in\n    tag_25:\n      mload(0x40)\n      tag_27\n      swap2\n      swap1\n      tag_28\n      jump\t// in\n    tag_27:\n      mload(0x40)\n      dup1\n      swap2\n      sub\n      swap1\n      return\n        /* \"Insurance Project(Solidit_REMIX)/contracts/AddUsers.sol\":806:1362  function addUser(string memory _name, int _insuranceNo) public {... */\n    tag_7:\n      tag_29\n      0x04\n      dup1\n      calldatasize\n      sub\n      dup2\n      add\n      swap1\n      tag_30\n      swap2\n      swap1\n      tag_31\n      jump\t// in\n    tag_30:\n      tag_32\n      jump\t// in\n    tag_29:\n      stop\n        /* \"Insurance Project(Solidit_REMIX)/contracts/AddUsers.sol\":1484:1613  function getInsuranceCount(address _user) public view onlyOwner returns (int) {... */\n    tag_8:\n      tag_33\n      0x04\n      dup1\n      calldatasize\n      sub\n      dup2\n      add\n      swap1\n      tag_34\n      swap2\n      swap1\n      tag_35\n      jump\t// in\n    tag_34:\n      tag_36\n      jump\t// in\n    tag_33:\n      mload(0x40)\n      tag_37\n      swap2\n      swap1\n      tag_16\n      jump\t// in\n    tag_37:\n      mload(0x40)\n      dup1\n      swap2\n      sub\n      swap1\n      return\n        /* \"Insurance Project(Solidit_REMIX)/contracts/AddUsers.sol\":1621:1762  function getInsuranceNumber(address _user) public view onlyOwner returns (int[] memory) {... */\n    tag_9:\n      tag_38\n      0x04\n      dup1\n      calldatasize\n      sub\n      dup2\n      add\n      swap1\n      tag_39\n      swap2\n      swap1\n      tag_35\n      jump\t// in\n    tag_39:\n      tag_40\n      jump\t// in\n    tag_38:\n      mload(0x40)\n      tag_41\n      swap2\n      swap1\n      tag_42\n      jump\t// in\n    tag_41:\n      mload(0x40)\n      dup1\n      swap2\n      sub\n      swap1\n      return\n        /* \"Insurance Project(Solidit_REMIX)/contracts/AddUsers.sol\":1770:1893  function myInsuranceNumbers() public view returns (int[] memory) {... */\n    tag_10:\n      tag_43\n      tag_44\n      jump\t// in\n    tag_43:\n      mload(0x40)\n      tag_45\n      swap2\n      swap1\n      tag_42\n      jump\t// in\n    tag_45:\n      mload(0x40)\n      dup1\n      swap2\n      sub\n      swap1\n      return\n        /* \"Insurance Project(Solidit_REMIX)/contracts/AddUsers.sol\":474:515  mapping (address => User) public  myUsers */\n    tag_11:\n      tag_46\n      0x04\n      dup1\n      calldatasize\n      sub\n      dup2\n      add\n      swap1\n      tag_47\n      swap2\n      swap1\n      tag_35\n      jump\t// in\n    tag_47:\n      tag_48\n      jump\t// in\n    tag_46:\n      mload(0x40)\n      tag_49\n      swap5\n      swap4\n      swap3\n      swap2\n      swap1\n      tag_50\n      jump\t// in\n    tag_49:\n      mload(0x40)\n      dup1\n      swap2\n      sub\n      swap1\n      return\n        /* \"Insurance Project(Solidit_REMIX)/contracts/AddUsers.sol\":382:406  int public userCount = 0 */\n    tag_14:\n      sload(0x03)\n      dup2\n      jump\t// out\n        /* \"Insurance Project(Solidit_REMIX)/contracts/AddUsers.sol\":1901:2194  function addNewInsurance(int _insuranceNo) public {... */\n    tag_20:\n        /* \"Insurance Project(Solidit_REMIX)/contracts/AddUsers.sol\":2000:2001  0 */\n      0x00\n        /* \"Insurance Project(Solidit_REMIX)/contracts/AddUsers.sol\":1970:1977  myUsers */\n      0x04\n        /* \"Insurance Project(Solidit_REMIX)/contracts/AddUsers.sol\":1970:1989  myUsers[msg.sender] */\n      0x00\n        /* \"Insurance Project(Solidit_REMIX)/contracts/AddUsers.sol\":1978:1988  msg.sender */\n      caller\n        /* \"Insurance Project(Solidit_REMIX)/contracts/AddUsers.sol\":1970:1989  myUsers[msg.sender] */\n      0xffffffffffffffffffffffffffffffffffffffff\n      and\n      0xffffffffffffffffffffffffffffffffffffffff\n      and\n      dup2\n      mstore\n      0x20\n      add\n      swap1\n      dup2\n      mstore\n      0x20\n      add\n      0x00\n      keccak256\n        /* \"Insurance Project(Solidit_REMIX)/contracts/AddUsers.sol\":1970:1996  myUsers[msg.sender].userId */\n      0x00\n      add\n      sload\n        /* \"Insurance Project(Solidit_REMIX)/contracts/AddUsers.sol\":1970:2001  myUsers[msg.sender].userId != 0 */\n      sub\n        /* \"Insurance Project(Solidit_REMIX)/contracts/AddUsers.sol\":1962:2025  require(myUsers[msg.sender].userId != 0, \"User not registered\") */\n      tag_52\n      jumpi\n      mload(0x40)\n      0x08c379a000000000000000000000000000000000000000000000000000000000\n      dup2\n      mstore\n      0x04\n      add\n      tag_53\n      swap1\n      tag_54\n      jump\t// in\n    tag_53:\n      mload(0x40)\n      dup1\n      swap2\n      sub\n      swap1\n      revert\n    tag_52:\n        /* \"Insurance Project(Solidit_REMIX)/contracts/AddUsers.sol\":2036:2056  userInsuranceNumbers */\n      0x02\n        /* \"Insurance Project(Solidit_REMIX)/contracts/AddUsers.sol\":2036:2068  userInsuranceNumbers[msg.sender] */\n      0x00\n        /* \"Insurance Project(Solidit_REMIX)/contracts/AddUsers.sol\":2057:2067  msg.sender */\n      caller\n        /* \"Insurance Project(Solidit_REMIX)/contracts/AddUsers.sol\":2036:2068  userInsuranceNumbers[msg.sender] */\n      0xffffffffffffffffffffffffffffffffffffffff\n      and\n      0xffffffffffffffffffffffffffffffffffffffff\n      and\n      dup2\n      mstore\n      0x20\n      add\n      swap1\n      dup2\n      mstore\n      0x20\n      add\n      0x00\n      keccak256\n        /* \"Insurance Project(Solidit_REMIX)/contracts/AddUsers.sol\":2074:2086  _insuranceNo */\n      dup2\n        /* \"Insurance Project(Solidit_REMIX)/contracts/AddUsers.sol\":2036:2087  userInsuranceNumbers[msg.sender].push(_insuranceNo) */\n      swap1\n      dup1\n      0x01\n      dup2\n      sload\n      add\n      dup1\n      dup3\n      sstore\n      dup1\n      swap2\n      pop\n      pop\n      0x01\n      swap1\n      sub\n      swap1\n      0x00\n      mstore\n      keccak256(0x00, 0x20)\n      add\n      0x00\n      swap1\n      swap2\n      swap1\n      swap2\n      swap1\n      swap2\n      pop\n      sstore\n        /* \"Insurance Project(Solidit_REMIX)/contracts/AddUsers.sol\":2098:2116  userInsuranceCount */\n      0x01\n        /* \"Insurance Project(Solidit_REMIX)/contracts/AddUsers.sol\":2098:2128  userInsuranceCount[msg.sender] */\n      0x00\n        /* \"Insurance Project(Solidit_REMIX)/contracts/AddUsers.sol\":2117:2127  msg.sender */\n      caller\n        /* \"Insurance Project(Solidit_REMIX)/contracts/AddUsers.sol\":2098:2128  userInsuranceCount[msg.sender] */\n      0xffffffffffffffffffffffffffffffffffffffff\n      and\n      0xffffffffffffffffffffffffffffffffffffffff\n      and\n      dup2\n      mstore\n      0x20\n      add\n      swap1\n      dup2\n      mstore\n      0x20\n      add\n      0x00\n      keccak256\n      0x00\n        /* \"Insurance Project(Solidit_REMIX)/contracts/AddUsers.sol\":2098:2130  userInsuranceCount[msg.sender]++ */\n      dup2\n      sload\n      dup1\n      swap3\n      swap2\n      swap1\n      tag_56\n      swap1\n      tag_57\n      jump\t// in\n    tag_56:\n      swap2\n      swap1\n      pop\n      sstore\n      pop\n        /* \"Insurance Project(Solidit_REMIX)/contracts/AddUsers.sol\":2161:2171  msg.sender */\n      caller\n        /* \"Insurance Project(Solidit_REMIX)/contracts/AddUsers.sol\":2146:2186  InsuranceAdded(msg.sender, _insuranceNo) */\n      0xffffffffffffffffffffffffffffffffffffffff\n      and\n      0x2863003788aa1abbbd97a8da75708c69776082b38f3a6664094f492e7e91376b\n        /* \"Insurance Project(Solidit_REMIX)/contracts/AddUsers.sol\":2173:2185  _insuranceNo */\n      dup3\n        /* \"Insurance Project(Solidit_REMIX)/contracts/AddUsers.sol\":2146:2186  InsuranceAdded(msg.sender, _insuranceNo) */\n      mload(0x40)\n      tag_58\n      swap2\n      swap1\n      tag_16\n      jump\t// in\n    tag_58:\n      mload(0x40)\n      dup1\n      swap2\n      sub\n      swap1\n      log2\n        /* \"Insurance Project(Solidit_REMIX)/contracts/AddUsers.sol\":1901:2194  function addNewInsurance(int _insuranceNo) public {... */\n      pop\n      jump\t// out\n        /* \"Insurance Project(Solidit_REMIX)/contracts/AddUsers.sol\":1370:1476  function getUser() public view returns (User memory) {        ... */\n    tag_22:\n        /* \"Insurance Project(Solidit_REMIX)/contracts/AddUsers.sol\":1410:1421  User memory */\n      tag_59\n      tag_60\n      jump\t// in\n    tag_59:\n        /* \"Insurance Project(Solidit_REMIX)/contracts/AddUsers.sol\":1449:1456  myUsers */\n      0x04\n        /* \"Insurance Project(Solidit_REMIX)/contracts/AddUsers.sol\":1449:1468  myUsers[msg.sender] */\n      0x00\n        /* \"Insurance Project(Solidit_REMIX)/contracts/AddUsers.sol\":1457:1467  msg.sender */\n      caller\n        /* \"Insurance Project(Solidit_REMIX)/contracts/AddUsers.sol\":1449:1468  myUsers[msg.sender] */\n      0xffffffffffffffffffffffffffffffffffffffff\n      and\n      0xffffffffffffffffffffffffffffffffffffffff\n      and\n      dup2\n      mstore\n      0x20\n      add\n      swap1\n      dup2\n      mstore\n      0x20\n      add\n      0x00\n      keccak256\n        /* \"Insurance Project(Solidit_REMIX)/contracts/AddUsers.sol\":1442:1468  return myUsers[msg.sender] */\n      mload(0x40)\n      dup1\n      0x80\n      add\n      0x40\n      mstore\n      swap1\n      dup2\n      0x00\n      dup3\n      add\n      sload\n      dup2\n      mstore\n      0x20\n      add\n      0x01\n      dup3\n      add\n      dup1\n      sload\n      tag_62\n      swap1\n      tag_63\n      jump\t// in\n    tag_62:\n      dup1\n      0x1f\n      add\n      0x20\n      dup1\n      swap2\n      div\n      mul\n      0x20\n      add\n      mload(0x40)\n      swap1\n      dup2\n      add\n      0x40\n      mstore\n      dup1\n      swap3\n      swap2\n      swap1\n      dup2\n      dup2\n      mstore\n      0x20\n      add\n      dup3\n      dup1\n      sload\n      tag_64\n      swap1\n      tag_63\n      jump\t// in\n    tag_64:\n      dup1\n      iszero\n      tag_65\n      jumpi\n      dup1\n      0x1f\n      lt\n      tag_66\n      jumpi\n      0x0100\n      dup1\n      dup4\n      sload\n      div\n      mul\n      dup4\n      mstore\n      swap2\n      0x20\n      add\n      swap2\n      jump(tag_65)\n    tag_66:\n      dup3\n      add\n      swap2\n      swap1\n      0x00\n      mstore\n      keccak256(0x00, 0x20)\n      swap1\n    tag_67:\n      dup2\n      sload\n      dup2\n      mstore\n      swap1\n      0x01\n      add\n      swap1\n      0x20\n      add\n      dup1\n      dup4\n      gt\n      tag_67\n      jumpi\n      dup3\n      swap1\n      sub\n      0x1f\n      and\n      dup3\n      add\n      swap2\n    tag_65:\n      pop\n      pop\n      pop\n      pop\n      pop\n      dup2\n      mstore\n      0x20\n      add\n      0x02\n      dup3\n      add\n      sload\n      dup2\n      mstore\n      0x20\n      add\n      0x03\n      dup3\n      add\n      0x00\n      swap1\n      sload\n      swap1\n      0x0100\n      exp\n      swap1\n      div\n      0xffffffffffffffffffffffffffffffffffffffff\n      and\n      0xffffffffffffffffffffffffffffffffffffffff\n      and\n      0xffffffffffffffffffffffffffffffffffffffff\n      and\n      dup2\n      mstore\n      pop\n      pop\n      swap1\n      pop\n        /* \"Insurance Project(Solidit_REMIX)/contracts/AddUsers.sol\":1370:1476  function getUser() public view returns (User memory) {        ... */\n      swap1\n      jump\t// out\n        /* \"Insurance Project(Solidit_REMIX)/contracts/AddUsers.sol\":91:111  address public owner */\n    tag_26:\n      0x00\n      0x00\n      swap1\n      sload\n      swap1\n      0x0100\n      exp\n      swap1\n      div\n      0xffffffffffffffffffffffffffffffffffffffff\n      and\n      dup2\n      jump\t// out\n        /* \"Insurance Project(Solidit_REMIX)/contracts/AddUsers.sol\":806:1362  function addUser(string memory _name, int _insuranceNo) public {... */\n    tag_32:\n        /* \"Insurance Project(Solidit_REMIX)/contracts/AddUsers.sol\":918:919  0 */\n      0x00\n        /* \"Insurance Project(Solidit_REMIX)/contracts/AddUsers.sol\":888:895  myUsers */\n      0x04\n        /* \"Insurance Project(Solidit_REMIX)/contracts/AddUsers.sol\":888:907  myUsers[msg.sender] */\n      0x00\n        /* \"Insurance Project(Solidit_REMIX)/contracts/AddUsers.sol\":896:906  msg.sender */\n      caller\n        /* \"Insurance Project(Solidit_REMIX)/contracts/AddUsers.sol\":888:907  myUsers[msg.sender] */\n      0xffffffffffffffffffffffffffffffffffffffff\n      and\n      0xffffffffffffffffffffffffffffffffffffffff\n      and\n      dup2\n      mstore\n      0x20\n      add\n      swap1\n      dup2\n      mstore\n      0x20\n      add\n      0x00\n      keccak256\n        /* \"Insurance Project(Solidit_REMIX)/contracts/AddUsers.sol\":888:914  myUsers[msg.sender].userId */\n      0x00\n      add\n      sload\n        /* \"Insurance Project(Solidit_REMIX)/contracts/AddUsers.sol\":888:919  myUsers[msg.sender].userId == 0 */\n      eq\n        /* \"Insurance Project(Solidit_REMIX)/contracts/AddUsers.sol\":880:943  require(myUsers[msg.sender].userId == 0, \"User already exists\") */\n      tag_69\n      jumpi\n      mload(0x40)\n      0x08c379a000000000000000000000000000000000000000000000000000000000\n      dup2\n      mstore\n      0x04\n      add\n      tag_70\n      swap1\n      tag_71\n      jump\t// in\n    tag_70:\n      mload(0x40)\n      dup1\n      swap2\n      sub\n      swap1\n      revert\n    tag_69:\n        /* \"Insurance Project(Solidit_REMIX)/contracts/AddUsers.sol\":969:970  1 */\n      0x01\n        /* \"Insurance Project(Solidit_REMIX)/contracts/AddUsers.sol\":956:965  userCount */\n      0x03\n      0x00\n        /* \"Insurance Project(Solidit_REMIX)/contracts/AddUsers.sol\":956:970  userCount += 1 */\n      dup3\n      dup3\n      sload\n      tag_72\n      swap2\n      swap1\n      tag_73\n      jump\t// in\n    tag_72:\n      swap3\n      pop\n      pop\n      dup2\n      swap1\n      sstore\n      pop\n        /* \"Insurance Project(Solidit_REMIX)/contracts/AddUsers.sol\":1003:1168  User({... */\n      mload(0x40)\n      dup1\n      0x80\n      add\n      0x40\n      mstore\n      dup1\n        /* \"Insurance Project(Solidit_REMIX)/contracts/AddUsers.sol\":1031:1040  userCount */\n      sload(0x03)\n        /* \"Insurance Project(Solidit_REMIX)/contracts/AddUsers.sol\":1003:1168  User({... */\n      dup2\n      mstore\n      0x20\n      add\n        /* \"Insurance Project(Solidit_REMIX)/contracts/AddUsers.sol\":1061:1066  _name */\n      dup4\n        /* \"Insurance Project(Solidit_REMIX)/contracts/AddUsers.sol\":1003:1168  User({... */\n      dup2\n      mstore\n      0x20\n      add\n        /* \"Insurance Project(Solidit_REMIX)/contracts/AddUsers.sol\":1094:1106  _insuranceNo */\n      dup3\n        /* \"Insurance Project(Solidit_REMIX)/contracts/AddUsers.sol\":1003:1168  User({... */\n      dup2\n      mstore\n      0x20\n      add\n        /* \"Insurance Project(Solidit_REMIX)/contracts/AddUsers.sol\":1134:1144  msg.sender */\n      caller\n        /* \"Insurance Project(Solidit_REMIX)/contracts/AddUsers.sol\":1003:1168  User({... */\n      0xffffffffffffffffffffffffffffffffffffffff\n      and\n      dup2\n      mstore\n      pop\n        /* \"Insurance Project(Solidit_REMIX)/contracts/AddUsers.sol\":981:988  myUsers */\n      0x04\n        /* \"Insurance Project(Solidit_REMIX)/contracts/AddUsers.sol\":981:1000  myUsers[msg.sender] */\n      0x00\n        /* \"Insurance Project(Solidit_REMIX)/contracts/AddUsers.sol\":989:999  msg.sender */\n      caller\n        /* \"Insurance Project(Solidit_REMIX)/contracts/AddUsers.sol\":981:1000  myUsers[msg.sender] */\n      0xffffffffffffffffffffffffffffffffffffffff\n      and\n      0xffffffffffffffffffffffffffffffffffffffff\n      and\n      dup2\n      mstore\n      0x20\n      add\n      swap1\n      dup2\n      mstore\n      0x20\n      add\n      0x00\n      keccak256\n        /* \"Insurance Project(Solidit_REMIX)/contracts/AddUsers.sol\":981:1168  myUsers[msg.sender] = User({... */\n      0x00\n      dup3\n      add\n      mload\n      dup2\n      0x00\n      add\n      sstore\n      0x20\n      dup3\n      add\n      mload\n      dup2\n      0x01\n      add\n      swap1\n      dup2\n      tag_74\n      swap2\n      swap1\n      tag_75\n      jump\t// in\n    tag_74:\n      pop\n      0x40\n      dup3\n      add\n      mload\n      dup2\n      0x02\n      add\n      sstore\n      0x60\n      dup3\n      add\n      mload\n      dup2\n      0x03\n      add\n      exp(0x0100, 0x00)\n      dup2\n      sload\n      dup2\n      0xffffffffffffffffffffffffffffffffffffffff\n      mul\n      not\n      and\n      swap1\n      dup4\n      0xffffffffffffffffffffffffffffffffffffffff\n      and\n      mul\n      or\n      swap1\n      sstore\n      pop\n      swap1\n      pop\n      pop\n        /* \"Insurance Project(Solidit_REMIX)/contracts/AddUsers.sol\":1189:1209  userInsuranceNumbers */\n      0x02\n        /* \"Insurance Project(Solidit_REMIX)/contracts/AddUsers.sol\":1189:1221  userInsuranceNumbers[msg.sender] */\n      0x00\n        /* \"Insurance Project(Solidit_REMIX)/contracts/AddUsers.sol\":1210:1220  msg.sender */\n      caller\n        /* \"Insurance Project(Solidit_REMIX)/contracts/AddUsers.sol\":1189:1221  userInsuranceNumbers[msg.sender] */\n      0xffffffffffffffffffffffffffffffffffffffff\n      and\n      0xffffffffffffffffffffffffffffffffffffffff\n      and\n      dup2\n      mstore\n      0x20\n      add\n      swap1\n      dup2\n      mstore\n      0x20\n      add\n      0x00\n      keccak256\n        /* \"Insurance Project(Solidit_REMIX)/contracts/AddUsers.sol\":1227:1239  _insuranceNo */\n      dup2\n        /* \"Insurance Project(Solidit_REMIX)/contracts/AddUsers.sol\":1189:1240  userInsuranceNumbers[msg.sender].push(_insuranceNo) */\n      swap1\n      dup1\n      0x01\n      dup2\n      sload\n      add\n      dup1\n      dup3\n      sstore\n      dup1\n      swap2\n      pop\n      pop\n      0x01\n      swap1\n      sub\n      swap1\n      0x00\n      mstore\n      keccak256(0x00, 0x20)\n      add\n      0x00\n      swap1\n      swap2\n      swap1\n      swap2\n      swap1\n      swap2\n      pop\n      sstore\n        /* \"Insurance Project(Solidit_REMIX)/contracts/AddUsers.sol\":1251:1269  userInsuranceCount */\n      0x01\n        /* \"Insurance Project(Solidit_REMIX)/contracts/AddUsers.sol\":1251:1281  userInsuranceCount[msg.sender] */\n      0x00\n        /* \"Insurance Project(Solidit_REMIX)/contracts/AddUsers.sol\":1270:1280  msg.sender */\n      caller\n        /* \"Insurance Project(Solidit_REMIX)/contracts/AddUsers.sol\":1251:1281  userInsuranceCount[msg.sender] */\n      0xffffffffffffffffffffffffffffffffffffffff\n      and\n      0xffffffffffffffffffffffffffffffffffffffff\n      and\n      dup2\n      mstore\n      0x20\n      add\n      swap1\n      dup2\n      mstore\n      0x20\n      add\n      0x00\n      keccak256\n      0x00\n        /* \"Insurance Project(Solidit_REMIX)/contracts/AddUsers.sol\":1251:1283  userInsuranceCount[msg.sender]++ */\n      dup2\n      sload\n      dup1\n      swap3\n      swap2\n      swap1\n      tag_77\n      swap1\n      tag_57\n      jump\t// in\n    tag_77:\n      swap2\n      swap1\n      pop\n      sstore\n      pop\n        /* \"Insurance Project(Solidit_REMIX)/contracts/AddUsers.sol\":1311:1321  msg.sender */\n      caller\n        /* \"Insurance Project(Solidit_REMIX)/contracts/AddUsers.sol\":1301:1354  UserAdded(msg.sender, userCount, _name, _insuranceNo) */\n      0xffffffffffffffffffffffffffffffffffffffff\n      and\n      0xe2f58f370c7907db4e16cdbfadb99dab2f1d5052ffa24ede238e5e96c9262039\n        /* \"Insurance Project(Solidit_REMIX)/contracts/AddUsers.sol\":1323:1332  userCount */\n      sload(0x03)\n        /* \"Insurance Project(Solidit_REMIX)/contracts/AddUsers.sol\":1334:1339  _name */\n      dup5\n        /* \"Insurance Project(Solidit_REMIX)/contracts/AddUsers.sol\":1341:1353  _insuranceNo */\n      dup5\n        /* \"Insurance Project(Solidit_REMIX)/contracts/AddUsers.sol\":1301:1354  UserAdded(msg.sender, userCount, _name, _insuranceNo) */\n      mload(0x40)\n      tag_78\n      swap4\n      swap3\n      swap2\n      swap1\n      tag_79\n      jump\t// in\n    tag_78:\n      mload(0x40)\n      dup1\n      swap2\n      sub\n      swap1\n      log2\n        /* \"Insurance Project(Solidit_REMIX)/contracts/AddUsers.sol\":806:1362  function addUser(string memory _name, int _insuranceNo) public {... */\n      pop\n      pop\n      jump\t// out\n        /* \"Insurance Project(Solidit_REMIX)/contracts/AddUsers.sol\":1484:1613  function getInsuranceCount(address _user) public view onlyOwner returns (int) {... */\n    tag_36:\n        /* \"Insurance Project(Solidit_REMIX)/contracts/AddUsers.sol\":1557:1560  int */\n      0x00\n        /* \"Insurance Project(Solidit_REMIX)/contracts/AddUsers.sol\":571:581  msg.sender */\n      caller\n        /* \"Insurance Project(Solidit_REMIX)/contracts/AddUsers.sol\":562:581  owner == msg.sender */\n      0xffffffffffffffffffffffffffffffffffffffff\n      and\n        /* \"Insurance Project(Solidit_REMIX)/contracts/AddUsers.sol\":562:567  owner */\n      0x00\n      0x00\n      swap1\n      sload\n      swap1\n      0x0100\n      exp\n      swap1\n      div\n      0xffffffffffffffffffffffffffffffffffffffff\n      and\n        /* \"Insurance Project(Solidit_REMIX)/contracts/AddUsers.sol\":562:581  owner == msg.sender */\n      0xffffffffffffffffffffffffffffffffffffffff\n      and\n      eq\n        /* \"Insurance Project(Solidit_REMIX)/contracts/AddUsers.sol\":554:624  require(owner == msg.sender, \"Only Owner has access to this function\") */\n      tag_81\n      jumpi\n      mload(0x40)\n      0x08c379a000000000000000000000000000000000000000000000000000000000\n      dup2\n      mstore\n      0x04\n      add\n      tag_82\n      swap1\n      tag_83\n      jump\t// in\n    tag_82:\n      mload(0x40)\n      dup1\n      swap2\n      sub\n      swap1\n      revert\n    tag_81:\n        /* \"Insurance Project(Solidit_REMIX)/contracts/AddUsers.sol\":1580:1598  userInsuranceCount */\n      0x01\n        /* \"Insurance Project(Solidit_REMIX)/contracts/AddUsers.sol\":1580:1605  userInsuranceCount[_user] */\n      0x00\n        /* \"Insurance Project(Solidit_REMIX)/contracts/AddUsers.sol\":1599:1604  _user */\n      dup4\n        /* \"Insurance Project(Solidit_REMIX)/contracts/AddUsers.sol\":1580:1605  userInsuranceCount[_user] */\n      0xffffffffffffffffffffffffffffffffffffffff\n      and\n      0xffffffffffffffffffffffffffffffffffffffff\n      and\n      dup2\n      mstore\n      0x20\n      add\n      swap1\n      dup2\n      mstore\n      0x20\n      add\n      0x00\n      keccak256\n      sload\n        /* \"Insurance Project(Solidit_REMIX)/contracts/AddUsers.sol\":1573:1605  return userInsuranceCount[_user] */\n      swap1\n      pop\n        /* \"Insurance Project(Solidit_REMIX)/contracts/AddUsers.sol\":1484:1613  function getInsuranceCount(address _user) public view onlyOwner returns (int) {... */\n      swap2\n      swap1\n      pop\n      jump\t// out\n        /* \"Insurance Project(Solidit_REMIX)/contracts/AddUsers.sol\":1621:1762  function getInsuranceNumber(address _user) public view onlyOwner returns (int[] memory) {... */\n    tag_40:\n        /* \"Insurance Project(Solidit_REMIX)/contracts/AddUsers.sol\":1695:1707  int[] memory */\n      0x60\n        /* \"Insurance Project(Solidit_REMIX)/contracts/AddUsers.sol\":571:581  msg.sender */\n      caller\n        /* \"Insurance Project(Solidit_REMIX)/contracts/AddUsers.sol\":562:581  owner == msg.sender */\n      0xffffffffffffffffffffffffffffffffffffffff\n      and\n        /* \"Insurance Project(Solidit_REMIX)/contracts/AddUsers.sol\":562:567  owner */\n      0x00\n      0x00\n      swap1\n      sload\n      swap1\n      0x0100\n      exp\n      swap1\n      div\n      0xffffffffffffffffffffffffffffffffffffffff\n      and\n        /* \"Insurance Project(Solidit_REMIX)/contracts/AddUsers.sol\":562:581  owner == msg.sender */\n      0xffffffffffffffffffffffffffffffffffffffff\n      and\n      eq\n        /* \"Insurance Project(Solidit_REMIX)/contracts/AddUsers.sol\":554:624  require(owner == msg.sender, \"Only Owner has access to this function\") */\n      tag_86\n      jumpi\n      mload(0x40)\n      0x08c379a000000000000000000000000000000000000000000000000000000000\n      dup2\n      mstore\n      0x04\n      add\n      tag_87\n      swap1\n      tag_83\n      jump\t// in\n    tag_87:\n      mload(0x40)\n      dup1\n      swap2\n      sub\n      swap1\n      revert\n    tag_86:\n        /* \"Insurance Project(Solidit_REMIX)/contracts/AddUsers.sol\":1727:1747  userInsuranceNumbers */\n      0x02\n        /* \"Insurance Project(Solidit_REMIX)/contracts/AddUsers.sol\":1727:1754  userInsuranceNumbers[_user] */\n      0x00\n        /* \"Insurance Project(Solidit_REMIX)/contracts/AddUsers.sol\":1748:1753  _user */\n      dup4\n        /* \"Insurance Project(Solidit_REMIX)/contracts/AddUsers.sol\":1727:1754  userInsuranceNumbers[_user] */\n      0xffffffffffffffffffffffffffffffffffffffff\n      and\n      0xffffffffffffffffffffffffffffffffffffffff\n      and\n      dup2\n      mstore\n      0x20\n      add\n      swap1\n      dup2\n      mstore\n      0x20\n      add\n      0x00\n      keccak256\n        /* \"Insurance Project(Solidit_REMIX)/contracts/AddUsers.sol\":1720:1754  return userInsuranceNumbers[_user] */\n      dup1\n      sload\n      dup1\n      0x20\n      mul\n      0x20\n      add\n      mload(0x40)\n      swap1\n      dup2\n      add\n      0x40\n      mstore\n      dup1\n      swap3\n      swap2\n      swap1\n      dup2\n      dup2\n      mstore\n      0x20\n      add\n      dup3\n      dup1\n      sload\n      dup1\n      iszero\n      tag_89\n      jumpi\n      0x20\n      mul\n      dup3\n      add\n      swap2\n      swap1\n      0x00\n      mstore\n      keccak256(0x00, 0x20)\n      swap1\n    tag_90:\n      dup2\n      sload\n      dup2\n      mstore\n      0x20\n      add\n      swap1\n      0x01\n      add\n      swap1\n      dup1\n      dup4\n      gt\n      tag_90\n      jumpi\n    tag_89:\n      pop\n      pop\n      pop\n      pop\n      pop\n      swap1\n      pop\n        /* \"Insurance Project(Solidit_REMIX)/contracts/AddUsers.sol\":1621:1762  function getInsuranceNumber(address _user) public view onlyOwner returns (int[] memory) {... */\n      swap2\n      swap1\n      pop\n      jump\t// out\n        /* \"Insurance Project(Solidit_REMIX)/contracts/AddUsers.sol\":1770:1893  function myInsuranceNumbers() public view returns (int[] memory) {... */\n    tag_44:\n        /* \"Insurance Project(Solidit_REMIX)/contracts/AddUsers.sol\":1821:1833  int[] memory */\n      0x60\n        /* \"Insurance Project(Solidit_REMIX)/contracts/AddUsers.sol\":1853:1873  userInsuranceNumbers */\n      0x02\n        /* \"Insurance Project(Solidit_REMIX)/contracts/AddUsers.sol\":1853:1885  userInsuranceNumbers[msg.sender] */\n      0x00\n        /* \"Insurance Project(Solidit_REMIX)/contracts/AddUsers.sol\":1874:1884  msg.sender */\n      caller\n        /* \"Insurance Project(Solidit_REMIX)/contracts/AddUsers.sol\":1853:1885  userInsuranceNumbers[msg.sender] */\n      0xffffffffffffffffffffffffffffffffffffffff\n      and\n      0xffffffffffffffffffffffffffffffffffffffff\n      and\n      dup2\n      mstore\n      0x20\n      add\n      swap1\n      dup2\n      mstore\n      0x20\n      add\n      0x00\n      keccak256\n        /* \"Insurance Project(Solidit_REMIX)/contracts/AddUsers.sol\":1846:1885  return userInsuranceNumbers[msg.sender] */\n      dup1\n      sload\n      dup1\n      0x20\n      mul\n      0x20\n      add\n      mload(0x40)\n      swap1\n      dup2\n      add\n      0x40\n      mstore\n      dup1\n      swap3\n      swap2\n      swap1\n      dup2\n      dup2\n      mstore\n      0x20\n      add\n      dup3\n      dup1\n      sload\n      dup1\n      iszero\n      tag_92\n      jumpi\n      0x20\n      mul\n      dup3\n      add\n      swap2\n      swap1\n      0x00\n      mstore\n      keccak256(0x00, 0x20)\n      swap1\n    tag_93:\n      dup2\n      sload\n      dup2\n      mstore\n      0x20\n      add\n      swap1\n      0x01\n      add\n      swap1\n      dup1\n      dup4\n      gt\n      tag_93\n      jumpi\n    tag_92:\n      pop\n      pop\n      pop\n      pop\n      pop\n      swap1\n      pop\n        /* \"Insurance Project(Solidit_REMIX)/contracts/AddUsers.sol\":1770:1893  function myInsuranceNumbers() public view returns (int[] memory) {... */\n      swap1\n      jump\t// out\n        /* \"Insurance Project(Solidit_REMIX)/contracts/AddUsers.sol\":474:515  mapping (address => User) public  myUsers */\n    tag_48:\n      mstore(0x20, 0x04)\n      dup1\n      0x00\n      mstore\n      keccak256(0x00, 0x40)\n      0x00\n      swap2\n      pop\n      swap1\n      pop\n      dup1\n      0x00\n      add\n      sload\n      swap1\n      dup1\n      0x01\n      add\n      dup1\n      sload\n      tag_94\n      swap1\n      tag_63\n      jump\t// in\n    tag_94:\n      dup1\n      0x1f\n      add\n      0x20\n      dup1\n      swap2\n      div\n      mul\n      0x20\n      add\n      mload(0x40)\n      swap1\n      dup2\n      add\n      0x40\n      mstore\n      dup1\n      swap3\n      swap2\n      swap1\n      dup2\n      dup2\n      mstore\n      0x20\n      add\n      dup3\n      dup1\n      sload\n      tag_95\n      swap1\n      tag_63\n      jump\t// in\n    tag_95:\n      dup1\n      iszero\n      tag_96\n      jumpi\n      dup1\n      0x1f\n      lt\n      tag_97\n      jumpi\n      0x0100\n      dup1\n      dup4\n      sload\n      div\n      mul\n      dup4\n      mstore\n      swap2\n      0x20\n      add\n      swap2\n      jump(tag_96)\n    tag_97:\n      dup3\n      add\n      swap2\n      swap1\n      0x00\n      mstore\n      keccak256(0x00, 0x20)\n      swap1\n    tag_98:\n      dup2\n      sload\n      dup2\n      mstore\n      swap1\n      0x01\n      add\n      swap1\n      0x20\n      add\n      dup1\n      dup4\n      gt\n      tag_98\n      jumpi\n      dup3\n      swap1\n      sub\n      0x1f\n      and\n      dup3\n      add\n      swap2\n    tag_96:\n      pop\n      pop\n      pop\n      pop\n      pop\n      swap1\n      dup1\n      0x02\n      add\n      sload\n      swap1\n      dup1\n      0x03\n      add\n      0x00\n      swap1\n      sload\n      swap1\n      0x0100\n      exp\n      swap1\n      div\n      0xffffffffffffffffffffffffffffffffffffffff\n      and\n      swap1\n      pop\n      dup5\n      jump\t// out\n    tag_60:\n      mload(0x40)\n      dup1\n      0x80\n      add\n      0x40\n      mstore\n      dup1\n      0x00\n      dup2\n      mstore\n      0x20\n      add\n      0x60\n      dup2\n      mstore\n      0x20\n      add\n      0x00\n      dup2\n      mstore\n      0x20\n      add\n      and(0xffffffffffffffffffffffffffffffffffffffff, 0x00)\n      dup2\n      mstore\n      pop\n      swap1\n      jump\t// out\n        /* \"#utility.yul\":7:83   */\n    tag_99:\n        /* \"#utility.yul\":43:50   */\n      0x00\n        /* \"#utility.yul\":72:77   */\n      dup2\n        /* \"#utility.yul\":61:77   */\n      swap1\n      pop\n        /* \"#utility.yul\":7:83   */\n      swap2\n      swap1\n      pop\n      jump\t// out\n        /* \"#utility.yul\":89:204   */\n    tag_100:\n        /* \"#utility.yul\":174:197   */\n      tag_163\n        /* \"#utility.yul\":191:196   */\n      dup2\n        /* \"#utility.yul\":174:197   */\n      tag_99\n      jump\t// in\n    tag_163:\n        /* \"#utility.yul\":169:172   */\n      dup3\n        /* \"#utility.yul\":162:198   */\n      mstore\n        /* \"#utility.yul\":89:204   */\n      pop\n      pop\n      jump\t// out\n        /* \"#utility.yul\":210:428   */\n    tag_16:\n        /* \"#utility.yul\":301:305   */\n      0x00\n        /* \"#utility.yul\":339:341   */\n      0x20\n        /* \"#utility.yul\":328:337   */\n      dup3\n        /* \"#utility.yul\":324:342   */\n      add\n        /* \"#utility.yul\":316:342   */\n      swap1\n      pop\n        /* \"#utility.yul\":352:421   */\n      tag_165\n        /* \"#utility.yul\":418:419   */\n      0x00\n        /* \"#utility.yul\":407:416   */\n      dup4\n        /* \"#utility.yul\":403:420   */\n      add\n        /* \"#utility.yul\":394:400   */\n      dup5\n        /* \"#utility.yul\":352:421   */\n      tag_100\n      jump\t// in\n    tag_165:\n        /* \"#utility.yul\":210:428   */\n      swap3\n      swap2\n      pop\n      pop\n      jump\t// out\n        /* \"#utility.yul\":434:509   */\n    tag_101:\n        /* \"#utility.yul\":467:473   */\n      0x00\n        /* \"#utility.yul\":500:502   */\n      0x40\n        /* \"#utility.yul\":494:503   */\n      mload\n        /* \"#utility.yul\":484:503   */\n      swap1\n      pop\n        /* \"#utility.yul\":434:509   */\n      swap1\n      jump\t// out\n        /* \"#utility.yul\":515:632   */\n    tag_102:\n        /* \"#utility.yul\":624:625   */\n      0x00\n        /* \"#utility.yul\":621:622   */\n      0x00\n        /* \"#utility.yul\":614:626   */\n      revert\n        /* \"#utility.yul\":638:755   */\n    tag_103:\n        /* \"#utility.yul\":747:748   */\n      0x00\n        /* \"#utility.yul\":744:745   */\n      0x00\n        /* \"#utility.yul\":737:749   */\n      revert\n        /* \"#utility.yul\":761:881   */\n    tag_104:\n        /* \"#utility.yul\":833:856   */\n      tag_170\n        /* \"#utility.yul\":850:855   */\n      dup2\n        /* \"#utility.yul\":833:856   */\n      tag_99\n      jump\t// in\n    tag_170:\n        /* \"#utility.yul\":826:831   */\n      dup2\n        /* \"#utility.yul\":823:857   */\n      eq\n        /* \"#utility.yul\":813:875   */\n      tag_171\n      jumpi\n        /* \"#utility.yul\":871:872   */\n      0x00\n        /* \"#utility.yul\":868:869   */\n      0x00\n        /* \"#utility.yul\":861:873   */\n      revert\n        /* \"#utility.yul\":813:875   */\n    tag_171:\n        /* \"#utility.yul\":761:881   */\n      pop\n      jump\t// out\n        /* \"#utility.yul\":887:1024   */\n    tag_105:\n        /* \"#utility.yul\":932:937   */\n      0x00\n        /* \"#utility.yul\":970:976   */\n      dup2\n        /* \"#utility.yul\":957:977   */\n      calldataload\n        /* \"#utility.yul\":948:977   */\n      swap1\n      pop\n        /* \"#utility.yul\":986:1018   */\n      tag_173\n        /* \"#utility.yul\":1012:1017   */\n      dup2\n        /* \"#utility.yul\":986:1018   */\n      tag_104\n      jump\t// in\n    tag_173:\n        /* \"#utility.yul\":887:1024   */\n      swap3\n      swap2\n      pop\n      pop\n      jump\t// out\n        /* \"#utility.yul\":1030:1357   */\n    tag_19:\n        /* \"#utility.yul\":1088:1094   */\n      0x00\n        /* \"#utility.yul\":1137:1139   */\n      0x20\n        /* \"#utility.yul\":1125:1134   */\n      dup3\n        /* \"#utility.yul\":1116:1123   */\n      dup5\n        /* \"#utility.yul\":1112:1135   */\n      sub\n        /* \"#utility.yul\":1108:1140   */\n      slt\n        /* \"#utility.yul\":1105:1224   */\n      iszero\n      tag_175\n      jumpi\n        /* \"#utility.yul\":1143:1222   */\n      tag_176\n      tag_102\n      jump\t// in\n    tag_176:\n        /* \"#utility.yul\":1105:1224   */\n    tag_175:\n        /* \"#utility.yul\":1263:1264   */\n      0x00\n        /* \"#utility.yul\":1288:1340   */\n      tag_177\n        /* \"#utility.yul\":1332:1339   */\n      dup5\n        /* \"#utility.yul\":1323:1329   */\n      dup3\n        /* \"#utility.yul\":1312:1321   */\n      dup6\n        /* \"#utility.yul\":1308:1330   */\n      add\n        /* \"#utility.yul\":1288:1340   */\n      tag_105\n      jump\t// in\n    tag_177:\n        /* \"#utility.yul\":1278:1340   */\n      swap2\n      pop\n        /* \"#utility.yul\":1234:1350   */\n      pop\n        /* \"#utility.yul\":1030:1357   */\n      swap3\n      swap2\n      pop\n      pop\n      jump\t// out\n        /* \"#utility.yul\":1363:1468   */\n    tag_106:\n        /* \"#utility.yul\":1438:1461   */\n      tag_179\n        /* \"#utility.yul\":1455:1460   */\n      dup2\n        /* \"#utility.yul\":1438:1461   */\n      tag_99\n      jump\t// in\n    tag_179:\n        /* \"#utility.yul\":1433:1436   */\n      dup3\n        /* \"#utility.yul\":1426:1462   */\n      mstore\n        /* \"#utility.yul\":1363:1468   */\n      pop\n      pop\n      jump\t// out\n        /* \"#utility.yul\":1474:1573   */\n    tag_107:\n        /* \"#utility.yul\":1526:1532   */\n      0x00\n        /* \"#utility.yul\":1560:1565   */\n      dup2\n        /* \"#utility.yul\":1554:1566   */\n      mload\n        /* \"#utility.yul\":1544:1566   */\n      swap1\n      pop\n        /* \"#utility.yul\":1474:1573   */\n      swap2\n      swap1\n      pop\n      jump\t// out\n        /* \"#utility.yul\":1579:1738   */\n    tag_108:\n        /* \"#utility.yul\":1653:1664   */\n      0x00\n        /* \"#utility.yul\":1687:1693   */\n      dup3\n        /* \"#utility.yul\":1682:1685   */\n      dup3\n        /* \"#utility.yul\":1675:1694   */\n      mstore\n        /* \"#utility.yul\":1727:1731   */\n      0x20\n        /* \"#utility.yul\":1722:1725   */\n      dup3\n        /* \"#utility.yul\":1718:1732   */\n      add\n        /* \"#utility.yul\":1703:1732   */\n      swap1\n      pop\n        /* \"#utility.yul\":1579:1738   */\n      swap3\n      swap2\n      pop\n      pop\n      jump\t// out\n        /* \"#utility.yul\":1744:1883   */\n    tag_109:\n        /* \"#utility.yul\":1833:1839   */\n      dup3\n        /* \"#utility.yul\":1828:1831   */\n      dup2\n        /* \"#utility.yul\":1823:1826   */\n      dup4\n        /* \"#utility.yul\":1817:1840   */\n      mcopy\n        /* \"#utility.yul\":1874:1875   */\n      0x00\n        /* \"#utility.yul\":1865:1871   */\n      dup4\n        /* \"#utility.yul\":1860:1863   */\n      dup4\n        /* \"#utility.yul\":1856:1872   */\n      add\n        /* \"#utility.yul\":1849:1876   */\n      mstore\n        /* \"#utility.yul\":1744:1883   */\n      pop\n      pop\n      pop\n      jump\t// out\n        /* \"#utility.yul\":1889:1991   */\n    tag_110:\n        /* \"#utility.yul\":1930:1936   */\n      0x00\n        /* \"#utility.yul\":1981:1983   */\n      0x1f\n        /* \"#utility.yul\":1977:1984   */\n      not\n        /* \"#utility.yul\":1972:1974   */\n      0x1f\n        /* \"#utility.yul\":1965:1970   */\n      dup4\n        /* \"#utility.yul\":1961:1975   */\n      add\n        /* \"#utility.yul\":1957:1985   */\n      and\n        /* \"#utility.yul\":1947:1985   */\n      swap1\n      pop\n        /* \"#utility.yul\":1889:1991   */\n      swap2\n      swap1\n      pop\n      jump\t// out\n        /* \"#utility.yul\":1997:2354   */\n    tag_111:\n        /* \"#utility.yul\":2075:2078   */\n      0x00\n        /* \"#utility.yul\":2103:2142   */\n      tag_185\n        /* \"#utility.yul\":2136:2141   */\n      dup3\n        /* \"#utility.yul\":2103:2142   */\n      tag_107\n      jump\t// in\n    tag_185:\n        /* \"#utility.yul\":2158:2219   */\n      tag_186\n        /* \"#utility.yul\":2212:2218   */\n      dup2\n        /* \"#utility.yul\":2207:2210   */\n      dup6\n        /* \"#utility.yul\":2158:2219   */\n      tag_108\n      jump\t// in\n    tag_186:\n        /* \"#utility.yul\":2151:2219   */\n      swap4\n      pop\n        /* \"#utility.yul\":2228:2293   */\n      tag_187\n        /* \"#utility.yul\":2286:2292   */\n      dup2\n        /* \"#utility.yul\":2281:2284   */\n      dup6\n        /* \"#utility.yul\":2274:2278   */\n      0x20\n        /* \"#utility.yul\":2267:2272   */\n      dup7\n        /* \"#utility.yul\":2263:2279   */\n      add\n        /* \"#utility.yul\":2228:2293   */\n      tag_109\n      jump\t// in\n    tag_187:\n        /* \"#utility.yul\":2318:2347   */\n      tag_188\n        /* \"#utility.yul\":2340:2346   */\n      dup2\n        /* \"#utility.yul\":2318:2347   */\n      tag_110\n      jump\t// in\n    tag_188:\n        /* \"#utility.yul\":2313:2316   */\n      dup5\n        /* \"#utility.yul\":2309:2348   */\n      add\n        /* \"#utility.yul\":2302:2348   */\n      swap2\n      pop\n        /* \"#utility.yul\":2079:2354   */\n      pop\n        /* \"#utility.yul\":1997:2354   */\n      swap3\n      swap2\n      pop\n      pop\n      jump\t// out\n        /* \"#utility.yul\":2360:2486   */\n    tag_112:\n        /* \"#utility.yul\":2397:2404   */\n      0x00\n        /* \"#utility.yul\":2437:2479   */\n      0xffffffffffffffffffffffffffffffffffffffff\n        /* \"#utility.yul\":2430:2435   */\n      dup3\n        /* \"#utility.yul\":2426:2480   */\n      and\n        /* \"#utility.yul\":2415:2480   */\n      swap1\n      pop\n        /* \"#utility.yul\":2360:2486   */\n      swap2\n      swap1\n      pop\n      jump\t// out\n        /* \"#utility.yul\":2492:2588   */\n    tag_113:\n        /* \"#utility.yul\":2529:2536   */\n      0x00\n        /* \"#utility.yul\":2558:2582   */\n      tag_191\n        /* \"#utility.yul\":2576:2581   */\n      dup3\n        /* \"#utility.yul\":2558:2582   */\n      tag_112\n      jump\t// in\n    tag_191:\n        /* \"#utility.yul\":2547:2582   */\n      swap1\n      pop\n        /* \"#utility.yul\":2492:2588   */\n      swap2\n      swap1\n      pop\n      jump\t// out\n        /* \"#utility.yul\":2594:2702   */\n    tag_114:\n        /* \"#utility.yul\":2671:2695   */\n      tag_193\n        /* \"#utility.yul\":2689:2694   */\n      dup2\n        /* \"#utility.yul\":2671:2695   */\n      tag_113\n      jump\t// in\n    tag_193:\n        /* \"#utility.yul\":2666:2669   */\n      dup3\n        /* \"#utility.yul\":2659:2696   */\n      mstore\n        /* \"#utility.yul\":2594:2702   */\n      pop\n      pop\n      jump\t// out\n        /* \"#utility.yul\":2758:3714   */\n    tag_115:\n        /* \"#utility.yul\":2867:2870   */\n      0x00\n        /* \"#utility.yul\":2903:2907   */\n      0x80\n        /* \"#utility.yul\":2898:2901   */\n      dup4\n        /* \"#utility.yul\":2894:2908   */\n      add\n        /* \"#utility.yul\":2992:2996   */\n      0x00\n        /* \"#utility.yul\":2985:2990   */\n      dup4\n        /* \"#utility.yul\":2981:2997   */\n      add\n        /* \"#utility.yul\":2975:2998   */\n      mload\n        /* \"#utility.yul\":3011:3072   */\n      tag_195\n        /* \"#utility.yul\":3066:3070   */\n      0x00\n        /* \"#utility.yul\":3061:3064   */\n      dup7\n        /* \"#utility.yul\":3057:3071   */\n      add\n        /* \"#utility.yul\":3043:3055   */\n      dup3\n        /* \"#utility.yul\":3011:3072   */\n      tag_106\n      jump\t// in\n    tag_195:\n        /* \"#utility.yul\":2918:3082   */\n      pop\n        /* \"#utility.yul\":3164:3168   */\n      0x20\n        /* \"#utility.yul\":3157:3162   */\n      dup4\n        /* \"#utility.yul\":3153:3169   */\n      add\n        /* \"#utility.yul\":3147:3170   */\n      mload\n        /* \"#utility.yul\":3217:3220   */\n      dup5\n        /* \"#utility.yul\":3211:3215   */\n      dup3\n        /* \"#utility.yul\":3207:3221   */\n      sub\n        /* \"#utility.yul\":3200:3204   */\n      0x20\n        /* \"#utility.yul\":3195:3198   */\n      dup7\n        /* \"#utility.yul\":3191:3205   */\n      add\n        /* \"#utility.yul\":3184:3222   */\n      mstore\n        /* \"#utility.yul\":3243:3316   */\n      tag_196\n        /* \"#utility.yul\":3311:3315   */\n      dup3\n        /* \"#utility.yul\":3297:3309   */\n      dup3\n        /* \"#utility.yul\":3243:3316   */\n      tag_111\n      jump\t// in\n    tag_196:\n        /* \"#utility.yul\":3235:3316   */\n      swap2\n      pop\n        /* \"#utility.yul\":3092:3327   */\n      pop\n        /* \"#utility.yul\":3416:3420   */\n      0x40\n        /* \"#utility.yul\":3409:3414   */\n      dup4\n        /* \"#utility.yul\":3405:3421   */\n      add\n        /* \"#utility.yul\":3399:3422   */\n      mload\n        /* \"#utility.yul\":3435:3496   */\n      tag_197\n        /* \"#utility.yul\":3490:3494   */\n      0x40\n        /* \"#utility.yul\":3485:3488   */\n      dup7\n        /* \"#utility.yul\":3481:3495   */\n      add\n        /* \"#utility.yul\":3467:3479   */\n      dup3\n        /* \"#utility.yul\":3435:3496   */\n      tag_106\n      jump\t// in\n    tag_197:\n        /* \"#utility.yul\":3337:3506   */\n      pop\n        /* \"#utility.yul\":3595:3599   */\n      0x60\n        /* \"#utility.yul\":3588:3593   */\n      dup4\n        /* \"#utility.yul\":3584:3600   */\n      add\n        /* \"#utility.yul\":3578:3601   */\n      mload\n        /* \"#utility.yul\":3614:3677   */\n      tag_198\n        /* \"#utility.yul\":3671:3675   */\n      0x60\n        /* \"#utility.yul\":3666:3669   */\n      dup7\n        /* \"#utility.yul\":3662:3676   */\n      add\n        /* \"#utility.yul\":3648:3660   */\n      dup3\n        /* \"#utility.yul\":3614:3677   */\n      tag_114\n      jump\t// in\n    tag_198:\n        /* \"#utility.yul\":3516:3687   */\n      pop\n        /* \"#utility.yul\":3704:3708   */\n      dup1\n        /* \"#utility.yul\":3697:3708   */\n      swap2\n      pop\n        /* \"#utility.yul\":2872:3714   */\n      pop\n        /* \"#utility.yul\":2758:3714   */\n      swap3\n      swap2\n      pop\n      pop\n      jump\t// out\n        /* \"#utility.yul\":3720:4073   */\n    tag_24:\n        /* \"#utility.yul\":3853:3857   */\n      0x00\n        /* \"#utility.yul\":3891:3893   */\n      0x20\n        /* \"#utility.yul\":3880:3889   */\n      dup3\n        /* \"#utility.yul\":3876:3894   */\n      add\n        /* \"#utility.yul\":3868:3894   */\n      swap1\n      pop\n        /* \"#utility.yul\":3940:3949   */\n      dup2\n        /* \"#utility.yul\":3934:3938   */\n      dup2\n        /* \"#utility.yul\":3930:3950   */\n      sub\n        /* \"#utility.yul\":3926:3927   */\n      0x00\n        /* \"#utility.yul\":3915:3924   */\n      dup4\n        /* \"#utility.yul\":3911:3928   */\n      add\n        /* \"#utility.yul\":3904:3951   */\n      mstore\n        /* \"#utility.yul\":3968:4066   */\n      tag_200\n        /* \"#utility.yul\":4061:4065   */\n      dup2\n        /* \"#utility.yul\":4052:4058   */\n      dup5\n        /* \"#utility.yul\":3968:4066   */\n      tag_115\n      jump\t// in\n    tag_200:\n        /* \"#utility.yul\":3960:4066   */\n      swap1\n      pop\n        /* \"#utility.yul\":3720:4073   */\n      swap3\n      swap2\n      pop\n      pop\n      jump\t// out\n        /* \"#utility.yul\":4079:4197   */\n    tag_116:\n        /* \"#utility.yul\":4166:4190   */\n      tag_202\n        /* \"#utility.yul\":4184:4189   */\n      dup2\n        /* \"#utility.yul\":4166:4190   */\n      tag_113\n      jump\t// in\n    tag_202:\n        /* \"#utility.yul\":4161:4164   */\n      dup3\n        /* \"#utility.yul\":4154:4191   */\n      mstore\n        /* \"#utility.yul\":4079:4197   */\n      pop\n      pop\n      jump\t// out\n        /* \"#utility.yul\":4203:4425   */\n    tag_28:\n        /* \"#utility.yul\":4296:4300   */\n      0x00\n        /* \"#utility.yul\":4334:4336   */\n      0x20\n        /* \"#utility.yul\":4323:4332   */\n      dup3\n        /* \"#utility.yul\":4319:4337   */\n      add\n        /* \"#utility.yul\":4311:4337   */\n      swap1\n      pop\n        /* \"#utility.yul\":4347:4418   */\n      tag_204\n        /* \"#utility.yul\":4415:4416   */\n      0x00\n        /* \"#utility.yul\":4404:4413   */\n      dup4\n        /* \"#utility.yul\":4400:4417   */\n      add\n        /* \"#utility.yul\":4391:4397   */\n      dup5\n        /* \"#utility.yul\":4347:4418   */\n      tag_116\n      jump\t// in\n    tag_204:\n        /* \"#utility.yul\":4203:4425   */\n      swap3\n      swap2\n      pop\n      pop\n      jump\t// out\n        /* \"#utility.yul\":4431:4548   */\n    tag_117:\n        /* \"#utility.yul\":4540:4541   */\n      0x00\n        /* \"#utility.yul\":4537:4538   */\n      0x00\n        /* \"#utility.yul\":4530:4542   */\n      revert\n        /* \"#utility.yul\":4554:4671   */\n    tag_118:\n        /* \"#utility.yul\":4663:4664   */\n      0x00\n        /* \"#utility.yul\":4660:4661   */\n      0x00\n        /* \"#utility.yul\":4653:4665   */\n      revert\n        /* \"#utility.yul\":4677:4857   */\n    tag_119:\n        /* \"#utility.yul\":4725:4802   */\n      0x4e487b7100000000000000000000000000000000000000000000000000000000\n        /* \"#utility.yul\":4722:4723   */\n      0x00\n        /* \"#utility.yul\":4715:4803   */\n      mstore\n        /* \"#utility.yul\":4822:4826   */\n      0x41\n        /* \"#utility.yul\":4819:4820   */\n      0x04\n        /* \"#utility.yul\":4812:4827   */\n      mstore\n        /* \"#utility.yul\":4846:4850   */\n      0x24\n        /* \"#utility.yul\":4843:4844   */\n      0x00\n        /* \"#utility.yul\":4836:4851   */\n      revert\n        /* \"#utility.yul\":4863:5144   */\n    tag_120:\n        /* \"#utility.yul\":4946:4973   */\n      tag_209\n        /* \"#utility.yul\":4968:4972   */\n      dup3\n        /* \"#utility.yul\":4946:4973   */\n      tag_110\n      jump\t// in\n    tag_209:\n        /* \"#utility.yul\":4938:4944   */\n      dup2\n        /* \"#utility.yul\":4934:4974   */\n      add\n        /* \"#utility.yul\":5076:5082   */\n      dup2\n        /* \"#utility.yul\":5064:5074   */\n      dup2\n        /* \"#utility.yul\":5061:5083   */\n      lt\n        /* \"#utility.yul\":5040:5058   */\n      0xffffffffffffffff\n        /* \"#utility.yul\":5028:5038   */\n      dup3\n        /* \"#utility.yul\":5025:5059   */\n      gt\n        /* \"#utility.yul\":5022:5084   */\n      or\n        /* \"#utility.yul\":5019:5107   */\n      iszero\n      tag_210\n      jumpi\n        /* \"#utility.yul\":5087:5105   */\n      tag_211\n      tag_119\n      jump\t// in\n    tag_211:\n        /* \"#utility.yul\":5019:5107   */\n    tag_210:\n        /* \"#utility.yul\":5127:5137   */\n      dup1\n        /* \"#utility.yul\":5123:5125   */\n      0x40\n        /* \"#utility.yul\":5116:5138   */\n      mstore\n        /* \"#utility.yul\":4906:5144   */\n      pop\n        /* \"#utility.yul\":4863:5144   */\n      pop\n      pop\n      jump\t// out\n        /* \"#utility.yul\":5150:5279   */\n    tag_121:\n        /* \"#utility.yul\":5184:5190   */\n      0x00\n        /* \"#utility.yul\":5211:5231   */\n      tag_213\n      tag_101\n      jump\t// in\n    tag_213:\n        /* \"#utility.yul\":5201:5231   */\n      swap1\n      pop\n        /* \"#utility.yul\":5240:5273   */\n      tag_214\n        /* \"#utility.yul\":5268:5272   */\n      dup3\n        /* \"#utility.yul\":5260:5266   */\n      dup3\n        /* \"#utility.yul\":5240:5273   */\n      tag_120\n      jump\t// in\n    tag_214:\n        /* \"#utility.yul\":5150:5279   */\n      swap2\n      swap1\n      pop\n      jump\t// out\n        /* \"#utility.yul\":5285:5593   */\n    tag_122:\n        /* \"#utility.yul\":5347:5351   */\n      0x00\n        /* \"#utility.yul\":5437:5455   */\n      0xffffffffffffffff\n        /* \"#utility.yul\":5429:5435   */\n      dup3\n        /* \"#utility.yul\":5426:5456   */\n      gt\n        /* \"#utility.yul\":5423:5479   */\n      iszero\n      tag_216\n      jumpi\n        /* \"#utility.yul\":5459:5477   */\n      tag_217\n      tag_119\n      jump\t// in\n    tag_217:\n        /* \"#utility.yul\":5423:5479   */\n    tag_216:\n        /* \"#utility.yul\":5497:5526   */\n      tag_218\n        /* \"#utility.yul\":5519:5525   */\n      dup3\n        /* \"#utility.yul\":5497:5526   */\n      tag_110\n      jump\t// in\n    tag_218:\n        /* \"#utility.yul\":5489:5526   */\n      swap1\n      pop\n        /* \"#utility.yul\":5581:5585   */\n      0x20\n        /* \"#utility.yul\":5575:5579   */\n      dup2\n        /* \"#utility.yul\":5571:5586   */\n      add\n        /* \"#utility.yul\":5563:5586   */\n      swap1\n      pop\n        /* \"#utility.yul\":5285:5593   */\n      swap2\n      swap1\n      pop\n      jump\t// out\n        /* \"#utility.yul\":5599:5747   */\n    tag_123:\n        /* \"#utility.yul\":5697:5703   */\n      dup3\n        /* \"#utility.yul\":5692:5695   */\n      dup2\n        /* \"#utility.yul\":5687:5690   */\n      dup4\n        /* \"#utility.yul\":5674:5704   */\n      calldatacopy\n        /* \"#utility.yul\":5738:5739   */\n      0x00\n        /* \"#utility.yul\":5729:5735   */\n      dup4\n        /* \"#utility.yul\":5724:5727   */\n      dup4\n        /* \"#utility.yul\":5720:5736   */\n      add\n        /* \"#utility.yul\":5713:5740   */\n      mstore\n        /* \"#utility.yul\":5599:5747   */\n      pop\n      pop\n      pop\n      jump\t// out\n        /* \"#utility.yul\":5753:6178   */\n    tag_124:\n        /* \"#utility.yul\":5831:5836   */\n      0x00\n        /* \"#utility.yul\":5856:5922   */\n      tag_221\n        /* \"#utility.yul\":5872:5921   */\n      tag_222\n        /* \"#utility.yul\":5914:5920   */\n      dup5\n        /* \"#utility.yul\":5872:5921   */\n      tag_122\n      jump\t// in\n    tag_222:\n        /* \"#utility.yul\":5856:5922   */\n      tag_121\n      jump\t// in\n    tag_221:\n        /* \"#utility.yul\":5847:5922   */\n      swap1\n      pop\n        /* \"#utility.yul\":5945:5951   */\n      dup3\n        /* \"#utility.yul\":5938:5943   */\n      dup2\n        /* \"#utility.yul\":5931:5952   */\n      mstore\n        /* \"#utility.yul\":5983:5987   */\n      0x20\n        /* \"#utility.yul\":5976:5981   */\n      dup2\n        /* \"#utility.yul\":5972:5988   */\n      add\n        /* \"#utility.yul\":6021:6024   */\n      dup5\n        /* \"#utility.yul\":6012:6018   */\n      dup5\n        /* \"#utility.yul\":6007:6010   */\n      dup5\n        /* \"#utility.yul\":6003:6019   */\n      add\n        /* \"#utility.yul\":6000:6025   */\n      gt\n        /* \"#utility.yul\":5997:6109   */\n      iszero\n      tag_223\n      jumpi\n        /* \"#utility.yul\":6028:6107   */\n      tag_224\n      tag_118\n      jump\t// in\n    tag_224:\n        /* \"#utility.yul\":5997:6109   */\n    tag_223:\n        /* \"#utility.yul\":6118:6172   */\n      tag_225\n        /* \"#utility.yul\":6165:6171   */\n      dup5\n        /* \"#utility.yul\":6160:6163   */\n      dup3\n        /* \"#utility.yul\":6155:6158   */\n      dup6\n        /* \"#utility.yul\":6118:6172   */\n      tag_123\n      jump\t// in\n    tag_225:\n        /* \"#utility.yul\":5837:6178   */\n      pop\n        /* \"#utility.yul\":5753:6178   */\n      swap4\n      swap3\n      pop\n      pop\n      pop\n      jump\t// out\n        /* \"#utility.yul\":6198:6538   */\n    tag_125:\n        /* \"#utility.yul\":6254:6259   */\n      0x00\n        /* \"#utility.yul\":6303:6306   */\n      dup3\n        /* \"#utility.yul\":6296:6300   */\n      0x1f\n        /* \"#utility.yul\":6288:6294   */\n      dup4\n        /* \"#utility.yul\":6284:6301   */\n      add\n        /* \"#utility.yul\":6280:6307   */\n      slt\n        /* \"#utility.yul\":6270:6392   */\n      tag_227\n      jumpi\n        /* \"#utility.yul\":6311:6390   */\n      tag_228\n      tag_117\n      jump\t// in\n    tag_228:\n        /* \"#utility.yul\":6270:6392   */\n    tag_227:\n        /* \"#utility.yul\":6428:6434   */\n      dup2\n        /* \"#utility.yul\":6415:6435   */\n      calldataload\n        /* \"#utility.yul\":6453:6532   */\n      tag_229\n        /* \"#utility.yul\":6528:6531   */\n      dup5\n        /* \"#utility.yul\":6520:6526   */\n      dup3\n        /* \"#utility.yul\":6513:6517   */\n      0x20\n        /* \"#utility.yul\":6505:6511   */\n      dup7\n        /* \"#utility.yul\":6501:6518   */\n      add\n        /* \"#utility.yul\":6453:6532   */\n      tag_124\n      jump\t// in\n    tag_229:\n        /* \"#utility.yul\":6444:6532   */\n      swap2\n      pop\n        /* \"#utility.yul\":6260:6538   */\n      pop\n        /* \"#utility.yul\":6198:6538   */\n      swap3\n      swap2\n      pop\n      pop\n      jump\t// out\n        /* \"#utility.yul\":6544:7196   */\n    tag_31:\n        /* \"#utility.yul\":6621:6627   */\n      0x00\n        /* \"#utility.yul\":6629:6635   */\n      0x00\n        /* \"#utility.yul\":6678:6680   */\n      0x40\n        /* \"#utility.yul\":6666:6675   */\n      dup4\n        /* \"#utility.yul\":6657:6664   */\n      dup6\n        /* \"#utility.yul\":6653:6676   */\n      sub\n        /* \"#utility.yul\":6649:6681   */\n      slt\n        /* \"#utility.yul\":6646:6765   */\n      iszero\n      tag_231\n      jumpi\n        /* \"#utility.yul\":6684:6763   */\n      tag_232\n      tag_102\n      jump\t// in\n    tag_232:\n        /* \"#utility.yul\":6646:6765   */\n    tag_231:\n        /* \"#utility.yul\":6832:6833   */\n      0x00\n        /* \"#utility.yul\":6821:6830   */\n      dup4\n        /* \"#utility.yul\":6817:6834   */\n      add\n        /* \"#utility.yul\":6804:6835   */\n      calldataload\n        /* \"#utility.yul\":6862:6880   */\n      0xffffffffffffffff\n        /* \"#utility.yul\":6854:6860   */\n      dup2\n        /* \"#utility.yul\":6851:6881   */\n      gt\n        /* \"#utility.yul\":6848:6965   */\n      iszero\n      tag_233\n      jumpi\n        /* \"#utility.yul\":6884:6963   */\n      tag_234\n      tag_103\n      jump\t// in\n    tag_234:\n        /* \"#utility.yul\":6848:6965   */\n    tag_233:\n        /* \"#utility.yul\":6989:7052   */\n      tag_235\n        /* \"#utility.yul\":7044:7051   */\n      dup6\n        /* \"#utility.yul\":7035:7041   */\n      dup3\n        /* \"#utility.yul\":7024:7033   */\n      dup7\n        /* \"#utility.yul\":7020:7042   */\n      add\n        /* \"#utility.yul\":6989:7052   */\n      tag_125\n      jump\t// in\n    tag_235:\n        /* \"#utility.yul\":6979:7052   */\n      swap3\n      pop\n        /* \"#utility.yul\":6775:7062   */\n      pop\n        /* \"#utility.yul\":7101:7103   */\n      0x20\n        /* \"#utility.yul\":7127:7179   */\n      tag_236\n        /* \"#utility.yul\":7171:7178   */\n      dup6\n        /* \"#utility.yul\":7162:7168   */\n      dup3\n        /* \"#utility.yul\":7151:7160   */\n      dup7\n        /* \"#utility.yul\":7147:7169   */\n      add\n        /* \"#utility.yul\":7127:7179   */\n      tag_105\n      jump\t// in\n    tag_236:\n        /* \"#utility.yul\":7117:7179   */\n      swap2\n      pop\n        /* \"#utility.yul\":7072:7189   */\n      pop\n        /* \"#utility.yul\":6544:7196   */\n      swap3\n      pop\n      swap3\n      swap1\n      pop\n      jump\t// out\n        /* \"#utility.yul\":7202:7324   */\n    tag_126:\n        /* \"#utility.yul\":7275:7299   */\n      tag_238\n        /* \"#utility.yul\":7293:7298   */\n      dup2\n        /* \"#utility.yul\":7275:7299   */\n      tag_113\n      jump\t// in\n    tag_238:\n        /* \"#utility.yul\":7268:7273   */\n      dup2\n        /* \"#utility.yul\":7265:7300   */\n      eq\n        /* \"#utility.yul\":7255:7318   */\n      tag_239\n      jumpi\n        /* \"#utility.yul\":7314:7315   */\n      0x00\n        /* \"#utility.yul\":7311:7312   */\n      0x00\n        /* \"#utility.yul\":7304:7316   */\n      revert\n        /* \"#utility.yul\":7255:7318   */\n    tag_239:\n        /* \"#utility.yul\":7202:7324   */\n      pop\n      jump\t// out\n        /* \"#utility.yul\":7330:7469   */\n    tag_127:\n        /* \"#utility.yul\":7376:7381   */\n      0x00\n        /* \"#utility.yul\":7414:7420   */\n      dup2\n        /* \"#utility.yul\":7401:7421   */\n      calldataload\n        /* \"#utility.yul\":7392:7421   */\n      swap1\n      pop\n        /* \"#utility.yul\":7430:7463   */\n      tag_241\n        /* \"#utility.yul\":7457:7462   */\n      dup2\n        /* \"#utility.yul\":7430:7463   */\n      tag_126\n      jump\t// in\n    tag_241:\n        /* \"#utility.yul\":7330:7469   */\n      swap3\n      swap2\n      pop\n      pop\n      jump\t// out\n        /* \"#utility.yul\":7475:7804   */\n    tag_35:\n        /* \"#utility.yul\":7534:7540   */\n      0x00\n        /* \"#utility.yul\":7583:7585   */\n      0x20\n        /* \"#utility.yul\":7571:7580   */\n      dup3\n        /* \"#utility.yul\":7562:7569   */\n      dup5\n        /* \"#utility.yul\":7558:7581   */\n      sub\n        /* \"#utility.yul\":7554:7586   */\n      slt\n        /* \"#utility.yul\":7551:7670   */\n      iszero\n      tag_243\n      jumpi\n        /* \"#utility.yul\":7589:7668   */\n      tag_244\n      tag_102\n      jump\t// in\n    tag_244:\n        /* \"#utility.yul\":7551:7670   */\n    tag_243:\n        /* \"#utility.yul\":7709:7710   */\n      0x00\n        /* \"#utility.yul\":7734:7787   */\n      tag_245\n        /* \"#utility.yul\":7779:7786   */\n      dup5\n        /* \"#utility.yul\":7770:7776   */\n      dup3\n        /* \"#utility.yul\":7759:7768   */\n      dup6\n        /* \"#utility.yul\":7755:7777   */\n      add\n        /* \"#utility.yul\":7734:7787   */\n      tag_127\n      jump\t// in\n    tag_245:\n        /* \"#utility.yul\":7724:7787   */\n      swap2\n      pop\n        /* \"#utility.yul\":7680:7797   */\n      pop\n        /* \"#utility.yul\":7475:7804   */\n      swap3\n      swap2\n      pop\n      pop\n      jump\t// out\n        /* \"#utility.yul\":7810:7923   */\n    tag_128:\n        /* \"#utility.yul\":7876:7882   */\n      0x00\n        /* \"#utility.yul\":7910:7915   */\n      dup2\n        /* \"#utility.yul\":7904:7916   */\n      mload\n        /* \"#utility.yul\":7894:7916   */\n      swap1\n      pop\n        /* \"#utility.yul\":7810:7923   */\n      swap2\n      swap1\n      pop\n      jump\t// out\n        /* \"#utility.yul\":7929:8112   */\n    tag_129:\n        /* \"#utility.yul\":8027:8038   */\n      0x00\n        /* \"#utility.yul\":8061:8067   */\n      dup3\n        /* \"#utility.yul\":8056:8059   */\n      dup3\n        /* \"#utility.yul\":8049:8068   */\n      mstore\n        /* \"#utility.yul\":8101:8105   */\n      0x20\n        /* \"#utility.yul\":8096:8099   */\n      dup3\n        /* \"#utility.yul\":8092:8106   */\n      add\n        /* \"#utility.yul\":8077:8106   */\n      swap1\n      pop\n        /* \"#utility.yul\":7929:8112   */\n      swap3\n      swap2\n      pop\n      pop\n      jump\t// out\n        /* \"#utility.yul\":8118:8249   */\n    tag_130:\n        /* \"#utility.yul\":8184:8188   */\n      0x00\n        /* \"#utility.yul\":8207:8210   */\n      dup2\n        /* \"#utility.yul\":8199:8210   */\n      swap1\n      pop\n        /* \"#utility.yul\":8237:8241   */\n      0x20\n        /* \"#utility.yul\":8232:8235   */\n      dup3\n        /* \"#utility.yul\":8228:8242   */\n      add\n        /* \"#utility.yul\":8220:8242   */\n      swap1\n      pop\n        /* \"#utility.yul\":8118:8249   */\n      swap2\n      swap1\n      pop\n      jump\t// out\n        /* \"#utility.yul\":8255:8430   */\n    tag_131:\n        /* \"#utility.yul\":8322:8332   */\n      0x00\n        /* \"#utility.yul\":8343:8387   */\n      tag_250\n        /* \"#utility.yul\":8383:8386   */\n      dup4\n        /* \"#utility.yul\":8375:8381   */\n      dup4\n        /* \"#utility.yul\":8343:8387   */\n      tag_106\n      jump\t// in\n    tag_250:\n        /* \"#utility.yul\":8419:8423   */\n      0x20\n        /* \"#utility.yul\":8414:8417   */\n      dup4\n        /* \"#utility.yul\":8410:8424   */\n      add\n        /* \"#utility.yul\":8396:8424   */\n      swap1\n      pop\n        /* \"#utility.yul\":8255:8430   */\n      swap3\n      swap2\n      pop\n      pop\n      jump\t// out\n        /* \"#utility.yul\":8436:8548   */\n    tag_132:\n        /* \"#utility.yul\":8505:8509   */\n      0x00\n        /* \"#utility.yul\":8537:8541   */\n      0x20\n        /* \"#utility.yul\":8532:8535   */\n      dup3\n        /* \"#utility.yul\":8528:8542   */\n      add\n        /* \"#utility.yul\":8520:8542   */\n      swap1\n      pop\n        /* \"#utility.yul\":8436:8548   */\n      swap2\n      swap1\n      pop\n      jump\t// out\n        /* \"#utility.yul\":8582:9306   */\n    tag_133:\n        /* \"#utility.yul\":8699:8702   */\n      0x00\n        /* \"#utility.yul\":8728:8781   */\n      tag_253\n        /* \"#utility.yul\":8775:8780   */\n      dup3\n        /* \"#utility.yul\":8728:8781   */\n      tag_128\n      jump\t// in\n    tag_253:\n        /* \"#utility.yul\":8797:8882   */\n      tag_254\n        /* \"#utility.yul\":8875:8881   */\n      dup2\n        /* \"#utility.yul\":8870:8873   */\n      dup6\n        /* \"#utility.yul\":8797:8882   */\n      tag_129\n      jump\t// in\n    tag_254:\n        /* \"#utility.yul\":8790:8882   */\n      swap4\n      pop\n        /* \"#utility.yul\":8906:8961   */\n      tag_255\n        /* \"#utility.yul\":8955:8960   */\n      dup4\n        /* \"#utility.yul\":8906:8961   */\n      tag_130\n      jump\t// in\n    tag_255:\n        /* \"#utility.yul\":8984:8991   */\n      dup1\n        /* \"#utility.yul\":9015:9016   */\n      0x00\n        /* \"#utility.yul\":9000:9281   */\n    tag_256:\n        /* \"#utility.yul\":9025:9031   */\n      dup4\n        /* \"#utility.yul\":9022:9023   */\n      dup2\n        /* \"#utility.yul\":9019:9032   */\n      lt\n        /* \"#utility.yul\":9000:9281   */\n      iszero\n      tag_258\n      jumpi\n        /* \"#utility.yul\":9101:9107   */\n      dup2\n        /* \"#utility.yul\":9095:9108   */\n      mload\n        /* \"#utility.yul\":9128:9189   */\n      tag_259\n        /* \"#utility.yul\":9185:9188   */\n      dup9\n        /* \"#utility.yul\":9170:9183   */\n      dup3\n        /* \"#utility.yul\":9128:9189   */\n      tag_131\n      jump\t// in\n    tag_259:\n        /* \"#utility.yul\":9121:9189   */\n      swap8\n      pop\n        /* \"#utility.yul\":9212:9271   */\n      tag_260\n        /* \"#utility.yul\":9264:9270   */\n      dup4\n        /* \"#utility.yul\":9212:9271   */\n      tag_132\n      jump\t// in\n    tag_260:\n        /* \"#utility.yul\":9202:9271   */\n      swap3\n      pop\n        /* \"#utility.yul\":9060:9281   */\n      pop\n        /* \"#utility.yul\":9047:9048   */\n      0x01\n        /* \"#utility.yul\":9044:9045   */\n      dup2\n        /* \"#utility.yul\":9040:9049   */\n      add\n        /* \"#utility.yul\":9035:9049   */\n      swap1\n      pop\n        /* \"#utility.yul\":9000:9281   */\n      jump(tag_256)\n    tag_258:\n        /* \"#utility.yul\":9004:9018   */\n      pop\n        /* \"#utility.yul\":9297:9300   */\n      dup6\n        /* \"#utility.yul\":9290:9300   */\n      swap4\n      pop\n        /* \"#utility.yul\":8704:9306   */\n      pop\n      pop\n      pop\n        /* \"#utility.yul\":8582:9306   */\n      swap3\n      swap2\n      pop\n      pop\n      jump\t// out\n        /* \"#utility.yul\":9312:9681   */\n    tag_42:\n        /* \"#utility.yul\":9453:9457   */\n      0x00\n        /* \"#utility.yul\":9491:9493   */\n      0x20\n        /* \"#utility.yul\":9480:9489   */\n      dup3\n        /* \"#utility.yul\":9476:9494   */\n      add\n        /* \"#utility.yul\":9468:9494   */\n      swap1\n      pop\n        /* \"#utility.yul\":9540:9549   */\n      dup2\n        /* \"#utility.yul\":9534:9538   */\n      dup2\n        /* \"#utility.yul\":9530:9550   */\n      sub\n        /* \"#utility.yul\":9526:9527   */\n      0x00\n        /* \"#utility.yul\":9515:9524   */\n      dup4\n        /* \"#utility.yul\":9511:9528   */\n      add\n        /* \"#utility.yul\":9504:9551   */\n      mstore\n        /* \"#utility.yul\":9568:9674   */\n      tag_262\n        /* \"#utility.yul\":9669:9673   */\n      dup2\n        /* \"#utility.yul\":9660:9666   */\n      dup5\n        /* \"#utility.yul\":9568:9674   */\n      tag_133\n      jump\t// in\n    tag_262:\n        /* \"#utility.yul\":9560:9674   */\n      swap1\n      pop\n        /* \"#utility.yul\":9312:9681   */\n      swap3\n      swap2\n      pop\n      pop\n      jump\t// out\n        /* \"#utility.yul\":9687:9856   */\n    tag_134:\n        /* \"#utility.yul\":9771:9782   */\n      0x00\n        /* \"#utility.yul\":9805:9811   */\n      dup3\n        /* \"#utility.yul\":9800:9803   */\n      dup3\n        /* \"#utility.yul\":9793:9812   */\n      mstore\n        /* \"#utility.yul\":9845:9849   */\n      0x20\n        /* \"#utility.yul\":9840:9843   */\n      dup3\n        /* \"#utility.yul\":9836:9850   */\n      add\n        /* \"#utility.yul\":9821:9850   */\n      swap1\n      pop\n        /* \"#utility.yul\":9687:9856   */\n      swap3\n      swap2\n      pop\n      pop\n      jump\t// out\n        /* \"#utility.yul\":9862:10239   */\n    tag_135:\n        /* \"#utility.yul\":9950:9953   */\n      0x00\n        /* \"#utility.yul\":9978:10017   */\n      tag_265\n        /* \"#utility.yul\":10011:10016   */\n      dup3\n        /* \"#utility.yul\":9978:10017   */\n      tag_107\n      jump\t// in\n    tag_265:\n        /* \"#utility.yul\":10033:10104   */\n      tag_266\n        /* \"#utility.yul\":10097:10103   */\n      dup2\n        /* \"#utility.yul\":10092:10095   */\n      dup6\n        /* \"#utility.yul\":10033:10104   */\n      tag_134\n      jump\t// in\n    tag_266:\n        /* \"#utility.yul\":10026:10104   */\n      swap4\n      pop\n        /* \"#utility.yul\":10113:10178   */\n      tag_267\n        /* \"#utility.yul\":10171:10177   */\n      dup2\n        /* \"#utility.yul\":10166:10169   */\n      dup6\n        /* \"#utility.yul\":10159:10163   */\n      0x20\n        /* \"#utility.yul\":10152:10157   */\n      dup7\n        /* \"#utility.yul\":10148:10164   */\n      add\n        /* \"#utility.yul\":10113:10178   */\n      tag_109\n      jump\t// in\n    tag_267:\n        /* \"#utility.yul\":10203:10232   */\n      tag_268\n        /* \"#utility.yul\":10225:10231   */\n      dup2\n        /* \"#utility.yul\":10203:10232   */\n      tag_110\n      jump\t// in\n    tag_268:\n        /* \"#utility.yul\":10198:10201   */\n      dup5\n        /* \"#utility.yul\":10194:10233   */\n      add\n        /* \"#utility.yul\":10187:10233   */\n      swap2\n      pop\n        /* \"#utility.yul\":9954:10239   */\n      pop\n        /* \"#utility.yul\":9862:10239   */\n      swap3\n      swap2\n      pop\n      pop\n      jump\t// out\n        /* \"#utility.yul\":10245:10881   */\n    tag_50:\n        /* \"#utility.yul\":10438:10442   */\n      0x00\n        /* \"#utility.yul\":10476:10479   */\n      0x80\n        /* \"#utility.yul\":10465:10474   */\n      dup3\n        /* \"#utility.yul\":10461:10480   */\n      add\n        /* \"#utility.yul\":10453:10480   */\n      swap1\n      pop\n        /* \"#utility.yul\":10490:10559   */\n      tag_270\n        /* \"#utility.yul\":10556:10557   */\n      0x00\n        /* \"#utility.yul\":10545:10554   */\n      dup4\n        /* \"#utility.yul\":10541:10558   */\n      add\n        /* \"#utility.yul\":10532:10538   */\n      dup8\n        /* \"#utility.yul\":10490:10559   */\n      tag_100\n      jump\t// in\n    tag_270:\n        /* \"#utility.yul\":10606:10615   */\n      dup2\n        /* \"#utility.yul\":10600:10604   */\n      dup2\n        /* \"#utility.yul\":10596:10616   */\n      sub\n        /* \"#utility.yul\":10591:10593   */\n      0x20\n        /* \"#utility.yul\":10580:10589   */\n      dup4\n        /* \"#utility.yul\":10576:10594   */\n      add\n        /* \"#utility.yul\":10569:10617   */\n      mstore\n        /* \"#utility.yul\":10634:10712   */\n      tag_271\n        /* \"#utility.yul\":10707:10711   */\n      dup2\n        /* \"#utility.yul\":10698:10704   */\n      dup7\n        /* \"#utility.yul\":10634:10712   */\n      tag_135\n      jump\t// in\n    tag_271:\n        /* \"#utility.yul\":10626:10712   */\n      swap1\n      pop\n        /* \"#utility.yul\":10722:10792   */\n      tag_272\n        /* \"#utility.yul\":10788:10790   */\n      0x40\n        /* \"#utility.yul\":10777:10786   */\n      dup4\n        /* \"#utility.yul\":10773:10791   */\n      add\n        /* \"#utility.yul\":10764:10770   */\n      dup6\n        /* \"#utility.yul\":10722:10792   */\n      tag_100\n      jump\t// in\n    tag_272:\n        /* \"#utility.yul\":10802:10874   */\n      tag_273\n        /* \"#utility.yul\":10870:10872   */\n      0x60\n        /* \"#utility.yul\":10859:10868   */\n      dup4\n        /* \"#utility.yul\":10855:10873   */\n      add\n        /* \"#utility.yul\":10846:10852   */\n      dup5\n        /* \"#utility.yul\":10802:10874   */\n      tag_116\n      jump\t// in\n    tag_273:\n        /* \"#utility.yul\":10245:10881   */\n      swap6\n      swap5\n      pop\n      pop\n      pop\n      pop\n      pop\n      jump\t// out\n        /* \"#utility.yul\":10887:11056   */\n    tag_136:\n        /* \"#utility.yul\":11027:11048   */\n      0x55736572206e6f74207265676973746572656400000000000000000000000000\n        /* \"#utility.yul\":11023:11024   */\n      0x00\n        /* \"#utility.yul\":11015:11021   */\n      dup3\n        /* \"#utility.yul\":11011:11025   */\n      add\n        /* \"#utility.yul\":11004:11049   */\n      mstore\n        /* \"#utility.yul\":10887:11056   */\n      pop\n      jump\t// out\n        /* \"#utility.yul\":11062:11428   */\n    tag_137:\n        /* \"#utility.yul\":11204:11207   */\n      0x00\n        /* \"#utility.yul\":11225:11292   */\n      tag_276\n        /* \"#utility.yul\":11289:11291   */\n      0x13\n        /* \"#utility.yul\":11284:11287   */\n      dup4\n        /* \"#utility.yul\":11225:11292   */\n      tag_134\n      jump\t// in\n    tag_276:\n        /* \"#utility.yul\":11218:11292   */\n      swap2\n      pop\n        /* \"#utility.yul\":11301:11394   */\n      tag_277\n        /* \"#utility.yul\":11390:11393   */\n      dup3\n        /* \"#utility.yul\":11301:11394   */\n      tag_136\n      jump\t// in\n    tag_277:\n        /* \"#utility.yul\":11419:11421   */\n      0x20\n        /* \"#utility.yul\":11414:11417   */\n      dup3\n        /* \"#utility.yul\":11410:11422   */\n      add\n        /* \"#utility.yul\":11403:11422   */\n      swap1\n      pop\n        /* \"#utility.yul\":11062:11428   */\n      swap2\n      swap1\n      pop\n      jump\t// out\n        /* \"#utility.yul\":11434:11853   */\n    tag_54:\n        /* \"#utility.yul\":11600:11604   */\n      0x00\n        /* \"#utility.yul\":11638:11640   */\n      0x20\n        /* \"#utility.yul\":11627:11636   */\n      dup3\n        /* \"#utility.yul\":11623:11641   */\n      add\n        /* \"#utility.yul\":11615:11641   */\n      swap1\n      pop\n        /* \"#utility.yul\":11687:11696   */\n      dup2\n        /* \"#utility.yul\":11681:11685   */\n      dup2\n        /* \"#utility.yul\":11677:11697   */\n      sub\n        /* \"#utility.yul\":11673:11674   */\n      0x00\n        /* \"#utility.yul\":11662:11671   */\n      dup4\n        /* \"#utility.yul\":11658:11675   */\n      add\n        /* \"#utility.yul\":11651:11698   */\n      mstore\n        /* \"#utility.yul\":11715:11846   */\n      tag_279\n        /* \"#utility.yul\":11841:11845   */\n      dup2\n        /* \"#utility.yul\":11715:11846   */\n      tag_137\n      jump\t// in\n    tag_279:\n        /* \"#utility.yul\":11707:11846   */\n      swap1\n      pop\n        /* \"#utility.yul\":11434:11853   */\n      swap2\n      swap1\n      pop\n      jump\t// out\n        /* \"#utility.yul\":11859:12039   */\n    tag_138:\n        /* \"#utility.yul\":11907:11984   */\n      0x4e487b7100000000000000000000000000000000000000000000000000000000\n        /* \"#utility.yul\":11904:11905   */\n      0x00\n        /* \"#utility.yul\":11897:11985   */\n      mstore\n        /* \"#utility.yul\":12004:12008   */\n      0x11\n        /* \"#utility.yul\":12001:12002   */\n      0x04\n        /* \"#utility.yul\":11994:12009   */\n      mstore\n        /* \"#utility.yul\":12028:12032   */\n      0x24\n        /* \"#utility.yul\":12025:12026   */\n      0x00\n        /* \"#utility.yul\":12018:12033   */\n      revert\n        /* \"#utility.yul\":12045:12276   */\n    tag_57:\n        /* \"#utility.yul\":12083:12086   */\n      0x00\n        /* \"#utility.yul\":12106:12129   */\n      tag_282\n        /* \"#utility.yul\":12123:12128   */\n      dup3\n        /* \"#utility.yul\":12106:12129   */\n      tag_99\n      jump\t// in\n    tag_282:\n        /* \"#utility.yul\":12097:12129   */\n      swap2\n      pop\n        /* \"#utility.yul\":12151:12217   */\n      0x7fffffffffffffffffffffffffffffffffffffffffffffffffffffffffffffff\n        /* \"#utility.yul\":12144:12149   */\n      dup3\n        /* \"#utility.yul\":12141:12218   */\n      sub\n        /* \"#utility.yul\":12138:12241   */\n      tag_283\n      jumpi\n        /* \"#utility.yul\":12221:12239   */\n      tag_284\n      tag_138\n      jump\t// in\n    tag_284:\n        /* \"#utility.yul\":12138:12241   */\n    tag_283:\n        /* \"#utility.yul\":12268:12269   */\n      0x01\n        /* \"#utility.yul\":12261:12266   */\n      dup3\n        /* \"#utility.yul\":12257:12270   */\n      add\n        /* \"#utility.yul\":12250:12270   */\n      swap1\n      pop\n        /* \"#utility.yul\":12045:12276   */\n      swap2\n      swap1\n      pop\n      jump\t// out\n        /* \"#utility.yul\":12282:12462   */\n    tag_139:\n        /* \"#utility.yul\":12330:12407   */\n      0x4e487b7100000000000000000000000000000000000000000000000000000000\n        /* \"#utility.yul\":12327:12328   */\n      0x00\n        /* \"#utility.yul\":12320:12408   */\n      mstore\n        /* \"#utility.yul\":12427:12431   */\n      0x22\n        /* \"#utility.yul\":12424:12425   */\n      0x04\n        /* \"#utility.yul\":12417:12432   */\n      mstore\n        /* \"#utility.yul\":12451:12455   */\n      0x24\n        /* \"#utility.yul\":12448:12449   */\n      0x00\n        /* \"#utility.yul\":12441:12456   */\n      revert\n        /* \"#utility.yul\":12468:12788   */\n    tag_63:\n        /* \"#utility.yul\":12512:12518   */\n      0x00\n        /* \"#utility.yul\":12549:12550   */\n      0x02\n        /* \"#utility.yul\":12543:12547   */\n      dup3\n        /* \"#utility.yul\":12539:12551   */\n      div\n        /* \"#utility.yul\":12529:12551   */\n      swap1\n      pop\n        /* \"#utility.yul\":12596:12597   */\n      0x01\n        /* \"#utility.yul\":12590:12594   */\n      dup3\n        /* \"#utility.yul\":12586:12598   */\n      and\n        /* \"#utility.yul\":12617:12635   */\n      dup1\n        /* \"#utility.yul\":12607:12688   */\n      tag_287\n      jumpi\n        /* \"#utility.yul\":12673:12677   */\n      0x7f\n        /* \"#utility.yul\":12665:12671   */\n      dup3\n        /* \"#utility.yul\":12661:12678   */\n      and\n        /* \"#utility.yul\":12651:12678   */\n      swap2\n      pop\n        /* \"#utility.yul\":12607:12688   */\n    tag_287:\n        /* \"#utility.yul\":12735:12737   */\n      0x20\n        /* \"#utility.yul\":12727:12733   */\n      dup3\n        /* \"#utility.yul\":12724:12738   */\n      lt\n        /* \"#utility.yul\":12704:12722   */\n      dup2\n        /* \"#utility.yul\":12701:12739   */\n      sub\n        /* \"#utility.yul\":12698:12782   */\n      tag_288\n      jumpi\n        /* \"#utility.yul\":12754:12772   */\n      tag_289\n      tag_139\n      jump\t// in\n    tag_289:\n        /* \"#utility.yul\":12698:12782   */\n    tag_288:\n        /* \"#utility.yul\":12519:12788   */\n      pop\n        /* \"#utility.yul\":12468:12788   */\n      swap2\n      swap1\n      pop\n      jump\t// out\n        /* \"#utility.yul\":12794:12963   */\n    tag_140:\n        /* \"#utility.yul\":12934:12955   */\n      0x5573657220616c72656164792065786973747300000000000000000000000000\n        /* \"#utility.yul\":12930:12931   */\n      0x00\n        /* \"#utility.yul\":12922:12928   */\n      dup3\n        /* \"#utility.yul\":12918:12932   */\n      add\n        /* \"#utility.yul\":12911:12956   */\n      mstore\n        /* \"#utility.yul\":12794:12963   */\n      pop\n      jump\t// out\n        /* \"#utility.yul\":12969:13335   */\n    tag_141:\n        /* \"#utility.yul\":13111:13114   */\n      0x00\n        /* \"#utility.yul\":13132:13199   */\n      tag_292\n        /* \"#utility.yul\":13196:13198   */\n      0x13\n        /* \"#utility.yul\":13191:13194   */\n      dup4\n        /* \"#utility.yul\":13132:13199   */\n      tag_134\n      jump\t// in\n    tag_292:\n        /* \"#utility.yul\":13125:13199   */\n      swap2\n      pop\n        /* \"#utility.yul\":13208:13301   */\n      tag_293\n        /* \"#utility.yul\":13297:13300   */\n      dup3\n        /* \"#utility.yul\":13208:13301   */\n      tag_140\n      jump\t// in\n    tag_293:\n        /* \"#utility.yul\":13326:13328   */\n      0x20\n        /* \"#utility.yul\":13321:13324   */\n      dup3\n        /* \"#utility.yul\":13317:13329   */\n      add\n        /* \"#utility.yul\":13310:13329   */\n      swap1\n      pop\n        /* \"#utility.yul\":12969:13335   */\n      swap2\n      swap1\n      pop\n      jump\t// out\n        /* \"#utility.yul\":13341:13760   */\n    tag_71:\n        /* \"#utility.yul\":13507:13511   */\n      0x00\n        /* \"#utility.yul\":13545:13547   */\n      0x20\n        /* \"#utility.yul\":13534:13543   */\n      dup3\n        /* \"#utility.yul\":13530:13548   */\n      add\n        /* \"#utility.yul\":13522:13548   */\n      swap1\n      pop\n        /* \"#utility.yul\":13594:13603   */\n      dup2\n        /* \"#utility.yul\":13588:13592   */\n      dup2\n        /* \"#utility.yul\":13584:13604   */\n      sub\n        /* \"#utility.yul\":13580:13581   */\n      0x00\n        /* \"#utility.yul\":13569:13578   */\n      dup4\n        /* \"#utility.yul\":13565:13582   */\n      add\n        /* \"#utility.yul\":13558:13605   */\n      mstore\n        /* \"#utility.yul\":13622:13753   */\n      tag_295\n        /* \"#utility.yul\":13748:13752   */\n      dup2\n        /* \"#utility.yul\":13622:13753   */\n      tag_141\n      jump\t// in\n    tag_295:\n        /* \"#utility.yul\":13614:13753   */\n      swap1\n      pop\n        /* \"#utility.yul\":13341:13760   */\n      swap2\n      swap1\n      pop\n      jump\t// out\n        /* \"#utility.yul\":13766:14141   */\n    tag_73:\n        /* \"#utility.yul\":13805:13808   */\n      0x00\n        /* \"#utility.yul\":13824:13843   */\n      tag_297\n        /* \"#utility.yul\":13841:13842   */\n      dup3\n        /* \"#utility.yul\":13824:13843   */\n      tag_99\n      jump\t// in\n    tag_297:\n        /* \"#utility.yul\":13819:13843   */\n      swap2\n      pop\n        /* \"#utility.yul\":13857:13876   */\n      tag_298\n        /* \"#utility.yul\":13874:13875   */\n      dup4\n        /* \"#utility.yul\":13857:13876   */\n      tag_99\n      jump\t// in\n    tag_298:\n        /* \"#utility.yul\":13852:13876   */\n      swap3\n      pop\n        /* \"#utility.yul\":13899:13900   */\n      dup3\n        /* \"#utility.yul\":13896:13897   */\n      dup3\n        /* \"#utility.yul\":13892:13901   */\n      add\n        /* \"#utility.yul\":13885:13901   */\n      swap1\n      pop\n        /* \"#utility.yul\":14097:14098   */\n      dup3\n        /* \"#utility.yul\":14092:14095   */\n      dup2\n        /* \"#utility.yul\":14088:14099   */\n      slt\n        /* \"#utility.yul\":14081:14100   */\n      iszero\n        /* \"#utility.yul\":14077:14078   */\n      0x00\n        /* \"#utility.yul\":14074:14075   */\n      dup4\n        /* \"#utility.yul\":14070:14079   */\n      slt\n        /* \"#utility.yul\":14066:14101   */\n      and\n        /* \"#utility.yul\":14049:14050   */\n      dup4\n        /* \"#utility.yul\":14044:14047   */\n      dup3\n        /* \"#utility.yul\":14040:14051   */\n      slt\n        /* \"#utility.yul\":14035:14036   */\n      0x00\n        /* \"#utility.yul\":14032:14033   */\n      dup5\n        /* \"#utility.yul\":14028:14037   */\n      slt\n        /* \"#utility.yul\":14021:14038   */\n      iszero\n        /* \"#utility.yul\":14017:14052   */\n      and\n        /* \"#utility.yul\":14001:14111   */\n      or\n        /* \"#utility.yul\":13998:14134   */\n      iszero\n      tag_299\n      jumpi\n        /* \"#utility.yul\":14114:14132   */\n      tag_300\n      tag_138\n      jump\t// in\n    tag_300:\n        /* \"#utility.yul\":13998:14134   */\n    tag_299:\n        /* \"#utility.yul\":13766:14141   */\n      swap3\n      swap2\n      pop\n      pop\n      jump\t// out\n        /* \"#utility.yul\":14147:14288   */\n    tag_142:\n        /* \"#utility.yul\":14196:14200   */\n      0x00\n        /* \"#utility.yul\":14219:14222   */\n      dup2\n        /* \"#utility.yul\":14211:14222   */\n      swap1\n      pop\n        /* \"#utility.yul\":14242:14245   */\n      dup2\n        /* \"#utility.yul\":14239:14240   */\n      0x00\n        /* \"#utility.yul\":14232:14246   */\n      mstore\n        /* \"#utility.yul\":14276:14280   */\n      0x20\n        /* \"#utility.yul\":14273:14274   */\n      0x00\n        /* \"#utility.yul\":14263:14281   */\n      keccak256\n        /* \"#utility.yul\":14255:14281   */\n      swap1\n      pop\n        /* \"#utility.yul\":14147:14288   */\n      swap2\n      swap1\n      pop\n      jump\t// out\n        /* \"#utility.yul\":14294:14387   */\n    tag_143:\n        /* \"#utility.yul\":14331:14337   */\n      0x00\n        /* \"#utility.yul\":14378:14380   */\n      0x20\n        /* \"#utility.yul\":14373:14375   */\n      0x1f\n        /* \"#utility.yul\":14366:14371   */\n      dup4\n        /* \"#utility.yul\":14362:14376   */\n      add\n        /* \"#utility.yul\":14358:14381   */\n      div\n        /* \"#utility.yul\":14348:14381   */\n      swap1\n      pop\n        /* \"#utility.yul\":14294:14387   */\n      swap2\n      swap1\n      pop\n      jump\t// out\n        /* \"#utility.yul\":14393:14500   */\n    tag_144:\n        /* \"#utility.yul\":14437:14445   */\n      0x00\n        /* \"#utility.yul\":14487:14492   */\n      dup3\n        /* \"#utility.yul\":14481:14485   */\n      dup3\n        /* \"#utility.yul\":14477:14493   */\n      shl\n        /* \"#utility.yul\":14456:14493   */\n      swap1\n      pop\n        /* \"#utility.yul\":14393:14500   */\n      swap3\n      swap2\n      pop\n      pop\n      jump\t// out\n        /* \"#utility.yul\":14506:14899   */\n    tag_145:\n        /* \"#utility.yul\":14575:14581   */\n      0x00\n        /* \"#utility.yul\":14625:14626   */\n      0x08\n        /* \"#utility.yul\":14613:14623   */\n      dup4\n        /* \"#utility.yul\":14609:14627   */\n      mul\n        /* \"#utility.yul\":14648:14745   */\n      tag_305\n        /* \"#utility.yul\":14678:14744   */\n      0xffffffffffffffffffffffffffffffffffffffffffffffffffffffffffffffff\n        /* \"#utility.yul\":14667:14676   */\n      dup3\n        /* \"#utility.yul\":14648:14745   */\n      tag_144\n      jump\t// in\n    tag_305:\n        /* \"#utility.yul\":14766:14805   */\n      tag_306\n        /* \"#utility.yul\":14796:14804   */\n      dup7\n        /* \"#utility.yul\":14785:14794   */\n      dup4\n        /* \"#utility.yul\":14766:14805   */\n      tag_144\n      jump\t// in\n    tag_306:\n        /* \"#utility.yul\":14754:14805   */\n      swap6\n      pop\n        /* \"#utility.yul\":14838:14842   */\n      dup1\n        /* \"#utility.yul\":14834:14843   */\n      not\n        /* \"#utility.yul\":14827:14832   */\n      dup5\n        /* \"#utility.yul\":14823:14844   */\n      and\n        /* \"#utility.yul\":14814:14844   */\n      swap4\n      pop\n        /* \"#utility.yul\":14887:14891   */\n      dup1\n        /* \"#utility.yul\":14877:14885   */\n      dup7\n        /* \"#utility.yul\":14873:14892   */\n      and\n        /* \"#utility.yul\":14866:14871   */\n      dup5\n        /* \"#utility.yul\":14863:14893   */\n      or\n        /* \"#utility.yul\":14853:14893   */\n      swap3\n      pop\n        /* \"#utility.yul\":14582:14899   */\n      pop\n      pop\n        /* \"#utility.yul\":14506:14899   */\n      swap4\n      swap3\n      pop\n      pop\n      pop\n      jump\t// out\n        /* \"#utility.yul\":14905:14982   */\n    tag_146:\n        /* \"#utility.yul\":14942:14949   */\n      0x00\n        /* \"#utility.yul\":14971:14976   */\n      dup2\n        /* \"#utility.yul\":14960:14976   */\n      swap1\n      pop\n        /* \"#utility.yul\":14905:14982   */\n      swap2\n      swap1\n      pop\n      jump\t// out\n        /* \"#utility.yul\":14988:15048   */\n    tag_147:\n        /* \"#utility.yul\":15016:15019   */\n      0x00\n        /* \"#utility.yul\":15037:15042   */\n      dup2\n        /* \"#utility.yul\":15030:15042   */\n      swap1\n      pop\n        /* \"#utility.yul\":14988:15048   */\n      swap2\n      swap1\n      pop\n      jump\t// out\n        /* \"#utility.yul\":15054:15196   */\n    tag_148:\n        /* \"#utility.yul\":15104:15113   */\n      0x00\n        /* \"#utility.yul\":15137:15190   */\n      tag_310\n        /* \"#utility.yul\":15155:15189   */\n      tag_311\n        /* \"#utility.yul\":15164:15188   */\n      tag_312\n        /* \"#utility.yul\":15182:15187   */\n      dup5\n        /* \"#utility.yul\":15164:15188   */\n      tag_146\n      jump\t// in\n    tag_312:\n        /* \"#utility.yul\":15155:15189   */\n      tag_147\n      jump\t// in\n    tag_311:\n        /* \"#utility.yul\":15137:15190   */\n      tag_146\n      jump\t// in\n    tag_310:\n        /* \"#utility.yul\":15124:15190   */\n      swap1\n      pop\n        /* \"#utility.yul\":15054:15196   */\n      swap2\n      swap1\n      pop\n      jump\t// out\n        /* \"#utility.yul\":15202:15277   */\n    tag_149:\n        /* \"#utility.yul\":15245:15248   */\n      0x00\n        /* \"#utility.yul\":15266:15271   */\n      dup2\n        /* \"#utility.yul\":15259:15271   */\n      swap1\n      pop\n        /* \"#utility.yul\":15202:15277   */\n      swap2\n      swap1\n      pop\n      jump\t// out\n        /* \"#utility.yul\":15283:15552   */\n    tag_150:\n        /* \"#utility.yul\":15393:15432   */\n      tag_315\n        /* \"#utility.yul\":15424:15431   */\n      dup4\n        /* \"#utility.yul\":15393:15432   */\n      tag_148\n      jump\t// in\n    tag_315:\n        /* \"#utility.yul\":15454:15545   */\n      tag_316\n        /* \"#utility.yul\":15503:15544   */\n      tag_317\n        /* \"#utility.yul\":15527:15543   */\n      dup3\n        /* \"#utility.yul\":15503:15544   */\n      tag_149\n      jump\t// in\n    tag_317:\n        /* \"#utility.yul\":15495:15501   */\n      dup5\n        /* \"#utility.yul\":15488:15492   */\n      dup5\n        /* \"#utility.yul\":15482:15493   */\n      sload\n        /* \"#utility.yul\":15454:15545   */\n      tag_145\n      jump\t// in\n    tag_316:\n        /* \"#utility.yul\":15448:15452   */\n      dup3\n        /* \"#utility.yul\":15441:15546   */\n      sstore\n        /* \"#utility.yul\":15359:15552   */\n      pop\n        /* \"#utility.yul\":15283:15552   */\n      pop\n      pop\n      pop\n      jump\t// out\n        /* \"#utility.yul\":15558:15631   */\n    tag_151:\n        /* \"#utility.yul\":15603:15606   */\n      0x00\n        /* \"#utility.yul\":15624:15625   */\n      0x00\n        /* \"#utility.yul\":15617:15625   */\n      swap1\n      pop\n        /* \"#utility.yul\":15558:15631   */\n      swap1\n      jump\t// out\n        /* \"#utility.yul\":15637:15826   */\n    tag_152:\n        /* \"#utility.yul\":15714:15746   */\n      tag_320\n      tag_151\n      jump\t// in\n    tag_320:\n        /* \"#utility.yul\":15755:15820   */\n      tag_321\n        /* \"#utility.yul\":15813:15819   */\n      dup2\n        /* \"#utility.yul\":15805:15811   */\n      dup5\n        /* \"#utility.yul\":15799:15803   */\n      dup5\n        /* \"#utility.yul\":15755:15820   */\n      tag_150\n      jump\t// in\n    tag_321:\n        /* \"#utility.yul\":15690:15826   */\n      pop\n        /* \"#utility.yul\":15637:15826   */\n      pop\n      pop\n      jump\t// out\n        /* \"#utility.yul\":15832:16018   */\n    tag_153:\n        /* \"#utility.yul\":15892:16012   */\n    tag_323:\n        /* \"#utility.yul\":15909:15912   */\n      dup2\n        /* \"#utility.yul\":15902:15907   */\n      dup2\n        /* \"#utility.yul\":15899:15913   */\n      lt\n        /* \"#utility.yul\":15892:16012   */\n      iszero\n      tag_325\n      jumpi\n        /* \"#utility.yul\":15963:16002   */\n      tag_326\n        /* \"#utility.yul\":16000:16001   */\n      0x00\n        /* \"#utility.yul\":15993:15998   */\n      dup3\n        /* \"#utility.yul\":15963:16002   */\n      tag_152\n      jump\t// in\n    tag_326:\n        /* \"#utility.yul\":15936:15937   */\n      0x01\n        /* \"#utility.yul\":15929:15934   */\n      dup2\n        /* \"#utility.yul\":15925:15938   */\n      add\n        /* \"#utility.yul\":15916:15938   */\n      swap1\n      pop\n        /* \"#utility.yul\":15892:16012   */\n      jump(tag_323)\n    tag_325:\n        /* \"#utility.yul\":15832:16018   */\n      pop\n      pop\n      jump\t// out\n        /* \"#utility.yul\":16024:16567   */\n    tag_154:\n        /* \"#utility.yul\":16125:16127   */\n      0x1f\n        /* \"#utility.yul\":16120:16123   */\n      dup3\n        /* \"#utility.yul\":16117:16128   */\n      gt\n        /* \"#utility.yul\":16114:16560   */\n      iszero\n      tag_328\n      jumpi\n        /* \"#utility.yul\":16159:16197   */\n      tag_329\n        /* \"#utility.yul\":16191:16196   */\n      dup2\n        /* \"#utility.yul\":16159:16197   */\n      tag_142\n      jump\t// in\n    tag_329:\n        /* \"#utility.yul\":16243:16272   */\n      tag_330\n        /* \"#utility.yul\":16261:16271   */\n      dup5\n        /* \"#utility.yul\":16243:16272   */\n      tag_143\n      jump\t// in\n    tag_330:\n        /* \"#utility.yul\":16233:16241   */\n      dup2\n        /* \"#utility.yul\":16229:16273   */\n      add\n        /* \"#utility.yul\":16426:16428   */\n      0x20\n        /* \"#utility.yul\":16414:16424   */\n      dup6\n        /* \"#utility.yul\":16411:16429   */\n      lt\n        /* \"#utility.yul\":16408:16457   */\n      iszero\n      tag_331\n      jumpi\n        /* \"#utility.yul\":16447:16455   */\n      dup2\n        /* \"#utility.yul\":16432:16455   */\n      swap1\n      pop\n        /* \"#utility.yul\":16408:16457   */\n    tag_331:\n        /* \"#utility.yul\":16470:16550   */\n      tag_332\n        /* \"#utility.yul\":16526:16548   */\n      tag_333\n        /* \"#utility.yul\":16544:16547   */\n      dup6\n        /* \"#utility.yul\":16526:16548   */\n      tag_143\n      jump\t// in\n    tag_333:\n        /* \"#utility.yul\":16516:16524   */\n      dup4\n        /* \"#utility.yul\":16512:16549   */\n      add\n        /* \"#utility.yul\":16499:16510   */\n      dup3\n        /* \"#utility.yul\":16470:16550   */\n      tag_153\n      jump\t// in\n    tag_332:\n        /* \"#utility.yul\":16129:16560   */\n      pop\n      pop\n        /* \"#utility.yul\":16114:16560   */\n    tag_328:\n        /* \"#utility.yul\":16024:16567   */\n      pop\n      pop\n      pop\n      jump\t// out\n        /* \"#utility.yul\":16573:16690   */\n    tag_155:\n        /* \"#utility.yul\":16627:16635   */\n      0x00\n        /* \"#utility.yul\":16677:16682   */\n      dup3\n        /* \"#utility.yul\":16671:16675   */\n      dup3\n        /* \"#utility.yul\":16667:16683   */\n      shr\n        /* \"#utility.yul\":16646:16683   */\n      swap1\n      pop\n        /* \"#utility.yul\":16573:16690   */\n      swap3\n      swap2\n      pop\n      pop\n      jump\t// out\n        /* \"#utility.yul\":16696:16865   */\n    tag_156:\n        /* \"#utility.yul\":16740:16746   */\n      0x00\n        /* \"#utility.yul\":16773:16824   */\n      tag_336\n        /* \"#utility.yul\":16821:16822   */\n      0x00\n        /* \"#utility.yul\":16817:16823   */\n      not\n        /* \"#utility.yul\":16809:16814   */\n      dup5\n        /* \"#utility.yul\":16806:16807   */\n      0x08\n        /* \"#utility.yul\":16802:16815   */\n      mul\n        /* \"#utility.yul\":16773:16824   */\n      tag_155\n      jump\t// in\n    tag_336:\n        /* \"#utility.yul\":16769:16825   */\n      not\n        /* \"#utility.yul\":16854:16858   */\n      dup1\n        /* \"#utility.yul\":16848:16852   */\n      dup4\n        /* \"#utility.yul\":16844:16859   */\n      and\n        /* \"#utility.yul\":16834:16859   */\n      swap2\n      pop\n        /* \"#utility.yul\":16747:16865   */\n      pop\n        /* \"#utility.yul\":16696:16865   */\n      swap3\n      swap2\n      pop\n      pop\n      jump\t// out\n        /* \"#utility.yul\":16870:17165   */\n    tag_157:\n        /* \"#utility.yul\":16946:16950   */\n      0x00\n        /* \"#utility.yul\":17092:17121   */\n      tag_338\n        /* \"#utility.yul\":17117:17120   */\n      dup4\n        /* \"#utility.yul\":17111:17115   */\n      dup4\n        /* \"#utility.yul\":17092:17121   */\n      tag_156\n      jump\t// in\n    tag_338:\n        /* \"#utility.yul\":17084:17121   */\n      swap2\n      pop\n        /* \"#utility.yul\":17154:17157   */\n      dup3\n        /* \"#utility.yul\":17151:17152   */\n      0x02\n        /* \"#utility.yul\":17147:17158   */\n      mul\n        /* \"#utility.yul\":17141:17145   */\n      dup3\n        /* \"#utility.yul\":17138:17159   */\n      or\n        /* \"#utility.yul\":17130:17159   */\n      swap1\n      pop\n        /* \"#utility.yul\":16870:17165   */\n      swap3\n      swap2\n      pop\n      pop\n      jump\t// out\n        /* \"#utility.yul\":17170:18565   */\n    tag_75:\n        /* \"#utility.yul\":17287:17324   */\n      tag_340\n        /* \"#utility.yul\":17320:17323   */\n      dup3\n        /* \"#utility.yul\":17287:17324   */\n      tag_107\n      jump\t// in\n    tag_340:\n        /* \"#utility.yul\":17389:17407   */\n      0xffffffffffffffff\n        /* \"#utility.yul\":17381:17387   */\n      dup2\n        /* \"#utility.yul\":17378:17408   */\n      gt\n        /* \"#utility.yul\":17375:17431   */\n      iszero\n      tag_341\n      jumpi\n        /* \"#utility.yul\":17411:17429   */\n      tag_342\n      tag_119\n      jump\t// in\n    tag_342:\n        /* \"#utility.yul\":17375:17431   */\n    tag_341:\n        /* \"#utility.yul\":17455:17493   */\n      tag_343\n        /* \"#utility.yul\":17487:17491   */\n      dup3\n        /* \"#utility.yul\":17481:17492   */\n      sload\n        /* \"#utility.yul\":17455:17493   */\n      tag_63\n      jump\t// in\n    tag_343:\n        /* \"#utility.yul\":17540:17607   */\n      tag_344\n        /* \"#utility.yul\":17600:17606   */\n      dup3\n        /* \"#utility.yul\":17592:17598   */\n      dup3\n        /* \"#utility.yul\":17586:17590   */\n      dup6\n        /* \"#utility.yul\":17540:17607   */\n      tag_154\n      jump\t// in\n    tag_344:\n        /* \"#utility.yul\":17634:17635   */\n      0x00\n        /* \"#utility.yul\":17658:17662   */\n      0x20\n        /* \"#utility.yul\":17645:17662   */\n      swap1\n      pop\n        /* \"#utility.yul\":17690:17692   */\n      0x1f\n        /* \"#utility.yul\":17682:17688   */\n      dup4\n        /* \"#utility.yul\":17679:17693   */\n      gt\n        /* \"#utility.yul\":17707:17708   */\n      0x01\n        /* \"#utility.yul\":17702:18320   */\n      dup2\n      eq\n      tag_346\n      jumpi\n        /* \"#utility.yul\":18364:18365   */\n      0x00\n        /* \"#utility.yul\":18381:18387   */\n      dup5\n        /* \"#utility.yul\":18378:18455   */\n      iszero\n      tag_347\n      jumpi\n        /* \"#utility.yul\":18430:18439   */\n      dup3\n        /* \"#utility.yul\":18425:18428   */\n      dup8\n        /* \"#utility.yul\":18421:18440   */\n      add\n        /* \"#utility.yul\":18415:18441   */\n      mload\n        /* \"#utility.yul\":18406:18441   */\n      swap1\n      pop\n        /* \"#utility.yul\":18378:18455   */\n    tag_347:\n        /* \"#utility.yul\":18481:18548   */\n      tag_348\n        /* \"#utility.yul\":18541:18547   */\n      dup6\n        /* \"#utility.yul\":18534:18539   */\n      dup3\n        /* \"#utility.yul\":18481:18548   */\n      tag_157\n      jump\t// in\n    tag_348:\n        /* \"#utility.yul\":18475:18479   */\n      dup7\n        /* \"#utility.yul\":18468:18549   */\n      sstore\n        /* \"#utility.yul\":18337:18559   */\n      pop\n        /* \"#utility.yul\":17672:18559   */\n      jump(tag_345)\n        /* \"#utility.yul\":17702:18320   */\n    tag_346:\n        /* \"#utility.yul\":17754:17758   */\n      0x1f\n        /* \"#utility.yul\":17750:17759   */\n      not\n        /* \"#utility.yul\":17742:17748   */\n      dup5\n        /* \"#utility.yul\":17738:17760   */\n      and\n        /* \"#utility.yul\":17788:17825   */\n      tag_349\n        /* \"#utility.yul\":17820:17824   */\n      dup7\n        /* \"#utility.yul\":17788:17825   */\n      tag_142\n      jump\t// in\n    tag_349:\n        /* \"#utility.yul\":17847:17848   */\n      0x00\n        /* \"#utility.yul\":17861:18069   */\n    tag_350:\n        /* \"#utility.yul\":17875:17882   */\n      dup3\n        /* \"#utility.yul\":17872:17873   */\n      dup2\n        /* \"#utility.yul\":17869:17883   */\n      lt\n        /* \"#utility.yul\":17861:18069   */\n      iszero\n      tag_352\n      jumpi\n        /* \"#utility.yul\":17954:17963   */\n      dup5\n        /* \"#utility.yul\":17949:17952   */\n      dup10\n        /* \"#utility.yul\":17945:17964   */\n      add\n        /* \"#utility.yul\":17939:17965   */\n      mload\n        /* \"#utility.yul\":17931:17937   */\n      dup3\n        /* \"#utility.yul\":17924:17966   */\n      sstore\n        /* \"#utility.yul\":18005:18006   */\n      0x01\n        /* \"#utility.yul\":17997:18003   */\n      dup3\n        /* \"#utility.yul\":17993:18007   */\n      add\n        /* \"#utility.yul\":17983:18007   */\n      swap2\n      pop\n        /* \"#utility.yul\":18052:18054   */\n      0x20\n        /* \"#utility.yul\":18041:18050   */\n      dup6\n        /* \"#utility.yul\":18037:18055   */\n      add\n        /* \"#utility.yul\":18024:18055   */\n      swap5\n      pop\n        /* \"#utility.yul\":17898:17902   */\n      0x20\n        /* \"#utility.yul\":17895:17896   */\n      dup2\n        /* \"#utility.yul\":17891:17903   */\n      add\n        /* \"#utility.yul\":17886:17903   */\n      swap1\n      pop\n        /* \"#utility.yul\":17861:18069   */\n      jump(tag_350)\n    tag_352:\n        /* \"#utility.yul\":18097:18103   */\n      dup7\n        /* \"#utility.yul\":18088:18095   */\n      dup4\n        /* \"#utility.yul\":18085:18104   */\n      lt\n        /* \"#utility.yul\":18082:18261   */\n      iszero\n      tag_353\n      jumpi\n        /* \"#utility.yul\":18155:18164   */\n      dup5\n        /* \"#utility.yul\":18150:18153   */\n      dup10\n        /* \"#utility.yul\":18146:18165   */\n      add\n        /* \"#utility.yul\":18140:18166   */\n      mload\n        /* \"#utility.yul\":18198:18246   */\n      tag_354\n        /* \"#utility.yul\":18240:18244   */\n      0x1f\n        /* \"#utility.yul\":18232:18238   */\n      dup10\n        /* \"#utility.yul\":18228:18245   */\n      and\n        /* \"#utility.yul\":18217:18226   */\n      dup3\n        /* \"#utility.yul\":18198:18246   */\n      tag_156\n      jump\t// in\n    tag_354:\n        /* \"#utility.yul\":18190:18196   */\n      dup4\n        /* \"#utility.yul\":18183:18247   */\n      sstore\n        /* \"#utility.yul\":18105:18261   */\n      pop\n        /* \"#utility.yul\":18082:18261   */\n    tag_353:\n        /* \"#utility.yul\":18307:18308   */\n      0x01\n        /* \"#utility.yul\":18303:18304   */\n      0x02\n        /* \"#utility.yul\":18295:18301   */\n      dup9\n        /* \"#utility.yul\":18291:18305   */\n      mul\n        /* \"#utility.yul\":18287:18309   */\n      add\n        /* \"#utility.yul\":18281:18285   */\n      dup9\n        /* \"#utility.yul\":18274:18310   */\n      sstore\n        /* \"#utility.yul\":17709:18320   */\n      pop\n      pop\n      pop\n        /* \"#utility.yul\":17672:18559   */\n    tag_345:\n      pop\n        /* \"#utility.yul\":17262:18565   */\n      pop\n      pop\n      pop\n        /* \"#utility.yul\":17170:18565   */\n      pop\n      pop\n      jump\t// out\n        /* \"#utility.yul\":18571:19096   */\n    tag_79:\n        /* \"#utility.yul\":18736:18740   */\n      0x00\n        /* \"#utility.yul\":18774:18776   */\n      0x60\n        /* \"#utility.yul\":18763:18772   */\n      dup3\n        /* \"#utility.yul\":18759:18777   */\n      add\n        /* \"#utility.yul\":18751:18777   */\n      swap1\n      pop\n        /* \"#utility.yul\":18787:18856   */\n      tag_356\n        /* \"#utility.yul\":18853:18854   */\n      0x00\n        /* \"#utility.yul\":18842:18851   */\n      dup4\n        /* \"#utility.yul\":18838:18855   */\n      add\n        /* \"#utility.yul\":18829:18835   */\n      dup7\n        /* \"#utility.yul\":18787:18856   */\n      tag_100\n      jump\t// in\n    tag_356:\n        /* \"#utility.yul\":18903:18912   */\n      dup2\n        /* \"#utility.yul\":18897:18901   */\n      dup2\n        /* \"#utility.yul\":18893:18913   */\n      sub\n        /* \"#utility.yul\":18888:18890   */\n      0x20\n        /* \"#utility.yul\":18877:18886   */\n      dup4\n        /* \"#utility.yul\":18873:18891   */\n      add\n        /* \"#utility.yul\":18866:18914   */\n      mstore\n        /* \"#utility.yul\":18931:19009   */\n      tag_357\n        /* \"#utility.yul\":19004:19008   */\n      dup2\n        /* \"#utility.yul\":18995:19001   */\n      dup6\n        /* \"#utility.yul\":18931:19009   */\n      tag_135\n      jump\t// in\n    tag_357:\n        /* \"#utility.yul\":18923:19009   */\n      swap1\n      pop\n        /* \"#utility.yul\":19019:19089   */\n      tag_358\n        /* \"#utility.yul\":19085:19087   */\n      0x40\n        /* \"#utility.yul\":19074:19083   */\n      dup4\n        /* \"#utility.yul\":19070:19088   */\n      add\n        /* \"#utility.yul\":19061:19067   */\n      dup5\n        /* \"#utility.yul\":19019:19089   */\n      tag_100\n      jump\t// in\n    tag_358:\n        /* \"#utility.yul\":18571:19096   */\n      swap5\n      swap4\n      pop\n      pop\n      pop\n      pop\n      jump\t// out\n        /* \"#utility.yul\":19102:19327   */\n    tag_158:\n        /* \"#utility.yul\":19242:19276   */\n      0x4f6e6c79204f776e6572206861732061636365737320746f2074686973206675\n        /* \"#utility.yul\":19238:19239   */\n      0x00\n        /* \"#utility.yul\":19230:19236   */\n      dup3\n        /* \"#utility.yul\":19226:19240   */\n      add\n        /* \"#utility.yul\":19219:19277   */\n      mstore\n        /* \"#utility.yul\":19311:19319   */\n      0x6e6374696f6e0000000000000000000000000000000000000000000000000000\n        /* \"#utility.yul\":19306:19308   */\n      0x20\n        /* \"#utility.yul\":19298:19304   */\n      dup3\n        /* \"#utility.yul\":19294:19309   */\n      add\n        /* \"#utility.yul\":19287:19320   */\n      mstore\n        /* \"#utility.yul\":19102:19327   */\n      pop\n      jump\t// out\n        /* \"#utility.yul\":19333:19699   */\n    tag_159:\n        /* \"#utility.yul\":19475:19478   */\n      0x00\n        /* \"#utility.yul\":19496:19563   */\n      tag_361\n        /* \"#utility.yul\":19560:19562   */\n      0x26\n        /* \"#utility.yul\":19555:19558   */\n      dup4\n        /* \"#utility.yul\":19496:19563   */\n      tag_134\n      jump\t// in\n    tag_361:\n        /* \"#utility.yul\":19489:19563   */\n      swap2\n      pop\n        /* \"#utility.yul\":19572:19665   */\n      tag_362\n        /* \"#utility.yul\":19661:19664   */\n      dup3\n        /* \"#utility.yul\":19572:19665   */\n      tag_158\n      jump\t// in\n    tag_362:\n        /* \"#utility.yul\":19690:19692   */\n      0x40\n        /* \"#utility.yul\":19685:19688   */\n      dup3\n        /* \"#utility.yul\":19681:19693   */\n      add\n        /* \"#utility.yul\":19674:19693   */\n      swap1\n      pop\n        /* \"#utility.yul\":19333:19699   */\n      swap2\n      swap1\n      pop\n      jump\t// out\n        /* \"#utility.yul\":19705:20124   */\n    tag_83:\n        /* \"#utility.yul\":19871:19875   */\n      0x00\n        /* \"#utility.yul\":19909:19911   */\n      0x20\n        /* \"#utility.yul\":19898:19907   */\n      dup3\n        /* \"#utility.yul\":19894:19912   */\n      add\n        /* \"#utility.yul\":19886:19912   */\n      swap1\n      pop\n        /* \"#utility.yul\":19958:19967   */\n      dup2\n        /* \"#utility.yul\":19952:19956   */\n      dup2\n        /* \"#utility.yul\":19948:19968   */\n      sub\n        /* \"#utility.yul\":19944:19945   */\n      0x00\n        /* \"#utility.yul\":19933:19942   */\n      dup4\n        /* \"#utility.yul\":19929:19946   */\n      add\n        /* \"#utility.yul\":19922:19969   */\n      mstore\n        /* \"#utility.yul\":19986:20117   */\n      tag_364\n        /* \"#utility.yul\":20112:20116   */\n      dup2\n        /* \"#utility.yul\":19986:20117   */\n      tag_159\n      jump\t// in\n    tag_364:\n        /* \"#utility.yul\":19978:20117   */\n      swap1\n      pop\n        /* \"#utility.yul\":19705:20124   */\n      swap2\n      swap1\n      pop\n      jump\t// out\n\n    auxdata: 0xa264697066735822122015416a2fb97730d314bc3e4d3fbc230e6ae57eb1c6c1099b395416efec8afaa964736f6c634300081d0033\n}\n",
				"bytecode": {
					"linkReferences": {},
					"object": "60806040525f6003553480156012575f5ffd5b50335f5f6101000a81548173ffffffffffffffffffffffffffffffffffffffff021916908373ffffffffffffffffffffffffffffffffffffffff16021790555061157e8061005f5f395ff3fe608060405234801561000f575f5ffd5b5060043610610091575f3560e01c80638fe95a1f116100645780638fe95a1f1461010b5780639e8a8d6c14610127578063a69f554d14610157578063b204ad3414610187578063ef01eb7c146101a557610091565b806307973ccf146100955780630f463e93146100b3578063832880e7146100cf5780638da5cb5b146100ed575b5f5ffd5b61009d6101d8565b6040516100aa9190610b0a565b60405180910390f35b6100cd60048036038101906100c89190610b5e565b6101de565b005b6100d7610363565b6040516100e49190610ca7565b60405180910390f35b6100f56104b0565b6040516101029190610cd6565b60405180910390f35b61012560048036038101906101209190610e1b565b6104d4565b005b610141600480360381019061013c9190610e9f565b610760565b60405161014e9190610b0a565b60405180910390f35b610171600480360381019061016c9190610e9f565b610834565b60405161017e9190610f72565b60405180910390f35b61018f610955565b60405161019c9190610f72565b60405180910390f35b6101bf60048036038101906101ba9190610e9f565b6109e6565b6040516101cf9493929190610fda565b60405180910390f35b60035481565b5f60045f3373ffffffffffffffffffffffffffffffffffffffff1673ffffffffffffffffffffffffffffffffffffffff1681526020019081526020015f205f01540361025f576040517f08c379a00000000000000000000000000000000000000000000000000000000081526004016102569061106e565b60405180910390fd5b60025f3373ffffffffffffffffffffffffffffffffffffffff1673ffffffffffffffffffffffffffffffffffffffff1681526020019081526020015f2081908060018154018082558091505060019003905f5260205f20015f909190919091505560015f3373ffffffffffffffffffffffffffffffffffffffff1673ffffffffffffffffffffffffffffffffffffffff1681526020019081526020015f205f81548092919061030d906110b9565b91905055503373ffffffffffffffffffffffffffffffffffffffff167f2863003788aa1abbbd97a8da75708c69776082b38f3a6664094f492e7e91376b826040516103589190610b0a565b60405180910390a250565b61036b610ab7565b60045f3373ffffffffffffffffffffffffffffffffffffffff1673ffffffffffffffffffffffffffffffffffffffff1681526020019081526020015f206040518060800160405290815f82015481526020016001820180546103cc9061112d565b80601f01602080910402602001604051908101604052809291908181526020018280546103f89061112d565b80156104435780601f1061041a57610100808354040283529160200191610443565b820191905f5260205f20905b81548152906001019060200180831161042657829003601f168201915b5050505050815260200160028201548152602001600382015f9054906101000a900473ffffffffffffffffffffffffffffffffffffffff1673ffffffffffffffffffffffffffffffffffffffff1673ffffffffffffffffffffffffffffffffffffffff1681525050905090565b5f5f9054906101000a900473ffffffffffffffffffffffffffffffffffffffff1681565b5f60045f3373ffffffffffffffffffffffffffffffffffffffff1673ffffffffffffffffffffffffffffffffffffffff1681526020019081526020015f205f015414610555576040517f08c379a000000000000000000000000000000000000000000000000000000000815260040161054c906111a7565b60405180910390fd5b600160035f82825461056791906111c5565b92505081905550604051806080016040528060035481526020018381526020018281526020013373ffffffffffffffffffffffffffffffffffffffff1681525060045f3373ffffffffffffffffffffffffffffffffffffffff1673ffffffffffffffffffffffffffffffffffffffff1681526020019081526020015f205f820151815f0155602082015181600101908161060191906113af565b50604082015181600201556060820151816003015f6101000a81548173ffffffffffffffffffffffffffffffffffffffff021916908373ffffffffffffffffffffffffffffffffffffffff16021790555090505060025f3373ffffffffffffffffffffffffffffffffffffffff1673ffffffffffffffffffffffffffffffffffffffff1681526020019081526020015f2081908060018154018082558091505060019003905f5260205f20015f909190919091505560015f3373ffffffffffffffffffffffffffffffffffffffff1673ffffffffffffffffffffffffffffffffffffffff1681526020019081526020015f205f815480929190610703906110b9565b91905055503373ffffffffffffffffffffffffffffffffffffffff167fe2f58f370c7907db4e16cdbfadb99dab2f1d5052ffa24ede238e5e96c926203960035484846040516107549392919061147e565b60405180910390a25050565b5f3373ffffffffffffffffffffffffffffffffffffffff165f5f9054906101000a900473ffffffffffffffffffffffffffffffffffffffff1673ffffffffffffffffffffffffffffffffffffffff16146107ef576040517f08c379a00000000000000000000000000000000000000000000000000000000081526004016107e69061152a565b60405180910390fd5b60015f8373ffffffffffffffffffffffffffffffffffffffff1673ffffffffffffffffffffffffffffffffffffffff1681526020019081526020015f20549050919050565b60603373ffffffffffffffffffffffffffffffffffffffff165f5f9054906101000a900473ffffffffffffffffffffffffffffffffffffffff1673ffffffffffffffffffffffffffffffffffffffff16146108c4576040517f08c379a00000000000000000000000000000000000000000000000000000000081526004016108bb9061152a565b60405180910390fd5b60025f8373ffffffffffffffffffffffffffffffffffffffff1673ffffffffffffffffffffffffffffffffffffffff1681526020019081526020015f2080548060200260200160405190810160405280929190818152602001828054801561094957602002820191905f5260205f20905b815481526020019060010190808311610935575b50505050509050919050565b606060025f3373ffffffffffffffffffffffffffffffffffffffff1673ffffffffffffffffffffffffffffffffffffffff1681526020019081526020015f208054806020026020016040519081016040528092919081815260200182805480156109dc57602002820191905f5260205f20905b8154815260200190600101908083116109c8575b5050505050905090565b6004602052805f5260405f205f91509050805f015490806001018054610a0b9061112d565b80601f0160208091040260200160405190810160405280929190818152602001828054610a379061112d565b8015610a825780601f10610a5957610100808354040283529160200191610a82565b820191905f5260205f20905b815481529060010190602001808311610a6557829003601f168201915b505050505090806002015490806003015f9054906101000a900473ffffffffffffffffffffffffffffffffffffffff16905084565b60405180608001604052805f8152602001606081526020015f81526020015f73ffffffffffffffffffffffffffffffffffffffff1681525090565b5f819050919050565b610b0481610af2565b82525050565b5f602082019050610b1d5f830184610afb565b92915050565b5f604051905090565b5f5ffd5b5f5ffd5b610b3d81610af2565b8114610b47575f5ffd5b50565b5f81359050610b5881610b34565b92915050565b5f60208284031215610b7357610b72610b2c565b5b5f610b8084828501610b4a565b91505092915050565b610b9281610af2565b82525050565b5f81519050919050565b5f82825260208201905092915050565b8281835e5f83830152505050565b5f601f19601f8301169050919050565b5f610bda82610b98565b610be48185610ba2565b9350610bf4818560208601610bb2565b610bfd81610bc0565b840191505092915050565b5f73ffffffffffffffffffffffffffffffffffffffff82169050919050565b5f610c3182610c08565b9050919050565b610c4181610c27565b82525050565b5f608083015f830151610c5c5f860182610b89565b5060208301518482036020860152610c748282610bd0565b9150506040830151610c896040860182610b89565b506060830151610c9c6060860182610c38565b508091505092915050565b5f6020820190508181035f830152610cbf8184610c47565b905092915050565b610cd081610c27565b82525050565b5f602082019050610ce95f830184610cc7565b92915050565b5f5ffd5b5f5ffd5b7f4e487b71000000000000000000000000000000000000000000000000000000005f52604160045260245ffd5b610d2d82610bc0565b810181811067ffffffffffffffff82111715610d4c57610d4b610cf7565b5b80604052505050565b5f610d5e610b23565b9050610d6a8282610d24565b919050565b5f67ffffffffffffffff821115610d8957610d88610cf7565b5b610d9282610bc0565b9050602081019050919050565b828183375f83830152505050565b5f610dbf610dba84610d6f565b610d55565b905082815260208101848484011115610ddb57610dda610cf3565b5b610de6848285610d9f565b509392505050565b5f82601f830112610e0257610e01610cef565b5b8135610e12848260208601610dad565b91505092915050565b5f5f60408385031215610e3157610e30610b2c565b5b5f83013567ffffffffffffffff811115610e4e57610e4d610b30565b5b610e5a85828601610dee565b9250506020610e6b85828601610b4a565b9150509250929050565b610e7e81610c27565b8114610e88575f5ffd5b50565b5f81359050610e9981610e75565b92915050565b5f60208284031215610eb457610eb3610b2c565b5b5f610ec184828501610e8b565b91505092915050565b5f81519050919050565b5f82825260208201905092915050565b5f819050602082019050919050565b5f610efe8383610b89565b60208301905092915050565b5f602082019050919050565b5f610f2082610eca565b610f2a8185610ed4565b9350610f3583610ee4565b805f5b83811015610f65578151610f4c8882610ef3565b9750610f5783610f0a565b925050600181019050610f38565b5085935050505092915050565b5f6020820190508181035f830152610f8a8184610f16565b905092915050565b5f82825260208201905092915050565b5f610fac82610b98565b610fb68185610f92565b9350610fc6818560208601610bb2565b610fcf81610bc0565b840191505092915050565b5f608082019050610fed5f830187610afb565b8181036020830152610fff8186610fa2565b905061100e6040830185610afb565b61101b6060830184610cc7565b95945050505050565b7f55736572206e6f742072656769737465726564000000000000000000000000005f82015250565b5f611058601383610f92565b915061106382611024565b602082019050919050565b5f6020820190508181035f8301526110858161104c565b9050919050565b7f4e487b71000000000000000000000000000000000000000000000000000000005f52601160045260245ffd5b5f6110c382610af2565b91507f7fffffffffffffffffffffffffffffffffffffffffffffffffffffffffffffff82036110f5576110f461108c565b5b600182019050919050565b7f4e487b71000000000000000000000000000000000000000000000000000000005f52602260045260245ffd5b5f600282049050600182168061114457607f821691505b60208210810361115757611156611100565b5b50919050565b7f5573657220616c726561647920657869737473000000000000000000000000005f82015250565b5f611191601383610f92565b915061119c8261115d565b602082019050919050565b5f6020820190508181035f8301526111be81611185565b9050919050565b5f6111cf82610af2565b91506111da83610af2565b92508282019050828112155f8312168382125f841215161715611200576111ff61108c565b5b92915050565b5f819050815f5260205f209050919050565b5f6020601f8301049050919050565b5f82821b905092915050565b5f600883026112627fffffffffffffffffffffffffffffffffffffffffffffffffffffffffffffffff82611227565b61126c8683611227565b95508019841693508086168417925050509392505050565b5f819050919050565b5f819050919050565b5f6112b06112ab6112a684611284565b61128d565b611284565b9050919050565b5f819050919050565b6112c983611296565b6112dd6112d5826112b7565b848454611233565b825550505050565b5f5f905090565b6112f46112e5565b6112ff8184846112c0565b505050565b5b81811015611322576113175f826112ec565b600181019050611305565b5050565b601f8211156113675761133881611206565b61134184611218565b81016020851015611350578190505b61136461135c85611218565b830182611304565b50505b505050565b5f82821c905092915050565b5f6113875f198460080261136c565b1980831691505092915050565b5f61139f8383611378565b9150826002028217905092915050565b6113b882610b98565b67ffffffffffffffff8111156113d1576113d0610cf7565b5b6113db825461112d565b6113e6828285611326565b5f60209050601f831160018114611417575f8415611405578287015190505b61140f8582611394565b865550611476565b601f19841661142586611206565b5f5b8281101561144c57848901518255600182019150602085019450602081019050611427565b868310156114695784890151611465601f891682611378565b8355505b6001600288020188555050505b505050505050565b5f6060820190506114915f830186610afb565b81810360208301526114a38185610fa2565b90506114b26040830184610afb565b949350505050565b7f4f6e6c79204f776e6572206861732061636365737320746f20746869732066755f8201527f6e6374696f6e0000000000000000000000000000000000000000000000000000602082015250565b5f611514602683610f92565b915061151f826114ba565b604082019050919050565b5f6020820190508181035f83015261154181611508565b905091905056fea264697066735822122015416a2fb97730d314bc3e4d3fbc230e6ae57eb1c6c1099b395416efec8afaa964736f6c634300081d0033",
					"opcodes": "PUSH1 0x80 PUSH1 0x40 MSTORE PUSH0 PUSH1 0x3 SSTORE CALLVALUE DUP1 ISZERO PUSH1 0x12 JUMPI PUSH0 PUSH0 REVERT JUMPDEST POP CALLER PUSH0 PUSH0 PUSH2 0x100 EXP DUP2 SLOAD DUP2 PUSH20 0xFFFFFFFFFFFFFFFFFFFFFFFFFFFFFFFFFFFFFFFF MUL NOT AND SWAP1 DUP4 PUSH20 0xFFFFFFFFFFFFFFFFFFFFFFFFFFFFFFFFFFFFFFFF AND MUL OR SWAP1 SSTORE POP PUSH2 0x157E DUP1 PUSH2 0x5F PUSH0 CODECOPY PUSH0 RETURN INVALID PUSH1 0x80 PUSH1 0x40 MSTORE CALLVALUE DUP1 ISZERO PUSH2 0xF JUMPI PUSH0 PUSH0 REVERT JUMPDEST POP PUSH1 0x4 CALLDATASIZE LT PUSH2 0x91 JUMPI PUSH0 CALLDATALOAD PUSH1 0xE0 SHR DUP1 PUSH4 0x8FE95A1F GT PUSH2 0x64 JUMPI DUP1 PUSH4 0x8FE95A1F EQ PUSH2 0x10B JUMPI DUP1 PUSH4 0x9E8A8D6C EQ PUSH2 0x127 JUMPI DUP1 PUSH4 0xA69F554D EQ PUSH2 0x157 JUMPI DUP1 PUSH4 0xB204AD34 EQ PUSH2 0x187 JUMPI DUP1 PUSH4 0xEF01EB7C EQ PUSH2 0x1A5 JUMPI PUSH2 0x91 JUMP JUMPDEST DUP1 PUSH4 0x7973CCF EQ PUSH2 0x95 JUMPI DUP1 PUSH4 0xF463E93 EQ PUSH2 0xB3 JUMPI DUP1 PUSH4 0x832880E7 EQ PUSH2 0xCF JUMPI DUP1 PUSH4 0x8DA5CB5B EQ PUSH2 0xED JUMPI JUMPDEST PUSH0 PUSH0 REVERT JUMPDEST PUSH2 0x9D PUSH2 0x1D8 JUMP JUMPDEST PUSH1 0x40 MLOAD PUSH2 0xAA SWAP2 SWAP1 PUSH2 0xB0A JUMP JUMPDEST PUSH1 0x40 MLOAD DUP1 SWAP2 SUB SWAP1 RETURN JUMPDEST PUSH2 0xCD PUSH1 0x4 DUP1 CALLDATASIZE SUB DUP2 ADD SWAP1 PUSH2 0xC8 SWAP2 SWAP1 PUSH2 0xB5E JUMP JUMPDEST PUSH2 0x1DE JUMP JUMPDEST STOP JUMPDEST PUSH2 0xD7 PUSH2 0x363 JUMP JUMPDEST PUSH1 0x40 MLOAD PUSH2 0xE4 SWAP2 SWAP1 PUSH2 0xCA7 JUMP JUMPDEST PUSH1 0x40 MLOAD DUP1 SWAP2 SUB SWAP1 RETURN JUMPDEST PUSH2 0xF5 PUSH2 0x4B0 JUMP JUMPDEST PUSH1 0x40 MLOAD PUSH2 0x102 SWAP2 SWAP1 PUSH2 0xCD6 JUMP JUMPDEST PUSH1 0x40 MLOAD DUP1 SWAP2 SUB SWAP1 RETURN JUMPDEST PUSH2 0x125 PUSH1 0x4 DUP1 CALLDATASIZE SUB DUP2 ADD SWAP1 PUSH2 0x120 SWAP2 SWAP1 PUSH2 0xE1B JUMP JUMPDEST PUSH2 0x4D4 JUMP JUMPDEST STOP JUMPDEST PUSH2 0x141 PUSH1 0x4 DUP1 CALLDATASIZE SUB DUP2 ADD SWAP1 PUSH2 0x13C SWAP2 SWAP1 PUSH2 0xE9F JUMP JUMPDEST PUSH2 0x760 JUMP JUMPDEST PUSH1 0x40 MLOAD PUSH2 0x14E SWAP2 SWAP1 PUSH2 0xB0A JUMP JUMPDEST PUSH1 0x40 MLOAD DUP1 SWAP2 SUB SWAP1 RETURN JUMPDEST PUSH2 0x171 PUSH1 0x4 DUP1 CALLDATASIZE SUB DUP2 ADD SWAP1 PUSH2 0x16C SWAP2 SWAP1 PUSH2 0xE9F JUMP JUMPDEST PUSH2 0x834 JUMP JUMPDEST PUSH1 0x40 MLOAD PUSH2 0x17E SWAP2 SWAP1 PUSH2 0xF72 JUMP JUMPDEST PUSH1 0x40 MLOAD DUP1 SWAP2 SUB SWAP1 RETURN JUMPDEST PUSH2 0x18F PUSH2 0x955 JUMP JUMPDEST PUSH1 0x40 MLOAD PUSH2 0x19C SWAP2 SWAP1 PUSH2 0xF72 JUMP JUMPDEST PUSH1 0x40 MLOAD DUP1 SWAP2 SUB SWAP1 RETURN JUMPDEST PUSH2 0x1BF PUSH1 0x4 DUP1 CALLDATASIZE SUB DUP2 ADD SWAP1 PUSH2 0x1BA SWAP2 SWAP1 PUSH2 0xE9F JUMP JUMPDEST PUSH2 0x9E6 JUMP JUMPDEST PUSH1 0x40 MLOAD PUSH2 0x1CF SWAP5 SWAP4 SWAP3 SWAP2 SWAP1 PUSH2 0xFDA JUMP JUMPDEST PUSH1 0x40 MLOAD DUP1 SWAP2 SUB SWAP1 RETURN JUMPDEST PUSH1 0x3 SLOAD DUP2 JUMP JUMPDEST PUSH0 PUSH1 0x4 PUSH0 CALLER PUSH20 0xFFFFFFFFFFFFFFFFFFFFFFFFFFFFFFFFFFFFFFFF AND PUSH20 0xFFFFFFFFFFFFFFFFFFFFFFFFFFFFFFFFFFFFFFFF AND DUP2 MSTORE PUSH1 0x20 ADD SWAP1 DUP2 MSTORE PUSH1 0x20 ADD PUSH0 KECCAK256 PUSH0 ADD SLOAD SUB PUSH2 0x25F JUMPI PUSH1 0x40 MLOAD PUSH32 0x8C379A000000000000000000000000000000000000000000000000000000000 DUP2 MSTORE PUSH1 0x4 ADD PUSH2 0x256 SWAP1 PUSH2 0x106E JUMP JUMPDEST PUSH1 0x40 MLOAD DUP1 SWAP2 SUB SWAP1 REVERT JUMPDEST PUSH1 0x2 PUSH0 CALLER PUSH20 0xFFFFFFFFFFFFFFFFFFFFFFFFFFFFFFFFFFFFFFFF AND PUSH20 0xFFFFFFFFFFFFFFFFFFFFFFFFFFFFFFFFFFFFFFFF AND DUP2 MSTORE PUSH1 0x20 ADD SWAP1 DUP2 MSTORE PUSH1 0x20 ADD PUSH0 KECCAK256 DUP2 SWAP1 DUP1 PUSH1 0x1 DUP2 SLOAD ADD DUP1 DUP3 SSTORE DUP1 SWAP2 POP POP PUSH1 0x1 SWAP1 SUB SWAP1 PUSH0 MSTORE PUSH1 0x20 PUSH0 KECCAK256 ADD PUSH0 SWAP1 SWAP2 SWAP1 SWAP2 SWAP1 SWAP2 POP SSTORE PUSH1 0x1 PUSH0 CALLER PUSH20 0xFFFFFFFFFFFFFFFFFFFFFFFFFFFFFFFFFFFFFFFF AND PUSH20 0xFFFFFFFFFFFFFFFFFFFFFFFFFFFFFFFFFFFFFFFF AND DUP2 MSTORE PUSH1 0x20 ADD SWAP1 DUP2 MSTORE PUSH1 0x20 ADD PUSH0 KECCAK256 PUSH0 DUP2 SLOAD DUP1 SWAP3 SWAP2 SWAP1 PUSH2 0x30D SWAP1 PUSH2 0x10B9 JUMP JUMPDEST SWAP2 SWAP1 POP SSTORE POP CALLER PUSH20 0xFFFFFFFFFFFFFFFFFFFFFFFFFFFFFFFFFFFFFFFF AND PUSH32 0x2863003788AA1ABBBD97A8DA75708C69776082B38F3A6664094F492E7E91376B DUP3 PUSH1 0x40 MLOAD PUSH2 0x358 SWAP2 SWAP1 PUSH2 0xB0A JUMP JUMPDEST PUSH1 0x40 MLOAD DUP1 SWAP2 SUB SWAP1 LOG2 POP JUMP JUMPDEST PUSH2 0x36B PUSH2 0xAB7 JUMP JUMPDEST PUSH1 0x4 PUSH0 CALLER PUSH20 0xFFFFFFFFFFFFFFFFFFFFFFFFFFFFFFFFFFFFFFFF AND PUSH20 0xFFFFFFFFFFFFFFFFFFFFFFFFFFFFFFFFFFFFFFFF AND DUP2 MSTORE PUSH1 0x20 ADD SWAP1 DUP2 MSTORE PUSH1 0x20 ADD PUSH0 KECCAK256 PUSH1 0x40 MLOAD DUP1 PUSH1 0x80 ADD PUSH1 0x40 MSTORE SWAP1 DUP2 PUSH0 DUP3 ADD SLOAD DUP2 MSTORE PUSH1 0x20 ADD PUSH1 0x1 DUP3 ADD DUP1 SLOAD PUSH2 0x3CC SWAP1 PUSH2 0x112D JUMP JUMPDEST DUP1 PUSH1 0x1F ADD PUSH1 0x20 DUP1 SWAP2 DIV MUL PUSH1 0x20 ADD PUSH1 0x40 MLOAD SWAP1 DUP2 ADD PUSH1 0x40 MSTORE DUP1 SWAP3 SWAP2 SWAP1 DUP2 DUP2 MSTORE PUSH1 0x20 ADD DUP3 DUP1 SLOAD PUSH2 0x3F8 SWAP1 PUSH2 0x112D JUMP JUMPDEST DUP1 ISZERO PUSH2 0x443 JUMPI DUP1 PUSH1 0x1F LT PUSH2 0x41A JUMPI PUSH2 0x100 DUP1 DUP4 SLOAD DIV MUL DUP4 MSTORE SWAP2 PUSH1 0x20 ADD SWAP2 PUSH2 0x443 JUMP JUMPDEST DUP3 ADD SWAP2 SWAP1 PUSH0 MSTORE PUSH1 0x20 PUSH0 KECCAK256 SWAP1 JUMPDEST DUP2 SLOAD DUP2 MSTORE SWAP1 PUSH1 0x1 ADD SWAP1 PUSH1 0x20 ADD DUP1 DUP4 GT PUSH2 0x426 JUMPI DUP3 SWAP1 SUB PUSH1 0x1F AND DUP3 ADD SWAP2 JUMPDEST POP POP POP POP POP DUP2 MSTORE PUSH1 0x20 ADD PUSH1 0x2 DUP3 ADD SLOAD DUP2 MSTORE PUSH1 0x20 ADD PUSH1 0x3 DUP3 ADD PUSH0 SWAP1 SLOAD SWAP1 PUSH2 0x100 EXP SWAP1 DIV PUSH20 0xFFFFFFFFFFFFFFFFFFFFFFFFFFFFFFFFFFFFFFFF AND PUSH20 0xFFFFFFFFFFFFFFFFFFFFFFFFFFFFFFFFFFFFFFFF AND PUSH20 0xFFFFFFFFFFFFFFFFFFFFFFFFFFFFFFFFFFFFFFFF AND DUP2 MSTORE POP POP SWAP1 POP SWAP1 JUMP JUMPDEST PUSH0 PUSH0 SWAP1 SLOAD SWAP1 PUSH2 0x100 EXP SWAP1 DIV PUSH20 0xFFFFFFFFFFFFFFFFFFFFFFFFFFFFFFFFFFFFFFFF AND DUP2 JUMP JUMPDEST PUSH0 PUSH1 0x4 PUSH0 CALLER PUSH20 0xFFFFFFFFFFFFFFFFFFFFFFFFFFFFFFFFFFFFFFFF AND PUSH20 0xFFFFFFFFFFFFFFFFFFFFFFFFFFFFFFFFFFFFFFFF AND DUP2 MSTORE PUSH1 0x20 ADD SWAP1 DUP2 MSTORE PUSH1 0x20 ADD PUSH0 KECCAK256 PUSH0 ADD SLOAD EQ PUSH2 0x555 JUMPI PUSH1 0x40 MLOAD PUSH32 0x8C379A000000000000000000000000000000000000000000000000000000000 DUP2 MSTORE PUSH1 0x4 ADD PUSH2 0x54C SWAP1 PUSH2 0x11A7 JUMP JUMPDEST PUSH1 0x40 MLOAD DUP1 SWAP2 SUB SWAP1 REVERT JUMPDEST PUSH1 0x1 PUSH1 0x3 PUSH0 DUP3 DUP3 SLOAD PUSH2 0x567 SWAP2 SWAP1 PUSH2 0x11C5 JUMP JUMPDEST SWAP3 POP POP DUP2 SWAP1 SSTORE POP PUSH1 0x40 MLOAD DUP1 PUSH1 0x80 ADD PUSH1 0x40 MSTORE DUP1 PUSH1 0x3 SLOAD DUP2 MSTORE PUSH1 0x20 ADD DUP4 DUP2 MSTORE PUSH1 0x20 ADD DUP3 DUP2 MSTORE PUSH1 0x20 ADD CALLER PUSH20 0xFFFFFFFFFFFFFFFFFFFFFFFFFFFFFFFFFFFFFFFF AND DUP2 MSTORE POP PUSH1 0x4 PUSH0 CALLER PUSH20 0xFFFFFFFFFFFFFFFFFFFFFFFFFFFFFFFFFFFFFFFF AND PUSH20 0xFFFFFFFFFFFFFFFFFFFFFFFFFFFFFFFFFFFFFFFF AND DUP2 MSTORE PUSH1 0x20 ADD SWAP1 DUP2 MSTORE PUSH1 0x20 ADD PUSH0 KECCAK256 PUSH0 DUP3 ADD MLOAD DUP2 PUSH0 ADD SSTORE PUSH1 0x20 DUP3 ADD MLOAD DUP2 PUSH1 0x1 ADD SWAP1 DUP2 PUSH2 0x601 SWAP2 SWAP1 PUSH2 0x13AF JUMP JUMPDEST POP PUSH1 0x40 DUP3 ADD MLOAD DUP2 PUSH1 0x2 ADD SSTORE PUSH1 0x60 DUP3 ADD MLOAD DUP2 PUSH1 0x3 ADD PUSH0 PUSH2 0x100 EXP DUP2 SLOAD DUP2 PUSH20 0xFFFFFFFFFFFFFFFFFFFFFFFFFFFFFFFFFFFFFFFF MUL NOT AND SWAP1 DUP4 PUSH20 0xFFFFFFFFFFFFFFFFFFFFFFFFFFFFFFFFFFFFFFFF AND MUL OR SWAP1 SSTORE POP SWAP1 POP POP PUSH1 0x2 PUSH0 CALLER PUSH20 0xFFFFFFFFFFFFFFFFFFFFFFFFFFFFFFFFFFFFFFFF AND PUSH20 0xFFFFFFFFFFFFFFFFFFFFFFFFFFFFFFFFFFFFFFFF AND DUP2 MSTORE PUSH1 0x20 ADD SWAP1 DUP2 MSTORE PUSH1 0x20 ADD PUSH0 KECCAK256 DUP2 SWAP1 DUP1 PUSH1 0x1 DUP2 SLOAD ADD DUP1 DUP3 SSTORE DUP1 SWAP2 POP POP PUSH1 0x1 SWAP1 SUB SWAP1 PUSH0 MSTORE PUSH1 0x20 PUSH0 KECCAK256 ADD PUSH0 SWAP1 SWAP2 SWAP1 SWAP2 SWAP1 SWAP2 POP SSTORE PUSH1 0x1 PUSH0 CALLER PUSH20 0xFFFFFFFFFFFFFFFFFFFFFFFFFFFFFFFFFFFFFFFF AND PUSH20 0xFFFFFFFFFFFFFFFFFFFFFFFFFFFFFFFFFFFFFFFF AND DUP2 MSTORE PUSH1 0x20 ADD SWAP1 DUP2 MSTORE PUSH1 0x20 ADD PUSH0 KECCAK256 PUSH0 DUP2 SLOAD DUP1 SWAP3 SWAP2 SWAP1 PUSH2 0x703 SWAP1 PUSH2 0x10B9 JUMP JUMPDEST SWAP2 SWAP1 POP SSTORE POP CALLER PUSH20 0xFFFFFFFFFFFFFFFFFFFFFFFFFFFFFFFFFFFFFFFF AND PUSH32 0xE2F58F370C7907DB4E16CDBFADB99DAB2F1D5052FFA24EDE238E5E96C9262039 PUSH1 0x3 SLOAD DUP5 DUP5 PUSH1 0x40 MLOAD PUSH2 0x754 SWAP4 SWAP3 SWAP2 SWAP1 PUSH2 0x147E JUMP JUMPDEST PUSH1 0x40 MLOAD DUP1 SWAP2 SUB SWAP1 LOG2 POP POP JUMP JUMPDEST PUSH0 CALLER PUSH20 0xFFFFFFFFFFFFFFFFFFFFFFFFFFFFFFFFFFFFFFFF AND PUSH0 PUSH0 SWAP1 SLOAD SWAP1 PUSH2 0x100 EXP SWAP1 DIV PUSH20 0xFFFFFFFFFFFFFFFFFFFFFFFFFFFFFFFFFFFFFFFF AND PUSH20 0xFFFFFFFFFFFFFFFFFFFFFFFFFFFFFFFFFFFFFFFF AND EQ PUSH2 0x7EF JUMPI PUSH1 0x40 MLOAD PUSH32 0x8C379A000000000000000000000000000000000000000000000000000000000 DUP2 MSTORE PUSH1 0x4 ADD PUSH2 0x7E6 SWAP1 PUSH2 0x152A JUMP JUMPDEST PUSH1 0x40 MLOAD DUP1 SWAP2 SUB SWAP1 REVERT JUMPDEST PUSH1 0x1 PUSH0 DUP4 PUSH20 0xFFFFFFFFFFFFFFFFFFFFFFFFFFFFFFFFFFFFFFFF AND PUSH20 0xFFFFFFFFFFFFFFFFFFFFFFFFFFFFFFFFFFFFFFFF AND DUP2 MSTORE PUSH1 0x20 ADD SWAP1 DUP2 MSTORE PUSH1 0x20 ADD PUSH0 KECCAK256 SLOAD SWAP1 POP SWAP2 SWAP1 POP JUMP JUMPDEST PUSH1 0x60 CALLER PUSH20 0xFFFFFFFFFFFFFFFFFFFFFFFFFFFFFFFFFFFFFFFF AND PUSH0 PUSH0 SWAP1 SLOAD SWAP1 PUSH2 0x100 EXP SWAP1 DIV PUSH20 0xFFFFFFFFFFFFFFFFFFFFFFFFFFFFFFFFFFFFFFFF AND PUSH20 0xFFFFFFFFFFFFFFFFFFFFFFFFFFFFFFFFFFFFFFFF AND EQ PUSH2 0x8C4 JUMPI PUSH1 0x40 MLOAD PUSH32 0x8C379A000000000000000000000000000000000000000000000000000000000 DUP2 MSTORE PUSH1 0x4 ADD PUSH2 0x8BB SWAP1 PUSH2 0x152A JUMP JUMPDEST PUSH1 0x40 MLOAD DUP1 SWAP2 SUB SWAP1 REVERT JUMPDEST PUSH1 0x2 PUSH0 DUP4 PUSH20 0xFFFFFFFFFFFFFFFFFFFFFFFFFFFFFFFFFFFFFFFF AND PUSH20 0xFFFFFFFFFFFFFFFFFFFFFFFFFFFFFFFFFFFFFFFF AND DUP2 MSTORE PUSH1 0x20 ADD SWAP1 DUP2 MSTORE PUSH1 0x20 ADD PUSH0 KECCAK256 DUP1 SLOAD DUP1 PUSH1 0x20 MUL PUSH1 0x20 ADD PUSH1 0x40 MLOAD SWAP1 DUP2 ADD PUSH1 0x40 MSTORE DUP1 SWAP3 SWAP2 SWAP1 DUP2 DUP2 MSTORE PUSH1 0x20 ADD DUP3 DUP1 SLOAD DUP1 ISZERO PUSH2 0x949 JUMPI PUSH1 0x20 MUL DUP3 ADD SWAP2 SWAP1 PUSH0 MSTORE PUSH1 0x20 PUSH0 KECCAK256 SWAP1 JUMPDEST DUP2 SLOAD DUP2 MSTORE PUSH1 0x20 ADD SWAP1 PUSH1 0x1 ADD SWAP1 DUP1 DUP4 GT PUSH2 0x935 JUMPI JUMPDEST POP POP POP POP POP SWAP1 POP SWAP2 SWAP1 POP JUMP JUMPDEST PUSH1 0x60 PUSH1 0x2 PUSH0 CALLER PUSH20 0xFFFFFFFFFFFFFFFFFFFFFFFFFFFFFFFFFFFFFFFF AND PUSH20 0xFFFFFFFFFFFFFFFFFFFFFFFFFFFFFFFFFFFFFFFF AND DUP2 MSTORE PUSH1 0x20 ADD SWAP1 DUP2 MSTORE PUSH1 0x20 ADD PUSH0 KECCAK256 DUP1 SLOAD DUP1 PUSH1 0x20 MUL PUSH1 0x20 ADD PUSH1 0x40 MLOAD SWAP1 DUP2 ADD PUSH1 0x40 MSTORE DUP1 SWAP3 SWAP2 SWAP1 DUP2 DUP2 MSTORE PUSH1 0x20 ADD DUP3 DUP1 SLOAD DUP1 ISZERO PUSH2 0x9DC JUMPI PUSH1 0x20 MUL DUP3 ADD SWAP2 SWAP1 PUSH0 MSTORE PUSH1 0x20 PUSH0 KECCAK256 SWAP1 JUMPDEST DUP2 SLOAD DUP2 MSTORE PUSH1 0x20 ADD SWAP1 PUSH1 0x1 ADD SWAP1 DUP1 DUP4 GT PUSH2 0x9C8 JUMPI JUMPDEST POP POP POP POP POP SWAP1 POP SWAP1 JUMP JUMPDEST PUSH1 0x4 PUSH1 0x20 MSTORE DUP1 PUSH0 MSTORE PUSH1 0x40 PUSH0 KECCAK256 PUSH0 SWAP2 POP SWAP1 POP DUP1 PUSH0 ADD SLOAD SWAP1 DUP1 PUSH1 0x1 ADD DUP1 SLOAD PUSH2 0xA0B SWAP1 PUSH2 0x112D JUMP JUMPDEST DUP1 PUSH1 0x1F ADD PUSH1 0x20 DUP1 SWAP2 DIV MUL PUSH1 0x20 ADD PUSH1 0x40 MLOAD SWAP1 DUP2 ADD PUSH1 0x40 MSTORE DUP1 SWAP3 SWAP2 SWAP1 DUP2 DUP2 MSTORE PUSH1 0x20 ADD DUP3 DUP1 SLOAD PUSH2 0xA37 SWAP1 PUSH2 0x112D JUMP JUMPDEST DUP1 ISZERO PUSH2 0xA82 JUMPI DUP1 PUSH1 0x1F LT PUSH2 0xA59 JUMPI PUSH2 0x100 DUP1 DUP4 SLOAD DIV MUL DUP4 MSTORE SWAP2 PUSH1 0x20 ADD SWAP2 PUSH2 0xA82 JUMP JUMPDEST DUP3 ADD SWAP2 SWAP1 PUSH0 MSTORE PUSH1 0x20 PUSH0 KECCAK256 SWAP1 JUMPDEST DUP2 SLOAD DUP2 MSTORE SWAP1 PUSH1 0x1 ADD SWAP1 PUSH1 0x20 ADD DUP1 DUP4 GT PUSH2 0xA65 JUMPI DUP3 SWAP1 SUB PUSH1 0x1F AND DUP3 ADD SWAP2 JUMPDEST POP POP POP POP POP SWAP1 DUP1 PUSH1 0x2 ADD SLOAD SWAP1 DUP1 PUSH1 0x3 ADD PUSH0 SWAP1 SLOAD SWAP1 PUSH2 0x100 EXP SWAP1 DIV PUSH20 0xFFFFFFFFFFFFFFFFFFFFFFFFFFFFFFFFFFFFFFFF AND SWAP1 POP DUP5 JUMP JUMPDEST PUSH1 0x40 MLOAD DUP1 PUSH1 0x80 ADD PUSH1 0x40 MSTORE DUP1 PUSH0 DUP2 MSTORE PUSH1 0x20 ADD PUSH1 0x60 DUP2 MSTORE PUSH1 0x20 ADD PUSH0 DUP2 MSTORE PUSH1 0x20 ADD PUSH0 PUSH20 0xFFFFFFFFFFFFFFFFFFFFFFFFFFFFFFFFFFFFFFFF AND DUP2 MSTORE POP SWAP1 JUMP JUMPDEST PUSH0 DUP2 SWAP1 POP SWAP2 SWAP1 POP JUMP JUMPDEST PUSH2 0xB04 DUP2 PUSH2 0xAF2 JUMP JUMPDEST DUP3 MSTORE POP POP JUMP JUMPDEST PUSH0 PUSH1 0x20 DUP3 ADD SWAP1 POP PUSH2 0xB1D PUSH0 DUP4 ADD DUP5 PUSH2 0xAFB JUMP JUMPDEST SWAP3 SWAP2 POP POP JUMP JUMPDEST PUSH0 PUSH1 0x40 MLOAD SWAP1 POP SWAP1 JUMP JUMPDEST PUSH0 PUSH0 REVERT JUMPDEST PUSH0 PUSH0 REVERT JUMPDEST PUSH2 0xB3D DUP2 PUSH2 0xAF2 JUMP JUMPDEST DUP2 EQ PUSH2 0xB47 JUMPI PUSH0 PUSH0 REVERT JUMPDEST POP JUMP JUMPDEST PUSH0 DUP2 CALLDATALOAD SWAP1 POP PUSH2 0xB58 DUP2 PUSH2 0xB34 JUMP JUMPDEST SWAP3 SWAP2 POP POP JUMP JUMPDEST PUSH0 PUSH1 0x20 DUP3 DUP5 SUB SLT ISZERO PUSH2 0xB73 JUMPI PUSH2 0xB72 PUSH2 0xB2C JUMP JUMPDEST JUMPDEST PUSH0 PUSH2 0xB80 DUP5 DUP3 DUP6 ADD PUSH2 0xB4A JUMP JUMPDEST SWAP2 POP POP SWAP3 SWAP2 POP POP JUMP JUMPDEST PUSH2 0xB92 DUP2 PUSH2 0xAF2 JUMP JUMPDEST DUP3 MSTORE POP POP JUMP JUMPDEST PUSH0 DUP2 MLOAD SWAP1 POP SWAP2 SWAP1 POP JUMP JUMPDEST PUSH0 DUP3 DUP3 MSTORE PUSH1 0x20 DUP3 ADD SWAP1 POP SWAP3 SWAP2 POP POP JUMP JUMPDEST DUP3 DUP2 DUP4 MCOPY PUSH0 DUP4 DUP4 ADD MSTORE POP POP POP JUMP JUMPDEST PUSH0 PUSH1 0x1F NOT PUSH1 0x1F DUP4 ADD AND SWAP1 POP SWAP2 SWAP1 POP JUMP JUMPDEST PUSH0 PUSH2 0xBDA DUP3 PUSH2 0xB98 JUMP JUMPDEST PUSH2 0xBE4 DUP2 DUP6 PUSH2 0xBA2 JUMP JUMPDEST SWAP4 POP PUSH2 0xBF4 DUP2 DUP6 PUSH1 0x20 DUP7 ADD PUSH2 0xBB2 JUMP JUMPDEST PUSH2 0xBFD DUP2 PUSH2 0xBC0 JUMP JUMPDEST DUP5 ADD SWAP2 POP POP SWAP3 SWAP2 POP POP JUMP JUMPDEST PUSH0 PUSH20 0xFFFFFFFFFFFFFFFFFFFFFFFFFFFFFFFFFFFFFFFF DUP3 AND SWAP1 POP SWAP2 SWAP1 POP JUMP JUMPDEST PUSH0 PUSH2 0xC31 DUP3 PUSH2 0xC08 JUMP JUMPDEST SWAP1 POP SWAP2 SWAP1 POP JUMP JUMPDEST PUSH2 0xC41 DUP2 PUSH2 0xC27 JUMP JUMPDEST DUP3 MSTORE POP POP JUMP JUMPDEST PUSH0 PUSH1 0x80 DUP4 ADD PUSH0 DUP4 ADD MLOAD PUSH2 0xC5C PUSH0 DUP7 ADD DUP3 PUSH2 0xB89 JUMP JUMPDEST POP PUSH1 0x20 DUP4 ADD MLOAD DUP5 DUP3 SUB PUSH1 0x20 DUP7 ADD MSTORE PUSH2 0xC74 DUP3 DUP3 PUSH2 0xBD0 JUMP JUMPDEST SWAP2 POP POP PUSH1 0x40 DUP4 ADD MLOAD PUSH2 0xC89 PUSH1 0x40 DUP7 ADD DUP3 PUSH2 0xB89 JUMP JUMPDEST POP PUSH1 0x60 DUP4 ADD MLOAD PUSH2 0xC9C PUSH1 0x60 DUP7 ADD DUP3 PUSH2 0xC38 JUMP JUMPDEST POP DUP1 SWAP2 POP POP SWAP3 SWAP2 POP POP JUMP JUMPDEST PUSH0 PUSH1 0x20 DUP3 ADD SWAP1 POP DUP2 DUP2 SUB PUSH0 DUP4 ADD MSTORE PUSH2 0xCBF DUP2 DUP5 PUSH2 0xC47 JUMP JUMPDEST SWAP1 POP SWAP3 SWAP2 POP POP JUMP JUMPDEST PUSH2 0xCD0 DUP2 PUSH2 0xC27 JUMP JUMPDEST DUP3 MSTORE POP POP JUMP JUMPDEST PUSH0 PUSH1 0x20 DUP3 ADD SWAP1 POP PUSH2 0xCE9 PUSH0 DUP4 ADD DUP5 PUSH2 0xCC7 JUMP JUMPDEST SWAP3 SWAP2 POP POP JUMP JUMPDEST PUSH0 PUSH0 REVERT JUMPDEST PUSH0 PUSH0 REVERT JUMPDEST PUSH32 0x4E487B7100000000000000000000000000000000000000000000000000000000 PUSH0 MSTORE PUSH1 0x41 PUSH1 0x4 MSTORE PUSH1 0x24 PUSH0 REVERT JUMPDEST PUSH2 0xD2D DUP3 PUSH2 0xBC0 JUMP JUMPDEST DUP2 ADD DUP2 DUP2 LT PUSH8 0xFFFFFFFFFFFFFFFF DUP3 GT OR ISZERO PUSH2 0xD4C JUMPI PUSH2 0xD4B PUSH2 0xCF7 JUMP JUMPDEST JUMPDEST DUP1 PUSH1 0x40 MSTORE POP POP POP JUMP JUMPDEST PUSH0 PUSH2 0xD5E PUSH2 0xB23 JUMP JUMPDEST SWAP1 POP PUSH2 0xD6A DUP3 DUP3 PUSH2 0xD24 JUMP JUMPDEST SWAP2 SWAP1 POP JUMP JUMPDEST PUSH0 PUSH8 0xFFFFFFFFFFFFFFFF DUP3 GT ISZERO PUSH2 0xD89 JUMPI PUSH2 0xD88 PUSH2 0xCF7 JUMP JUMPDEST JUMPDEST PUSH2 0xD92 DUP3 PUSH2 0xBC0 JUMP JUMPDEST SWAP1 POP PUSH1 0x20 DUP2 ADD SWAP1 POP SWAP2 SWAP1 POP JUMP JUMPDEST DUP3 DUP2 DUP4 CALLDATACOPY PUSH0 DUP4 DUP4 ADD MSTORE POP POP POP JUMP JUMPDEST PUSH0 PUSH2 0xDBF PUSH2 0xDBA DUP5 PUSH2 0xD6F JUMP JUMPDEST PUSH2 0xD55 JUMP JUMPDEST SWAP1 POP DUP3 DUP2 MSTORE PUSH1 0x20 DUP2 ADD DUP5 DUP5 DUP5 ADD GT ISZERO PUSH2 0xDDB JUMPI PUSH2 0xDDA PUSH2 0xCF3 JUMP JUMPDEST JUMPDEST PUSH2 0xDE6 DUP5 DUP3 DUP6 PUSH2 0xD9F JUMP JUMPDEST POP SWAP4 SWAP3 POP POP POP JUMP JUMPDEST PUSH0 DUP3 PUSH1 0x1F DUP4 ADD SLT PUSH2 0xE02 JUMPI PUSH2 0xE01 PUSH2 0xCEF JUMP JUMPDEST JUMPDEST DUP2 CALLDATALOAD PUSH2 0xE12 DUP5 DUP3 PUSH1 0x20 DUP7 ADD PUSH2 0xDAD JUMP JUMPDEST SWAP2 POP POP SWAP3 SWAP2 POP POP JUMP JUMPDEST PUSH0 PUSH0 PUSH1 0x40 DUP4 DUP6 SUB SLT ISZERO PUSH2 0xE31 JUMPI PUSH2 0xE30 PUSH2 0xB2C JUMP JUMPDEST JUMPDEST PUSH0 DUP4 ADD CALLDATALOAD PUSH8 0xFFFFFFFFFFFFFFFF DUP2 GT ISZERO PUSH2 0xE4E JUMPI PUSH2 0xE4D PUSH2 0xB30 JUMP JUMPDEST JUMPDEST PUSH2 0xE5A DUP6 DUP3 DUP7 ADD PUSH2 0xDEE JUMP JUMPDEST SWAP3 POP POP PUSH1 0x20 PUSH2 0xE6B DUP6 DUP3 DUP7 ADD PUSH2 0xB4A JUMP JUMPDEST SWAP2 POP POP SWAP3 POP SWAP3 SWAP1 POP JUMP JUMPDEST PUSH2 0xE7E DUP2 PUSH2 0xC27 JUMP JUMPDEST DUP2 EQ PUSH2 0xE88 JUMPI PUSH0 PUSH0 REVERT JUMPDEST POP JUMP JUMPDEST PUSH0 DUP2 CALLDATALOAD SWAP1 POP PUSH2 0xE99 DUP2 PUSH2 0xE75 JUMP JUMPDEST SWAP3 SWAP2 POP POP JUMP JUMPDEST PUSH0 PUSH1 0x20 DUP3 DUP5 SUB SLT ISZERO PUSH2 0xEB4 JUMPI PUSH2 0xEB3 PUSH2 0xB2C JUMP JUMPDEST JUMPDEST PUSH0 PUSH2 0xEC1 DUP5 DUP3 DUP6 ADD PUSH2 0xE8B JUMP JUMPDEST SWAP2 POP POP SWAP3 SWAP2 POP POP JUMP JUMPDEST PUSH0 DUP2 MLOAD SWAP1 POP SWAP2 SWAP1 POP JUMP JUMPDEST PUSH0 DUP3 DUP3 MSTORE PUSH1 0x20 DUP3 ADD SWAP1 POP SWAP3 SWAP2 POP POP JUMP JUMPDEST PUSH0 DUP2 SWAP1 POP PUSH1 0x20 DUP3 ADD SWAP1 POP SWAP2 SWAP1 POP JUMP JUMPDEST PUSH0 PUSH2 0xEFE DUP4 DUP4 PUSH2 0xB89 JUMP JUMPDEST PUSH1 0x20 DUP4 ADD SWAP1 POP SWAP3 SWAP2 POP POP JUMP JUMPDEST PUSH0 PUSH1 0x20 DUP3 ADD SWAP1 POP SWAP2 SWAP1 POP JUMP JUMPDEST PUSH0 PUSH2 0xF20 DUP3 PUSH2 0xECA JUMP JUMPDEST PUSH2 0xF2A DUP2 DUP6 PUSH2 0xED4 JUMP JUMPDEST SWAP4 POP PUSH2 0xF35 DUP4 PUSH2 0xEE4 JUMP JUMPDEST DUP1 PUSH0 JUMPDEST DUP4 DUP2 LT ISZERO PUSH2 0xF65 JUMPI DUP2 MLOAD PUSH2 0xF4C DUP9 DUP3 PUSH2 0xEF3 JUMP JUMPDEST SWAP8 POP PUSH2 0xF57 DUP4 PUSH2 0xF0A JUMP JUMPDEST SWAP3 POP POP PUSH1 0x1 DUP2 ADD SWAP1 POP PUSH2 0xF38 JUMP JUMPDEST POP DUP6 SWAP4 POP POP POP POP SWAP3 SWAP2 POP POP JUMP JUMPDEST PUSH0 PUSH1 0x20 DUP3 ADD SWAP1 POP DUP2 DUP2 SUB PUSH0 DUP4 ADD MSTORE PUSH2 0xF8A DUP2 DUP5 PUSH2 0xF16 JUMP JUMPDEST SWAP1 POP SWAP3 SWAP2 POP POP JUMP JUMPDEST PUSH0 DUP3 DUP3 MSTORE PUSH1 0x20 DUP3 ADD SWAP1 POP SWAP3 SWAP2 POP POP JUMP JUMPDEST PUSH0 PUSH2 0xFAC DUP3 PUSH2 0xB98 JUMP JUMPDEST PUSH2 0xFB6 DUP2 DUP6 PUSH2 0xF92 JUMP JUMPDEST SWAP4 POP PUSH2 0xFC6 DUP2 DUP6 PUSH1 0x20 DUP7 ADD PUSH2 0xBB2 JUMP JUMPDEST PUSH2 0xFCF DUP2 PUSH2 0xBC0 JUMP JUMPDEST DUP5 ADD SWAP2 POP POP SWAP3 SWAP2 POP POP JUMP JUMPDEST PUSH0 PUSH1 0x80 DUP3 ADD SWAP1 POP PUSH2 0xFED PUSH0 DUP4 ADD DUP8 PUSH2 0xAFB JUMP JUMPDEST DUP2 DUP2 SUB PUSH1 0x20 DUP4 ADD MSTORE PUSH2 0xFFF DUP2 DUP7 PUSH2 0xFA2 JUMP JUMPDEST SWAP1 POP PUSH2 0x100E PUSH1 0x40 DUP4 ADD DUP6 PUSH2 0xAFB JUMP JUMPDEST PUSH2 0x101B PUSH1 0x60 DUP4 ADD DUP5 PUSH2 0xCC7 JUMP JUMPDEST SWAP6 SWAP5 POP POP POP POP POP JUMP JUMPDEST PUSH32 0x55736572206E6F74207265676973746572656400000000000000000000000000 PUSH0 DUP3 ADD MSTORE POP JUMP JUMPDEST PUSH0 PUSH2 0x1058 PUSH1 0x13 DUP4 PUSH2 0xF92 JUMP JUMPDEST SWAP2 POP PUSH2 0x1063 DUP3 PUSH2 0x1024 JUMP JUMPDEST PUSH1 0x20 DUP3 ADD SWAP1 POP SWAP2 SWAP1 POP JUMP JUMPDEST PUSH0 PUSH1 0x20 DUP3 ADD SWAP1 POP DUP2 DUP2 SUB PUSH0 DUP4 ADD MSTORE PUSH2 0x1085 DUP2 PUSH2 0x104C JUMP JUMPDEST SWAP1 POP SWAP2 SWAP1 POP JUMP JUMPDEST PUSH32 0x4E487B7100000000000000000000000000000000000000000000000000000000 PUSH0 MSTORE PUSH1 0x11 PUSH1 0x4 MSTORE PUSH1 0x24 PUSH0 REVERT JUMPDEST PUSH0 PUSH2 0x10C3 DUP3 PUSH2 0xAF2 JUMP JUMPDEST SWAP2 POP PUSH32 0x7FFFFFFFFFFFFFFFFFFFFFFFFFFFFFFFFFFFFFFFFFFFFFFFFFFFFFFFFFFFFFFF DUP3 SUB PUSH2 0x10F5 JUMPI PUSH2 0x10F4 PUSH2 0x108C JUMP JUMPDEST JUMPDEST PUSH1 0x1 DUP3 ADD SWAP1 POP SWAP2 SWAP1 POP JUMP JUMPDEST PUSH32 0x4E487B7100000000000000000000000000000000000000000000000000000000 PUSH0 MSTORE PUSH1 0x22 PUSH1 0x4 MSTORE PUSH1 0x24 PUSH0 REVERT JUMPDEST PUSH0 PUSH1 0x2 DUP3 DIV SWAP1 POP PUSH1 0x1 DUP3 AND DUP1 PUSH2 0x1144 JUMPI PUSH1 0x7F DUP3 AND SWAP2 POP JUMPDEST PUSH1 0x20 DUP3 LT DUP2 SUB PUSH2 0x1157 JUMPI PUSH2 0x1156 PUSH2 0x1100 JUMP JUMPDEST JUMPDEST POP SWAP2 SWAP1 POP JUMP JUMPDEST PUSH32 0x5573657220616C72656164792065786973747300000000000000000000000000 PUSH0 DUP3 ADD MSTORE POP JUMP JUMPDEST PUSH0 PUSH2 0x1191 PUSH1 0x13 DUP4 PUSH2 0xF92 JUMP JUMPDEST SWAP2 POP PUSH2 0x119C DUP3 PUSH2 0x115D JUMP JUMPDEST PUSH1 0x20 DUP3 ADD SWAP1 POP SWAP2 SWAP1 POP JUMP JUMPDEST PUSH0 PUSH1 0x20 DUP3 ADD SWAP1 POP DUP2 DUP2 SUB PUSH0 DUP4 ADD MSTORE PUSH2 0x11BE DUP2 PUSH2 0x1185 JUMP JUMPDEST SWAP1 POP SWAP2 SWAP1 POP JUMP JUMPDEST PUSH0 PUSH2 0x11CF DUP3 PUSH2 0xAF2 JUMP JUMPDEST SWAP2 POP PUSH2 0x11DA DUP4 PUSH2 0xAF2 JUMP JUMPDEST SWAP3 POP DUP3 DUP3 ADD SWAP1 POP DUP3 DUP2 SLT ISZERO PUSH0 DUP4 SLT AND DUP4 DUP3 SLT PUSH0 DUP5 SLT ISZERO AND OR ISZERO PUSH2 0x1200 JUMPI PUSH2 0x11FF PUSH2 0x108C JUMP JUMPDEST JUMPDEST SWAP3 SWAP2 POP POP JUMP JUMPDEST PUSH0 DUP2 SWAP1 POP DUP2 PUSH0 MSTORE PUSH1 0x20 PUSH0 KECCAK256 SWAP1 POP SWAP2 SWAP1 POP JUMP JUMPDEST PUSH0 PUSH1 0x20 PUSH1 0x1F DUP4 ADD DIV SWAP1 POP SWAP2 SWAP1 POP JUMP JUMPDEST PUSH0 DUP3 DUP3 SHL SWAP1 POP SWAP3 SWAP2 POP POP JUMP JUMPDEST PUSH0 PUSH1 0x8 DUP4 MUL PUSH2 0x1262 PUSH32 0xFFFFFFFFFFFFFFFFFFFFFFFFFFFFFFFFFFFFFFFFFFFFFFFFFFFFFFFFFFFFFFFF DUP3 PUSH2 0x1227 JUMP JUMPDEST PUSH2 0x126C DUP7 DUP4 PUSH2 0x1227 JUMP JUMPDEST SWAP6 POP DUP1 NOT DUP5 AND SWAP4 POP DUP1 DUP7 AND DUP5 OR SWAP3 POP POP POP SWAP4 SWAP3 POP POP POP JUMP JUMPDEST PUSH0 DUP2 SWAP1 POP SWAP2 SWAP1 POP JUMP JUMPDEST PUSH0 DUP2 SWAP1 POP SWAP2 SWAP1 POP JUMP JUMPDEST PUSH0 PUSH2 0x12B0 PUSH2 0x12AB PUSH2 0x12A6 DUP5 PUSH2 0x1284 JUMP JUMPDEST PUSH2 0x128D JUMP JUMPDEST PUSH2 0x1284 JUMP JUMPDEST SWAP1 POP SWAP2 SWAP1 POP JUMP JUMPDEST PUSH0 DUP2 SWAP1 POP SWAP2 SWAP1 POP JUMP JUMPDEST PUSH2 0x12C9 DUP4 PUSH2 0x1296 JUMP JUMPDEST PUSH2 0x12DD PUSH2 0x12D5 DUP3 PUSH2 0x12B7 JUMP JUMPDEST DUP5 DUP5 SLOAD PUSH2 0x1233 JUMP JUMPDEST DUP3 SSTORE POP POP POP POP JUMP JUMPDEST PUSH0 PUSH0 SWAP1 POP SWAP1 JUMP JUMPDEST PUSH2 0x12F4 PUSH2 0x12E5 JUMP JUMPDEST PUSH2 0x12FF DUP2 DUP5 DUP5 PUSH2 0x12C0 JUMP JUMPDEST POP POP POP JUMP JUMPDEST JUMPDEST DUP2 DUP2 LT ISZERO PUSH2 0x1322 JUMPI PUSH2 0x1317 PUSH0 DUP3 PUSH2 0x12EC JUMP JUMPDEST PUSH1 0x1 DUP2 ADD SWAP1 POP PUSH2 0x1305 JUMP JUMPDEST POP POP JUMP JUMPDEST PUSH1 0x1F DUP3 GT ISZERO PUSH2 0x1367 JUMPI PUSH2 0x1338 DUP2 PUSH2 0x1206 JUMP JUMPDEST PUSH2 0x1341 DUP5 PUSH2 0x1218 JUMP JUMPDEST DUP2 ADD PUSH1 0x20 DUP6 LT ISZERO PUSH2 0x1350 JUMPI DUP2 SWAP1 POP JUMPDEST PUSH2 0x1364 PUSH2 0x135C DUP6 PUSH2 0x1218 JUMP JUMPDEST DUP4 ADD DUP3 PUSH2 0x1304 JUMP JUMPDEST POP POP JUMPDEST POP POP POP JUMP JUMPDEST PUSH0 DUP3 DUP3 SHR SWAP1 POP SWAP3 SWAP2 POP POP JUMP JUMPDEST PUSH0 PUSH2 0x1387 PUSH0 NOT DUP5 PUSH1 0x8 MUL PUSH2 0x136C JUMP JUMPDEST NOT DUP1 DUP4 AND SWAP2 POP POP SWAP3 SWAP2 POP POP JUMP JUMPDEST PUSH0 PUSH2 0x139F DUP4 DUP4 PUSH2 0x1378 JUMP JUMPDEST SWAP2 POP DUP3 PUSH1 0x2 MUL DUP3 OR SWAP1 POP SWAP3 SWAP2 POP POP JUMP JUMPDEST PUSH2 0x13B8 DUP3 PUSH2 0xB98 JUMP JUMPDEST PUSH8 0xFFFFFFFFFFFFFFFF DUP2 GT ISZERO PUSH2 0x13D1 JUMPI PUSH2 0x13D0 PUSH2 0xCF7 JUMP JUMPDEST JUMPDEST PUSH2 0x13DB DUP3 SLOAD PUSH2 0x112D JUMP JUMPDEST PUSH2 0x13E6 DUP3 DUP3 DUP6 PUSH2 0x1326 JUMP JUMPDEST PUSH0 PUSH1 0x20 SWAP1 POP PUSH1 0x1F DUP4 GT PUSH1 0x1 DUP2 EQ PUSH2 0x1417 JUMPI PUSH0 DUP5 ISZERO PUSH2 0x1405 JUMPI DUP3 DUP8 ADD MLOAD SWAP1 POP JUMPDEST PUSH2 0x140F DUP6 DUP3 PUSH2 0x1394 JUMP JUMPDEST DUP7 SSTORE POP PUSH2 0x1476 JUMP JUMPDEST PUSH1 0x1F NOT DUP5 AND PUSH2 0x1425 DUP7 PUSH2 0x1206 JUMP JUMPDEST PUSH0 JUMPDEST DUP3 DUP2 LT ISZERO PUSH2 0x144C JUMPI DUP5 DUP10 ADD MLOAD DUP3 SSTORE PUSH1 0x1 DUP3 ADD SWAP2 POP PUSH1 0x20 DUP6 ADD SWAP5 POP PUSH1 0x20 DUP2 ADD SWAP1 POP PUSH2 0x1427 JUMP JUMPDEST DUP7 DUP4 LT ISZERO PUSH2 0x1469 JUMPI DUP5 DUP10 ADD MLOAD PUSH2 0x1465 PUSH1 0x1F DUP10 AND DUP3 PUSH2 0x1378 JUMP JUMPDEST DUP4 SSTORE POP JUMPDEST PUSH1 0x1 PUSH1 0x2 DUP9 MUL ADD DUP9 SSTORE POP POP POP JUMPDEST POP POP POP POP POP POP JUMP JUMPDEST PUSH0 PUSH1 0x60 DUP3 ADD SWAP1 POP PUSH2 0x1491 PUSH0 DUP4 ADD DUP7 PUSH2 0xAFB JUMP JUMPDEST DUP2 DUP2 SUB PUSH1 0x20 DUP4 ADD MSTORE PUSH2 0x14A3 DUP2 DUP6 PUSH2 0xFA2 JUMP JUMPDEST SWAP1 POP PUSH2 0x14B2 PUSH1 0x40 DUP4 ADD DUP5 PUSH2 0xAFB JUMP JUMPDEST SWAP5 SWAP4 POP POP POP POP JUMP JUMPDEST PUSH32 0x4F6E6C79204F776E6572206861732061636365737320746F2074686973206675 PUSH0 DUP3 ADD MSTORE PUSH32 0x6E6374696F6E0000000000000000000000000000000000000000000000000000 PUSH1 0x20 DUP3 ADD MSTORE POP JUMP JUMPDEST PUSH0 PUSH2 0x1514 PUSH1 0x26 DUP4 PUSH2 0xF92 JUMP JUMPDEST SWAP2 POP PUSH2 0x151F DUP3 PUSH2 0x14BA JUMP JUMPDEST PUSH1 0x40 DUP3 ADD SWAP1 POP SWAP2 SWAP1 POP JUMP JUMPDEST PUSH0 PUSH1 0x20 DUP3 ADD SWAP1 POP DUP2 DUP2 SUB PUSH0 DUP4 ADD MSTORE PUSH2 0x1541 DUP2 PUSH2 0x1508 JUMP JUMPDEST SWAP1 POP SWAP2 SWAP1 POP JUMP INVALID LOG2 PUSH5 0x6970667358 0x22 SLT KECCAK256 ISZERO COINBASE PUSH11 0x2FB97730D314BC3E4D3FBC 0x23 0xE PUSH11 0xE57EB1C6C1099B395416EF EOFCREATE 0x8A STATICCALL 0xA9 PUSH5 0x736F6C6343 STOP ADDMOD SAR STOP CALLER "
				},
				"gasEstimates": {
					"creation": {
						"codeDepositCost": "1100400",
						"executionCost": "30407",
						"totalCost": "1130807"
					},
					"external": {
						"addNewInsurance(int256)": "infinite",
						"addUser(string,int256)": "infinite",
						"getInsuranceCount(address)": "5019",
						"getInsuranceNumber(address)": "infinite",
						"getUser()": "infinite",
						"myInsuranceNumbers()": "infinite",
						"myUsers(address)": "infinite",
						"owner()": "2574",
						"userCount()": "2426"
					}
				},
				"methodIdentifiers": {
					"addNewInsurance(int256)": "0f463e93",
					"addUser(string,int256)": "8fe95a1f",
					"getInsuranceCount(address)": "9e8a8d6c",
					"getInsuranceNumber(address)": "a69f554d",
					"getUser()": "832880e7",
					"myInsuranceNumbers()": "b204ad34",
					"myUsers(address)": "ef01eb7c",
					"owner()": "8da5cb5b",
					"userCount()": "07973ccf"
				}
			},
			"storageLayout": {
				"storage": [
					{
						"astId": 3,
						"contract": "Insurance Project(Solidit_REMIX)/contracts/AddUsers.sol:AddUser",
						"label": "owner",
						"offset": 0,
						"slot": "0",
						"type": "t_address"
					},
					{
						"astId": 16,
						"contract": "Insurance Project(Solidit_REMIX)/contracts/AddUsers.sol:AddUser",
						"label": "userInsuranceCount",
						"offset": 0,
						"slot": "1",
						"type": "t_mapping(t_address,t_int256)"
					},
					{
						"astId": 21,
						"contract": "Insurance Project(Solidit_REMIX)/contracts/AddUsers.sol:AddUser",
						"label": "userInsuranceNumbers",
						"offset": 0,
						"slot": "2",
						"type": "t_mapping(t_address,t_array(t_int256)dyn_storage)"
					},
					{
						"astId": 24,
						"contract": "Insurance Project(Solidit_REMIX)/contracts/AddUsers.sol:AddUser",
						"label": "userCount",
						"offset": 0,
						"slot": "3",
						"type": "t_int256"
					},
					{
						"astId": 38,
						"contract": "Insurance Project(Solidit_REMIX)/contracts/AddUsers.sol:AddUser",
						"label": "myUsers",
						"offset": 0,
						"slot": "4",
						"type": "t_mapping(t_address,t_struct(User)12_storage)"
					}
				],
				"types": {
					"t_address": {
						"encoding": "inplace",
						"label": "address",
						"numberOfBytes": "20"
					},
					"t_array(t_int256)dyn_storage": {
						"base": "t_int256",
						"encoding": "dynamic_array",
						"label": "int256[]",
						"numberOfBytes": "32"
					},
					"t_int256": {
						"encoding": "inplace",
						"label": "int256",
						"numberOfBytes": "32"
					},
					"t_mapping(t_address,t_array(t_int256)dyn_storage)": {
						"encoding": "mapping",
						"key": "t_address",
						"label": "mapping(address => int256[])",
						"numberOfBytes": "32",
						"value": "t_array(t_int256)dyn_storage"
					},
					"t_mapping(t_address,t_int256)": {
						"encoding": "mapping",
						"key": "t_address",
						"label": "mapping(address => int256)",
						"numberOfBytes": "32",
						"value": "t_int256"
					},
					"t_mapping(t_address,t_struct(User)12_storage)": {
						"encoding": "mapping",
						"key": "t_address",
						"label": "mapping(address => struct AddUser.User)",
						"numberOfBytes": "32",
						"value": "t_struct(User)12_storage"
					},
					"t_string_storage": {
						"encoding": "bytes",
						"label": "string",
						"numberOfBytes": "32"
					},
					"t_struct(User)12_storage": {
						"encoding": "inplace",
						"label": "struct AddUser.User",
						"members": [
							{
								"astId": 5,
								"contract": "Insurance Project(Solidit_REMIX)/contracts/AddUsers.sol:AddUser",
								"label": "userId",
								"offset": 0,
								"slot": "0",
								"type": "t_int256"
							},
							{
								"astId": 7,
								"contract": "Insurance Project(Solidit_REMIX)/contracts/AddUsers.sol:AddUser",
								"label": "name",
								"offset": 0,
								"slot": "1",
								"type": "t_string_storage"
							},
							{
								"astId": 9,
								"contract": "Insurance Project(Solidit_REMIX)/contracts/AddUsers.sol:AddUser",
								"label": "insuranceNo",
								"offset": 0,
								"slot": "2",
								"type": "t_int256"
							},
							{
								"astId": 11,
								"contract": "Insurance Project(Solidit_REMIX)/contracts/AddUsers.sol:AddUser",
								"label": "userAddress",
								"offset": 0,
								"slot": "3",
								"type": "t_address"
							}
						],
						"numberOfBytes": "128"
					}
				}
			},
			"userdoc": {
				"kind": "user",
				"methods": {},
				"version": 1
			}
		}
	}
}