{
	"data": {
		"bytecode": {
			"linkReferences": {},
			"object": "60806040525f6003553480156012575f5ffd5b50335f5f6101000a81548173ffffffffffffffffffffffffffffffffffffffff021916908373ffffffffffffffffffffffffffffffffffffffff1602179055506112388061005f5f395ff3fe608060405234801561000f575f5ffd5b5060043610610086575f3560e01c80639e8a8d6c116100595780639e8a8d6c146100fe578063a69f554d1461012e578063d0f86c9d1461015e578063f8cf1d191461018e57610086565b806307973ccf1461008a5780631c5220c2146100a85780636723e269146100c45780638da5cb5b146100e0575b5f5ffd5b6100926101c1565b60405161009f919061086a565b60405180910390f35b6100c260048036038101906100bd9190610a03565b6101c7565b005b6100de60048036038101906100d99190610a5d565b610354565b005b6100e861040a565b6040516100f59190610ac7565b60405180910390f35b61011860048036038101906101139190610b0a565b61042e565b6040516101259190610b44565b60405180910390f35b61014860048036038101906101439190610b0a565b610502565b6040516101559190610c14565b60405180910390f35b61017860048036038101906101739190610c5e565b610623565b6040516101859190610d67565b60405180910390f35b6101a860048036038101906101a39190610c5e565b610746565b6040516101b89493929190610dcf565b60405180910390f35b60035481565b600160035f8282546101d99190610e46565b92505081905550604051806080016040528060035481526020018381526020018281526020013373ffffffffffffffffffffffffffffffffffffffff1681525060045f60035481526020019081526020015f205f820151815f015560208201518160010190816102499190611084565b50604082015181600201556060820151816003015f6101000a81548173ffffffffffffffffffffffffffffffffffffffff021916908373ffffffffffffffffffffffffffffffffffffffff16021790555090505060025f3373ffffffffffffffffffffffffffffffffffffffff1673ffffffffffffffffffffffffffffffffffffffff1681526020019081526020015f2081908060018154018082558091505060019003905f5260205f20015f909190919091505560015f3373ffffffffffffffffffffffffffffffffffffffff1673ffffffffffffffffffffffffffffffffffffffff1681526020019081526020015f205f81548092919061034b90611153565b91905055505050565b60025f3373ffffffffffffffffffffffffffffffffffffffff1673ffffffffffffffffffffffffffffffffffffffff1681526020019081526020015f2081908060018154018082558091505060019003905f5260205f20015f909190919091505560015f3373ffffffffffffffffffffffffffffffffffffffff1673ffffffffffffffffffffffffffffffffffffffff1681526020019081526020015f205f81548092919061040290611153565b919050555050565b5f5f9054906101000a900473ffffffffffffffffffffffffffffffffffffffff1681565b5f3373ffffffffffffffffffffffffffffffffffffffff165f5f9054906101000a900473ffffffffffffffffffffffffffffffffffffffff1673ffffffffffffffffffffffffffffffffffffffff16146104bd576040517f08c379a00000000000000000000000000000000000000000000000000000000081526004016104b4906111e4565b60405180910390fd5b60015f8373ffffffffffffffffffffffffffffffffffffffff1673ffffffffffffffffffffffffffffffffffffffff1681526020019081526020015f20549050919050565b60603373ffffffffffffffffffffffffffffffffffffffff165f5f9054906101000a900473ffffffffffffffffffffffffffffffffffffffff1673ffffffffffffffffffffffffffffffffffffffff1614610592576040517f08c379a0000000000000000000000000000000000000000000000000000000008152600401610589906111e4565b60405180910390fd5b60025f8373ffffffffffffffffffffffffffffffffffffffff1673ffffffffffffffffffffffffffffffffffffffff1681526020019081526020015f2080548060200260200160405190810160405280929190818152602001828054801561061757602002820191905f5260205f20905b815481526020019060010190808311610603575b50505050509050919050565b61062b610817565b60045f8381526020019081526020015f206040518060800160405290815f820154815260200160018201805461066090610eb4565b80601f016020809104026020016040519081016040528092919081815260200182805461068c90610eb4565b80156106d75780601f106106ae576101008083540402835291602001916106d7565b820191905f5260205f20905b8154815290600101906020018083116106ba57829003601f168201915b5050505050815260200160028201548152602001600382015f9054906101000a900473ffffffffffffffffffffffffffffffffffffffff1673ffffffffffffffffffffffffffffffffffffffff1673ffffffffffffffffffffffffffffffffffffffff16815250509050919050565b6004602052805f5260405f205f91509050805f01549080600101805461076b90610eb4565b80601f016020809104026020016040519081016040528092919081815260200182805461079790610eb4565b80156107e25780601f106107b9576101008083540402835291602001916107e2565b820191905f5260205f20905b8154815290600101906020018083116107c557829003601f168201915b505050505090806002015490806003015f9054906101000a900473ffffffffffffffffffffffffffffffffffffffff16905084565b60405180608001604052805f8152602001606081526020015f81526020015f73ffffffffffffffffffffffffffffffffffffffff1681525090565b5f819050919050565b61086481610852565b82525050565b5f60208201905061087d5f83018461085b565b92915050565b5f604051905090565b5f5ffd5b5f5ffd5b5f5ffd5b5f5ffd5b5f601f19601f8301169050919050565b7f4e487b71000000000000000000000000000000000000000000000000000000005f52604160045260245ffd5b6108e28261089c565b810181811067ffffffffffffffff82111715610901576109006108ac565b5b80604052505050565b5f610913610883565b905061091f82826108d9565b919050565b5f67ffffffffffffffff82111561093e5761093d6108ac565b5b6109478261089c565b9050602081019050919050565b828183375f83830152505050565b5f61097461096f84610924565b61090a565b9050828152602081018484840111156109905761098f610898565b5b61099b848285610954565b509392505050565b5f82601f8301126109b7576109b6610894565b5b81356109c7848260208601610962565b91505092915050565b5f819050919050565b6109e2816109d0565b81146109ec575f5ffd5b50565b5f813590506109fd816109d9565b92915050565b5f5f60408385031215610a1957610a1861088c565b5b5f83013567ffffffffffffffff811115610a3657610a35610890565b5b610a42858286016109a3565b9250506020610a53858286016109ef565b9150509250929050565b5f60208284031215610a7257610a7161088c565b5b5f610a7f848285016109ef565b91505092915050565b5f73ffffffffffffffffffffffffffffffffffffffff82169050919050565b5f610ab182610a88565b9050919050565b610ac181610aa7565b82525050565b5f602082019050610ada5f830184610ab8565b92915050565b610ae981610aa7565b8114610af3575f5ffd5b50565b5f81359050610b0481610ae0565b92915050565b5f60208284031215610b1f57610b1e61088c565b5b5f610b2c84828501610af6565b91505092915050565b610b3e816109d0565b82525050565b5f602082019050610b575f830184610b35565b92915050565b5f81519050919050565b5f82825260208201905092915050565b5f819050602082019050919050565b610b8f816109d0565b82525050565b5f610ba08383610b86565b60208301905092915050565b5f602082019050919050565b5f610bc282610b5d565b610bcc8185610b67565b9350610bd783610b77565b805f5b83811015610c07578151610bee8882610b95565b9750610bf983610bac565b925050600181019050610bda565b5085935050505092915050565b5f6020820190508181035f830152610c2c8184610bb8565b905092915050565b610c3d81610852565b8114610c47575f5ffd5b50565b5f81359050610c5881610c34565b92915050565b5f60208284031215610c7357610c7261088c565b5b5f610c8084828501610c4a565b91505092915050565b610c9281610852565b82525050565b5f81519050919050565b5f82825260208201905092915050565b8281835e5f83830152505050565b5f610cca82610c98565b610cd48185610ca2565b9350610ce4818560208601610cb2565b610ced8161089c565b840191505092915050565b610d0181610aa7565b82525050565b5f608083015f830151610d1c5f860182610c89565b5060208301518482036020860152610d348282610cc0565b9150506040830151610d496040860182610b86565b506060830151610d5c6060860182610cf8565b508091505092915050565b5f6020820190508181035f830152610d7f8184610d07565b905092915050565b5f82825260208201905092915050565b5f610da182610c98565b610dab8185610d87565b9350610dbb818560208601610cb2565b610dc48161089c565b840191505092915050565b5f608082019050610de25f83018761085b565b8181036020830152610df48186610d97565b9050610e036040830185610b35565b610e106060830184610ab8565b95945050505050565b7f4e487b71000000000000000000000000000000000000000000000000000000005f52601160045260245ffd5b5f610e5082610852565b9150610e5b83610852565b92508282019050828112155f8312168382125f841215161715610e8157610e80610e19565b5b92915050565b7f4e487b71000000000000000000000000000000000000000000000000000000005f52602260045260245ffd5b5f6002820490506001821680610ecb57607f821691505b602082108103610ede57610edd610e87565b5b50919050565b5f819050815f5260205f209050919050565b5f6020601f8301049050919050565b5f82821b905092915050565b5f60088302610f407fffffffffffffffffffffffffffffffffffffffffffffffffffffffffffffffff82610f05565b610f4a8683610f05565b95508019841693508086168417925050509392505050565b5f819050919050565b5f610f85610f80610f7b846109d0565b610f62565b6109d0565b9050919050565b5f819050919050565b610f9e83610f6b565b610fb2610faa82610f8c565b848454610f11565b825550505050565b5f5f905090565b610fc9610fba565b610fd4818484610f95565b505050565b5b81811015610ff757610fec5f82610fc1565b600181019050610fda565b5050565b601f82111561103c5761100d81610ee4565b61101684610ef6565b81016020851015611025578190505b61103961103185610ef6565b830182610fd9565b50505b505050565b5f82821c905092915050565b5f61105c5f1984600802611041565b1980831691505092915050565b5f611074838361104d565b9150826002028217905092915050565b61108d82610c98565b67ffffffffffffffff8111156110a6576110a56108ac565b5b6110b08254610eb4565b6110bb828285610ffb565b5f60209050601f8311600181146110ec575f84156110da578287015190505b6110e48582611069565b86555061114b565b601f1984166110fa86610ee4565b5f5b82811015611121578489015182556001820191506020850194506020810190506110fc565b8683101561113e578489015161113a601f89168261104d565b8355505b6001600288020188555050505b505050505050565b5f61115d826109d0565b91507fffffffffffffffffffffffffffffffffffffffffffffffffffffffffffffffff820361118f5761118e610e19565b5b600182019050919050565b7f4f6e6c79204f776e65722048617320612041636365737320746f2054686973205f82015250565b5f6111ce602083610d87565b91506111d98261119a565b602082019050919050565b5f6020820190508181035f8301526111fb816111c2565b905091905056fea2646970667358221220bdba9d3a8794a4906398a6437a1a57836ef853933438e8ded5dfab67fb3559ae64736f6c634300081c0033",
			"opcodes": "PUSH1 0x80 PUSH1 0x40 MSTORE PUSH0 PUSH1 0x3 SSTORE CALLVALUE DUP1 ISZERO PUSH1 0x12 JUMPI PUSH0 PUSH0 REVERT JUMPDEST POP CALLER PUSH0 PUSH0 PUSH2 0x100 EXP DUP2 SLOAD DUP2 PUSH20 0xFFFFFFFFFFFFFFFFFFFFFFFFFFFFFFFFFFFFFFFF MUL NOT AND SWAP1 DUP4 PUSH20 0xFFFFFFFFFFFFFFFFFFFFFFFFFFFFFFFFFFFFFFFF AND MUL OR SWAP1 SSTORE POP PUSH2 0x1238 DUP1 PUSH2 0x5F PUSH0 CODECOPY PUSH0 RETURN INVALID PUSH1 0x80 PUSH1 0x40 MSTORE CALLVALUE DUP1 ISZERO PUSH2 0xF JUMPI PUSH0 PUSH0 REVERT JUMPDEST POP PUSH1 0x4 CALLDATASIZE LT PUSH2 0x86 JUMPI PUSH0 CALLDATALOAD PUSH1 0xE0 SHR DUP1 PUSH4 0x9E8A8D6C GT PUSH2 0x59 JUMPI DUP1 PUSH4 0x9E8A8D6C EQ PUSH2 0xFE JUMPI DUP1 PUSH4 0xA69F554D EQ PUSH2 0x12E JUMPI DUP1 PUSH4 0xD0F86C9D EQ PUSH2 0x15E JUMPI DUP1 PUSH4 0xF8CF1D19 EQ PUSH2 0x18E JUMPI PUSH2 0x86 JUMP JUMPDEST DUP1 PUSH4 0x7973CCF EQ PUSH2 0x8A JUMPI DUP1 PUSH4 0x1C5220C2 EQ PUSH2 0xA8 JUMPI DUP1 PUSH4 0x6723E269 EQ PUSH2 0xC4 JUMPI DUP1 PUSH4 0x8DA5CB5B EQ PUSH2 0xE0 JUMPI JUMPDEST PUSH0 PUSH0 REVERT JUMPDEST PUSH2 0x92 PUSH2 0x1C1 JUMP JUMPDEST PUSH1 0x40 MLOAD PUSH2 0x9F SWAP2 SWAP1 PUSH2 0x86A JUMP JUMPDEST PUSH1 0x40 MLOAD DUP1 SWAP2 SUB SWAP1 RETURN JUMPDEST PUSH2 0xC2 PUSH1 0x4 DUP1 CALLDATASIZE SUB DUP2 ADD SWAP1 PUSH2 0xBD SWAP2 SWAP1 PUSH2 0xA03 JUMP JUMPDEST PUSH2 0x1C7 JUMP JUMPDEST STOP JUMPDEST PUSH2 0xDE PUSH1 0x4 DUP1 CALLDATASIZE SUB DUP2 ADD SWAP1 PUSH2 0xD9 SWAP2 SWAP1 PUSH2 0xA5D JUMP JUMPDEST PUSH2 0x354 JUMP JUMPDEST STOP JUMPDEST PUSH2 0xE8 PUSH2 0x40A JUMP JUMPDEST PUSH1 0x40 MLOAD PUSH2 0xF5 SWAP2 SWAP1 PUSH2 0xAC7 JUMP JUMPDEST PUSH1 0x40 MLOAD DUP1 SWAP2 SUB SWAP1 RETURN JUMPDEST PUSH2 0x118 PUSH1 0x4 DUP1 CALLDATASIZE SUB DUP2 ADD SWAP1 PUSH2 0x113 SWAP2 SWAP1 PUSH2 0xB0A JUMP JUMPDEST PUSH2 0x42E JUMP JUMPDEST PUSH1 0x40 MLOAD PUSH2 0x125 SWAP2 SWAP1 PUSH2 0xB44 JUMP JUMPDEST PUSH1 0x40 MLOAD DUP1 SWAP2 SUB SWAP1 RETURN JUMPDEST PUSH2 0x148 PUSH1 0x4 DUP1 CALLDATASIZE SUB DUP2 ADD SWAP1 PUSH2 0x143 SWAP2 SWAP1 PUSH2 0xB0A JUMP JUMPDEST PUSH2 0x502 JUMP JUMPDEST PUSH1 0x40 MLOAD PUSH2 0x155 SWAP2 SWAP1 PUSH2 0xC14 JUMP JUMPDEST PUSH1 0x40 MLOAD DUP1 SWAP2 SUB SWAP1 RETURN JUMPDEST PUSH2 0x178 PUSH1 0x4 DUP1 CALLDATASIZE SUB DUP2 ADD SWAP1 PUSH2 0x173 SWAP2 SWAP1 PUSH2 0xC5E JUMP JUMPDEST PUSH2 0x623 JUMP JUMPDEST PUSH1 0x40 MLOAD PUSH2 0x185 SWAP2 SWAP1 PUSH2 0xD67 JUMP JUMPDEST PUSH1 0x40 MLOAD DUP1 SWAP2 SUB SWAP1 RETURN JUMPDEST PUSH2 0x1A8 PUSH1 0x4 DUP1 CALLDATASIZE SUB DUP2 ADD SWAP1 PUSH2 0x1A3 SWAP2 SWAP1 PUSH2 0xC5E JUMP JUMPDEST PUSH2 0x746 JUMP JUMPDEST PUSH1 0x40 MLOAD PUSH2 0x1B8 SWAP5 SWAP4 SWAP3 SWAP2 SWAP1 PUSH2 0xDCF JUMP JUMPDEST PUSH1 0x40 MLOAD DUP1 SWAP2 SUB SWAP1 RETURN JUMPDEST PUSH1 0x3 SLOAD DUP2 JUMP JUMPDEST PUSH1 0x1 PUSH1 0x3 PUSH0 DUP3 DUP3 SLOAD PUSH2 0x1D9 SWAP2 SWAP1 PUSH2 0xE46 JUMP JUMPDEST SWAP3 POP POP DUP2 SWAP1 SSTORE POP PUSH1 0x40 MLOAD DUP1 PUSH1 0x80 ADD PUSH1 0x40 MSTORE DUP1 PUSH1 0x3 SLOAD DUP2 MSTORE PUSH1 0x20 ADD DUP4 DUP2 MSTORE PUSH1 0x20 ADD DUP3 DUP2 MSTORE PUSH1 0x20 ADD CALLER PUSH20 0xFFFFFFFFFFFFFFFFFFFFFFFFFFFFFFFFFFFFFFFF AND DUP2 MSTORE POP PUSH1 0x4 PUSH0 PUSH1 0x3 SLOAD DUP2 MSTORE PUSH1 0x20 ADD SWAP1 DUP2 MSTORE PUSH1 0x20 ADD PUSH0 KECCAK256 PUSH0 DUP3 ADD MLOAD DUP2 PUSH0 ADD SSTORE PUSH1 0x20 DUP3 ADD MLOAD DUP2 PUSH1 0x1 ADD SWAP1 DUP2 PUSH2 0x249 SWAP2 SWAP1 PUSH2 0x1084 JUMP JUMPDEST POP PUSH1 0x40 DUP3 ADD MLOAD DUP2 PUSH1 0x2 ADD SSTORE PUSH1 0x60 DUP3 ADD MLOAD DUP2 PUSH1 0x3 ADD PUSH0 PUSH2 0x100 EXP DUP2 SLOAD DUP2 PUSH20 0xFFFFFFFFFFFFFFFFFFFFFFFFFFFFFFFFFFFFFFFF MUL NOT AND SWAP1 DUP4 PUSH20 0xFFFFFFFFFFFFFFFFFFFFFFFFFFFFFFFFFFFFFFFF AND MUL OR SWAP1 SSTORE POP SWAP1 POP POP PUSH1 0x2 PUSH0 CALLER PUSH20 0xFFFFFFFFFFFFFFFFFFFFFFFFFFFFFFFFFFFFFFFF AND PUSH20 0xFFFFFFFFFFFFFFFFFFFFFFFFFFFFFFFFFFFFFFFF AND DUP2 MSTORE PUSH1 0x20 ADD SWAP1 DUP2 MSTORE PUSH1 0x20 ADD PUSH0 KECCAK256 DUP2 SWAP1 DUP1 PUSH1 0x1 DUP2 SLOAD ADD DUP1 DUP3 SSTORE DUP1 SWAP2 POP POP PUSH1 0x1 SWAP1 SUB SWAP1 PUSH0 MSTORE PUSH1 0x20 PUSH0 KECCAK256 ADD PUSH0 SWAP1 SWAP2 SWAP1 SWAP2 SWAP1 SWAP2 POP SSTORE PUSH1 0x1 PUSH0 CALLER PUSH20 0xFFFFFFFFFFFFFFFFFFFFFFFFFFFFFFFFFFFFFFFF AND PUSH20 0xFFFFFFFFFFFFFFFFFFFFFFFFFFFFFFFFFFFFFFFF AND DUP2 MSTORE PUSH1 0x20 ADD SWAP1 DUP2 MSTORE PUSH1 0x20 ADD PUSH0 KECCAK256 PUSH0 DUP2 SLOAD DUP1 SWAP3 SWAP2 SWAP1 PUSH2 0x34B SWAP1 PUSH2 0x1153 JUMP JUMPDEST SWAP2 SWAP1 POP SSTORE POP POP POP JUMP JUMPDEST PUSH1 0x2 PUSH0 CALLER PUSH20 0xFFFFFFFFFFFFFFFFFFFFFFFFFFFFFFFFFFFFFFFF AND PUSH20 0xFFFFFFFFFFFFFFFFFFFFFFFFFFFFFFFFFFFFFFFF AND DUP2 MSTORE PUSH1 0x20 ADD SWAP1 DUP2 MSTORE PUSH1 0x20 ADD PUSH0 KECCAK256 DUP2 SWAP1 DUP1 PUSH1 0x1 DUP2 SLOAD ADD DUP1 DUP3 SSTORE DUP1 SWAP2 POP POP PUSH1 0x1 SWAP1 SUB SWAP1 PUSH0 MSTORE PUSH1 0x20 PUSH0 KECCAK256 ADD PUSH0 SWAP1 SWAP2 SWAP1 SWAP2 SWAP1 SWAP2 POP SSTORE PUSH1 0x1 PUSH0 CALLER PUSH20 0xFFFFFFFFFFFFFFFFFFFFFFFFFFFFFFFFFFFFFFFF AND PUSH20 0xFFFFFFFFFFFFFFFFFFFFFFFFFFFFFFFFFFFFFFFF AND DUP2 MSTORE PUSH1 0x20 ADD SWAP1 DUP2 MSTORE PUSH1 0x20 ADD PUSH0 KECCAK256 PUSH0 DUP2 SLOAD DUP1 SWAP3 SWAP2 SWAP1 PUSH2 0x402 SWAP1 PUSH2 0x1153 JUMP JUMPDEST SWAP2 SWAP1 POP SSTORE POP POP JUMP JUMPDEST PUSH0 PUSH0 SWAP1 SLOAD SWAP1 PUSH2 0x100 EXP SWAP1 DIV PUSH20 0xFFFFFFFFFFFFFFFFFFFFFFFFFFFFFFFFFFFFFFFF AND DUP2 JUMP JUMPDEST PUSH0 CALLER PUSH20 0xFFFFFFFFFFFFFFFFFFFFFFFFFFFFFFFFFFFFFFFF AND PUSH0 PUSH0 SWAP1 SLOAD SWAP1 PUSH2 0x100 EXP SWAP1 DIV PUSH20 0xFFFFFFFFFFFFFFFFFFFFFFFFFFFFFFFFFFFFFFFF AND PUSH20 0xFFFFFFFFFFFFFFFFFFFFFFFFFFFFFFFFFFFFFFFF AND EQ PUSH2 0x4BD JUMPI PUSH1 0x40 MLOAD PUSH32 0x8C379A000000000000000000000000000000000000000000000000000000000 DUP2 MSTORE PUSH1 0x4 ADD PUSH2 0x4B4 SWAP1 PUSH2 0x11E4 JUMP JUMPDEST PUSH1 0x40 MLOAD DUP1 SWAP2 SUB SWAP1 REVERT JUMPDEST PUSH1 0x1 PUSH0 DUP4 PUSH20 0xFFFFFFFFFFFFFFFFFFFFFFFFFFFFFFFFFFFFFFFF AND PUSH20 0xFFFFFFFFFFFFFFFFFFFFFFFFFFFFFFFFFFFFFFFF AND DUP2 MSTORE PUSH1 0x20 ADD SWAP1 DUP2 MSTORE PUSH1 0x20 ADD PUSH0 KECCAK256 SLOAD SWAP1 POP SWAP2 SWAP1 POP JUMP JUMPDEST PUSH1 0x60 CALLER PUSH20 0xFFFFFFFFFFFFFFFFFFFFFFFFFFFFFFFFFFFFFFFF AND PUSH0 PUSH0 SWAP1 SLOAD SWAP1 PUSH2 0x100 EXP SWAP1 DIV PUSH20 0xFFFFFFFFFFFFFFFFFFFFFFFFFFFFFFFFFFFFFFFF AND PUSH20 0xFFFFFFFFFFFFFFFFFFFFFFFFFFFFFFFFFFFFFFFF AND EQ PUSH2 0x592 JUMPI PUSH1 0x40 MLOAD PUSH32 0x8C379A000000000000000000000000000000000000000000000000000000000 DUP2 MSTORE PUSH1 0x4 ADD PUSH2 0x589 SWAP1 PUSH2 0x11E4 JUMP JUMPDEST PUSH1 0x40 MLOAD DUP1 SWAP2 SUB SWAP1 REVERT JUMPDEST PUSH1 0x2 PUSH0 DUP4 PUSH20 0xFFFFFFFFFFFFFFFFFFFFFFFFFFFFFFFFFFFFFFFF AND PUSH20 0xFFFFFFFFFFFFFFFFFFFFFFFFFFFFFFFFFFFFFFFF AND DUP2 MSTORE PUSH1 0x20 ADD SWAP1 DUP2 MSTORE PUSH1 0x20 ADD PUSH0 KECCAK256 DUP1 SLOAD DUP1 PUSH1 0x20 MUL PUSH1 0x20 ADD PUSH1 0x40 MLOAD SWAP1 DUP2 ADD PUSH1 0x40 MSTORE DUP1 SWAP3 SWAP2 SWAP1 DUP2 DUP2 MSTORE PUSH1 0x20 ADD DUP3 DUP1 SLOAD DUP1 ISZERO PUSH2 0x617 JUMPI PUSH1 0x20 MUL DUP3 ADD SWAP2 SWAP1 PUSH0 MSTORE PUSH1 0x20 PUSH0 KECCAK256 SWAP1 JUMPDEST DUP2 SLOAD DUP2 MSTORE PUSH1 0x20 ADD SWAP1 PUSH1 0x1 ADD SWAP1 DUP1 DUP4 GT PUSH2 0x603 JUMPI JUMPDEST POP POP POP POP POP SWAP1 POP SWAP2 SWAP1 POP JUMP JUMPDEST PUSH2 0x62B PUSH2 0x817 JUMP JUMPDEST PUSH1 0x4 PUSH0 DUP4 DUP2 MSTORE PUSH1 0x20 ADD SWAP1 DUP2 MSTORE PUSH1 0x20 ADD PUSH0 KECCAK256 PUSH1 0x40 MLOAD DUP1 PUSH1 0x80 ADD PUSH1 0x40 MSTORE SWAP1 DUP2 PUSH0 DUP3 ADD SLOAD DUP2 MSTORE PUSH1 0x20 ADD PUSH1 0x1 DUP3 ADD DUP1 SLOAD PUSH2 0x660 SWAP1 PUSH2 0xEB4 JUMP JUMPDEST DUP1 PUSH1 0x1F ADD PUSH1 0x20 DUP1 SWAP2 DIV MUL PUSH1 0x20 ADD PUSH1 0x40 MLOAD SWAP1 DUP2 ADD PUSH1 0x40 MSTORE DUP1 SWAP3 SWAP2 SWAP1 DUP2 DUP2 MSTORE PUSH1 0x20 ADD DUP3 DUP1 SLOAD PUSH2 0x68C SWAP1 PUSH2 0xEB4 JUMP JUMPDEST DUP1 ISZERO PUSH2 0x6D7 JUMPI DUP1 PUSH1 0x1F LT PUSH2 0x6AE JUMPI PUSH2 0x100 DUP1 DUP4 SLOAD DIV MUL DUP4 MSTORE SWAP2 PUSH1 0x20 ADD SWAP2 PUSH2 0x6D7 JUMP JUMPDEST DUP3 ADD SWAP2 SWAP1 PUSH0 MSTORE PUSH1 0x20 PUSH0 KECCAK256 SWAP1 JUMPDEST DUP2 SLOAD DUP2 MSTORE SWAP1 PUSH1 0x1 ADD SWAP1 PUSH1 0x20 ADD DUP1 DUP4 GT PUSH2 0x6BA JUMPI DUP3 SWAP1 SUB PUSH1 0x1F AND DUP3 ADD SWAP2 JUMPDEST POP POP POP POP POP DUP2 MSTORE PUSH1 0x20 ADD PUSH1 0x2 DUP3 ADD SLOAD DUP2 MSTORE PUSH1 0x20 ADD PUSH1 0x3 DUP3 ADD PUSH0 SWAP1 SLOAD SWAP1 PUSH2 0x100 EXP SWAP1 DIV PUSH20 0xFFFFFFFFFFFFFFFFFFFFFFFFFFFFFFFFFFFFFFFF AND PUSH20 0xFFFFFFFFFFFFFFFFFFFFFFFFFFFFFFFFFFFFFFFF AND PUSH20 0xFFFFFFFFFFFFFFFFFFFFFFFFFFFFFFFFFFFFFFFF AND DUP2 MSTORE POP POP SWAP1 POP SWAP2 SWAP1 POP JUMP JUMPDEST PUSH1 0x4 PUSH1 0x20 MSTORE DUP1 PUSH0 MSTORE PUSH1 0x40 PUSH0 KECCAK256 PUSH0 SWAP2 POP SWAP1 POP DUP1 PUSH0 ADD SLOAD SWAP1 DUP1 PUSH1 0x1 ADD DUP1 SLOAD PUSH2 0x76B SWAP1 PUSH2 0xEB4 JUMP JUMPDEST DUP1 PUSH1 0x1F ADD PUSH1 0x20 DUP1 SWAP2 DIV MUL PUSH1 0x20 ADD PUSH1 0x40 MLOAD SWAP1 DUP2 ADD PUSH1 0x40 MSTORE DUP1 SWAP3 SWAP2 SWAP1 DUP2 DUP2 MSTORE PUSH1 0x20 ADD DUP3 DUP1 SLOAD PUSH2 0x797 SWAP1 PUSH2 0xEB4 JUMP JUMPDEST DUP1 ISZERO PUSH2 0x7E2 JUMPI DUP1 PUSH1 0x1F LT PUSH2 0x7B9 JUMPI PUSH2 0x100 DUP1 DUP4 SLOAD DIV MUL DUP4 MSTORE SWAP2 PUSH1 0x20 ADD SWAP2 PUSH2 0x7E2 JUMP JUMPDEST DUP3 ADD SWAP2 SWAP1 PUSH0 MSTORE PUSH1 0x20 PUSH0 KECCAK256 SWAP1 JUMPDEST DUP2 SLOAD DUP2 MSTORE SWAP1 PUSH1 0x1 ADD SWAP1 PUSH1 0x20 ADD DUP1 DUP4 GT PUSH2 0x7C5 JUMPI DUP3 SWAP1 SUB PUSH1 0x1F AND DUP3 ADD SWAP2 JUMPDEST POP POP POP POP POP SWAP1 DUP1 PUSH1 0x2 ADD SLOAD SWAP1 DUP1 PUSH1 0x3 ADD PUSH0 SWAP1 SLOAD SWAP1 PUSH2 0x100 EXP SWAP1 DIV PUSH20 0xFFFFFFFFFFFFFFFFFFFFFFFFFFFFFFFFFFFFFFFF AND SWAP1 POP DUP5 JUMP JUMPDEST PUSH1 0x40 MLOAD DUP1 PUSH1 0x80 ADD PUSH1 0x40 MSTORE DUP1 PUSH0 DUP2 MSTORE PUSH1 0x20 ADD PUSH1 0x60 DUP2 MSTORE PUSH1 0x20 ADD PUSH0 DUP2 MSTORE PUSH1 0x20 ADD PUSH0 PUSH20 0xFFFFFFFFFFFFFFFFFFFFFFFFFFFFFFFFFFFFFFFF AND DUP2 MSTORE POP SWAP1 JUMP JUMPDEST PUSH0 DUP2 SWAP1 POP SWAP2 SWAP1 POP JUMP JUMPDEST PUSH2 0x864 DUP2 PUSH2 0x852 JUMP JUMPDEST DUP3 MSTORE POP POP JUMP JUMPDEST PUSH0 PUSH1 0x20 DUP3 ADD SWAP1 POP PUSH2 0x87D PUSH0 DUP4 ADD DUP5 PUSH2 0x85B JUMP JUMPDEST SWAP3 SWAP2 POP POP JUMP JUMPDEST PUSH0 PUSH1 0x40 MLOAD SWAP1 POP SWAP1 JUMP JUMPDEST PUSH0 PUSH0 REVERT JUMPDEST PUSH0 PUSH0 REVERT JUMPDEST PUSH0 PUSH0 REVERT JUMPDEST PUSH0 PUSH0 REVERT JUMPDEST PUSH0 PUSH1 0x1F NOT PUSH1 0x1F DUP4 ADD AND SWAP1 POP SWAP2 SWAP1 POP JUMP JUMPDEST PUSH32 0x4E487B7100000000000000000000000000000000000000000000000000000000 PUSH0 MSTORE PUSH1 0x41 PUSH1 0x4 MSTORE PUSH1 0x24 PUSH0 REVERT JUMPDEST PUSH2 0x8E2 DUP3 PUSH2 0x89C JUMP JUMPDEST DUP2 ADD DUP2 DUP2 LT PUSH8 0xFFFFFFFFFFFFFFFF DUP3 GT OR ISZERO PUSH2 0x901 JUMPI PUSH2 0x900 PUSH2 0x8AC JUMP JUMPDEST JUMPDEST DUP1 PUSH1 0x40 MSTORE POP POP POP JUMP JUMPDEST PUSH0 PUSH2 0x913 PUSH2 0x883 JUMP JUMPDEST SWAP1 POP PUSH2 0x91F DUP3 DUP3 PUSH2 0x8D9 JUMP JUMPDEST SWAP2 SWAP1 POP JUMP JUMPDEST PUSH0 PUSH8 0xFFFFFFFFFFFFFFFF DUP3 GT ISZERO PUSH2 0x93E JUMPI PUSH2 0x93D PUSH2 0x8AC JUMP JUMPDEST JUMPDEST PUSH2 0x947 DUP3 PUSH2 0x89C JUMP JUMPDEST SWAP1 POP PUSH1 0x20 DUP2 ADD SWAP1 POP SWAP2 SWAP1 POP JUMP JUMPDEST DUP3 DUP2 DUP4 CALLDATACOPY PUSH0 DUP4 DUP4 ADD MSTORE POP POP POP JUMP JUMPDEST PUSH0 PUSH2 0x974 PUSH2 0x96F DUP5 PUSH2 0x924 JUMP JUMPDEST PUSH2 0x90A JUMP JUMPDEST SWAP1 POP DUP3 DUP2 MSTORE PUSH1 0x20 DUP2 ADD DUP5 DUP5 DUP5 ADD GT ISZERO PUSH2 0x990 JUMPI PUSH2 0x98F PUSH2 0x898 JUMP JUMPDEST JUMPDEST PUSH2 0x99B DUP5 DUP3 DUP6 PUSH2 0x954 JUMP JUMPDEST POP SWAP4 SWAP3 POP POP POP JUMP JUMPDEST PUSH0 DUP3 PUSH1 0x1F DUP4 ADD SLT PUSH2 0x9B7 JUMPI PUSH2 0x9B6 PUSH2 0x894 JUMP JUMPDEST JUMPDEST DUP2 CALLDATALOAD PUSH2 0x9C7 DUP5 DUP3 PUSH1 0x20 DUP7 ADD PUSH2 0x962 JUMP JUMPDEST SWAP2 POP POP SWAP3 SWAP2 POP POP JUMP JUMPDEST PUSH0 DUP2 SWAP1 POP SWAP2 SWAP1 POP JUMP JUMPDEST PUSH2 0x9E2 DUP2 PUSH2 0x9D0 JUMP JUMPDEST DUP2 EQ PUSH2 0x9EC JUMPI PUSH0 PUSH0 REVERT JUMPDEST POP JUMP JUMPDEST PUSH0 DUP2 CALLDATALOAD SWAP1 POP PUSH2 0x9FD DUP2 PUSH2 0x9D9 JUMP JUMPDEST SWAP3 SWAP2 POP POP JUMP JUMPDEST PUSH0 PUSH0 PUSH1 0x40 DUP4 DUP6 SUB SLT ISZERO PUSH2 0xA19 JUMPI PUSH2 0xA18 PUSH2 0x88C JUMP JUMPDEST JUMPDEST PUSH0 DUP4 ADD CALLDATALOAD PUSH8 0xFFFFFFFFFFFFFFFF DUP2 GT ISZERO PUSH2 0xA36 JUMPI PUSH2 0xA35 PUSH2 0x890 JUMP JUMPDEST JUMPDEST PUSH2 0xA42 DUP6 DUP3 DUP7 ADD PUSH2 0x9A3 JUMP JUMPDEST SWAP3 POP POP PUSH1 0x20 PUSH2 0xA53 DUP6 DUP3 DUP7 ADD PUSH2 0x9EF JUMP JUMPDEST SWAP2 POP POP SWAP3 POP SWAP3 SWAP1 POP JUMP JUMPDEST PUSH0 PUSH1 0x20 DUP3 DUP5 SUB SLT ISZERO PUSH2 0xA72 JUMPI PUSH2 0xA71 PUSH2 0x88C JUMP JUMPDEST JUMPDEST PUSH0 PUSH2 0xA7F DUP5 DUP3 DUP6 ADD PUSH2 0x9EF JUMP JUMPDEST SWAP2 POP POP SWAP3 SWAP2 POP POP JUMP JUMPDEST PUSH0 PUSH20 0xFFFFFFFFFFFFFFFFFFFFFFFFFFFFFFFFFFFFFFFF DUP3 AND SWAP1 POP SWAP2 SWAP1 POP JUMP JUMPDEST PUSH0 PUSH2 0xAB1 DUP3 PUSH2 0xA88 JUMP JUMPDEST SWAP1 POP SWAP2 SWAP1 POP JUMP JUMPDEST PUSH2 0xAC1 DUP2 PUSH2 0xAA7 JUMP JUMPDEST DUP3 MSTORE POP POP JUMP JUMPDEST PUSH0 PUSH1 0x20 DUP3 ADD SWAP1 POP PUSH2 0xADA PUSH0 DUP4 ADD DUP5 PUSH2 0xAB8 JUMP JUMPDEST SWAP3 SWAP2 POP POP JUMP JUMPDEST PUSH2 0xAE9 DUP2 PUSH2 0xAA7 JUMP JUMPDEST DUP2 EQ PUSH2 0xAF3 JUMPI PUSH0 PUSH0 REVERT JUMPDEST POP JUMP JUMPDEST PUSH0 DUP2 CALLDATALOAD SWAP1 POP PUSH2 0xB04 DUP2 PUSH2 0xAE0 JUMP JUMPDEST SWAP3 SWAP2 POP POP JUMP JUMPDEST PUSH0 PUSH1 0x20 DUP3 DUP5 SUB SLT ISZERO PUSH2 0xB1F JUMPI PUSH2 0xB1E PUSH2 0x88C JUMP JUMPDEST JUMPDEST PUSH0 PUSH2 0xB2C DUP5 DUP3 DUP6 ADD PUSH2 0xAF6 JUMP JUMPDEST SWAP2 POP POP SWAP3 SWAP2 POP POP JUMP JUMPDEST PUSH2 0xB3E DUP2 PUSH2 0x9D0 JUMP JUMPDEST DUP3 MSTORE POP POP JUMP JUMPDEST PUSH0 PUSH1 0x20 DUP3 ADD SWAP1 POP PUSH2 0xB57 PUSH0 DUP4 ADD DUP5 PUSH2 0xB35 JUMP JUMPDEST SWAP3 SWAP2 POP POP JUMP JUMPDEST PUSH0 DUP2 MLOAD SWAP1 POP SWAP2 SWAP1 POP JUMP JUMPDEST PUSH0 DUP3 DUP3 MSTORE PUSH1 0x20 DUP3 ADD SWAP1 POP SWAP3 SWAP2 POP POP JUMP JUMPDEST PUSH0 DUP2 SWAP1 POP PUSH1 0x20 DUP3 ADD SWAP1 POP SWAP2 SWAP1 POP JUMP JUMPDEST PUSH2 0xB8F DUP2 PUSH2 0x9D0 JUMP JUMPDEST DUP3 MSTORE POP POP JUMP JUMPDEST PUSH0 PUSH2 0xBA0 DUP4 DUP4 PUSH2 0xB86 JUMP JUMPDEST PUSH1 0x20 DUP4 ADD SWAP1 POP SWAP3 SWAP2 POP POP JUMP JUMPDEST PUSH0 PUSH1 0x20 DUP3 ADD SWAP1 POP SWAP2 SWAP1 POP JUMP JUMPDEST PUSH0 PUSH2 0xBC2 DUP3 PUSH2 0xB5D JUMP JUMPDEST PUSH2 0xBCC DUP2 DUP6 PUSH2 0xB67 JUMP JUMPDEST SWAP4 POP PUSH2 0xBD7 DUP4 PUSH2 0xB77 JUMP JUMPDEST DUP1 PUSH0 JUMPDEST DUP4 DUP2 LT ISZERO PUSH2 0xC07 JUMPI DUP2 MLOAD PUSH2 0xBEE DUP9 DUP3 PUSH2 0xB95 JUMP JUMPDEST SWAP8 POP PUSH2 0xBF9 DUP4 PUSH2 0xBAC JUMP JUMPDEST SWAP3 POP POP PUSH1 0x1 DUP2 ADD SWAP1 POP PUSH2 0xBDA JUMP JUMPDEST POP DUP6 SWAP4 POP POP POP POP SWAP3 SWAP2 POP POP JUMP JUMPDEST PUSH0 PUSH1 0x20 DUP3 ADD SWAP1 POP DUP2 DUP2 SUB PUSH0 DUP4 ADD MSTORE PUSH2 0xC2C DUP2 DUP5 PUSH2 0xBB8 JUMP JUMPDEST SWAP1 POP SWAP3 SWAP2 POP POP JUMP JUMPDEST PUSH2 0xC3D DUP2 PUSH2 0x852 JUMP JUMPDEST DUP2 EQ PUSH2 0xC47 JUMPI PUSH0 PUSH0 REVERT JUMPDEST POP JUMP JUMPDEST PUSH0 DUP2 CALLDATALOAD SWAP1 POP PUSH2 0xC58 DUP2 PUSH2 0xC34 JUMP JUMPDEST SWAP3 SWAP2 POP POP JUMP JUMPDEST PUSH0 PUSH1 0x20 DUP3 DUP5 SUB SLT ISZERO PUSH2 0xC73 JUMPI PUSH2 0xC72 PUSH2 0x88C JUMP JUMPDEST JUMPDEST PUSH0 PUSH2 0xC80 DUP5 DUP3 DUP6 ADD PUSH2 0xC4A JUMP JUMPDEST SWAP2 POP POP SWAP3 SWAP2 POP POP JUMP JUMPDEST PUSH2 0xC92 DUP2 PUSH2 0x852 JUMP JUMPDEST DUP3 MSTORE POP POP JUMP JUMPDEST PUSH0 DUP2 MLOAD SWAP1 POP SWAP2 SWAP1 POP JUMP JUMPDEST PUSH0 DUP3 DUP3 MSTORE PUSH1 0x20 DUP3 ADD SWAP1 POP SWAP3 SWAP2 POP POP JUMP JUMPDEST DUP3 DUP2 DUP4 MCOPY PUSH0 DUP4 DUP4 ADD MSTORE POP POP POP JUMP JUMPDEST PUSH0 PUSH2 0xCCA DUP3 PUSH2 0xC98 JUMP JUMPDEST PUSH2 0xCD4 DUP2 DUP6 PUSH2 0xCA2 JUMP JUMPDEST SWAP4 POP PUSH2 0xCE4 DUP2 DUP6 PUSH1 0x20 DUP7 ADD PUSH2 0xCB2 JUMP JUMPDEST PUSH2 0xCED DUP2 PUSH2 0x89C JUMP JUMPDEST DUP5 ADD SWAP2 POP POP SWAP3 SWAP2 POP POP JUMP JUMPDEST PUSH2 0xD01 DUP2 PUSH2 0xAA7 JUMP JUMPDEST DUP3 MSTORE POP POP JUMP JUMPDEST PUSH0 PUSH1 0x80 DUP4 ADD PUSH0 DUP4 ADD MLOAD PUSH2 0xD1C PUSH0 DUP7 ADD DUP3 PUSH2 0xC89 JUMP JUMPDEST POP PUSH1 0x20 DUP4 ADD MLOAD DUP5 DUP3 SUB PUSH1 0x20 DUP7 ADD MSTORE PUSH2 0xD34 DUP3 DUP3 PUSH2 0xCC0 JUMP JUMPDEST SWAP2 POP POP PUSH1 0x40 DUP4 ADD MLOAD PUSH2 0xD49 PUSH1 0x40 DUP7 ADD DUP3 PUSH2 0xB86 JUMP JUMPDEST POP PUSH1 0x60 DUP4 ADD MLOAD PUSH2 0xD5C PUSH1 0x60 DUP7 ADD DUP3 PUSH2 0xCF8 JUMP JUMPDEST POP DUP1 SWAP2 POP POP SWAP3 SWAP2 POP POP JUMP JUMPDEST PUSH0 PUSH1 0x20 DUP3 ADD SWAP1 POP DUP2 DUP2 SUB PUSH0 DUP4 ADD MSTORE PUSH2 0xD7F DUP2 DUP5 PUSH2 0xD07 JUMP JUMPDEST SWAP1 POP SWAP3 SWAP2 POP POP JUMP JUMPDEST PUSH0 DUP3 DUP3 MSTORE PUSH1 0x20 DUP3 ADD SWAP1 POP SWAP3 SWAP2 POP POP JUMP JUMPDEST PUSH0 PUSH2 0xDA1 DUP3 PUSH2 0xC98 JUMP JUMPDEST PUSH2 0xDAB DUP2 DUP6 PUSH2 0xD87 JUMP JUMPDEST SWAP4 POP PUSH2 0xDBB DUP2 DUP6 PUSH1 0x20 DUP7 ADD PUSH2 0xCB2 JUMP JUMPDEST PUSH2 0xDC4 DUP2 PUSH2 0x89C JUMP JUMPDEST DUP5 ADD SWAP2 POP POP SWAP3 SWAP2 POP POP JUMP JUMPDEST PUSH0 PUSH1 0x80 DUP3 ADD SWAP1 POP PUSH2 0xDE2 PUSH0 DUP4 ADD DUP8 PUSH2 0x85B JUMP JUMPDEST DUP2 DUP2 SUB PUSH1 0x20 DUP4 ADD MSTORE PUSH2 0xDF4 DUP2 DUP7 PUSH2 0xD97 JUMP JUMPDEST SWAP1 POP PUSH2 0xE03 PUSH1 0x40 DUP4 ADD DUP6 PUSH2 0xB35 JUMP JUMPDEST PUSH2 0xE10 PUSH1 0x60 DUP4 ADD DUP5 PUSH2 0xAB8 JUMP JUMPDEST SWAP6 SWAP5 POP POP POP POP POP JUMP JUMPDEST PUSH32 0x4E487B7100000000000000000000000000000000000000000000000000000000 PUSH0 MSTORE PUSH1 0x11 PUSH1 0x4 MSTORE PUSH1 0x24 PUSH0 REVERT JUMPDEST PUSH0 PUSH2 0xE50 DUP3 PUSH2 0x852 JUMP JUMPDEST SWAP2 POP PUSH2 0xE5B DUP4 PUSH2 0x852 JUMP JUMPDEST SWAP3 POP DUP3 DUP3 ADD SWAP1 POP DUP3 DUP2 SLT ISZERO PUSH0 DUP4 SLT AND DUP4 DUP3 SLT PUSH0 DUP5 SLT ISZERO AND OR ISZERO PUSH2 0xE81 JUMPI PUSH2 0xE80 PUSH2 0xE19 JUMP JUMPDEST JUMPDEST SWAP3 SWAP2 POP POP JUMP JUMPDEST PUSH32 0x4E487B7100000000000000000000000000000000000000000000000000000000 PUSH0 MSTORE PUSH1 0x22 PUSH1 0x4 MSTORE PUSH1 0x24 PUSH0 REVERT JUMPDEST PUSH0 PUSH1 0x2 DUP3 DIV SWAP1 POP PUSH1 0x1 DUP3 AND DUP1 PUSH2 0xECB JUMPI PUSH1 0x7F DUP3 AND SWAP2 POP JUMPDEST PUSH1 0x20 DUP3 LT DUP2 SUB PUSH2 0xEDE JUMPI PUSH2 0xEDD PUSH2 0xE87 JUMP JUMPDEST JUMPDEST POP SWAP2 SWAP1 POP JUMP JUMPDEST PUSH0 DUP2 SWAP1 POP DUP2 PUSH0 MSTORE PUSH1 0x20 PUSH0 KECCAK256 SWAP1 POP SWAP2 SWAP1 POP JUMP JUMPDEST PUSH0 PUSH1 0x20 PUSH1 0x1F DUP4 ADD DIV SWAP1 POP SWAP2 SWAP1 POP JUMP JUMPDEST PUSH0 DUP3 DUP3 SHL SWAP1 POP SWAP3 SWAP2 POP POP JUMP JUMPDEST PUSH0 PUSH1 0x8 DUP4 MUL PUSH2 0xF40 PUSH32 0xFFFFFFFFFFFFFFFFFFFFFFFFFFFFFFFFFFFFFFFFFFFFFFFFFFFFFFFFFFFFFFFF DUP3 PUSH2 0xF05 JUMP JUMPDEST PUSH2 0xF4A DUP7 DUP4 PUSH2 0xF05 JUMP JUMPDEST SWAP6 POP DUP1 NOT DUP5 AND SWAP4 POP DUP1 DUP7 AND DUP5 OR SWAP3 POP POP POP SWAP4 SWAP3 POP POP POP JUMP JUMPDEST PUSH0 DUP2 SWAP1 POP SWAP2 SWAP1 POP JUMP JUMPDEST PUSH0 PUSH2 0xF85 PUSH2 0xF80 PUSH2 0xF7B DUP5 PUSH2 0x9D0 JUMP JUMPDEST PUSH2 0xF62 JUMP JUMPDEST PUSH2 0x9D0 JUMP JUMPDEST SWAP1 POP SWAP2 SWAP1 POP JUMP JUMPDEST PUSH0 DUP2 SWAP1 POP SWAP2 SWAP1 POP JUMP JUMPDEST PUSH2 0xF9E DUP4 PUSH2 0xF6B JUMP JUMPDEST PUSH2 0xFB2 PUSH2 0xFAA DUP3 PUSH2 0xF8C JUMP JUMPDEST DUP5 DUP5 SLOAD PUSH2 0xF11 JUMP JUMPDEST DUP3 SSTORE POP POP POP POP JUMP JUMPDEST PUSH0 PUSH0 SWAP1 POP SWAP1 JUMP JUMPDEST PUSH2 0xFC9 PUSH2 0xFBA JUMP JUMPDEST PUSH2 0xFD4 DUP2 DUP5 DUP5 PUSH2 0xF95 JUMP JUMPDEST POP POP POP JUMP JUMPDEST JUMPDEST DUP2 DUP2 LT ISZERO PUSH2 0xFF7 JUMPI PUSH2 0xFEC PUSH0 DUP3 PUSH2 0xFC1 JUMP JUMPDEST PUSH1 0x1 DUP2 ADD SWAP1 POP PUSH2 0xFDA JUMP JUMPDEST POP POP JUMP JUMPDEST PUSH1 0x1F DUP3 GT ISZERO PUSH2 0x103C JUMPI PUSH2 0x100D DUP2 PUSH2 0xEE4 JUMP JUMPDEST PUSH2 0x1016 DUP5 PUSH2 0xEF6 JUMP JUMPDEST DUP2 ADD PUSH1 0x20 DUP6 LT ISZERO PUSH2 0x1025 JUMPI DUP2 SWAP1 POP JUMPDEST PUSH2 0x1039 PUSH2 0x1031 DUP6 PUSH2 0xEF6 JUMP JUMPDEST DUP4 ADD DUP3 PUSH2 0xFD9 JUMP JUMPDEST POP POP JUMPDEST POP POP POP JUMP JUMPDEST PUSH0 DUP3 DUP3 SHR SWAP1 POP SWAP3 SWAP2 POP POP JUMP JUMPDEST PUSH0 PUSH2 0x105C PUSH0 NOT DUP5 PUSH1 0x8 MUL PUSH2 0x1041 JUMP JUMPDEST NOT DUP1 DUP4 AND SWAP2 POP POP SWAP3 SWAP2 POP POP JUMP JUMPDEST PUSH0 PUSH2 0x1074 DUP4 DUP4 PUSH2 0x104D JUMP JUMPDEST SWAP2 POP DUP3 PUSH1 0x2 MUL DUP3 OR SWAP1 POP SWAP3 SWAP2 POP POP JUMP JUMPDEST PUSH2 0x108D DUP3 PUSH2 0xC98 JUMP JUMPDEST PUSH8 0xFFFFFFFFFFFFFFFF DUP2 GT ISZERO PUSH2 0x10A6 JUMPI PUSH2 0x10A5 PUSH2 0x8AC JUMP JUMPDEST JUMPDEST PUSH2 0x10B0 DUP3 SLOAD PUSH2 0xEB4 JUMP JUMPDEST PUSH2 0x10BB DUP3 DUP3 DUP6 PUSH2 0xFFB JUMP JUMPDEST PUSH0 PUSH1 0x20 SWAP1 POP PUSH1 0x1F DUP4 GT PUSH1 0x1 DUP2 EQ PUSH2 0x10EC JUMPI PUSH0 DUP5 ISZERO PUSH2 0x10DA JUMPI DUP3 DUP8 ADD MLOAD SWAP1 POP JUMPDEST PUSH2 0x10E4 DUP6 DUP3 PUSH2 0x1069 JUMP JUMPDEST DUP7 SSTORE POP PUSH2 0x114B JUMP JUMPDEST PUSH1 0x1F NOT DUP5 AND PUSH2 0x10FA DUP7 PUSH2 0xEE4 JUMP JUMPDEST PUSH0 JUMPDEST DUP3 DUP2 LT ISZERO PUSH2 0x1121 JUMPI DUP5 DUP10 ADD MLOAD DUP3 SSTORE PUSH1 0x1 DUP3 ADD SWAP2 POP PUSH1 0x20 DUP6 ADD SWAP5 POP PUSH1 0x20 DUP2 ADD SWAP1 POP PUSH2 0x10FC JUMP JUMPDEST DUP7 DUP4 LT ISZERO PUSH2 0x113E JUMPI DUP5 DUP10 ADD MLOAD PUSH2 0x113A PUSH1 0x1F DUP10 AND DUP3 PUSH2 0x104D JUMP JUMPDEST DUP4 SSTORE POP JUMPDEST PUSH1 0x1 PUSH1 0x2 DUP9 MUL ADD DUP9 SSTORE POP POP POP JUMPDEST POP POP POP POP POP POP JUMP JUMPDEST PUSH0 PUSH2 0x115D DUP3 PUSH2 0x9D0 JUMP JUMPDEST SWAP2 POP PUSH32 0xFFFFFFFFFFFFFFFFFFFFFFFFFFFFFFFFFFFFFFFFFFFFFFFFFFFFFFFFFFFFFFFF DUP3 SUB PUSH2 0x118F JUMPI PUSH2 0x118E PUSH2 0xE19 JUMP JUMPDEST JUMPDEST PUSH1 0x1 DUP3 ADD SWAP1 POP SWAP2 SWAP1 POP JUMP JUMPDEST PUSH32 0x4F6E6C79204F776E65722048617320612041636365737320746F205468697320 PUSH0 DUP3 ADD MSTORE POP JUMP JUMPDEST PUSH0 PUSH2 0x11CE PUSH1 0x20 DUP4 PUSH2 0xD87 JUMP JUMPDEST SWAP2 POP PUSH2 0x11D9 DUP3 PUSH2 0x119A JUMP JUMPDEST PUSH1 0x20 DUP3 ADD SWAP1 POP SWAP2 SWAP1 POP JUMP JUMPDEST PUSH0 PUSH1 0x20 DUP3 ADD SWAP1 POP DUP2 DUP2 SUB PUSH0 DUP4 ADD MSTORE PUSH2 0x11FB DUP2 PUSH2 0x11C2 JUMP JUMPDEST SWAP1 POP SWAP2 SWAP1 POP JUMP INVALID LOG2 PUSH5 0x6970667358 0x22 SLT KECCAK256 0xBD 0xBA SWAP14 GASPRICE DUP8 SWAP5 LOG4 SWAP1 PUSH4 0x98A6437A BYTE JUMPI DUP4 PUSH15 0xF853933438E8DED5DFAB67FB3559AE PUSH5 0x736F6C6343 STOP ADDMOD SHR STOP CALLER "
		},
		"gasEstimates": {
			"creation": {
				"codeDepositCost": "932800",
				"executionCost": "30235",
				"totalCost": "963035"
			},
			"external": {
				"addNewInsurance(uint256)": "infinite",
				"addUser(string,uint256)": "infinite",
				"getInsuranceCount(address)": "4997",
				"getInsuranceNumber(address)": "infinite",
				"getUser(int256)": "infinite",
				"myUsers(int256)": "infinite",
				"owner()": "2574",
				"userCount()": "2426"
			}
		},
		"methodIdentifiers": {
			"addNewInsurance(uint256)": "6723e269",
			"addUser(string,uint256)": "1c5220c2",
			"getInsuranceCount(address)": "9e8a8d6c",
			"getInsuranceNumber(address)": "a69f554d",
			"getUser(int256)": "d0f86c9d",
			"myUsers(int256)": "f8cf1d19",
			"owner()": "8da5cb5b",
			"userCount()": "07973ccf"
		}
	},
	"abi": [
		{
			"inputs": [],
			"stateMutability": "nonpayable",
			"type": "constructor"
		},
		{
			"inputs": [
				{
					"internalType": "uint256",
					"name": "_insurNo",
					"type": "uint256"
				}
			],
			"name": "addNewInsurance",
			"outputs": [],
			"stateMutability": "nonpayable",
			"type": "function"
		},
		{
			"inputs": [
				{
					"internalType": "string",
					"name": "_name",
					"type": "string"
				},
				{
					"internalType": "uint256",
					"name": "_insurance_no",
					"type": "uint256"
				}
			],
			"name": "addUser",
			"outputs": [],
			"stateMutability": "nonpayable",
			"type": "function"
		},
		{
			"inputs": [
				{
					"internalType": "address",
					"name": "_user",
					"type": "address"
				}
			],
			"name": "getInsuranceCount",
			"outputs": [
				{
					"internalType": "uint256",
					"name": "",
					"type": "uint256"
				}
			],
			"stateMutability": "view",
			"type": "function"
		},
		{
			"inputs": [
				{
					"internalType": "address",
					"name": "_user",
					"type": "address"
				}
			],
			"name": "getInsuranceNumber",
			"outputs": [
				{
					"internalType": "uint256[]",
					"name": "",
					"type": "uint256[]"
				}
			],
			"stateMutability": "view",
			"type": "function"
		},
		{
			"inputs": [
				{
					"internalType": "int256",
					"name": "_user_Id",
					"type": "int256"
				}
			],
			"name": "getUser",
			"outputs": [
				{
					"components": [
						{
							"internalType": "int256",
							"name": "User_Id",
							"type": "int256"
						},
						{
							"internalType": "string",
							"name": "Name",
							"type": "string"
						},
						{
							"internalType": "uint256",
							"name": "Insurance_NO",
							"type": "uint256"
						},
						{
							"internalType": "address",
							"name": "UserAddress",
							"type": "address"
						}
					],
					"internalType": "struct AddUser.User",
					"name": "",
					"type": "tuple"
				}
			],
			"stateMutability": "view",
			"type": "function"
		},
		{
			"inputs": [
				{
					"internalType": "int256",
					"name": "",
					"type": "int256"
				}
			],
			"name": "myUsers",
			"outputs": [
				{
					"internalType": "int256",
					"name": "User_Id",
					"type": "int256"
				},
				{
					"internalType": "string",
					"name": "Name",
					"type": "string"
				},
				{
					"internalType": "uint256",
					"name": "Insurance_NO",
					"type": "uint256"
				},
				{
					"internalType": "address",
					"name": "UserAddress",
					"type": "address"
				}
			],
			"stateMutability": "view",
			"type": "function"
		},
		{
			"inputs": [],
			"name": "owner",
			"outputs": [
				{
					"internalType": "address",
					"name": "",
					"type": "address"
				}
			],
			"stateMutability": "view",
			"type": "function"
		},
		{
			"inputs": [],
			"name": "userCount",
			"outputs": [
				{
					"internalType": "int256",
					"name": "",
					"type": "int256"
				}
			],
			"stateMutability": "view",
			"type": "function"
		}
	]
}