{
	"data": {
		"bytecode": {
			"linkReferences": {},
			"object": "60806040525f6001553480156012575f80fd5b50610bb0806100205f395ff3fe608060405234801561000f575f80fd5b506004361061004a575f3560e01c806307973ccf1461004e5780631c5220c21461006c578063d0f86c9d14610088578063f8cf1d19146100b8575b5f80fd5b6100566100eb565b604051610063919061040e565b60405180910390f35b610086600480360381019061008191906105a7565b6100f1565b005b6100a2600480360381019061009d919061062b565b6101c9565b6040516100af9190610773565b60405180910390f35b6100d260048036038101906100cd919061062b565b6102eb565b6040516100e294939291906107f9565b60405180910390f35b60015481565b6001805f8282546101029190610870565b92505081905550604051806080016040528060015481526020018381526020018281526020013373ffffffffffffffffffffffffffffffffffffffff168152505f8060015481526020019081526020015f205f820151815f015560208201518160010190816101719190610aab565b50604082015181600201556060820151816003015f6101000a81548173ffffffffffffffffffffffffffffffffffffffff021916908373ffffffffffffffffffffffffffffffffffffffff1602179055509050505050565b6101d16103bb565b5f808381526020019081526020015f206040518060800160405290815f8201548152602001600182018054610205906108de565b80601f0160208091040260200160405190810160405280929190818152602001828054610231906108de565b801561027c5780601f106102535761010080835404028352916020019161027c565b820191905f5260205f20905b81548152906001019060200180831161025f57829003601f168201915b5050505050815260200160028201548152602001600382015f9054906101000a900473ffffffffffffffffffffffffffffffffffffffff1673ffffffffffffffffffffffffffffffffffffffff1673ffffffffffffffffffffffffffffffffffffffff16815250509050919050565b5f602052805f5260405f205f91509050805f01549080600101805461030f906108de565b80601f016020809104026020016040519081016040528092919081815260200182805461033b906108de565b80156103865780601f1061035d57610100808354040283529160200191610386565b820191905f5260205f20905b81548152906001019060200180831161036957829003601f168201915b505050505090806002015490806003015f9054906101000a900473ffffffffffffffffffffffffffffffffffffffff16905084565b60405180608001604052805f8152602001606081526020015f81526020015f73ffffffffffffffffffffffffffffffffffffffff1681525090565b5f819050919050565b610408816103f6565b82525050565b5f6020820190506104215f8301846103ff565b92915050565b5f604051905090565b5f80fd5b5f80fd5b5f80fd5b5f80fd5b5f601f19601f8301169050919050565b7f4e487b71000000000000000000000000000000000000000000000000000000005f52604160045260245ffd5b61048682610440565b810181811067ffffffffffffffff821117156104a5576104a4610450565b5b80604052505050565b5f6104b7610427565b90506104c3828261047d565b919050565b5f67ffffffffffffffff8211156104e2576104e1610450565b5b6104eb82610440565b9050602081019050919050565b828183375f83830152505050565b5f610518610513846104c8565b6104ae565b9050828152602081018484840111156105345761053361043c565b5b61053f8482856104f8565b509392505050565b5f82601f83011261055b5761055a610438565b5b813561056b848260208601610506565b91505092915050565b5f819050919050565b61058681610574565b8114610590575f80fd5b50565b5f813590506105a18161057d565b92915050565b5f80604083850312156105bd576105bc610430565b5b5f83013567ffffffffffffffff8111156105da576105d9610434565b5b6105e685828601610547565b92505060206105f785828601610593565b9150509250929050565b61060a816103f6565b8114610614575f80fd5b50565b5f8135905061062581610601565b92915050565b5f602082840312156106405761063f610430565b5b5f61064d84828501610617565b91505092915050565b61065f816103f6565b82525050565b5f81519050919050565b5f82825260208201905092915050565b8281835e5f83830152505050565b5f61069782610665565b6106a1818561066f565b93506106b181856020860161067f565b6106ba81610440565b840191505092915050565b6106ce81610574565b82525050565b5f73ffffffffffffffffffffffffffffffffffffffff82169050919050565b5f6106fd826106d4565b9050919050565b61070d816106f3565b82525050565b5f608083015f8301516107285f860182610656565b5060208301518482036020860152610740828261068d565b915050604083015161075560408601826106c5565b5060608301516107686060860182610704565b508091505092915050565b5f6020820190508181035f83015261078b8184610713565b905092915050565b5f82825260208201905092915050565b5f6107ad82610665565b6107b78185610793565b93506107c781856020860161067f565b6107d081610440565b840191505092915050565b6107e481610574565b82525050565b6107f3816106f3565b82525050565b5f60808201905061080c5f8301876103ff565b818103602083015261081e81866107a3565b905061082d60408301856107db565b61083a60608301846107ea565b95945050505050565b7f4e487b71000000000000000000000000000000000000000000000000000000005f52601160045260245ffd5b5f61087a826103f6565b9150610885836103f6565b92508282019050828112155f8312168382125f8412151617156108ab576108aa610843565b5b92915050565b7f4e487b71000000000000000000000000000000000000000000000000000000005f52602260045260245ffd5b5f60028204905060018216806108f557607f821691505b602082108103610908576109076108b1565b5b50919050565b5f819050815f5260205f209050919050565b5f6020601f8301049050919050565b5f82821b905092915050565b5f6008830261096a7fffffffffffffffffffffffffffffffffffffffffffffffffffffffffffffffff8261092f565b610974868361092f565b95508019841693508086168417925050509392505050565b5f819050919050565b5f6109af6109aa6109a584610574565b61098c565b610574565b9050919050565b5f819050919050565b6109c883610995565b6109dc6109d4826109b6565b84845461093b565b825550505050565b5f90565b6109f06109e4565b6109fb8184846109bf565b505050565b5b81811015610a1e57610a135f826109e8565b600181019050610a01565b5050565b601f821115610a6357610a348161090e565b610a3d84610920565b81016020851015610a4c578190505b610a60610a5885610920565b830182610a00565b50505b505050565b5f82821c905092915050565b5f610a835f1984600802610a68565b1980831691505092915050565b5f610a9b8383610a74565b9150826002028217905092915050565b610ab482610665565b67ffffffffffffffff811115610acd57610acc610450565b5b610ad782546108de565b610ae2828285610a22565b5f60209050601f831160018114610b13575f8415610b01578287015190505b610b0b8582610a90565b865550610b72565b601f198416610b218661090e565b5f5b82811015610b4857848901518255600182019150602085019450602081019050610b23565b86831015610b655784890151610b61601f891682610a74565b8355505b6001600288020188555050505b50505050505056fea26469706673582212205cc0db47abf769fd1d6bff9cc2da7efe6d5499114c29bc85a2d52ed0e9c8869f64736f6c634300081a0033",
			"opcodes": "PUSH1 0x80 PUSH1 0x40 MSTORE PUSH0 PUSH1 0x1 SSTORE CALLVALUE DUP1 ISZERO PUSH1 0x12 JUMPI PUSH0 DUP1 REVERT JUMPDEST POP PUSH2 0xBB0 DUP1 PUSH2 0x20 PUSH0 CODECOPY PUSH0 RETURN INVALID PUSH1 0x80 PUSH1 0x40 MSTORE CALLVALUE DUP1 ISZERO PUSH2 0xF JUMPI PUSH0 DUP1 REVERT JUMPDEST POP PUSH1 0x4 CALLDATASIZE LT PUSH2 0x4A JUMPI PUSH0 CALLDATALOAD PUSH1 0xE0 SHR DUP1 PUSH4 0x7973CCF EQ PUSH2 0x4E JUMPI DUP1 PUSH4 0x1C5220C2 EQ PUSH2 0x6C JUMPI DUP1 PUSH4 0xD0F86C9D EQ PUSH2 0x88 JUMPI DUP1 PUSH4 0xF8CF1D19 EQ PUSH2 0xB8 JUMPI JUMPDEST PUSH0 DUP1 REVERT JUMPDEST PUSH2 0x56 PUSH2 0xEB JUMP JUMPDEST PUSH1 0x40 MLOAD PUSH2 0x63 SWAP2 SWAP1 PUSH2 0x40E JUMP JUMPDEST PUSH1 0x40 MLOAD DUP1 SWAP2 SUB SWAP1 RETURN JUMPDEST PUSH2 0x86 PUSH1 0x4 DUP1 CALLDATASIZE SUB DUP2 ADD SWAP1 PUSH2 0x81 SWAP2 SWAP1 PUSH2 0x5A7 JUMP JUMPDEST PUSH2 0xF1 JUMP JUMPDEST STOP JUMPDEST PUSH2 0xA2 PUSH1 0x4 DUP1 CALLDATASIZE SUB DUP2 ADD SWAP1 PUSH2 0x9D SWAP2 SWAP1 PUSH2 0x62B JUMP JUMPDEST PUSH2 0x1C9 JUMP JUMPDEST PUSH1 0x40 MLOAD PUSH2 0xAF SWAP2 SWAP1 PUSH2 0x773 JUMP JUMPDEST PUSH1 0x40 MLOAD DUP1 SWAP2 SUB SWAP1 RETURN JUMPDEST PUSH2 0xD2 PUSH1 0x4 DUP1 CALLDATASIZE SUB DUP2 ADD SWAP1 PUSH2 0xCD SWAP2 SWAP1 PUSH2 0x62B JUMP JUMPDEST PUSH2 0x2EB JUMP JUMPDEST PUSH1 0x40 MLOAD PUSH2 0xE2 SWAP5 SWAP4 SWAP3 SWAP2 SWAP1 PUSH2 0x7F9 JUMP JUMPDEST PUSH1 0x40 MLOAD DUP1 SWAP2 SUB SWAP1 RETURN JUMPDEST PUSH1 0x1 SLOAD DUP2 JUMP JUMPDEST PUSH1 0x1 DUP1 PUSH0 DUP3 DUP3 SLOAD PUSH2 0x102 SWAP2 SWAP1 PUSH2 0x870 JUMP JUMPDEST SWAP3 POP POP DUP2 SWAP1 SSTORE POP PUSH1 0x40 MLOAD DUP1 PUSH1 0x80 ADD PUSH1 0x40 MSTORE DUP1 PUSH1 0x1 SLOAD DUP2 MSTORE PUSH1 0x20 ADD DUP4 DUP2 MSTORE PUSH1 0x20 ADD DUP3 DUP2 MSTORE PUSH1 0x20 ADD CALLER PUSH20 0xFFFFFFFFFFFFFFFFFFFFFFFFFFFFFFFFFFFFFFFF AND DUP2 MSTORE POP PUSH0 DUP1 PUSH1 0x1 SLOAD DUP2 MSTORE PUSH1 0x20 ADD SWAP1 DUP2 MSTORE PUSH1 0x20 ADD PUSH0 KECCAK256 PUSH0 DUP3 ADD MLOAD DUP2 PUSH0 ADD SSTORE PUSH1 0x20 DUP3 ADD MLOAD DUP2 PUSH1 0x1 ADD SWAP1 DUP2 PUSH2 0x171 SWAP2 SWAP1 PUSH2 0xAAB JUMP JUMPDEST POP PUSH1 0x40 DUP3 ADD MLOAD DUP2 PUSH1 0x2 ADD SSTORE PUSH1 0x60 DUP3 ADD MLOAD DUP2 PUSH1 0x3 ADD PUSH0 PUSH2 0x100 EXP DUP2 SLOAD DUP2 PUSH20 0xFFFFFFFFFFFFFFFFFFFFFFFFFFFFFFFFFFFFFFFF MUL NOT AND SWAP1 DUP4 PUSH20 0xFFFFFFFFFFFFFFFFFFFFFFFFFFFFFFFFFFFFFFFF AND MUL OR SWAP1 SSTORE POP SWAP1 POP POP POP POP JUMP JUMPDEST PUSH2 0x1D1 PUSH2 0x3BB JUMP JUMPDEST PUSH0 DUP1 DUP4 DUP2 MSTORE PUSH1 0x20 ADD SWAP1 DUP2 MSTORE PUSH1 0x20 ADD PUSH0 KECCAK256 PUSH1 0x40 MLOAD DUP1 PUSH1 0x80 ADD PUSH1 0x40 MSTORE SWAP1 DUP2 PUSH0 DUP3 ADD SLOAD DUP2 MSTORE PUSH1 0x20 ADD PUSH1 0x1 DUP3 ADD DUP1 SLOAD PUSH2 0x205 SWAP1 PUSH2 0x8DE JUMP JUMPDEST DUP1 PUSH1 0x1F ADD PUSH1 0x20 DUP1 SWAP2 DIV MUL PUSH1 0x20 ADD PUSH1 0x40 MLOAD SWAP1 DUP2 ADD PUSH1 0x40 MSTORE DUP1 SWAP3 SWAP2 SWAP1 DUP2 DUP2 MSTORE PUSH1 0x20 ADD DUP3 DUP1 SLOAD PUSH2 0x231 SWAP1 PUSH2 0x8DE JUMP JUMPDEST DUP1 ISZERO PUSH2 0x27C JUMPI DUP1 PUSH1 0x1F LT PUSH2 0x253 JUMPI PUSH2 0x100 DUP1 DUP4 SLOAD DIV MUL DUP4 MSTORE SWAP2 PUSH1 0x20 ADD SWAP2 PUSH2 0x27C JUMP JUMPDEST DUP3 ADD SWAP2 SWAP1 PUSH0 MSTORE PUSH1 0x20 PUSH0 KECCAK256 SWAP1 JUMPDEST DUP2 SLOAD DUP2 MSTORE SWAP1 PUSH1 0x1 ADD SWAP1 PUSH1 0x20 ADD DUP1 DUP4 GT PUSH2 0x25F JUMPI DUP3 SWAP1 SUB PUSH1 0x1F AND DUP3 ADD SWAP2 JUMPDEST POP POP POP POP POP DUP2 MSTORE PUSH1 0x20 ADD PUSH1 0x2 DUP3 ADD SLOAD DUP2 MSTORE PUSH1 0x20 ADD PUSH1 0x3 DUP3 ADD PUSH0 SWAP1 SLOAD SWAP1 PUSH2 0x100 EXP SWAP1 DIV PUSH20 0xFFFFFFFFFFFFFFFFFFFFFFFFFFFFFFFFFFFFFFFF AND PUSH20 0xFFFFFFFFFFFFFFFFFFFFFFFFFFFFFFFFFFFFFFFF AND PUSH20 0xFFFFFFFFFFFFFFFFFFFFFFFFFFFFFFFFFFFFFFFF AND DUP2 MSTORE POP POP SWAP1 POP SWAP2 SWAP1 POP JUMP JUMPDEST PUSH0 PUSH1 0x20 MSTORE DUP1 PUSH0 MSTORE PUSH1 0x40 PUSH0 KECCAK256 PUSH0 SWAP2 POP SWAP1 POP DUP1 PUSH0 ADD SLOAD SWAP1 DUP1 PUSH1 0x1 ADD DUP1 SLOAD PUSH2 0x30F SWAP1 PUSH2 0x8DE JUMP JUMPDEST DUP1 PUSH1 0x1F ADD PUSH1 0x20 DUP1 SWAP2 DIV MUL PUSH1 0x20 ADD PUSH1 0x40 MLOAD SWAP1 DUP2 ADD PUSH1 0x40 MSTORE DUP1 SWAP3 SWAP2 SWAP1 DUP2 DUP2 MSTORE PUSH1 0x20 ADD DUP3 DUP1 SLOAD PUSH2 0x33B SWAP1 PUSH2 0x8DE JUMP JUMPDEST DUP1 ISZERO PUSH2 0x386 JUMPI DUP1 PUSH1 0x1F LT PUSH2 0x35D JUMPI PUSH2 0x100 DUP1 DUP4 SLOAD DIV MUL DUP4 MSTORE SWAP2 PUSH1 0x20 ADD SWAP2 PUSH2 0x386 JUMP JUMPDEST DUP3 ADD SWAP2 SWAP1 PUSH0 MSTORE PUSH1 0x20 PUSH0 KECCAK256 SWAP1 JUMPDEST DUP2 SLOAD DUP2 MSTORE SWAP1 PUSH1 0x1 ADD SWAP1 PUSH1 0x20 ADD DUP1 DUP4 GT PUSH2 0x369 JUMPI DUP3 SWAP1 SUB PUSH1 0x1F AND DUP3 ADD SWAP2 JUMPDEST POP POP POP POP POP SWAP1 DUP1 PUSH1 0x2 ADD SLOAD SWAP1 DUP1 PUSH1 0x3 ADD PUSH0 SWAP1 SLOAD SWAP1 PUSH2 0x100 EXP SWAP1 DIV PUSH20 0xFFFFFFFFFFFFFFFFFFFFFFFFFFFFFFFFFFFFFFFF AND SWAP1 POP DUP5 JUMP JUMPDEST PUSH1 0x40 MLOAD DUP1 PUSH1 0x80 ADD PUSH1 0x40 MSTORE DUP1 PUSH0 DUP2 MSTORE PUSH1 0x20 ADD PUSH1 0x60 DUP2 MSTORE PUSH1 0x20 ADD PUSH0 DUP2 MSTORE PUSH1 0x20 ADD PUSH0 PUSH20 0xFFFFFFFFFFFFFFFFFFFFFFFFFFFFFFFFFFFFFFFF AND DUP2 MSTORE POP SWAP1 JUMP JUMPDEST PUSH0 DUP2 SWAP1 POP SWAP2 SWAP1 POP JUMP JUMPDEST PUSH2 0x408 DUP2 PUSH2 0x3F6 JUMP JUMPDEST DUP3 MSTORE POP POP JUMP JUMPDEST PUSH0 PUSH1 0x20 DUP3 ADD SWAP1 POP PUSH2 0x421 PUSH0 DUP4 ADD DUP5 PUSH2 0x3FF JUMP JUMPDEST SWAP3 SWAP2 POP POP JUMP JUMPDEST PUSH0 PUSH1 0x40 MLOAD SWAP1 POP SWAP1 JUMP JUMPDEST PUSH0 DUP1 REVERT JUMPDEST PUSH0 DUP1 REVERT JUMPDEST PUSH0 DUP1 REVERT JUMPDEST PUSH0 DUP1 REVERT JUMPDEST PUSH0 PUSH1 0x1F NOT PUSH1 0x1F DUP4 ADD AND SWAP1 POP SWAP2 SWAP1 POP JUMP JUMPDEST PUSH32 0x4E487B7100000000000000000000000000000000000000000000000000000000 PUSH0 MSTORE PUSH1 0x41 PUSH1 0x4 MSTORE PUSH1 0x24 PUSH0 REVERT JUMPDEST PUSH2 0x486 DUP3 PUSH2 0x440 JUMP JUMPDEST DUP2 ADD DUP2 DUP2 LT PUSH8 0xFFFFFFFFFFFFFFFF DUP3 GT OR ISZERO PUSH2 0x4A5 JUMPI PUSH2 0x4A4 PUSH2 0x450 JUMP JUMPDEST JUMPDEST DUP1 PUSH1 0x40 MSTORE POP POP POP JUMP JUMPDEST PUSH0 PUSH2 0x4B7 PUSH2 0x427 JUMP JUMPDEST SWAP1 POP PUSH2 0x4C3 DUP3 DUP3 PUSH2 0x47D JUMP JUMPDEST SWAP2 SWAP1 POP JUMP JUMPDEST PUSH0 PUSH8 0xFFFFFFFFFFFFFFFF DUP3 GT ISZERO PUSH2 0x4E2 JUMPI PUSH2 0x4E1 PUSH2 0x450 JUMP JUMPDEST JUMPDEST PUSH2 0x4EB DUP3 PUSH2 0x440 JUMP JUMPDEST SWAP1 POP PUSH1 0x20 DUP2 ADD SWAP1 POP SWAP2 SWAP1 POP JUMP JUMPDEST DUP3 DUP2 DUP4 CALLDATACOPY PUSH0 DUP4 DUP4 ADD MSTORE POP POP POP JUMP JUMPDEST PUSH0 PUSH2 0x518 PUSH2 0x513 DUP5 PUSH2 0x4C8 JUMP JUMPDEST PUSH2 0x4AE JUMP JUMPDEST SWAP1 POP DUP3 DUP2 MSTORE PUSH1 0x20 DUP2 ADD DUP5 DUP5 DUP5 ADD GT ISZERO PUSH2 0x534 JUMPI PUSH2 0x533 PUSH2 0x43C JUMP JUMPDEST JUMPDEST PUSH2 0x53F DUP5 DUP3 DUP6 PUSH2 0x4F8 JUMP JUMPDEST POP SWAP4 SWAP3 POP POP POP JUMP JUMPDEST PUSH0 DUP3 PUSH1 0x1F DUP4 ADD SLT PUSH2 0x55B JUMPI PUSH2 0x55A PUSH2 0x438 JUMP JUMPDEST JUMPDEST DUP2 CALLDATALOAD PUSH2 0x56B DUP5 DUP3 PUSH1 0x20 DUP7 ADD PUSH2 0x506 JUMP JUMPDEST SWAP2 POP POP SWAP3 SWAP2 POP POP JUMP JUMPDEST PUSH0 DUP2 SWAP1 POP SWAP2 SWAP1 POP JUMP JUMPDEST PUSH2 0x586 DUP2 PUSH2 0x574 JUMP JUMPDEST DUP2 EQ PUSH2 0x590 JUMPI PUSH0 DUP1 REVERT JUMPDEST POP JUMP JUMPDEST PUSH0 DUP2 CALLDATALOAD SWAP1 POP PUSH2 0x5A1 DUP2 PUSH2 0x57D JUMP JUMPDEST SWAP3 SWAP2 POP POP JUMP JUMPDEST PUSH0 DUP1 PUSH1 0x40 DUP4 DUP6 SUB SLT ISZERO PUSH2 0x5BD JUMPI PUSH2 0x5BC PUSH2 0x430 JUMP JUMPDEST JUMPDEST PUSH0 DUP4 ADD CALLDATALOAD PUSH8 0xFFFFFFFFFFFFFFFF DUP2 GT ISZERO PUSH2 0x5DA JUMPI PUSH2 0x5D9 PUSH2 0x434 JUMP JUMPDEST JUMPDEST PUSH2 0x5E6 DUP6 DUP3 DUP7 ADD PUSH2 0x547 JUMP JUMPDEST SWAP3 POP POP PUSH1 0x20 PUSH2 0x5F7 DUP6 DUP3 DUP7 ADD PUSH2 0x593 JUMP JUMPDEST SWAP2 POP POP SWAP3 POP SWAP3 SWAP1 POP JUMP JUMPDEST PUSH2 0x60A DUP2 PUSH2 0x3F6 JUMP JUMPDEST DUP2 EQ PUSH2 0x614 JUMPI PUSH0 DUP1 REVERT JUMPDEST POP JUMP JUMPDEST PUSH0 DUP2 CALLDATALOAD SWAP1 POP PUSH2 0x625 DUP2 PUSH2 0x601 JUMP JUMPDEST SWAP3 SWAP2 POP POP JUMP JUMPDEST PUSH0 PUSH1 0x20 DUP3 DUP5 SUB SLT ISZERO PUSH2 0x640 JUMPI PUSH2 0x63F PUSH2 0x430 JUMP JUMPDEST JUMPDEST PUSH0 PUSH2 0x64D DUP5 DUP3 DUP6 ADD PUSH2 0x617 JUMP JUMPDEST SWAP2 POP POP SWAP3 SWAP2 POP POP JUMP JUMPDEST PUSH2 0x65F DUP2 PUSH2 0x3F6 JUMP JUMPDEST DUP3 MSTORE POP POP JUMP JUMPDEST PUSH0 DUP2 MLOAD SWAP1 POP SWAP2 SWAP1 POP JUMP JUMPDEST PUSH0 DUP3 DUP3 MSTORE PUSH1 0x20 DUP3 ADD SWAP1 POP SWAP3 SWAP2 POP POP JUMP JUMPDEST DUP3 DUP2 DUP4 MCOPY PUSH0 DUP4 DUP4 ADD MSTORE POP POP POP JUMP JUMPDEST PUSH0 PUSH2 0x697 DUP3 PUSH2 0x665 JUMP JUMPDEST PUSH2 0x6A1 DUP2 DUP6 PUSH2 0x66F JUMP JUMPDEST SWAP4 POP PUSH2 0x6B1 DUP2 DUP6 PUSH1 0x20 DUP7 ADD PUSH2 0x67F JUMP JUMPDEST PUSH2 0x6BA DUP2 PUSH2 0x440 JUMP JUMPDEST DUP5 ADD SWAP2 POP POP SWAP3 SWAP2 POP POP JUMP JUMPDEST PUSH2 0x6CE DUP2 PUSH2 0x574 JUMP JUMPDEST DUP3 MSTORE POP POP JUMP JUMPDEST PUSH0 PUSH20 0xFFFFFFFFFFFFFFFFFFFFFFFFFFFFFFFFFFFFFFFF DUP3 AND SWAP1 POP SWAP2 SWAP1 POP JUMP JUMPDEST PUSH0 PUSH2 0x6FD DUP3 PUSH2 0x6D4 JUMP JUMPDEST SWAP1 POP SWAP2 SWAP1 POP JUMP JUMPDEST PUSH2 0x70D DUP2 PUSH2 0x6F3 JUMP JUMPDEST DUP3 MSTORE POP POP JUMP JUMPDEST PUSH0 PUSH1 0x80 DUP4 ADD PUSH0 DUP4 ADD MLOAD PUSH2 0x728 PUSH0 DUP7 ADD DUP3 PUSH2 0x656 JUMP JUMPDEST POP PUSH1 0x20 DUP4 ADD MLOAD DUP5 DUP3 SUB PUSH1 0x20 DUP7 ADD MSTORE PUSH2 0x740 DUP3 DUP3 PUSH2 0x68D JUMP JUMPDEST SWAP2 POP POP PUSH1 0x40 DUP4 ADD MLOAD PUSH2 0x755 PUSH1 0x40 DUP7 ADD DUP3 PUSH2 0x6C5 JUMP JUMPDEST POP PUSH1 0x60 DUP4 ADD MLOAD PUSH2 0x768 PUSH1 0x60 DUP7 ADD DUP3 PUSH2 0x704 JUMP JUMPDEST POP DUP1 SWAP2 POP POP SWAP3 SWAP2 POP POP JUMP JUMPDEST PUSH0 PUSH1 0x20 DUP3 ADD SWAP1 POP DUP2 DUP2 SUB PUSH0 DUP4 ADD MSTORE PUSH2 0x78B DUP2 DUP5 PUSH2 0x713 JUMP JUMPDEST SWAP1 POP SWAP3 SWAP2 POP POP JUMP JUMPDEST PUSH0 DUP3 DUP3 MSTORE PUSH1 0x20 DUP3 ADD SWAP1 POP SWAP3 SWAP2 POP POP JUMP JUMPDEST PUSH0 PUSH2 0x7AD DUP3 PUSH2 0x665 JUMP JUMPDEST PUSH2 0x7B7 DUP2 DUP6 PUSH2 0x793 JUMP JUMPDEST SWAP4 POP PUSH2 0x7C7 DUP2 DUP6 PUSH1 0x20 DUP7 ADD PUSH2 0x67F JUMP JUMPDEST PUSH2 0x7D0 DUP2 PUSH2 0x440 JUMP JUMPDEST DUP5 ADD SWAP2 POP POP SWAP3 SWAP2 POP POP JUMP JUMPDEST PUSH2 0x7E4 DUP2 PUSH2 0x574 JUMP JUMPDEST DUP3 MSTORE POP POP JUMP JUMPDEST PUSH2 0x7F3 DUP2 PUSH2 0x6F3 JUMP JUMPDEST DUP3 MSTORE POP POP JUMP JUMPDEST PUSH0 PUSH1 0x80 DUP3 ADD SWAP1 POP PUSH2 0x80C PUSH0 DUP4 ADD DUP8 PUSH2 0x3FF JUMP JUMPDEST DUP2 DUP2 SUB PUSH1 0x20 DUP4 ADD MSTORE PUSH2 0x81E DUP2 DUP7 PUSH2 0x7A3 JUMP JUMPDEST SWAP1 POP PUSH2 0x82D PUSH1 0x40 DUP4 ADD DUP6 PUSH2 0x7DB JUMP JUMPDEST PUSH2 0x83A PUSH1 0x60 DUP4 ADD DUP5 PUSH2 0x7EA JUMP JUMPDEST SWAP6 SWAP5 POP POP POP POP POP JUMP JUMPDEST PUSH32 0x4E487B7100000000000000000000000000000000000000000000000000000000 PUSH0 MSTORE PUSH1 0x11 PUSH1 0x4 MSTORE PUSH1 0x24 PUSH0 REVERT JUMPDEST PUSH0 PUSH2 0x87A DUP3 PUSH2 0x3F6 JUMP JUMPDEST SWAP2 POP PUSH2 0x885 DUP4 PUSH2 0x3F6 JUMP JUMPDEST SWAP3 POP DUP3 DUP3 ADD SWAP1 POP DUP3 DUP2 SLT ISZERO PUSH0 DUP4 SLT AND DUP4 DUP3 SLT PUSH0 DUP5 SLT ISZERO AND OR ISZERO PUSH2 0x8AB JUMPI PUSH2 0x8AA PUSH2 0x843 JUMP JUMPDEST JUMPDEST SWAP3 SWAP2 POP POP JUMP JUMPDEST PUSH32 0x4E487B7100000000000000000000000000000000000000000000000000000000 PUSH0 MSTORE PUSH1 0x22 PUSH1 0x4 MSTORE PUSH1 0x24 PUSH0 REVERT JUMPDEST PUSH0 PUSH1 0x2 DUP3 DIV SWAP1 POP PUSH1 0x1 DUP3 AND DUP1 PUSH2 0x8F5 JUMPI PUSH1 0x7F DUP3 AND SWAP2 POP JUMPDEST PUSH1 0x20 DUP3 LT DUP2 SUB PUSH2 0x908 JUMPI PUSH2 0x907 PUSH2 0x8B1 JUMP JUMPDEST JUMPDEST POP SWAP2 SWAP1 POP JUMP JUMPDEST PUSH0 DUP2 SWAP1 POP DUP2 PUSH0 MSTORE PUSH1 0x20 PUSH0 KECCAK256 SWAP1 POP SWAP2 SWAP1 POP JUMP JUMPDEST PUSH0 PUSH1 0x20 PUSH1 0x1F DUP4 ADD DIV SWAP1 POP SWAP2 SWAP1 POP JUMP JUMPDEST PUSH0 DUP3 DUP3 SHL SWAP1 POP SWAP3 SWAP2 POP POP JUMP JUMPDEST PUSH0 PUSH1 0x8 DUP4 MUL PUSH2 0x96A PUSH32 0xFFFFFFFFFFFFFFFFFFFFFFFFFFFFFFFFFFFFFFFFFFFFFFFFFFFFFFFFFFFFFFFF DUP3 PUSH2 0x92F JUMP JUMPDEST PUSH2 0x974 DUP7 DUP4 PUSH2 0x92F JUMP JUMPDEST SWAP6 POP DUP1 NOT DUP5 AND SWAP4 POP DUP1 DUP7 AND DUP5 OR SWAP3 POP POP POP SWAP4 SWAP3 POP POP POP JUMP JUMPDEST PUSH0 DUP2 SWAP1 POP SWAP2 SWAP1 POP JUMP JUMPDEST PUSH0 PUSH2 0x9AF PUSH2 0x9AA PUSH2 0x9A5 DUP5 PUSH2 0x574 JUMP JUMPDEST PUSH2 0x98C JUMP JUMPDEST PUSH2 0x574 JUMP JUMPDEST SWAP1 POP SWAP2 SWAP1 POP JUMP JUMPDEST PUSH0 DUP2 SWAP1 POP SWAP2 SWAP1 POP JUMP JUMPDEST PUSH2 0x9C8 DUP4 PUSH2 0x995 JUMP JUMPDEST PUSH2 0x9DC PUSH2 0x9D4 DUP3 PUSH2 0x9B6 JUMP JUMPDEST DUP5 DUP5 SLOAD PUSH2 0x93B JUMP JUMPDEST DUP3 SSTORE POP POP POP POP JUMP JUMPDEST PUSH0 SWAP1 JUMP JUMPDEST PUSH2 0x9F0 PUSH2 0x9E4 JUMP JUMPDEST PUSH2 0x9FB DUP2 DUP5 DUP5 PUSH2 0x9BF JUMP JUMPDEST POP POP POP JUMP JUMPDEST JUMPDEST DUP2 DUP2 LT ISZERO PUSH2 0xA1E JUMPI PUSH2 0xA13 PUSH0 DUP3 PUSH2 0x9E8 JUMP JUMPDEST PUSH1 0x1 DUP2 ADD SWAP1 POP PUSH2 0xA01 JUMP JUMPDEST POP POP JUMP JUMPDEST PUSH1 0x1F DUP3 GT ISZERO PUSH2 0xA63 JUMPI PUSH2 0xA34 DUP2 PUSH2 0x90E JUMP JUMPDEST PUSH2 0xA3D DUP5 PUSH2 0x920 JUMP JUMPDEST DUP2 ADD PUSH1 0x20 DUP6 LT ISZERO PUSH2 0xA4C JUMPI DUP2 SWAP1 POP JUMPDEST PUSH2 0xA60 PUSH2 0xA58 DUP6 PUSH2 0x920 JUMP JUMPDEST DUP4 ADD DUP3 PUSH2 0xA00 JUMP JUMPDEST POP POP JUMPDEST POP POP POP JUMP JUMPDEST PUSH0 DUP3 DUP3 SHR SWAP1 POP SWAP3 SWAP2 POP POP JUMP JUMPDEST PUSH0 PUSH2 0xA83 PUSH0 NOT DUP5 PUSH1 0x8 MUL PUSH2 0xA68 JUMP JUMPDEST NOT DUP1 DUP4 AND SWAP2 POP POP SWAP3 SWAP2 POP POP JUMP JUMPDEST PUSH0 PUSH2 0xA9B DUP4 DUP4 PUSH2 0xA74 JUMP JUMPDEST SWAP2 POP DUP3 PUSH1 0x2 MUL DUP3 OR SWAP1 POP SWAP3 SWAP2 POP POP JUMP JUMPDEST PUSH2 0xAB4 DUP3 PUSH2 0x665 JUMP JUMPDEST PUSH8 0xFFFFFFFFFFFFFFFF DUP2 GT ISZERO PUSH2 0xACD JUMPI PUSH2 0xACC PUSH2 0x450 JUMP JUMPDEST JUMPDEST PUSH2 0xAD7 DUP3 SLOAD PUSH2 0x8DE JUMP JUMPDEST PUSH2 0xAE2 DUP3 DUP3 DUP6 PUSH2 0xA22 JUMP JUMPDEST PUSH0 PUSH1 0x20 SWAP1 POP PUSH1 0x1F DUP4 GT PUSH1 0x1 DUP2 EQ PUSH2 0xB13 JUMPI PUSH0 DUP5 ISZERO PUSH2 0xB01 JUMPI DUP3 DUP8 ADD MLOAD SWAP1 POP JUMPDEST PUSH2 0xB0B DUP6 DUP3 PUSH2 0xA90 JUMP JUMPDEST DUP7 SSTORE POP PUSH2 0xB72 JUMP JUMPDEST PUSH1 0x1F NOT DUP5 AND PUSH2 0xB21 DUP7 PUSH2 0x90E JUMP JUMPDEST PUSH0 JUMPDEST DUP3 DUP2 LT ISZERO PUSH2 0xB48 JUMPI DUP5 DUP10 ADD MLOAD DUP3 SSTORE PUSH1 0x1 DUP3 ADD SWAP2 POP PUSH1 0x20 DUP6 ADD SWAP5 POP PUSH1 0x20 DUP2 ADD SWAP1 POP PUSH2 0xB23 JUMP JUMPDEST DUP7 DUP4 LT ISZERO PUSH2 0xB65 JUMPI DUP5 DUP10 ADD MLOAD PUSH2 0xB61 PUSH1 0x1F DUP10 AND DUP3 PUSH2 0xA74 JUMP JUMPDEST DUP4 SSTORE POP JUMPDEST PUSH1 0x1 PUSH1 0x2 DUP9 MUL ADD DUP9 SSTORE POP POP POP JUMPDEST POP POP POP POP POP POP JUMP INVALID LOG2 PUSH5 0x6970667358 0x22 SLT KECCAK256 TLOAD 0xC0 0xDB SELFBALANCE 0xAB 0xF7 PUSH10 0xFD1D6BFF9CC2DA7EFE6D SLOAD SWAP10 GT 0x4C 0x29 0xBC DUP6 LOG2 0xD5 0x2E 0xD0 0xE9 0xC8 DUP7 SWAP16 PUSH5 0x736F6C6343 STOP ADDMOD BYTE STOP CALLER "
		},
		"gasEstimates": {
			"creation": {
				"codeDepositCost": "598400",
				"executionCost": "5635",
				"totalCost": "604035"
			},
			"external": {
				"addUser(string,uint256)": "infinite",
				"getUser(int256)": "infinite",
				"myUsers(int256)": "infinite",
				"userCount()": "2403"
			}
		},
		"methodIdentifiers": {
			"addUser(string,uint256)": "1c5220c2",
			"getUser(int256)": "d0f86c9d",
			"myUsers(int256)": "f8cf1d19",
			"userCount()": "07973ccf"
		}
	},
	"abi": [
		{
			"inputs": [
				{
					"internalType": "string",
					"name": "_name",
					"type": "string"
				},
				{
					"internalType": "uint256",
					"name": "_insurance_no",
					"type": "uint256"
				}
			],
			"name": "addUser",
			"outputs": [],
			"stateMutability": "nonpayable",
			"type": "function"
		},
		{
			"inputs": [
				{
					"internalType": "int256",
					"name": "_user_Id",
					"type": "int256"
				}
			],
			"name": "getUser",
			"outputs": [
				{
					"components": [
						{
							"internalType": "int256",
							"name": "User_Id",
							"type": "int256"
						},
						{
							"internalType": "string",
							"name": "Name",
							"type": "string"
						},
						{
							"internalType": "uint256",
							"name": "Insurance_NO",
							"type": "uint256"
						},
						{
							"internalType": "address",
							"name": "UserAddress",
							"type": "address"
						}
					],
					"internalType": "struct AddUser.User",
					"name": "",
					"type": "tuple"
				}
			],
			"stateMutability": "view",
			"type": "function"
		},
		{
			"inputs": [
				{
					"internalType": "int256",
					"name": "",
					"type": "int256"
				}
			],
			"name": "myUsers",
			"outputs": [
				{
					"internalType": "int256",
					"name": "User_Id",
					"type": "int256"
				},
				{
					"internalType": "string",
					"name": "Name",
					"type": "string"
				},
				{
					"internalType": "uint256",
					"name": "Insurance_NO",
					"type": "uint256"
				},
				{
					"internalType": "address",
					"name": "UserAddress",
					"type": "address"
				}
			],
			"stateMutability": "view",
			"type": "function"
		},
		{
			"inputs": [],
			"name": "userCount",
			"outputs": [
				{
					"internalType": "int256",
					"name": "",
					"type": "int256"
				}
			],
			"stateMutability": "view",
			"type": "function"
		}
	]
}