{
	"data": {
		"bytecode": {
			"linkReferences": {},
			"object": "6080604052348015600e575f80fd5b506109e88061001c5f395ff3fe608060405234801561000f575f80fd5b506004361061003f575f3560e01c806329f34dd2146100435780633c9dabcd1461005f578063f20202751461008f575b5f80fd5b61005d600480360381019061005891906103c7565b6100b0565b005b61007960048036038101906100749190610454565b610136565b604051610086919061059c565b60405180910390f35b61009761014b565b6040516100a79493929190610631565b60405180910390f35b5f805f0154036101325760015f80015f8282546100cd91906106a8565b92505081905550815f60010190816100e591906108e3565b50805f60020181905550335f6003015f6101000a81548173ffffffffffffffffffffffffffffffffffffffff021916908373ffffffffffffffffffffffffffffffffffffffff1602179055505b5050565b61013e61020c565b815f800181905550919050565b5f805f01549080600101805461016090610716565b80601f016020809104026020016040519081016040528092919081815260200182805461018c90610716565b80156101d75780601f106101ae576101008083540402835291602001916101d7565b820191905f5260205f20905b8154815290600101906020018083116101ba57829003601f168201915b505050505090806002015490806003015f9054906101000a900473ffffffffffffffffffffffffffffffffffffffff16905084565b60405180608001604052805f8152602001606081526020015f81526020015f73ffffffffffffffffffffffffffffffffffffffff1681525090565b5f604051905090565b5f80fd5b5f80fd5b5f80fd5b5f80fd5b5f601f19601f8301169050919050565b7f4e487b71000000000000000000000000000000000000000000000000000000005f52604160045260245ffd5b6102a682610260565b810181811067ffffffffffffffff821117156102c5576102c4610270565b5b80604052505050565b5f6102d7610247565b90506102e3828261029d565b919050565b5f67ffffffffffffffff82111561030257610301610270565b5b61030b82610260565b9050602081019050919050565b828183375f83830152505050565b5f610338610333846102e8565b6102ce565b9050828152602081018484840111156103545761035361025c565b5b61035f848285610318565b509392505050565b5f82601f83011261037b5761037a610258565b5b813561038b848260208601610326565b91505092915050565b5f819050919050565b6103a681610394565b81146103b0575f80fd5b50565b5f813590506103c18161039d565b92915050565b5f80604083850312156103dd576103dc610250565b5b5f83013567ffffffffffffffff8111156103fa576103f9610254565b5b61040685828601610367565b9250506020610417858286016103b3565b9150509250929050565b5f819050919050565b61043381610421565b811461043d575f80fd5b50565b5f8135905061044e8161042a565b92915050565b5f6020828403121561046957610468610250565b5b5f61047684828501610440565b91505092915050565b61048881610421565b82525050565b5f81519050919050565b5f82825260208201905092915050565b8281835e5f83830152505050565b5f6104c08261048e565b6104ca8185610498565b93506104da8185602086016104a8565b6104e381610260565b840191505092915050565b6104f781610394565b82525050565b5f73ffffffffffffffffffffffffffffffffffffffff82169050919050565b5f610526826104fd565b9050919050565b6105368161051c565b82525050565b5f608083015f8301516105515f86018261047f565b506020830151848203602086015261056982826104b6565b915050604083015161057e60408601826104ee565b506060830151610591606086018261052d565b508091505092915050565b5f6020820190508181035f8301526105b4818461053c565b905092915050565b6105c581610421565b82525050565b5f82825260208201905092915050565b5f6105e58261048e565b6105ef81856105cb565b93506105ff8185602086016104a8565b61060881610260565b840191505092915050565b61061c81610394565b82525050565b61062b8161051c565b82525050565b5f6080820190506106445f8301876105bc565b818103602083015261065681866105db565b90506106656040830185610613565b6106726060830184610622565b95945050505050565b7f4e487b71000000000000000000000000000000000000000000000000000000005f52601160045260245ffd5b5f6106b282610421565b91506106bd83610421565b92508282019050828112155f8312168382125f8412151617156106e3576106e261067b565b5b92915050565b7f4e487b71000000000000000000000000000000000000000000000000000000005f52602260045260245ffd5b5f600282049050600182168061072d57607f821691505b6020821081036107405761073f6106e9565b5b50919050565b5f819050815f5260205f209050919050565b5f6020601f8301049050919050565b5f82821b905092915050565b5f600883026107a27fffffffffffffffffffffffffffffffffffffffffffffffffffffffffffffffff82610767565b6107ac8683610767565b95508019841693508086168417925050509392505050565b5f819050919050565b5f6107e76107e26107dd84610394565b6107c4565b610394565b9050919050565b5f819050919050565b610800836107cd565b61081461080c826107ee565b848454610773565b825550505050565b5f90565b61082861081c565b6108338184846107f7565b505050565b5b818110156108565761084b5f82610820565b600181019050610839565b5050565b601f82111561089b5761086c81610746565b61087584610758565b81016020851015610884578190505b61089861089085610758565b830182610838565b50505b505050565b5f82821c905092915050565b5f6108bb5f19846008026108a0565b1980831691505092915050565b5f6108d383836108ac565b9150826002028217905092915050565b6108ec8261048e565b67ffffffffffffffff81111561090557610904610270565b5b61090f8254610716565b61091a82828561085a565b5f60209050601f83116001811461094b575f8415610939578287015190505b61094385826108c8565b8655506109aa565b601f19841661095986610746565b5f5b828110156109805784890151825560018201915060208501945060208101905061095b565b8683101561099d5784890151610999601f8916826108ac565b8355505b6001600288020188555050505b50505050505056fea26469706673582212209e3ceefc427ca8caccc5252c79439a081b6591e0f107ddd3a9b48717c11c6ca464736f6c634300081a0033",
			"opcodes": "PUSH1 0x80 PUSH1 0x40 MSTORE CALLVALUE DUP1 ISZERO PUSH1 0xE JUMPI PUSH0 DUP1 REVERT JUMPDEST POP PUSH2 0x9E8 DUP1 PUSH2 0x1C PUSH0 CODECOPY PUSH0 RETURN INVALID PUSH1 0x80 PUSH1 0x40 MSTORE CALLVALUE DUP1 ISZERO PUSH2 0xF JUMPI PUSH0 DUP1 REVERT JUMPDEST POP PUSH1 0x4 CALLDATASIZE LT PUSH2 0x3F JUMPI PUSH0 CALLDATALOAD PUSH1 0xE0 SHR DUP1 PUSH4 0x29F34DD2 EQ PUSH2 0x43 JUMPI DUP1 PUSH4 0x3C9DABCD EQ PUSH2 0x5F JUMPI DUP1 PUSH4 0xF2020275 EQ PUSH2 0x8F JUMPI JUMPDEST PUSH0 DUP1 REVERT JUMPDEST PUSH2 0x5D PUSH1 0x4 DUP1 CALLDATASIZE SUB DUP2 ADD SWAP1 PUSH2 0x58 SWAP2 SWAP1 PUSH2 0x3C7 JUMP JUMPDEST PUSH2 0xB0 JUMP JUMPDEST STOP JUMPDEST PUSH2 0x79 PUSH1 0x4 DUP1 CALLDATASIZE SUB DUP2 ADD SWAP1 PUSH2 0x74 SWAP2 SWAP1 PUSH2 0x454 JUMP JUMPDEST PUSH2 0x136 JUMP JUMPDEST PUSH1 0x40 MLOAD PUSH2 0x86 SWAP2 SWAP1 PUSH2 0x59C JUMP JUMPDEST PUSH1 0x40 MLOAD DUP1 SWAP2 SUB SWAP1 RETURN JUMPDEST PUSH2 0x97 PUSH2 0x14B JUMP JUMPDEST PUSH1 0x40 MLOAD PUSH2 0xA7 SWAP5 SWAP4 SWAP3 SWAP2 SWAP1 PUSH2 0x631 JUMP JUMPDEST PUSH1 0x40 MLOAD DUP1 SWAP2 SUB SWAP1 RETURN JUMPDEST PUSH0 DUP1 PUSH0 ADD SLOAD SUB PUSH2 0x132 JUMPI PUSH1 0x1 PUSH0 DUP1 ADD PUSH0 DUP3 DUP3 SLOAD PUSH2 0xCD SWAP2 SWAP1 PUSH2 0x6A8 JUMP JUMPDEST SWAP3 POP POP DUP2 SWAP1 SSTORE POP DUP2 PUSH0 PUSH1 0x1 ADD SWAP1 DUP2 PUSH2 0xE5 SWAP2 SWAP1 PUSH2 0x8E3 JUMP JUMPDEST POP DUP1 PUSH0 PUSH1 0x2 ADD DUP2 SWAP1 SSTORE POP CALLER PUSH0 PUSH1 0x3 ADD PUSH0 PUSH2 0x100 EXP DUP2 SLOAD DUP2 PUSH20 0xFFFFFFFFFFFFFFFFFFFFFFFFFFFFFFFFFFFFFFFF MUL NOT AND SWAP1 DUP4 PUSH20 0xFFFFFFFFFFFFFFFFFFFFFFFFFFFFFFFFFFFFFFFF AND MUL OR SWAP1 SSTORE POP JUMPDEST POP POP JUMP JUMPDEST PUSH2 0x13E PUSH2 0x20C JUMP JUMPDEST DUP2 PUSH0 DUP1 ADD DUP2 SWAP1 SSTORE POP SWAP2 SWAP1 POP JUMP JUMPDEST PUSH0 DUP1 PUSH0 ADD SLOAD SWAP1 DUP1 PUSH1 0x1 ADD DUP1 SLOAD PUSH2 0x160 SWAP1 PUSH2 0x716 JUMP JUMPDEST DUP1 PUSH1 0x1F ADD PUSH1 0x20 DUP1 SWAP2 DIV MUL PUSH1 0x20 ADD PUSH1 0x40 MLOAD SWAP1 DUP2 ADD PUSH1 0x40 MSTORE DUP1 SWAP3 SWAP2 SWAP1 DUP2 DUP2 MSTORE PUSH1 0x20 ADD DUP3 DUP1 SLOAD PUSH2 0x18C SWAP1 PUSH2 0x716 JUMP JUMPDEST DUP1 ISZERO PUSH2 0x1D7 JUMPI DUP1 PUSH1 0x1F LT PUSH2 0x1AE JUMPI PUSH2 0x100 DUP1 DUP4 SLOAD DIV MUL DUP4 MSTORE SWAP2 PUSH1 0x20 ADD SWAP2 PUSH2 0x1D7 JUMP JUMPDEST DUP3 ADD SWAP2 SWAP1 PUSH0 MSTORE PUSH1 0x20 PUSH0 KECCAK256 SWAP1 JUMPDEST DUP2 SLOAD DUP2 MSTORE SWAP1 PUSH1 0x1 ADD SWAP1 PUSH1 0x20 ADD DUP1 DUP4 GT PUSH2 0x1BA JUMPI DUP3 SWAP1 SUB PUSH1 0x1F AND DUP3 ADD SWAP2 JUMPDEST POP POP POP POP POP SWAP1 DUP1 PUSH1 0x2 ADD SLOAD SWAP1 DUP1 PUSH1 0x3 ADD PUSH0 SWAP1 SLOAD SWAP1 PUSH2 0x100 EXP SWAP1 DIV PUSH20 0xFFFFFFFFFFFFFFFFFFFFFFFFFFFFFFFFFFFFFFFF AND SWAP1 POP DUP5 JUMP JUMPDEST PUSH1 0x40 MLOAD DUP1 PUSH1 0x80 ADD PUSH1 0x40 MSTORE DUP1 PUSH0 DUP2 MSTORE PUSH1 0x20 ADD PUSH1 0x60 DUP2 MSTORE PUSH1 0x20 ADD PUSH0 DUP2 MSTORE PUSH1 0x20 ADD PUSH0 PUSH20 0xFFFFFFFFFFFFFFFFFFFFFFFFFFFFFFFFFFFFFFFF AND DUP2 MSTORE POP SWAP1 JUMP JUMPDEST PUSH0 PUSH1 0x40 MLOAD SWAP1 POP SWAP1 JUMP JUMPDEST PUSH0 DUP1 REVERT JUMPDEST PUSH0 DUP1 REVERT JUMPDEST PUSH0 DUP1 REVERT JUMPDEST PUSH0 DUP1 REVERT JUMPDEST PUSH0 PUSH1 0x1F NOT PUSH1 0x1F DUP4 ADD AND SWAP1 POP SWAP2 SWAP1 POP JUMP JUMPDEST PUSH32 0x4E487B7100000000000000000000000000000000000000000000000000000000 PUSH0 MSTORE PUSH1 0x41 PUSH1 0x4 MSTORE PUSH1 0x24 PUSH0 REVERT JUMPDEST PUSH2 0x2A6 DUP3 PUSH2 0x260 JUMP JUMPDEST DUP2 ADD DUP2 DUP2 LT PUSH8 0xFFFFFFFFFFFFFFFF DUP3 GT OR ISZERO PUSH2 0x2C5 JUMPI PUSH2 0x2C4 PUSH2 0x270 JUMP JUMPDEST JUMPDEST DUP1 PUSH1 0x40 MSTORE POP POP POP JUMP JUMPDEST PUSH0 PUSH2 0x2D7 PUSH2 0x247 JUMP JUMPDEST SWAP1 POP PUSH2 0x2E3 DUP3 DUP3 PUSH2 0x29D JUMP JUMPDEST SWAP2 SWAP1 POP JUMP JUMPDEST PUSH0 PUSH8 0xFFFFFFFFFFFFFFFF DUP3 GT ISZERO PUSH2 0x302 JUMPI PUSH2 0x301 PUSH2 0x270 JUMP JUMPDEST JUMPDEST PUSH2 0x30B DUP3 PUSH2 0x260 JUMP JUMPDEST SWAP1 POP PUSH1 0x20 DUP2 ADD SWAP1 POP SWAP2 SWAP1 POP JUMP JUMPDEST DUP3 DUP2 DUP4 CALLDATACOPY PUSH0 DUP4 DUP4 ADD MSTORE POP POP POP JUMP JUMPDEST PUSH0 PUSH2 0x338 PUSH2 0x333 DUP5 PUSH2 0x2E8 JUMP JUMPDEST PUSH2 0x2CE JUMP JUMPDEST SWAP1 POP DUP3 DUP2 MSTORE PUSH1 0x20 DUP2 ADD DUP5 DUP5 DUP5 ADD GT ISZERO PUSH2 0x354 JUMPI PUSH2 0x353 PUSH2 0x25C JUMP JUMPDEST JUMPDEST PUSH2 0x35F DUP5 DUP3 DUP6 PUSH2 0x318 JUMP JUMPDEST POP SWAP4 SWAP3 POP POP POP JUMP JUMPDEST PUSH0 DUP3 PUSH1 0x1F DUP4 ADD SLT PUSH2 0x37B JUMPI PUSH2 0x37A PUSH2 0x258 JUMP JUMPDEST JUMPDEST DUP2 CALLDATALOAD PUSH2 0x38B DUP5 DUP3 PUSH1 0x20 DUP7 ADD PUSH2 0x326 JUMP JUMPDEST SWAP2 POP POP SWAP3 SWAP2 POP POP JUMP JUMPDEST PUSH0 DUP2 SWAP1 POP SWAP2 SWAP1 POP JUMP JUMPDEST PUSH2 0x3A6 DUP2 PUSH2 0x394 JUMP JUMPDEST DUP2 EQ PUSH2 0x3B0 JUMPI PUSH0 DUP1 REVERT JUMPDEST POP JUMP JUMPDEST PUSH0 DUP2 CALLDATALOAD SWAP1 POP PUSH2 0x3C1 DUP2 PUSH2 0x39D JUMP JUMPDEST SWAP3 SWAP2 POP POP JUMP JUMPDEST PUSH0 DUP1 PUSH1 0x40 DUP4 DUP6 SUB SLT ISZERO PUSH2 0x3DD JUMPI PUSH2 0x3DC PUSH2 0x250 JUMP JUMPDEST JUMPDEST PUSH0 DUP4 ADD CALLDATALOAD PUSH8 0xFFFFFFFFFFFFFFFF DUP2 GT ISZERO PUSH2 0x3FA JUMPI PUSH2 0x3F9 PUSH2 0x254 JUMP JUMPDEST JUMPDEST PUSH2 0x406 DUP6 DUP3 DUP7 ADD PUSH2 0x367 JUMP JUMPDEST SWAP3 POP POP PUSH1 0x20 PUSH2 0x417 DUP6 DUP3 DUP7 ADD PUSH2 0x3B3 JUMP JUMPDEST SWAP2 POP POP SWAP3 POP SWAP3 SWAP1 POP JUMP JUMPDEST PUSH0 DUP2 SWAP1 POP SWAP2 SWAP1 POP JUMP JUMPDEST PUSH2 0x433 DUP2 PUSH2 0x421 JUMP JUMPDEST DUP2 EQ PUSH2 0x43D JUMPI PUSH0 DUP1 REVERT JUMPDEST POP JUMP JUMPDEST PUSH0 DUP2 CALLDATALOAD SWAP1 POP PUSH2 0x44E DUP2 PUSH2 0x42A JUMP JUMPDEST SWAP3 SWAP2 POP POP JUMP JUMPDEST PUSH0 PUSH1 0x20 DUP3 DUP5 SUB SLT ISZERO PUSH2 0x469 JUMPI PUSH2 0x468 PUSH2 0x250 JUMP JUMPDEST JUMPDEST PUSH0 PUSH2 0x476 DUP5 DUP3 DUP6 ADD PUSH2 0x440 JUMP JUMPDEST SWAP2 POP POP SWAP3 SWAP2 POP POP JUMP JUMPDEST PUSH2 0x488 DUP2 PUSH2 0x421 JUMP JUMPDEST DUP3 MSTORE POP POP JUMP JUMPDEST PUSH0 DUP2 MLOAD SWAP1 POP SWAP2 SWAP1 POP JUMP JUMPDEST PUSH0 DUP3 DUP3 MSTORE PUSH1 0x20 DUP3 ADD SWAP1 POP SWAP3 SWAP2 POP POP JUMP JUMPDEST DUP3 DUP2 DUP4 MCOPY PUSH0 DUP4 DUP4 ADD MSTORE POP POP POP JUMP JUMPDEST PUSH0 PUSH2 0x4C0 DUP3 PUSH2 0x48E JUMP JUMPDEST PUSH2 0x4CA DUP2 DUP6 PUSH2 0x498 JUMP JUMPDEST SWAP4 POP PUSH2 0x4DA DUP2 DUP6 PUSH1 0x20 DUP7 ADD PUSH2 0x4A8 JUMP JUMPDEST PUSH2 0x4E3 DUP2 PUSH2 0x260 JUMP JUMPDEST DUP5 ADD SWAP2 POP POP SWAP3 SWAP2 POP POP JUMP JUMPDEST PUSH2 0x4F7 DUP2 PUSH2 0x394 JUMP JUMPDEST DUP3 MSTORE POP POP JUMP JUMPDEST PUSH0 PUSH20 0xFFFFFFFFFFFFFFFFFFFFFFFFFFFFFFFFFFFFFFFF DUP3 AND SWAP1 POP SWAP2 SWAP1 POP JUMP JUMPDEST PUSH0 PUSH2 0x526 DUP3 PUSH2 0x4FD JUMP JUMPDEST SWAP1 POP SWAP2 SWAP1 POP JUMP JUMPDEST PUSH2 0x536 DUP2 PUSH2 0x51C JUMP JUMPDEST DUP3 MSTORE POP POP JUMP JUMPDEST PUSH0 PUSH1 0x80 DUP4 ADD PUSH0 DUP4 ADD MLOAD PUSH2 0x551 PUSH0 DUP7 ADD DUP3 PUSH2 0x47F JUMP JUMPDEST POP PUSH1 0x20 DUP4 ADD MLOAD DUP5 DUP3 SUB PUSH1 0x20 DUP7 ADD MSTORE PUSH2 0x569 DUP3 DUP3 PUSH2 0x4B6 JUMP JUMPDEST SWAP2 POP POP PUSH1 0x40 DUP4 ADD MLOAD PUSH2 0x57E PUSH1 0x40 DUP7 ADD DUP3 PUSH2 0x4EE JUMP JUMPDEST POP PUSH1 0x60 DUP4 ADD MLOAD PUSH2 0x591 PUSH1 0x60 DUP7 ADD DUP3 PUSH2 0x52D JUMP JUMPDEST POP DUP1 SWAP2 POP POP SWAP3 SWAP2 POP POP JUMP JUMPDEST PUSH0 PUSH1 0x20 DUP3 ADD SWAP1 POP DUP2 DUP2 SUB PUSH0 DUP4 ADD MSTORE PUSH2 0x5B4 DUP2 DUP5 PUSH2 0x53C JUMP JUMPDEST SWAP1 POP SWAP3 SWAP2 POP POP JUMP JUMPDEST PUSH2 0x5C5 DUP2 PUSH2 0x421 JUMP JUMPDEST DUP3 MSTORE POP POP JUMP JUMPDEST PUSH0 DUP3 DUP3 MSTORE PUSH1 0x20 DUP3 ADD SWAP1 POP SWAP3 SWAP2 POP POP JUMP JUMPDEST PUSH0 PUSH2 0x5E5 DUP3 PUSH2 0x48E JUMP JUMPDEST PUSH2 0x5EF DUP2 DUP6 PUSH2 0x5CB JUMP JUMPDEST SWAP4 POP PUSH2 0x5FF DUP2 DUP6 PUSH1 0x20 DUP7 ADD PUSH2 0x4A8 JUMP JUMPDEST PUSH2 0x608 DUP2 PUSH2 0x260 JUMP JUMPDEST DUP5 ADD SWAP2 POP POP SWAP3 SWAP2 POP POP JUMP JUMPDEST PUSH2 0x61C DUP2 PUSH2 0x394 JUMP JUMPDEST DUP3 MSTORE POP POP JUMP JUMPDEST PUSH2 0x62B DUP2 PUSH2 0x51C JUMP JUMPDEST DUP3 MSTORE POP POP JUMP JUMPDEST PUSH0 PUSH1 0x80 DUP3 ADD SWAP1 POP PUSH2 0x644 PUSH0 DUP4 ADD DUP8 PUSH2 0x5BC JUMP JUMPDEST DUP2 DUP2 SUB PUSH1 0x20 DUP4 ADD MSTORE PUSH2 0x656 DUP2 DUP7 PUSH2 0x5DB JUMP JUMPDEST SWAP1 POP PUSH2 0x665 PUSH1 0x40 DUP4 ADD DUP6 PUSH2 0x613 JUMP JUMPDEST PUSH2 0x672 PUSH1 0x60 DUP4 ADD DUP5 PUSH2 0x622 JUMP JUMPDEST SWAP6 SWAP5 POP POP POP POP POP JUMP JUMPDEST PUSH32 0x4E487B7100000000000000000000000000000000000000000000000000000000 PUSH0 MSTORE PUSH1 0x11 PUSH1 0x4 MSTORE PUSH1 0x24 PUSH0 REVERT JUMPDEST PUSH0 PUSH2 0x6B2 DUP3 PUSH2 0x421 JUMP JUMPDEST SWAP2 POP PUSH2 0x6BD DUP4 PUSH2 0x421 JUMP JUMPDEST SWAP3 POP DUP3 DUP3 ADD SWAP1 POP DUP3 DUP2 SLT ISZERO PUSH0 DUP4 SLT AND DUP4 DUP3 SLT PUSH0 DUP5 SLT ISZERO AND OR ISZERO PUSH2 0x6E3 JUMPI PUSH2 0x6E2 PUSH2 0x67B JUMP JUMPDEST JUMPDEST SWAP3 SWAP2 POP POP JUMP JUMPDEST PUSH32 0x4E487B7100000000000000000000000000000000000000000000000000000000 PUSH0 MSTORE PUSH1 0x22 PUSH1 0x4 MSTORE PUSH1 0x24 PUSH0 REVERT JUMPDEST PUSH0 PUSH1 0x2 DUP3 DIV SWAP1 POP PUSH1 0x1 DUP3 AND DUP1 PUSH2 0x72D JUMPI PUSH1 0x7F DUP3 AND SWAP2 POP JUMPDEST PUSH1 0x20 DUP3 LT DUP2 SUB PUSH2 0x740 JUMPI PUSH2 0x73F PUSH2 0x6E9 JUMP JUMPDEST JUMPDEST POP SWAP2 SWAP1 POP JUMP JUMPDEST PUSH0 DUP2 SWAP1 POP DUP2 PUSH0 MSTORE PUSH1 0x20 PUSH0 KECCAK256 SWAP1 POP SWAP2 SWAP1 POP JUMP JUMPDEST PUSH0 PUSH1 0x20 PUSH1 0x1F DUP4 ADD DIV SWAP1 POP SWAP2 SWAP1 POP JUMP JUMPDEST PUSH0 DUP3 DUP3 SHL SWAP1 POP SWAP3 SWAP2 POP POP JUMP JUMPDEST PUSH0 PUSH1 0x8 DUP4 MUL PUSH2 0x7A2 PUSH32 0xFFFFFFFFFFFFFFFFFFFFFFFFFFFFFFFFFFFFFFFFFFFFFFFFFFFFFFFFFFFFFFFF DUP3 PUSH2 0x767 JUMP JUMPDEST PUSH2 0x7AC DUP7 DUP4 PUSH2 0x767 JUMP JUMPDEST SWAP6 POP DUP1 NOT DUP5 AND SWAP4 POP DUP1 DUP7 AND DUP5 OR SWAP3 POP POP POP SWAP4 SWAP3 POP POP POP JUMP JUMPDEST PUSH0 DUP2 SWAP1 POP SWAP2 SWAP1 POP JUMP JUMPDEST PUSH0 PUSH2 0x7E7 PUSH2 0x7E2 PUSH2 0x7DD DUP5 PUSH2 0x394 JUMP JUMPDEST PUSH2 0x7C4 JUMP JUMPDEST PUSH2 0x394 JUMP JUMPDEST SWAP1 POP SWAP2 SWAP1 POP JUMP JUMPDEST PUSH0 DUP2 SWAP1 POP SWAP2 SWAP1 POP JUMP JUMPDEST PUSH2 0x800 DUP4 PUSH2 0x7CD JUMP JUMPDEST PUSH2 0x814 PUSH2 0x80C DUP3 PUSH2 0x7EE JUMP JUMPDEST DUP5 DUP5 SLOAD PUSH2 0x773 JUMP JUMPDEST DUP3 SSTORE POP POP POP POP JUMP JUMPDEST PUSH0 SWAP1 JUMP JUMPDEST PUSH2 0x828 PUSH2 0x81C JUMP JUMPDEST PUSH2 0x833 DUP2 DUP5 DUP5 PUSH2 0x7F7 JUMP JUMPDEST POP POP POP JUMP JUMPDEST JUMPDEST DUP2 DUP2 LT ISZERO PUSH2 0x856 JUMPI PUSH2 0x84B PUSH0 DUP3 PUSH2 0x820 JUMP JUMPDEST PUSH1 0x1 DUP2 ADD SWAP1 POP PUSH2 0x839 JUMP JUMPDEST POP POP JUMP JUMPDEST PUSH1 0x1F DUP3 GT ISZERO PUSH2 0x89B JUMPI PUSH2 0x86C DUP2 PUSH2 0x746 JUMP JUMPDEST PUSH2 0x875 DUP5 PUSH2 0x758 JUMP JUMPDEST DUP2 ADD PUSH1 0x20 DUP6 LT ISZERO PUSH2 0x884 JUMPI DUP2 SWAP1 POP JUMPDEST PUSH2 0x898 PUSH2 0x890 DUP6 PUSH2 0x758 JUMP JUMPDEST DUP4 ADD DUP3 PUSH2 0x838 JUMP JUMPDEST POP POP JUMPDEST POP POP POP JUMP JUMPDEST PUSH0 DUP3 DUP3 SHR SWAP1 POP SWAP3 SWAP2 POP POP JUMP JUMPDEST PUSH0 PUSH2 0x8BB PUSH0 NOT DUP5 PUSH1 0x8 MUL PUSH2 0x8A0 JUMP JUMPDEST NOT DUP1 DUP4 AND SWAP2 POP POP SWAP3 SWAP2 POP POP JUMP JUMPDEST PUSH0 PUSH2 0x8D3 DUP4 DUP4 PUSH2 0x8AC JUMP JUMPDEST SWAP2 POP DUP3 PUSH1 0x2 MUL DUP3 OR SWAP1 POP SWAP3 SWAP2 POP POP JUMP JUMPDEST PUSH2 0x8EC DUP3 PUSH2 0x48E JUMP JUMPDEST PUSH8 0xFFFFFFFFFFFFFFFF DUP2 GT ISZERO PUSH2 0x905 JUMPI PUSH2 0x904 PUSH2 0x270 JUMP JUMPDEST JUMPDEST PUSH2 0x90F DUP3 SLOAD PUSH2 0x716 JUMP JUMPDEST PUSH2 0x91A DUP3 DUP3 DUP6 PUSH2 0x85A JUMP JUMPDEST PUSH0 PUSH1 0x20 SWAP1 POP PUSH1 0x1F DUP4 GT PUSH1 0x1 DUP2 EQ PUSH2 0x94B JUMPI PUSH0 DUP5 ISZERO PUSH2 0x939 JUMPI DUP3 DUP8 ADD MLOAD SWAP1 POP JUMPDEST PUSH2 0x943 DUP6 DUP3 PUSH2 0x8C8 JUMP JUMPDEST DUP7 SSTORE POP PUSH2 0x9AA JUMP JUMPDEST PUSH1 0x1F NOT DUP5 AND PUSH2 0x959 DUP7 PUSH2 0x746 JUMP JUMPDEST PUSH0 JUMPDEST DUP3 DUP2 LT ISZERO PUSH2 0x980 JUMPI DUP5 DUP10 ADD MLOAD DUP3 SSTORE PUSH1 0x1 DUP3 ADD SWAP2 POP PUSH1 0x20 DUP6 ADD SWAP5 POP PUSH1 0x20 DUP2 ADD SWAP1 POP PUSH2 0x95B JUMP JUMPDEST DUP7 DUP4 LT ISZERO PUSH2 0x99D JUMPI DUP5 DUP10 ADD MLOAD PUSH2 0x999 PUSH1 0x1F DUP10 AND DUP3 PUSH2 0x8AC JUMP JUMPDEST DUP4 SSTORE POP JUMPDEST PUSH1 0x1 PUSH1 0x2 DUP9 MUL ADD DUP9 SSTORE POP POP POP JUMPDEST POP POP POP POP POP POP JUMP INVALID LOG2 PUSH5 0x6970667358 0x22 SLT KECCAK256 SWAP15 EXTCODECOPY 0xEE 0xFC TIMESTAMP PUSH29 0xA8CACCC5252C79439A081B6591E0F107DDD3A9B48717C11C6CA464736F PUSH13 0x634300081A0033000000000000 "
		},
		"gasEstimates": {
			"creation": {
				"codeDepositCost": "507200",
				"executionCost": "541",
				"totalCost": "507741"
			},
			"external": {
				"AddUser(string,uint256)": "infinite",
				"getUsers(int256)": "infinite",
				"users()": "infinite"
			}
		},
		"methodIdentifiers": {
			"AddUser(string,uint256)": "29f34dd2",
			"getUsers(int256)": "3c9dabcd",
			"users()": "f2020275"
		}
	},
	"abi": [
		{
			"inputs": [
				{
					"internalType": "string",
					"name": "_name",
					"type": "string"
				},
				{
					"internalType": "uint256",
					"name": "_insurance_no",
					"type": "uint256"
				}
			],
			"name": "AddUser",
			"outputs": [],
			"stateMutability": "nonpayable",
			"type": "function"
		},
		{
			"inputs": [
				{
					"internalType": "int256",
					"name": "_user_Id",
					"type": "int256"
				}
			],
			"name": "getUsers",
			"outputs": [
				{
					"components": [
						{
							"internalType": "int256",
							"name": "User_ID",
							"type": "int256"
						},
						{
							"internalType": "string",
							"name": "Name",
							"type": "string"
						},
						{
							"internalType": "uint256",
							"name": "Insurance_NO",
							"type": "uint256"
						},
						{
							"internalType": "address",
							"name": "UserAddress",
							"type": "address"
						}
					],
					"internalType": "struct Insurance.Users",
					"name": "",
					"type": "tuple"
				}
			],
			"stateMutability": "nonpayable",
			"type": "function"
		},
		{
			"inputs": [],
			"name": "users",
			"outputs": [
				{
					"internalType": "int256",
					"name": "User_ID",
					"type": "int256"
				},
				{
					"internalType": "string",
					"name": "Name",
					"type": "string"
				},
				{
					"internalType": "uint256",
					"name": "Insurance_NO",
					"type": "uint256"
				},
				{
					"internalType": "address",
					"name": "UserAddress",
					"type": "address"
				}
			],
			"stateMutability": "view",
			"type": "function"
		}
	]
}